:100000000C9455010C9474010C9474010C947401BB
:100010000C9474010C94040E0C94040E0C94740152
:100020000C9474010C9474010C9474010C9474017C
:100030000C9474010C9474010C9474010C9474016C
:100040000C9474010C94BC0E0C9474010C94740107
:100050000C9474010C9474010C9474010C9474014C
:100060000C9474010C9474010C9474010C9474013C
:100070000C9474010C9474010C9474010C9474012C
:100080000C9474010C9474010C9474010C9474011C
:100090000C9474010C947401FF061E0703070C07EF
:1000A00015072D073B0753078107570760076907A7
:1000B00072078F07AF3CC13D6E3DDF3E333E973F39
:1000C000ED3CB33D293D8F3ED93D3B3FBB3C00005D
:1000D00000000000005F00000003000300143E1455
:1000E0003E14242A7F2A124333086661364955227A
:1000F000500005030000001C2241000041221C00AA
:1001000014083E081408083E080800503000000893
:1001100008080808006060000020100804023E5132
:1001200049453E0004027F0042615149462241494F
:1001300049361814127F1027454545393E4949492B
:100140003201017109073649494936264949493E74
:100150000036360000005636000008142241001414
:1001600014141414004122140802015109063E41DE
:1001700059555E7E0909097E7F494949363E41410C
:1001800041227F4141413E7F494949417F09090957
:10019000013E4141493A7F0808087F00417F410004
:1001A000304040403F7F081422417F404040407F24
:1001B000020C027F7F0204087F3E4141413E7F09DD
:1001C0000909061E2121215E7F0909097626494970
:1001D000493201017F01013F4040403F1F20402044
:1001E0001F7F2010207F41221C2241070870080732
:1001F0006151494543007F4100000204081020007E
:1002000000417F00040201020440404040400001E0
:1002100002040020545454787F4444443838444401
:100220004444384444447F385454541804047E05EC
:1002300005085454543C7F0804047800447D400071
:100240002040443D007F1028440000417F40007C56
:10025000047804787C0804047838444444387C14D6
:10026000141408081414147C007C08040448545422
:10027000542004043F44443C4040207C1C20402047
:100280001C3C4030403C44281028440C5050503C0A
:100290004464544C44000836414100007F00004152
:1002A0004136080002010204020011241FBECFEFF4
:1002B000D0E2DEBFCDBF15E0A0E0B1E0ECE3F0E9B5
:1002C00000E00BBF02C007900D92A83BB107D9F721
:1002D0002AE0A8EBB5E001C01D92A633B207E1F712
:1002E0000E94D5430C941C480C940000977025E0A4
:1002F000969587952A95E1F70895892F8695869595
:10030000869590E008958F719927089595E0660F7E
:10031000771F9A95E1F7460F571F20E030E0382FFE
:10032000330F330F330FCA01820F931F08954F927B
:100330005F926F927F928F929F92AF92BF92CF9275
:10034000DF92EF92FF92CF93DF93EC012A013B0102
:10035000BC01672F772766956695669580E090E0EB
:100360000E947F45A30192010E948E4620E030E06A
:1003700040E05FE30E9466440E9450454B015C01EF
:10038000BE01777055E0769567955A95E1F780E064
:1003900090E00E947F45A30192010E948E4620E0DA
:1003A00030E040E05FE30E9466440E9450456B01EC
:1003B0007C01BE016F71772780E090E00E947F454D
:1003C000A30192010E948E4620E030E040E05FE30E
:1003D0000E9466440E94504594012032310510F07D
:1003E0002FE130E04901982C8824990C990C990C44
:1003F0006032710510F06FE170E0680D791DC60183
:100400008034910510F08FE390E025E0880F991F6C
:100410002A95E1F7860F971FDF91CF91FF90EF901C
:10042000DF90CF90BF90AF909F908F907F906F9014
:100430005F904F90089593E89093B00091E090936F
:10044000B1008093B30008959093DA058093D905A5
:1004500026E330E020930040009779F480EF90E0AD
:100460009093D6058093D50580E491E09093D805CC
:100470008093D70588E490E034C08130910579F409
:1004800080E491E09093D6058093D50580EF90E0CD
:100490009093D8058093D70588EE90E022C08230F3
:1004A000910579F480EF90E09093D6058093D5057F
:1004B00080E491E09093D8058093D70588E890E098
:1004C00010C0039781F480E491E09093D605809367
:1004D000D50580EF90E09093D8058093D70588E20A
:1004E00090E0809300418AE290E08093004020E019
:1004F00030E030930041209300418091D5059091E8
:10050000D605019790930041809300418BE290E0E3
:100510008093004030930041209300418091D705A3
:100520009091D805019790930041809300410895E0
:10053000CF93873748F4883048F08D3350F48F31AB
:1005400050F4803150F403C086E703C088E0C3E074
:1005500005C0C0E003C0C1E001C0C2E021EB30E053
:1005600020930040C0930041682F70E080E090E04D
:100570000E9481459B01AC0160E070E080EF94E453
:100580000E94D7440E94504570E002C0759567955F
:10059000CA95E2F760930041CF9108950F931F939E
:1005A000CF93DF93CDB7DEB728970FB6F894DEBFB1
:1005B0000FBECDBF29833A834B835C836D837E83DB
:1005C0008F83988769817A812B813C814D815E81FF
:1005D0008F819885EAE2F0E0E0930040709300415B
:1005E000609300413093004120930041EBE2F0E042
:1005F000E0930040509300414093004190930041AC
:1006000080930041ECE2F0E0E09300402F5F3F4F29
:10061000261B370B0196841B950B2817390790F47E
:10062000482F4770429FB001439F700D112453E043
:10063000969587955A95E1F7829FA001839F500D6B
:10064000112411C0422F4770489FB001499F700D7F
:10065000112443E0369527954A95E1F7289FA0019C
:10066000299F500D1124862F8770815028F01093F8
:10067000004100930041F9CFCB0123E09695879587
:100680002A95E1F7840F951F019708F11093004117
:1006900000930041109300410093004110930041EA
:1006A00000930041109300410093004110930041DA
:1006B00000930041109300410093004110930041CA
:1006C000009300411093004100930041DDCF289634
:1006D0000FB6F894DEBF0FBECDBFDF91CF911F9153
:1006E0000F910895EF92FF920F931F93CF93DF9393
:1006F000CDB7DEB728970FB6F894DEBF0FBECDBFDB
:1007000029833A834B835C836D837E838F839887B1
:1007100089819A81EB80FC806D817E81AF81B88573
:100720002AE230E020930040909300418093004102
:10073000F0920041E09200412BE230E02093004033
:100740007093004160930041B0930041A093004139
:100750002CE230E020930040E816F906A0F0A80152
:100760009B018A01A217B30760F04E5F5F4FF8014B
:100770000081118110930041009300412F5F3F4F92
:10078000F0CF0196E9CF28960FB6F894DEBF0FBEE2
:10079000CDBFDF91CF911F910F91FF90EF90089502
:1007A0000F931F93CF93DF93CDB7DEB728970FB684
:1007B000F894DEBF0FBECDBFE5EDF5E017821682DF
:1007C000118610861A821982808191810197482FA3
:1007D0009C838B831E821D828281938101979887DF
:1007E0008F830485158520E03A815C8160E07E81FD
:1007F00098850E94CE0228960FB6F894DEBF0FBEF1
:10080000CDBFDF91CF911F910F910895CF93DF93CB
:10081000019729F480E8809361001092610086E0DE
:100820008093750080E8809374003F9A249A8FEC3F
:1008300097E00197F1F700C0000047988FE39CE92B
:100840000197F1F700C00000479A9FEF2DEE82E07C
:10085000915020408040E1F700C0000088E290E025
:100860008093004081E190E0809300409FEF26E775
:1008700081E0915020408040E1F700C0000081E01D
:1008800090E02BEC30E0209300408093004120EC7E
:1008900030E02093004028E036E23093004120937E
:1008A000004140E150E021EC30E0209300404093D3
:1008B000004125EC30E0209300402EE335E33093F7
:1008C00000412093004145EB50E027EC30E02093BD
:1008D00000404093004126EF30E020930040809399
:1008E0000041C0E0D0E0D0930041C093004125E535
:1008F00030E08AE390E0809300402093004181E063
:1009000090E00E9424020E94D0031092DC05109215
:10091000DB051092DE051092DD051092E2051092C3
:10092000E1058FEF9FEF9093E0058093DF0589E26B
:1009300090E0809300409FE728E381E091502040C1
:100940008040E1F700C0000085E390E08093004024
:10095000C093004180916A00806280936A002C9A63
:10096000DF91CF9108959F92AF92BF92CF92DF9285
:10097000EF92FF920F931F93CF93DF932091DD05AA
:100980003091DE058A30F9F41092DC051092DB0517
:10099000285F3F4F3093DE052093DD058091D7051A
:1009A0009091D8052817390708F4A5C0DF91CF9199
:1009B0001F910F91FF90EF90DF90CF90BF90AF907D
:1009C0009F900C94D00390EE980F9F3508F093C041
:1009D0006091DB057091DC05A901495F5F4F082E2E
:1009E000000C990B8097E5E0E89FE001E99FD00DAE
:1009F00011248BE290E080930040309300412093DB
:100A000000415093004140930041CB01DB0114961B
:100A10000AE210E0ECE2EE2EF12CA817B90780F103
:100A200000930040909300418093004190930041D7
:100A300080930041E0920040FC01E61BF70BEC0FB5
:100A4000FD1FE253FF4F94906901F1E04C155D05E5
:100A5000A8F0BF2EB92029F0A090DF05B090E005E6
:100A600004C0A090E105B090E205B0920041A092D0
:100A70000041EFEFCE1ADE0AFF0FE8CF0196CDCF8F
:100A80006AE270E0609300409093004180930041DF
:100A900090930041809300418CE290E0809300406D
:100AA0004217530758F08091E1059091E205909329
:100AB0000041809300412F5F3F4FF2CF8091DB05D3
:100AC0009091DC0506969093DC058093DB052091E0
:100AD000D5053091D6058217930768F01092DC0592
:100AE0001092DB058091DD059091DE0508969093CC
:100AF000DE058093DD05DF91CF911F910F91FF906F
:100B0000EF90DF90CF90BF90AF909F9008950F939C
:100B10001F93CF938C01C0E0F801EC0FF11D808191
:100B2000882321F00E94B304CF5FF6CFCF911F91AD
:100B30000F910895E5EDF5E09783868371876087CF
:100B40000895E5EDF5E093878287758764870895BA
:100B50000F931F93CF938C017093DC056093DB059B
:100B60005093DE054093DD05C0E0F801EC0FF11D68
:100B70008081882321F00E94B304CF5FF6CFCF910C
:100B80001F910F9108954F925F926F927F928F9273
:100B90009F92AF92BF92CF92DF92EF92FF92CF934C
:100BA000DF9300D000D000D0CDB7DEB76B017C0161
:100BB0005E834D839B01AC0160E070E080E89FE3C1
:100BC0000E9465444B015C0120E030E040E450E4C9
:100BD0000E948E4669837A838B839C83A50194014E
:100BE000C501B4010E948E46A50194010E948E4663
:100BF0002B013C01ED81FE816081718180E090E0FC
:100C00000E947F459B01AC01C301B2010E948E4648
:100C10002B013C0129813A814B815C81C501B401E2
:100C20000E948E46A70196010E948E464B015C01F0
:100C3000ED81FE816281738180E090E00E947F45BA
:100C40009B01AC01C501B4010E948E469B01AC0121
:100C5000C301B2010E9466444B015C0129813A81C3
:100C60004B815C81C701B6010E948E46A7019601A7
:100C70000E948E462B013C01ED81FE8164817581CD
:100C800080E090E00E947F459B01AC01C301B2016E
:100C90000E948E469B01AC01C501B4010E946644CE
:100CA0004B015C01A7019601C701B6010E948E4667
:100CB000A70196010E948E466B017C01ED81FE81A9
:100CC0006681778180E090E00E947F459B01AC01C6
:100CD000C701B6010E948E469B01AC01C501B4015B
:100CE0000E9466440E944945072E000C880B990B10
:100CF0000E94814520E030E040E05FE30E946644CE
:100D00000E944945CB0126960FB6F894DEBF0FBE70
:100D1000CDBFDF91CF91FF90EF90DF90CF90BF904C
:100D2000AF909F908F907F906F905F904F900895BD
:100D3000CF92DF92EF92FF926B017C0120E030E0D6
:100D4000A9010E94D24487FF11C0C701B6010E94C9
:100D5000BC459B01AC01C701B6010E9465449B01E3
:100D6000AC0160E070E080E89FE308C0C701B60115
:100D70000E94BC459B01AC01C701B6010E946544BD
:100D8000FF90EF90DF90CF9008950E9498069B010E
:100D9000AC0160E070E080E89FE30E946544089544
:100DA000CF92DF92EF92FF920F931F93FC0100818D
:100DB000118122813381FB01C080D180E280F380E8
:100DC000FC01C082D182E282F382FB0100831183A5
:100DD000228333831F910F91FF90EF90DF90CF908C
:100DE0000895CF93DF93DC01EB01FA013197E730EF
:100DF000F10508F047C0E45BFF4F0C940D448D9162
:100E00009C91119733C08D919C91119791958195EB
:100E100091098D939C9336C08D919C9111979195DA
:100E2000819591098D939C9326C08D919C911197EA
:100E300091958195910911969C938E9388819981C2
:100E4000919581959109998388832D913C91119772
:100E50008D939C933983288315C08D919C91119714
:100E600091958195910911969C938E932881398152
:100E70002D933C9305C08881998191958195910925
:100E800099838883DF91CF910895CF93DF93DC011D
:100E9000EB01FA013197E730F10508F047C0ED5A50
:100EA000FF4F0C940D448D919C91119733C08D91FF
:100EB0009C9111979195819591098D939C9336C042
:100EC0008D919C9111979195819591098D939C930A
:100ED00026C08D919C9111979195819591091196BC
:100EE0009C938E938881998191958195910999839D
:100EF00088832D913C9111978D939C9339832883FE
:100F000015C08D919C91119791958195910911969C
:100F10009C938E93288139812D933C9305C08881C1
:100F2000998191958195910999838883DF91CF91DA
:100F30000895FC0120813181FB0140815181FC0138
:100F400051834083FB01318320830895CF92DF9248
:100F5000EF92FF920F931F93CF93DF938901061BAC
:100F6000170BEA01C81BD90BB801012E000C880B26
:100F7000990B0E9481456B017C01E894F7F8BE0152
:100F80000D2E000C880B990B0E9481459B01AC0132
:100F90005F77C701B6010E948946181694F417FFBF
:100FA00009C02D2F221F2227221F86E090E0821BDE
:100FB000910918C08D2F881F8827881F90E00196FF
:100FC00011C017FF05C0D7FD08C087E090E00AC038
:100FD000D7FD06C080E090E005C084E090E002C04C
:100FE00083E090E0DF91CF911F910F91FF90EF9000
:100FF000DF90CF9008952AE230E020930040909354
:1010000000418093004190930041809300418BE226
:1010100090E0809300407093004160930041709392
:101020000041609300418CE290E080930040509337
:1010300000414093004108952F923F924F925F925A
:101040006F927F928F929F92AF92BF92CF92DF92D8
:10105000EF92FF920F931F93CF93DF93CDB7DEB73D
:10106000A6970FB6F894DEBF0FBECDBF2B013C0193
:1010700069837A838B839C83298B3A8B4B8B5C8B24
:101080002D833E834F835887ED8AFE8A0F8B188FFE
:10109000E986FA860B871C87C601B501AD86BE8638
:1010A000CF86D88A14010E9465446B017C01E894C4
:1010B000F7F8A30192016D897E898F89988D0E942E
:1010C00065449B01AC015F77C701B6010E9465448E
:1010D000698F7A8F8B8F9C8F20E030E0A9010E946E
:1010E0008946181674F4BE016F5F7F4FCE010596D6
:1010F0000E94D006BE01675F7F4FCE010D960E9411
:10110000D00629853A854B855C8569817A818B81FA
:101110009C810E948946181674F4BE01675F7F4F58
:10112000CE0101960E94D006BE016B5F7F4FCE01BB
:101130000D960E94D006C980DA80EB80FC804D803D
:101140005E806F807884A30192016D857E858F8596
:1011500098890E9465444B015C01A701960169854D
:101160007A858B859C850E9465449B01AC01C501F5
:10117000B4010E94D7446D8F7E8F8F8F98A320E09B
:1011800030E040E05FE3C701B6010E9466444B01D6
:101190005C010E944945698B7A8B8B8B9C8B2989DA
:1011A0003A89B901330F880B990B0E948145A70139
:1011B00096010E9465442D8D3E8D4F8D58A10E9451
:1011C0008E46A30192010E9466446B017C01C50119
:1011D000B4010E94C5064B015C01C701B6010E9423
:1011E00050452B013C0120E030E0A901698D7A8D4A
:1011F0008B8D9C8D0E9489461816C4F5C701B601D7
:101200000E94C5069B01AC01C501B4010E948E4637
:1012100020E030E040E85FE30E946644AB01BC019F
:10122000C1010E949701AC0169897A89C2010E94BB
:10123000FB07C701B6010E9498069B01AC01C501DE
:10124000B4010E948E4620E030E040E85FE30E9457
:101250006644AB01BC01C1010E9497013FEF431AF4
:10126000530AAC0169897A89C20136C0C701B60147
:101270000E94C5069B01AC01C501B4010E948E46C7
:1012800020E030E040E85FE30E946644AB01BC012F
:10129000C1010E949701AC01B20189899A890E941B
:1012A000FB07C701B6010E9498069B01AC01C5016E
:1012B000B4010E948E4620E030E040E85FE30E94E7
:1012C0006644AB01BC01C1010E949701B2016F5F8E
:1012D0007F4FAC0189899A890E94FB07A70196017B
:1012E0006D8D7E8D8F8D98A10E9466442B013C01EF
:1012F000C984DA84EB84FC8420E030E040E05FE3E2
:10130000C701B6010E9466444B015C010E94494539
:101310006D8B7E8B8F8B988F2D893E89B901330F12
:10132000880B990B0E948145A70196010E94654494
:101330002D8D3E8D4F8D58A10E948E462D853E8568
:101340004F8558890E9466446B017C01C501B40138
:101350000E94C5064B015C018D899E899EA38DA3C9
:10136000C701B6010E94504569A37AA38BA39CA331
:1013700020E030E0A901698D7A8D8B8D9C8D0E94D3
:101380008946181664F5C701B6010E94C5069B017F
:10139000AC01C501B4010E948E46AB01BC01C10184
:1013A0000E949701AC016D897E8989A19AA10E9452
:1013B000FB07C701B6010E9498069B01AC01C5015D
:1013C000B4010E948E46AB01BC01C1010E9497018D
:1013D000AC0189A19AA101966D897E892CC0C701B3
:1013E000B6010E94C5069B01AC01C501B4010E9473
:1013F0008E46AB01BC01C1010E949701AC0169A1FD
:101400007AA18D899E890E94FB07C701B6010E94BF
:1014100098069B01AC01C501B4010E948E46AB0148
:10142000BC01C1010E94970169A17AA16F5F7F4F42
:10143000AC018D899E890E94FB0709891A890F5F7B
:101440001F4F8DA19EA10817190708F05FC020E06B
:1014500030E0A901698D7A8D8B8D9C8D0E94894623
:1014600018162CF5C301B2010E94C506AB01BC01E0
:10147000C1010E9497017C01C301B2010E94504545
:101480004B015C01A701B801C4010E94FB07C30125
:10149000B2010E949806AB01BC01C1010E949701F4
:1014A0002FEF821A920AAC01B801C40122C0C30115
:1014B000B2010E94C506AB01BC01C1010E949701A7
:1014C0007C01C301B2010E9450454B015C01A701A0
:1014D000C8010E94FB07C301B2010E949806AB013C
:1014E000BC01C1010E949701B4016F5F7F4FAC0145
:1014F000C8010E94FB072D8D3E8D4F8D58A1C30161
:10150000B2010E9466442B013C0199CFA6960FB60A
:10151000F894DEBF0FBECDBFDF91CF911F910F9129
:10152000FF90EF90DF90CF90BF90AF909F908F9003
:101530007F906F905F904F903F902F9008952F92E3
:101540003F924F925F926F927F928F929F92AF9253
:10155000BF92CF92DF92EF92FF920F931F93CF93A0
:10156000DF93CDB7DEB760970FB6F894DEBF0FBE3E
:10157000CDBF9E838D8378876F835A8749873C8749
:101580002B871801A8010E94FB072B853C85498504
:101590005A856F8178858D819E810E94A6075C01A6
:1015A000AC01BE01695F7F4FCE0105960E944507E1
:1015B000A501BE01655F7F4FCE0109960E944507D8
:1015C0008F8098840D811E8189859A85801B910B5F
:1015D000CB84DC84C818D908CC0CDD1C0D2C000C85
:1015E000EE08FF08AC01092E000C660B770B2601F4
:1015F0003701441A550A660A770A0F5F1F4F880F92
:10160000991F9C01990F440B550B2D873E874F87DF
:10161000588B89859A858017910774F1D301C2018F
:101620008C0D9D1DAE1DBF1D77FE03C02C013D011D
:101630000DC03FEF831A930A2C013D012D853E8595
:101640004F855889421A530A640A750A1C830B8312
:101650009A828982A501BE016F5F7F4FCE010396FA
:101660000E94F10669817A81A1018B819C810E948F
:10167000FB070F5F1F4FCDCF60960FB6F894DEBF0C
:101680000FBECDBFDF91CF911F910F91FF90EF90D3
:10169000DF90CF90BF90AF909F908F907F906F9092
:1016A0005F904F903F902F9008952F923F924F92CE
:1016B0005F926F927F928F929F92AF92BF92CF92E2
:1016C000DF92EF92FF920F931F93CF93DF93CDB7EB
:1016D000DEB728970FB6F894DEBF0FBECDBF6C0102
:1016E0005B014A0128013901AC0160E070E0CB01E7
:1016F0000E94C305382E292EA50160E070E0CB01C1
:101700000E94C30589839A83780168867F8220E0DE
:1017100030E040E85FE3B201C3010E9466449B01F0
:10172000AC01B70188859F810E94D24487FF2BC0FE
:10173000A601B70188859F810E94C3058B839C8386
:10174000A501B70188859F810E94C3058D839E8373
:1017500084019C014B815C8169817A81832D922D6A
:101760000E949F0A9201A301B70188859F810E9470
:1017700066447B0188879F838D8189838E818A83DC
:101780003B802C80C4CF28960FB6F894DEBF0FBEE6
:10179000CDBFDF91CF911F910F91FF90EF90DF9020
:1017A000CF90BF90AF909F908F907F906F905F9001
:1017B0004F903F902F9008952F923F924F925F92BB
:1017C0006F927F928F929F92AF92BF92CF92DF9251
:1017D000EF92FF920F931F93CF93DF93CDB7DEB7B6
:1017E0002C970FB6F894DEBF0FBECDBF9C838B83C2
:1017F0007E836D835A874987922E832EAC0160E0E9
:1018000070E0CB010E94C3057C014D815E8160E0E8
:1018100070E0CB010E94C3055C019801492D582D51
:1018200060E070E080E89FE30E94D74420E030E071
:1018300040EC5FE30E9466440E9450457A836983CE
:101840009B01220F331F38872F83C9010E94FB465B
:10185000782E692E8F8198850E94FB466C018B87BC
:10186000DC86EB85FC85A192B192FC87EB87A72CE7
:10187000B62CF501E192F1925F01502E412E140138
:10188000EE24E394F12C89819A81E816F90678F523
:101890004B815C81652D742D832D922D0E94C30593
:1018A00098878F834D815E81652D742D832D922DB8
:1018B0000E94C305EB85FC8581939193FC87EB87A0
:1018C000F5012F813885219331935F019801492DCE
:1018D000582D652D742D832D922D0E946644562E11
:1018E000472E382E292E3FEFE31AF30ACCCFCB82B6
:1018F000DC82E72CF62C812C912C5C0191E0A91A5A
:10190000B1088A149B04E0F4EFEF8E1A9E0AAB81B3
:10191000BC81F70112962D913C911397CD0102964F
:101920009C838B834281538192E0E90EF11C6D917F
:101930007C9109851A85808191810E949F0AE1CF5F
:10194000C6010E949347872D962D2C960FB6F894CA
:10195000DEBF0FBECDBFDF91CF911F910F91FF90E2
:10196000EF90DF90CF90BF90AF909F908F907F903F
:101970006F905F904F903F902F900C9493472F92D1
:101980003F924F925F926F927F928F929F92AF920F
:10199000BF92CF92DF92EF92FF920F931F93CF935C
:1019A000DF9300D000D000D0CDB7DEB75C014B0193
:1019B0008A017901C12CD12C1E821D828D819E81CC
:1019C000081719070CF464C0A7014D805E80480C0D
:1019D000591CB201C8018A0D9B1D9C838B830E94F8
:1019E000FB07A7013801680C791CB3018D819E812A
:1019F0008A0D9B1D9A8389830E94FB07A701B3016F
:101A000015018D819E81281A390AC1010E94FB07A8
:101A1000A701B2013501601A710AC3010E94FB07D8
:101A2000A70124018D819E81481A590AB201C30180
:101A30000E94FB07A7013401601A710AB301C101BA
:101A40000E94FB07A701B30189819A810E94FB07CD
:101A5000A701B2018B819C810E94FB071C141D040D
:101A600074F08D819E8101969E838D83880F991FCE
:101A70000196C80ED91E1C141D040CF09FCF0150F6
:101A80001109C801880F991F0196C81AD90A96CF63
:101A900026960FB6F894DEBF0FBECDBFDF91CF9173
:101AA0001F910F91FF90EF90DF90CF90BF90AF907C
:101AB0009F908F907F906F905F904F903F902F906E
:101AC00008954F925F926F927F928F929F92AF9202
:101AD000BF92CF92DF92EF92FF920F931F93CF931B
:101AE000DF93EC017B016A0159014B01820E931EC9
:101AF0003C01640E751EA801B401C3010E94FB07DE
:101B00002E014C185D08A801B401C2010E94FB0718
:101B100047018A189B08A801B401C3010E94FB0772
:101B2000A801B401C2010E94FB0747018C0C9D1C57
:101B300035016C0E7D1EA801B401C3010E94FB0794
:101B4000CA19DB09A801B401CE010E94FB07EC18F9
:101B5000FD08A801B701C3010E94FB07A801B70156
:101B6000CE01DF91CF911F910F91FF90EF90DF9009
:101B7000CF90BF90AF909F908F907F906F905F902D
:101B80004F900C94FB078DB18F748DB98EB1806B23
:101B90008EB987B1837C87B988B18C6388B9EAE64E
:101BA000F0E080818568808308958CB1807349F46A
:101BB0009091B905903281F09091B9059031E1F49E
:101BC00013C08033C9F49091B905903129F09091F8
:101BD000B905903289F408C09091B805915090935E
:101BE000B8058033A1F306C09091B8059F5F90932C
:101BF000B80502C0882301F38093B9058091B80528
:101C0000089586B18C7308951F920F920FB60F92AC
:101C100011240BB60F922F933F934F935F936F93C3
:101C20007F938F939F93AF93BF93EF93FF930E9404
:101C3000D50D87EC90E00197F1F700C00000FF910F
:101C4000EF91BF91AF919F918F917F916F915F9134
:101C50004F913F912F910F900BBE0F900FBE0F90A1
:101C60001F9018953F924F925F926F927F928F9242
:101C70009F92AF92BF92CF92DF92EF92FF920F931B
:101C80001F93CF93DF93CDB7DEB728970FB6F894A5
:101C9000DEBF0FBECDBF3C01322E2EE1629F600140
:101CA000112488E2C80ED11C2EE1429F700111243C
:101CB000512C570183E0A80EB11CC601412C4C01E8
:101CC00023E0820E911C252D240DF301E20FF11D5E
:101CD0002081213391F4282F9A838983482D9C8277
:101CE0008B826E2DFE82ED82B886AF8200E010E01E
:101CF0003A815C817E818A2D1AC02033D9F49A837F
:101D000089839C828B82FE82ED82B886AF8201E05D
:101D100010E0311002C000E010E0119501951109AA
:101D200029813A814B815C816D817E818F8198858B
:101D30000E94CE024394C4012AE04212C0CF520E48
:101D4000750184E65812B5CF28960FB6F894DEBF19
:101D50000FBECDBFDF91CF911F910F91FF90EF90FC
:101D6000DF90CF90BF90AF909F908F907F906F90BB
:101D70005F904F903F9008951F920F920FB60F9271
:101D800011242F938F939F938091B805882379F125
:101D900090912C0A90932E0A80912D0A80932F0AFD
:101DA0002091B80512166CF4992311F0915010C0CF
:101DB0008823C1F0815080932D0A87E080932C0AFC
:101DC00011C02091B80527FF0DC0973020F49F5F08
:101DD00090932C0A07C0873028F48F5F80932D0AD8
:101DE00010922C0A81E08093BA051092B8059F9159
:101DF0008F912F910F900FBE0F901F901895FF920B
:101E00000F931F93CF93DF93122FD32FC42FB52F90
:101E1000F62FE72FF82E092FAFEF0E944D44212314
:101E20003D234C235B236F237E23E1E08F2190230E
:101E3000A0E00E94594409F4E0E08E2FDF91CF9199
:101E40001F910F91FF90089597E0961B28E0929FB5
:101E5000800D11240895282F26952695269597E024
:101E6000921BFA0190838770FB01808308950F9382
:101E70001F93CF93DF93CDB7DEB728970FB6F894B3
:101E8000DEBF0FBECDBFF8948AE5282F86EE482F1F
:101E90008EE6682F82E800EA1EEF30E050E070E046
:101EA00090E00E94CE028CE5282F89831A8284EE6E
:101EB000482F8B831C8280E7682F8D831E8280E8E9
:101EC0008F83188600E010E030E050E070E090E092
:101ED0000E94CE0245E750E062E870E081EE94E0B7
:101EE0000E94A805789428960FB6F894DEBF0FBE1E
:101EF000CDBFDF91CF911F910F9108950F931F9345
:101F0000CF93DF93CDB7DEB728970FB6F894DEBF37
:101F10000FBECDBFF8948AE5282F86EE482F8EE6B7
:101F2000682F82E800EA1EEF30E050E070E090E0B9
:101F30000E94CE028CE5282F89831A8284EE482FD6
:101F40008B831C8280E7682F8D831E8280E88F83BD
:101F5000188600E010E030E050E070E090E00E9471
:101F6000CE0245E750E062E870E08BEE94E00E941C
:101F7000A805789428960FB6F894DEBF0FBECDBFA3
:101F8000DF91CF911F910F9108950F931F93CF93DE
:101F9000DF93CDB7DEB760970FB6F894DEBF0FBE04
:101FA000CDBFF8948AE291E09A8789878EE291E02A
:101FB0009C878B878091BC05882319F02FED30E03A
:101FC00002C027E130E03E872D87882311F083EEA1
:101FD00001C08BE190E08F87988B00E010E02985AD
:101FE0003A854B855C856D857E850E94CE028AE2AE
:101FF00091E09A8389838EE291E09C838B83809128
:10200000BC05813019F02FED30E002C027E130E04F
:102010003E832D83813011F083EE01C08BE190E08F
:102020008F8398870FEF1FEF29813A814B815C8165
:102030006D817E810E94CE02789460960FB6F894EE
:10204000DEBF0FBECDBFDF91CF911F910F910895DD
:102050000F931F93CF93DF93CDB7DEB728970FB6BB
:10206000F894DEBF0FBECDBF8A012EE1829FC00172
:102070001124DC0198968A5B9F4F482F9C838B83A9
:102080008EE1689FF0011124CF014E9698878F83CF
:102090002A2FBA83A9836E2FFE83ED833A815C8158
:1020A0007E8198850E94CE0228960FB6F894DEBFF6
:1020B0000FBECDBFDF91CF911F910F9108950F9368
:1020C0001F93CF93DF9300E010E0C0E0D0E0C801A1
:1020D0008C0F9D1F80FD03C04CE255EF02C042E211
:1020E0005AE86C2F802F0E9428102196C830D10505
:1020F00071F70F5F1F4F0830110539F7DF91CF914E
:102100001F910F910895462F98E0899FF0011124A7
:10211000E551FA4FE60FF11D2081222319F19FEFBF
:10212000920F963058F430E02150310994E6929F96
:10213000F001939FF00D112421E00EC099EF920F52
:10214000963080F430E02750310994E6929FF001F8
:10215000939FF00D112420E0682FCF018F5E9E4FDA
:102160000C94320E08950F931F93CF938091BA056C
:10217000882309F46FC0F894B0912E0AC0912F0AF9
:102180008B2F8C0F80FD03C00CE215EF02C002E222
:102190001AE887E08C1BEB2F98E0899FE00D112453
:1021A00088E0E89FF0011124E55DF74F20818091E0
:1021B000E305282331818091E40538234281809111
:1021C000E505482353818091E60558236481809179
:1021D000E705682375818091E8057823A6818091C1
:1021E000E905E7819091EA058A239E23A0E00E94F9
:1021F000594431F08091BB05882311F002ED17E9B5
:1022000080912B0A813051F48091300AB81306C0B6
:102210008091310AC81302C000E014E0A8016C2FBD
:102220008B2F0E94281060912F0A80912E0A0E9405
:10223000831048E156EC60912D0A80912C0A0E948F
:10224000281060912D0A80912C0A0E948310109210
:10225000BA057894CF911F910F910895EF92FF9254
:102260000F931F93CF93DF93CBE2D8E010E087E08A
:10227000E82E288139814A815B816C817D818E8144
:102280009F812896E091E3052E23E091E4053E230B
:10229000E091E5054E23E091E6055E23E091E70538
:1022A0006E23E091E8057E23F091E905E091EA05CF
:1022B0008F239E23A0E00E945944C9F0812F869568
:1022C00086958695FE2CF81A012F0770802F8F0DAA
:1022D00080FD03C04CE255EF02C042E25AE86F2D88
:1022E000802F0E9428106F2D802F0E9483101F5F67
:1022F000103409F0BECF1092E3051092E40510925D
:10230000E5051092E6051092E7051092E805109297
:10231000E9051092EA05DF91CF911F910F91FF908F
:10232000EF900895EF92FF920F931F93CF93DF9357
:10233000CBE2D8E010E087E0E82E288139814A819D
:102340005B816C817D818E819F812896E091E30580
:102350002E23E091E4053E23E091E5054E23E09134
:10236000E6055E23E091E7056E23E091E8057E2314
:10237000F091E905E091EA058F239E23A0E00E94F9
:10238000594491F0812F869586958695FE2CF81AF2
:1023900042ED57E96F2D012F0770802F0E94281002
:1023A0006F2D802F0E9483101F5F103431F6DF9154
:1023B000CF911F910F91FF90EF900895CF93DF93EE
:1023C000D0E0C0E06C2F8D2F0E948310CF5FC8300B
:1023D000C9F7DF5FD830A9F7DF91CF9108950F9348
:1023E0001F93CF93DF9305EF14E0C0E0F801D19184
:1023F0008F01DD2379F08FE0C89FB00111246A5E60
:102400007F4F8FE090E00E949A058D2F0E94B304C9
:10241000CF5FECCFDF91CF911F910F9108950F9374
:102420001F93CF93DF93CDB7DEB728970FB6F894FD
:10243000DEBF0FBECDBFF8941A82198280E4482F08
:102440001E821D8280EF0CE215EF20E03A8151E000
:1024500060E07E8190E00E94CE0282E090E0282F32
:102460003EE3432F682F8EEE00E010E030E051E0B5
:1024700070E00E94CE0248E250E06CE370E083E03E
:1024800095E00E94A80549E650E06CE370E08BE11E
:1024900095E00E94A8054DE750E06CE370E08CE207
:1024A00095E00E94A80542ED50E06CE370E08FE4F7
:1024B00095E00E94A80584EB282F89831A8289EB76
:1024C000482F8B831C8289E6682F8D831E828EE6BF
:1024D0008F8318860FEF1FEF30E050E070E090E040
:1024E0000E94CE02789428960FB6F894DEBF0FBEF5
:1024F000CDBFDF91CF911F910F910895122FF32E31
:10250000E42ED52EC62EB72EA82E992EF894C0E014
:10251000D0E087E0882E8C2F869586958695F82DBD
:10252000F81BEC2FE770212F3F2D4E2D5D2D6C2DCC
:102530007B2D8A2D992D0C2F0E943144217030E083
:1025400040E050E060E070E080E090E0A0E00E94B9
:10255000594419F04FEF5FEF02C040E154E86F2F8C
:102560008E2F0E9428102196C034D105A1F6FFCFEE
:102570003F924F925F926F927F928F929F92AF9213
:10258000BF92CF92DF92EF92FF920F931F93CF9360
:10259000DF937C0110922B0A10922C0A10922D0AC4
:1025A00010922E0A10922F0AE0E0F0E0412C57E042
:1025B000352E14E068E0D62E7BE0C72EAAE0BA2EB6
:1025C000B9E0AB2ECCE09C2ED2E08D2E05E0702E33
:1025D00083E0682E96E0592ED701A40DB11D8C9191
:1025E000882309F42FC3932D9E1B0F2F28E0929F61
:1025F000000D1124AF2FB0E0823509F463C10CF057
:102600008FC08E3409F49DC10CF045C0823409F4AA
:10261000D7C18B3409F00EC321E030E040E050E038
:1026200060E070E080E090E00E94164400915B065C
:10263000202B00915C06302B00915D06402B009111
:102640005E06502B00915F06602B00916006702B98
:1026500000916106802B00916206902B20935B060F
:1026600030935C0640935D0650935E0660935F0670
:10267000709360068093610690936206CD01C3E07B
:10268000880F991FCA95E1F785519A4F8E0F911DBA
:10269000EC015882CFC2803509F4D4C0813509F0ED
:1026A000C9C221E030E040E050E060E070E080E04E
:1026B00090E00E94164400915306202B009154068E
:1026C000302B00915506402B00915606502B00915F
:1026D0005706602B00915806702B00915906802BED
:1026E00000915A06902B2093530630935406409342
:1026F000550650935606609357067093580680937C
:10270000590690935A06CD01D3E0880F991FDA95A8
:10271000E1F785519A4F8E0F911DEC0178828AC2A4
:102720008E3609F4CBC10CF045C0823609F405C2DF
:102730008B3609F07FC221E030E040E050E060E0FD
:1027400070E080E090E00E94164400918B06202B00
:1027500000918C06302B00918D06402B00918E0647
:10276000502B00918F06602B00919006702B0091EA
:102770009106802B00919206902B20938B0630932C
:102780008C0640938D0650938E0660938F0670934F
:1027900090068093910690939206CD0123E0880FD6
:1027A000991F2A95E1F785519A4F8E0F911DEC01E3
:1027B000988240C2813709F4FFC1823709F43FC1D2
:1027C000803709F037C221E030E040E050E060E0BF
:1027D00070E080E090E00E94164400916306202B98
:1027E00000916406302B00916506402B009166062F
:1027F000502B00916706602B00916806702B0091AA
:102800006906802B00916A06902B20936306309313
:10281000640640936506509366066093670670935E
:1028200068068093690690936A06CD0173E0880F6D
:10283000991F7A95E1F785519A4F8E0F911DEC0102
:102840003882F8C121E030E040E050E060E070E024
:1028500080E090E00E94164400913306202B009106
:102860003406302B00913506402B00913606502B54
:1028700000913706602B00913806702B00913906C5
:10288000802B00913A06902B209333063093340628
:10289000409335065093360660933706709338069A
:1028A0008093390690933A06CD0143E0880F991F33
:1028B0004A95E1F785519A4F8E0F911D21E0EC0169
:1028C0002883B8C121E030E040E050E060E070E0F3
:1028D00080E090E00E94164400914B06202B00916E
:1028E0004C06302B00914D06402B00914E06502B8C
:1028F00000914F06602B00915006702B00915106FD
:10290000802B00915206902B20934B0630934C065F
:1029100040934D0650934E0660934F0670935006B9
:102920008093510690935206CD0133E0880F991F92
:102930003A95E1F785519A4F8E0F911DEC0118835E
:1029400079C121E030E040E050E060E070E080E0FC
:1029500090E00E94164400913B06202B00913C061B
:10296000302B00913D06402B00913E06502B0091EC
:102970003F06602B00914006702B00914106802B92
:1029800000914206902B20933B0630933C064093E7
:102990003D0650933E0660933F0670934006809339
:1029A000410690934206CD0123E0880F991F2A9596
:1029B000E1F785519A4F8E0F911DEC0188823AC143
:1029C00021E030E040E050E060E070E080E090E046
:1029D0000E94164400914306202B00914406302BA0
:1029E00000914506402B00914606502B009147066A
:1029F000602B00914806702B00914906802B0091B6
:102A00004A06902B20934306309344064093450694
:102A10005093460660934706709348068093490694
:102A200090934A06CD0103E0880F991F0A95E1F7BC
:102A300085519A4F8E0F911DEC016882FBC021E0F9
:102A400030E040E050E060E070E080E090E00E9424
:102A5000164400917B06202B00917C06302B0091C0
:102A60007D06402B00917E06502B00917F06602B47
:102A700000918006702B00918106802B00918206C8
:102A8000902B20937B0630937C0640937D065093D9
:102A90007E0660937F0670938006809381069093F4
:102AA0008206CD0163E0880F991F6A95E1F7855191
:102AB0009A4F8E0F911DEC01B882BCC021E030E02E
:102AC00040E050E060E070E080E090E00E9416445A
:102AD00000916B06202B00916C06302B00916D0647
:102AE000402B00916E06502B00916F06602B0091D9
:102AF0007006702B00917106802B00917206902B4E
:102B000020936B0630936C0640936D0650936E06CF
:102B100060936F06709370068093710690937206AF
:102B2000CD0153E0880F991F5A95E1F785519A4FCF
:102B30008E0F911DEC01D8827DC021E030E040E095
:102B400050E060E070E080E090E00E941644009168
:102B50007306202B00917406302B00917506402BD4
:102B600000917606502B00917706602B0091780635
:102B7000702B00917906802B00917A06902B209380
:102B800073063093740640937506509376066093EF
:102B90007706709378068093790690937A06CD0134
:102BA00043E0880F991F4A95E1F785519A4F8E0FA0
:102BB000911DEC01A8823EC021E030E040E050E0F1
:102BC00060E070E080E090E00E941644009183068F
:102BD000202B00918406302B00918506402B00911C
:102BE0008606502B00918706602B00918806702B7B
:102BF00000918906802B00918A06902B20938306F2
:102C0000309384064093850650938606609387062A
:102C1000709388068093890690938A06CD0133E0ED
:102C2000880F991F3A95E1F785519A4F8E0F911DA4
:102C3000EC01C88217971CF0EF5FF0E001C0FF5F66
:102C40004394CACC7091330680914B06782B6091E7
:102C5000340680914C06682B5091350680914D06C4
:102C6000582B4091360680914E06482B30913706FE
:102C700080914F06382B2091380680915006282BE2
:102C80009091390680915106982BE0913A068091F7
:102C900052068E2BE0913B067E2BE0913C066E2B7C
:102CA000E0913D065E2BE0913E064E2BE0913F0603
:102CB0003E2BE09140062E2BE09141069E2BE091A9
:102CC00042068E2BE09143067E2BE09144066E2B4C
:102CD000E09145065E2BE09146064E2BE0914706BB
:102CE0003E2BE09148062E2BE09149069E2BE09169
:102CF0004A068E2BE09153067E2BE09154066E2BF4
:102D0000E09155065E2BE09156064E2BE09157065A
:102D10003E2BE09158062E2BE09159069E2BE09118
:102D20005A068E2B10915B06712BD0915C066D2B91
:102D3000C0915D065C2B00915E06402BB0915F0652
:102D40003B2BA09160062A2BF09161069F2BE0910E
:102D500062068E2B709393066093940650939506AB
:102D60004093960630939706209398069093990681
:102D700080939A0610916306E0917B061E2BD091FA
:102D80006406E0917C06DE2BC0916506E0917D062D
:102D9000CE2B00916606E0917E060E2BB091670661
:102DA000E0917F06BE2BA0916806E0918006AE2BD5
:102DB000F0916906E0918106FE2BF0906A06E091A1
:102DC0008206EF29F0906B061F29F0906C06DF2930
:102DD000F0906D06CF29F0906E060F29F0906F06E7
:102DE000BF29F0907006AF29F0907106FF29F0908E
:102DF0007206EF29F09073061F29F0907406DF2900
:102E0000F0907506CF29F09076060F29F09077069E
:102E1000BF29F0907806AF29F0907906FF29F0904D
:102E20007A06EF29F09083061F29F0908406DF29A7
:102E3000F0908506CF29B0908606B02AC09087060C
:102E4000CB2AD0908806DA2AE0908906EF2AF09003
:102E50008A06FE2AE0918B061E2BE0918C06DE2B63
:102E6000E0918D06CE2B00918E060B29B0918F0636
:102E7000BC29A0919006AD29F0919106FE29E09120
:102E80009206EF2910939B06D0939C06C0939D0653
:102E900000939E06B0939F06A093A006F093A10610
:102EA000E093A206712B6D2B5C2B042BB32BA22B72
:102EB000F92BE82B7093A3066093A4065093A50604
:102EC0000093A606B093A706A093A806F093A906C0
:102ED000E093AA06EBE2F8E0A0E0B0E021E030E009
:102EE00040E050E060E070E080E090E00A2F0E9457
:102EF000164420833183428353836483758386839E
:102F0000978338961196A034B10541F7DF91CF91A0
:102F10001F910F91FF90EF90DF90CF90BF90AF90F7
:102F20009F908F907F906F905F904F903F9008950B
:102F30002F923F924F925F926F927F928F929F92C9
:102F4000AF92BF92CF92DF92EF92FF920F931F93B7
:102F5000CF93DF93CDB7DEB765970FB6F894DEBF9A
:102F60000FBECDBF39014A016D8B7C8BB82FA92FC5
:102F7000A88AB98A0A8B1B8B822F8F778983872D2A
:102F80008F778A83842F8F778B83892D8F778C839C
:102F9000162F1F77872F8F778D838B2F8F778E83B9
:102FA000892F8F778F83822F8E7F8887872D8E7FC3
:102FB0008987842F8E7F8A87892D8E7F8B87862FA6
:102FC0008E7F8C87872F8E7F8D878B2F8E7F8E872E
:102FD000892F8E7F8F878B2F08E00E94164419015E
:102FE0002A015B01F82FE92F9301A4016D897C89E7
:102FF0008B2F9A2F0E943144222A332A442A552AA1
:10300000A62AB72AF82BE92B288539854A855B85BE
:103010006C857D858E859F8507E00E941644222A57
:10302000332A442A552AA62AB72AF82BE92B2981C4
:103030003A814B815C81612F7D818E819F8109E086
:103040000E941644222A332A442A552AA62AB72A3D
:10305000F82BE92B29813A814B815C81612F7D819D
:103060008E819F8101E00E941644222A332A442A3D
:10307000552AA62AB72AF82BE92B29813A814B81B8
:103080005C81612F7D818E819F8107E00E943144A8
:10309000222A332A442A552AA62AB72AF82BE92BB2
:1030A000288539854A855B856C857D858E859F85DC
:1030B00009E00E943144222A332A442A552AA62AAA
:1030C000B72AF82BE92B288539854A855B856C85DD
:1030D0007D858E859F8501E00E943144222A332A16
:1030E000442A552AA62AB72AF82BE92B28892095A5
:1030F000A989A095C094D094E094F0948A89809591
:103100009B8990952221332D3A23442D4C21552D16
:103110005D216A2D6E217B2D7F218F239E23659655
:103120000FB6F894DEBF0FBECDBFDF91CF911F91D8
:103130000F91FF90EF90DF90CF90BF90AF909F9056
:103140008F907F906F905F904F903F902F90089559
:103150002F923F924F925F926F927F928F929F92A7
:10316000AF92BF92CF92DF92EF92FF920F931F9395
:10317000CF93DF93CDB7DEB765970FB6F894DEBF78
:103180000FBECDBFE22FEC7FE983E32FEC7FEA8314
:10319000E42FEC7FEB83E52FEC7FEC83E62FEC7FD5
:1031A000ED83E72FEC7FEE83E82FEC7FEF83E92FB1
:1031B000EC7FE887E22FEE7FE987E32FEE7FEA8757
:1031C000E42FEE7FEB87E52FEE7FEC87E62FEE7F97
:1031D000ED87E72FEE7FEE87E82FEE7FEF87E92F71
:1031E000EE7FE88BE22FEF772E2EE32FEF773E2E48
:1031F000E42FEF774E2EE52FEF775E2EE62FEF7759
:103200006E2EE72FEF77E98BE82FEF77EA8BE92F28
:10321000EF77EB8B2F73D22E3F73E32E4F73F42E89
:10322000152F1F736F736D8B7F737C8BB82FBF73DC
:10323000A92FAF7329813A814B815C816D817E8199
:103240008F81988506E00E941644722E832E942E5C
:10325000A52EB62EC72EF82FE92F29853A854B8546
:103260005C856D857E858F8598890FE00E94164468
:10327000722A832A942AA52AB62AC72AF82BE92B70
:103280009101A201662D79898A899B8901E10E94B9
:103290001644722A832A942AA52AB62AC72AF82B0A
:1032A000E92B2D2D3E2D4F2D512F6D897C898B2F94
:1032B0009A2F0AE00E941644722A832A942AA52A89
:1032C000B62AC72AF82BE92B2D2D3E2D4F2D512F35
:1032D0006D897C898B2F9A2F06E00E943144722AD7
:1032E000832A942AA52AB62AC72AF82BE92B91010A
:1032F000A201662D79898A899B890FE00E94314459
:10330000722A832A942AA52AB62AC72AF82BE92BDF
:1033100029853A854B855C856D857E858F85988965
:1033200001E10E943144722A832A942AA52AB62AEE
:10333000C72AF82BE92B29813A814B815C816D8169
:103340007E818F8198850AE00E943144272938299F
:1033500049295A296B297C298F2B9E2B65960FB6FC
:10336000F894DEBF0FBECDBFDF91CF911F910F91BB
:10337000FF90EF90DF90CF90BF90AF909F908F9095
:103380007F906F905F904F903F902F900895AF92F5
:10339000BF92CF92DF92EF92FF920F931F930E9402
:1033A000A818A094B094C094D094E094F0940095A0
:1033B00010952A213B214C215D216E217F21802304
:1033C00091231F910F91FF90EF90DF90CF90BF90CE
:1033D000AF9008957F928F929F92AF92BF92CF92BB
:1033E000DF92EF92FF920F931F93CF93DF93D22F31
:1033F000C32FB42FA52FF62FE72FF82E192F2E7FCE
:103400003E7F4E7F5E7F6E7F7E7F8E7F9E7F07E05A
:103410000E941644722E832E942EA52EB62EC72EF1
:10342000D82EE92E2D2F2F773C2F3F774B2F4F771C
:103430005A2F5F776F2F6F777E2F7F778F2D8F7744
:10344000912F9F7709E00E9416442729382949299E
:103450005A296B297C298D299E29DF91CF911F91B3
:103460000F91FF90EF90DF90CF90BF90AF909F9023
:103470008F907F9008952F923F924F925F926F921C
:103480007F928F929F92AF92BF92CF92DF92EF92F4
:10349000FF920F931F93CF93DF93CDB7DEB768975B
:1034A0000FB6F894DEBF0FBECDBF2F8B39834A8392
:1034B0005B83688F7C838E8B9D8BEBE2F6E003EA67
:1034C00016E0D8012C9120952D8311963C911197EF
:1034D00030953E8312964C91129740954F831396E8
:1034E0005C9113975095588714966C91149760953A
:1034F000698715967C91159770957A8716968C91A9
:10350000169780958B8717969C9190959C872F890D
:1035100039814A815B81688D7C818E899D8908E033
:103520000E941644BD81B223BE87AE81A323AF871C
:10353000BF81B423BD87A885A523A88BB985B623F1
:10354000B98BAA85A723AA8BBB85B823BB8BAC8577
:10355000A923AC8B20AD80910301282331AD80914C
:103560000401382342AD80910501482353AD809179
:103570000601582364AD80910701682375AD8091E1
:103580000801782316AD80910901E7AD90910A01F9
:1035900081239E230E94164449015A016B017C013C
:1035A000188D1E7F20E030E040E050E0612F70E099
:1035B00080E090E007E00E94164419012A013B01D7
:1035C000F82FE92FA88DAF7720E030E040E050E001
:1035D0006A2F70E080E090E009E00E941644222A01
:1035E000332A442A552A662A772A8F2B9E2B82203B
:1035F00039204A205B20C620D720E822F9222F89D3
:103600002E7F39813E7F4A814E7F5B815E7F7C8148
:103610007E7F612F8E898E7F9D899E7F07E00E942D
:1036200016443901942EA52EB62EF72FE82F192F08
:103630002F892F7739813F774A814F775B815F7779
:103640007C817F776A2F8E898F779D899F7709E0AC
:103650000E941644622A732A942AA52AB62AF72BB6
:103660008E2B912BABE9B6E02C91622211963C9106
:103670001197732212964C911297942213965C9193
:103680001397A52214966C911497B62215967C91E7
:103690001597F7231696EC911697E82317961C9129
:1036A0001923682873289428A528BC28FD29EE2909
:1036B0001F298092C5053092C6054092C7055092D9
:1036C000C805C092C905D092CA05E092CB05F09218
:1036D000CC0520E030E04D8550E060E070E080E017
:1036E00090E008E00E941644BD812B23AE813A236E
:1036F000BF814B23A8855A23B9856B23AA857A23DA
:10370000BB858B23AC859A23BE856B2AAF857A2A2D
:10371000BD859B2AA889AA2AB989BB2AAA89FA2B1E
:10372000BB89EB2BAC891A2B2629372949295A2921
:103730006B297F2B8E2B912B68960FB6F894DEBFEA
:103740000FBECDBFDF91CF911F910F91FF90EF90F2
:10375000DF90CF90BF90AF909F908F907F906F90B1
:103760005F904F903F902F9008957F928F929F92FD
:10377000AF92BF92CF92DF92EF92FF920F931F937F
:10378000CF93DF93D22FC32FB42FA52FF62FE72F80
:10379000F82E192F2E7F3E7F4E7F5E7F6E7F7E7FBD
:1037A0008E7F9E7F09E00E943144722E832E942EDC
:1037B000A52EB62EC72ED82EE92E2D2F2F773C2FD3
:1037C0003F774B2F4F775A2F5F776F2F6F777E2F73
:1037D0007F778F2D8F77912F9F7707E00E9431445D
:1037E0002729382949295A296B297C298D299E297D
:1037F000DF91CF911F910F91FF90EF90DF90CF90CD
:10380000BF90AF909F908F907F9008952F923F929E
:103810004F925F926F927F928F929F92AF92BF92E0
:10382000CF92DF92EF92FF920F931F93CF93DF938C
:10383000CDB7DEB768970FB6F894DEBF0FBECDBF29
:103840002F8B39834A83588F6B837C838E8B9D8B20
:10385000EBE2F6E003EA16E0D8012C9120952D83E7
:1038600011963C91119730953E8312964C91129788
:1038700040954F8313965C911397509558871496F3
:103880006C9114976095698715967C911597709542
:103890007A8716968C91169780958B8717969C91B0
:1038A00090959C872F8939814A81588D6B817C81C5
:1038B0008E899D8908E00E943144BD81B223BE8774
:1038C000AE81A323AF87BF81B423B88BA885A5237E
:1038D000A98BB985B623BA8BAA85A723AD87BB85EB
:1038E000B823BB8BAC85A923AC8B208580910301C9
:1038F0002823318580910401382342858091050178
:1039000048235385809106015823648580910701DF
:1039100068237585809108017823168580910901B7
:10392000E78590910A0181239E230E943144490139
:103930005A016B017C01188D1E7F20E030E040E0D1
:10394000512F60E070E080E090E009E00E94314497
:1039500019012A013B01F82FE92FA88DAF7720E04C
:1039600030E040E05A2F60E070E080E090E007E057
:103970000E943144222A332A442A552A662A772A69
:103980008F2B9E2B822039204A205B20C620D720F7
:10399000E822F9222F892E7F39813E7F4A814E7F8E
:1039A0006B816E7F7C817E7F512F8E898E7F9D897A
:1039B0009E7F09E00E9431443901942EA52EB62E37
:1039C000F72FE82F192F2F892F7739813F774A81D9
:1039D0004F776B816F777C817F775A2F8E898F77B6
:1039E0009D899F7707E00E943144622A732A942AB6
:1039F000A52AB62AF72B8E2B912BA3E9B6E02C91A2
:103A0000622211963C911197732212964C91129753
:103A1000942213965C911397A52214966C91149797
:103A2000B62215967C911597F7231696EC9116976A
:103A3000E82317961C911923682873289428A52831
:103A4000BC28FD29EE291F298092C5053092C605A4
:103A50004092C7055092C805C092C905D092CA05C8
:103A6000E092CB05F092CC0520E030E040E050E061
:103A700060E07D8580E090E008E00E943144BD81F7
:103A80002B23AE813A23BF814B23A8855A23B985C6
:103A90006B23AA857A23BB858B23AC859A23BE85AD
:103AA0006B2AAF857A2AB8899B2AA989AA2ABA895A
:103AB000BB2AAD85FA2BBB89EB2BAC891A2B2629A7
:103AC000372949295A296B297F2B8E2B912B6896F0
:103AD0000FB6F894DEBF0FBECDBFDF91CF911F911F
:103AE0000F91FF90EF90DF90CF90BF90AF909F909D
:103AF0008F907F906F905F904F903F902F900895A0
:103B00002F923F924F925F926F927F928F929F92ED
:103B1000AF92BF92CF92DF92EF92FF920F931F93DB
:103B2000CF93DF93CDB7DEB760970FB6F894DEBFC3
:103B30000FBECDBF2B833C834D835E836F8378871D
:103B400089879A87612EEBE2F8E010E0712C812CD6
:103B5000912C1E861D861F8619821A822081318132
:103B60004281538164817581868197813896BB81BA
:103B70002B23BC813B23BD814B23BE815B23BF81B3
:103B80006B23B8857B23B9858B23BA859B23A0E063
:103B90000E94594409F429C1512E412E27E32415CE
:103BA0000CF43FC028E0420E88E0489E90011124AA
:103BB000255D374FD9013C9011962C9011971296A4
:103BC0004C91129713965C91139714966C911497DD
:103BD00015967C91159716968C91169717969C9131
:103BE00073288228942ABE85B52BBE87BD85B62B47
:103BF000BD87BF85B72BBF87B981B82BB983BA8181
:103C0000B92BBA83232D2A21322D3B214C215D2152
:103C10006E217F2180239621A0E00E94594409F45F
:103C2000BDCF412E27E024150CF03FC038EF430EE6
:103C300088E0489E90011124255D374FD9013C90C2
:103C400011962C90119712964C91129713965C91A5
:103C5000139714966C91149715967C911597169658
:103C60008C91169717969C9173288228942ABE856A
:103C7000B52BBE87BD85B62BBD87BF85B72BBF874C
:103C8000B981B82BB983BA81B92BBA832A2D2321E4
:103C90003B2D32214C215D216E217F2180239621F5
:103CA000A0E00E94594409F4BDCF312F387F332E54
:103CB00087E0830F412EA82FB0E0BC87AB87842D0F
:103CC000042C000C990B2B853C85821793070CF074
:103CD00041C04394B42D88E0B80290011124255DC1
:103CE000374FD9012C901196BC91B88BD9011296FF
:103CF0004C91129713965C91139714966C911497AC
:103D000015967C91159716968C91169717969C91FF
:103D10007228B8898B2A942ABE85B52BBE87BD85AB
:103D2000B62BBD87BF85B72BBF87B981B82BB983A9
:103D3000BA81B92BBA832A2D222138893B214C2103
:103D40005D216E217F2180239621A0E00E945944AD
:103D500009F4B5CF232C312C852D052C000C990BA3
:103D6000281639060CF041C05A94852D98E0890236
:103D700090011124255D374FD9014C901196BC91CB
:103D8000BB87D90112964C91129713965C911397A9
:103D900014966C91149715967C91159716968C91A4
:103DA000169717969C917428BB858B2A942ABE85FA
:103DB000B52BBE87BD85B62BBD87BF85B72BBF870B
:103DC000B981B82BB983BA81B92BBA832A2D2421A2
:103DD0003B853B214C215D216E217F218023962153
:103DE000A0E00E94594409F4B7CF1F5F103409F0D6
:103DF000B5CE272D382D492D5E856D857F8589812E
:103E00009A8160960FB6F894DEBF0FBECDBFDF91EA
:103E1000CF911F910F91FF90EF90DF90CF90BF90C7
:103E2000AF909F908F907F906F905F904F903F905A
:103E30002F9008952F923F924F925F926F927F92B0
:103E40008F929F92AF92BF92CF92DF92EF92FF92AA
:103E50000F931F93CF93DF93CDB7DEB715012601E4
:103E600037014801AD88BE88CF88D88CE98CFA8CA0
:103E70000B8D1C8D0E94801D209430944094509492
:103E80006094709480949094222133214421552190
:103E90006621772188219921DF91CF911F910F9180
:103EA000FF90EF90DF90CF90BF90AF909F908F905A
:103EB0007F906F905F904F903F902F9008952F923A
:103EC0003F924F925F926F927F928F929F92AF92AA
:103ED000BF92CF92DF92EF92FF920F931F93CF93F7
:103EE000DF93CDB7DEB763970FB6F894DEBF0FBE92
:103EF000CDBF2F83388749875A876B877C878D870B
:103F00009E874A2C2B2CCD82712E8BE298E0998BC8
:103F1000888B1C82912CA12CB12CC12C19821A8265
:103F20001A8AF0E0A889B9892C9111963C911197D1
:103F300012964C91129713965C91139714966C916C
:103F4000149715967C91159716968C91169717963F
:103F50009C9117971896B98BA88BBF812B23E88566
:103F60003E23B9854B23EA855E23BB856B23EC8515
:103F70007E23BD858B23EE859E23A0E00E945944BD
:103F800009F44FC18C8186958695869597E0892E98
:103F9000881AEC81E770BE2FB80DBE831B2F27EF68
:103FA000829E100D11246E2E512CB1E4B10FBB83F3
:103FB000862D90E007970CF045C0BE816B1609F482
:103FC00041C063942B81250D88E0289F9001112426
:103FD000255D374FD9013C901196BC91BF87D9011F
:103FE00012964C91129713965C91139714966C91BC
:103FF000149715967C91159716968C91169717968F
:104000009C919328BF85AB2AB42AC52AB981B62BC7
:10401000B983BA81B72BBA83BA89B82BBA8BF92B7B
:1040200029E0520E232D24213F853221BD814B23CF
:104030005D216E217F2180239721A0E00E945944B9
:1040400009F4B6CF312E29EF829E301811246E2E3E
:104050001B82BFE3B10FBF87662009F446C063141B
:1040600009F443C06A942F85BB812B0F88E0289FF9
:1040700090011124255D374FD9015C901196BC91B8
:10408000BB8BD90112964C91129713965C911397A2
:1040900014966C91149715967C91159716968C91A1
:1040A000169717969C919528BB89AB2AB42AC52AE6
:1040B000B981B62BB983BA81B72BBA83BA89B82B29
:1040C000BA8BF92BBB81B95FBB83242D25213B899A
:1040D0003221BD814B235D216E217F2180239721D9
:1040E000A0E00E94594409F4B7CF682C512CBFE2DC
:1040F000B10FBB83BE816B1609F446C0862D90E0DC
:1041000007970CF041C063942B81250D88E0289F10
:1041100090011124255D374FD9013C901196BC9137
:10412000BF87D90112964C91129713965C91139701
:1041300014966C91149715967C91159716968C9100
:10414000169717969C919328BF85AB2AB42AC52A47
:10415000B981B62BB983BA81B72BBA83BA89B82B88
:10416000BA8BF92B27EF520E242D23213F853221C4
:10417000BD814B235D216E217F2180239721A0E00B
:104180000E94594409F4B6CF612C8E1A1F5C882D09
:104190008E0F2E2F30E0273031050CF042C08730D3
:1041A00008F03FC0EF5F212F260D88E0289F900187
:1041B0001124255D374FD9015C9011963C901197E1
:1041C00012964C91129713965C91139714966C91DA
:1041D000149715967C91159716968C9116971796AD
:1041E0009C919528A328B42AC52AB981B62BB983F6
:1041F000BA81B72BBA83BA89B82BBA8BF92B29EFBE
:10420000620E242D2521322D3321BD814B235D21CA
:104210006E217F2180239721A0E00E94594409F458
:10422000B6CFEC81EF5FEC83E03409F07BCE292D33
:104230003A2D4B2D5C2D69817A818A899F2F639657
:104240000FB6F894DEBF0FBECDBFDF91CF911F91A7
:104250000F91FF90EF90DF90CF90BF90AF909F9025
:104260008F907F906F905F904F903F902F90089528
:104270002F923F924F925F926F927F928F929F9276
:10428000AF92BF92CF92DF92EF92FF920F931F9364
:10429000CF93DF93CDB7DEB7150126013701480173
:1042A000AD88BE88CF88D88CE98CFA8C0B8D1C8D9C
:1042B0000E945F1F209430944094509460947094B6
:1042C0008094909422213321442155216621772125
:1042D00088219921DF91CF911F910F91FF90EF904D
:1042E000DF90CF90BF90AF909F908F907F906F9016
:1042F0005F904F903F902F9008952F923F924F9252
:104300005F926F927F928F929F92AF92BF92CF9265
:10431000DF92EF92FF920F931F93CF93DF93CDB76E
:10432000DEB760970FB6F894DEBF0FBECDBF1901A0
:104330002A013B014C01A88ABF86C982DA82EB823E
:10434000FC820D831E830E94801D2F83388749873E
:104350005A876B877C878D879E87A888BF84C98092
:10436000DA80EB80FC800D811E819101A201B301F6
:10437000C4010E945F1FEF812E2BE8853E2BE9854B
:104380004E2BEA855E2BEB856E2BEC857E2BED8527
:104390008E2BEE859E2B60960FB6F894DEBF0FBE77
:1043A000CDBFDF91CF911F910F91FF90EF90DF90E4
:1043B000CF90BF90AF909F908F907F906F905F90C5
:1043C0004F903F902F9008952F923F924F925F927F
:1043D0006F927F928F929F92AF92BF92CF92DF9215
:1043E000EF92FF920F931F93CF93DF93CDB7DEB77A
:1043F0001501260137014801AD88BE88CF88D88CC9
:10440000E98CFA8C0B8D1C8D0E947D2120943094B8
:10441000409450946094709480949094222133211D
:10442000442155216621772188219921DF91CF915F
:104430001F910F91FF90EF90DF90CF90BF90AF90C2
:104440009F908F907F906F905F904F903F902F90B4
:1044500008952F923F924F925F926F927F928F9228
:104460009F92AF92BF92CF92DF92EF92FF920F9303
:104470001F93CF93DF93CDB7DEB7A8970FB6F8940D
:10448000DEBF0FBECDBFD090330610913406B09181
:104490003506A0913606F0913706E09138068090F7
:1044A000390690903A062D2D2F77312F3F774B2FDD
:1044B0004F775A2F5F776F2F6F777E2F7F77882DFB
:1044C0008F77992D9F7709E00E94164479011A0190
:1044D0002B013C012D2D2E7F312F3E7F4B2F4E7F08
:1044E0005A2F5E7F6F2F6E7F7E2F7E7F882D8E7F6F
:1044F000992D9E7F07E00E941644E22AE982F32A62
:10450000FA82242A2B82352A3C82462A4D82572A57
:104510005E82682A6F82792A7886E3E9F6E0A080D5
:10452000B180C280D380E480F5800681178120911C
:104530005B0630915C0640915D0650915E0660918D
:104540005F067091600680916106909162060E94FC
:10455000981729873A874B875C876D877E878F8777
:10456000988B20913B0630913C0640913D0650913E
:104570003E0660913F067091400680914106909101
:1045800042060E94A818298B3A8B4B8B5C8B6D8B53
:104590007E8B8F8B988FEBE8F6E020802094318023
:1045A000309442804094538050946480609475802D
:1045B00070948680809497809094E3EAF6E08081FE
:1045C0002822818138228281482283815822848155
:1045D000682285817822868188228781982220918D
:1045E0004B0630914C0640914D0650914E0660911D
:1045F0004F06709150065101620173018401809150
:104600005106909152060E94801D298F3A8F4B8F40
:104610005C8F6D8F7E8F8F8F98A320914306309192
:1046200044064091450650914606609147067091B8
:1046300048068091490690914A060E945F1F29A36F
:104640003AA34BA35CA36DA37EA38FA398A720914D
:10465000530630915406409155065091560660918C
:104660005706709158068091590690915A060E94FB
:104670007D21F980E984FE281A810A85102BEB81BF
:10468000FB85EF2BEA83EC800C85E02AE982ED8143
:10469000FD85EF2BBE81EE84BE29AF810F85A02B57
:1046A000F885E888FE290989F02AEA881E290A8106
:1046B000EB880E290A830981EC880E2909830D896C
:1046C000E02BEE88BE290F89A02BE88CFE29098DEE
:1046D000F02AEA8C1E290A81EB8C0E290A830981B3
:1046E000EC8C0E2909830D8DE02BEE8CBE290F8DED
:1046F000A02BE8A0FE2909A1F02AEAA01E290A8120
:10470000EBA00E290A830981ECA00E2909830DA1D3
:10471000E02BEEA0BE290FA1A02BE8A4FE292F2993
:10472000312B0A81402B1981512B6E2B7B2B8A2B2D
:104730009F2BA8960FB6F894DEBF0FBECDBFDF91BA
:10474000CF911F910F91FF90EF90DF90CF90BF908E
:10475000AF909F908F907F906F905F904F903F9021
:104760002F9008952F923F924F925F926F927F9277
:104770008F929F92AF92BF92CF92DF92EF92FF9271
:104780000F931F93CF93DF93CDB7DEB7A8970FB6E4
:10479000F894DEBF0FBECDBFD090630610916406C3
:1047A000B0916506A0916606F0916706E0916806F3
:1047B0008090690690906A062D2D2F77312F3F77D4
:1047C0004B2F4F775A2F5F776F2F6F777E2F7F7723
:1047D000882D8F77992D9F7707E00E9431447901CA
:1047E0002A013B011C012D2D2E7F312F3E7F4B2FA7
:1047F0004E7F5A2F5E7F6F2F6E7F7E2F7E7F882D9C
:104800008E7F992D9E7F09E00E943144E22AE98241
:10481000F32AFA82442A4B82552A5C82662A6D82E8
:10482000772A7E82282A2F82392A3886EBE9F6E019
:10483000A080B180C280D380E480F580068117819A
:10484000EBE8F6E0208131814281538164817581FA
:10485000868197810E94981729873A874B875C87C2
:104860006D877E878F87988BEBE6F6E0208131811C
:104870004281538164817581868197810E94A81845
:10488000298B3A8B4B8B5C8B6D8B7E8B8F8B988FB0
:1048900040905B06409450905C06509460905D069A
:1048A000609470905E06709480905F068094909003
:1048B00060069094809161068095E0906206E09495
:1048C000E3EAF6E09081492291815922928169229E
:1048D00093817922948189229581992206810823E6
:1048E00008A78781E822EFA2EBE7F6E0208131817B
:1048F00042815381648175815201630174011FA15A
:10490000868197810E94801D298F3A8F4B8F5C8F03
:104910006D8F7E8F8F8F98A3E3E7F6E02081318142
:10492000428153816481758108A51FA18681978189
:104930000E945F1F29A33AA34BA35CA36DA37EA390
:104940001C01E3E8F6E020813181428153816481DA
:104950007581868197810E947D211981E9851E2BB1
:104960001987FA81EA84FE29F983BB810B85B02B74
:10497000AC811C85A12BED81FD85EF2BFE81EE84A2
:10498000FE29FF800F85F02A1885E8881E290985F1
:10499000E9880E290A830981EA880E2909830B898F
:1049A000B02BEC88AE290D89E02BEE88FE290F890B
:1049B000F02AE88C1E290A81E98C0E290A830981D4
:1049C000EA8C0E2909830B8DB02BEC8CAE290D8D52
:1049D000E02BEE8CFE290F8DF02AE8A01E290A811B
:1049E000E9A00E290A830981EAA00E2909830BA1F7
:1049F000B02BECA0AE290DA1E02BEEA0FE292F28B4
:104A0000312A0A81202B1981312B4B2B5A2B6E2BEB
:104A10007F2B82299329A8960FB6F894DEBF0FBE8C
:104A2000CDBFDF91CF911F910F91FF90EF90DF905D
:104A3000CF90BF90AF909F908F907F906F905F903E
:104A40004F903F902F9008952F923F924F925F92F8
:104A50006F927F928F929F92AF92BF92CF92DF928E
:104A6000EF92FF920F931F93CF93DF93CDB7DEB7F3
:104A700066970FB6F894DEBF0FBECDBF29833A8389
:104A80004B835C836D837E838F8398871E8B0D8B16
:104A90001701D8011C9211961C92119712961C9224
:104AA000129713961C92139714961C9214971596AE
:104AB0001C92159716961C92169717961C92F70142
:104AC000108211821282138214821582168217823A
:104AD0002F773F774F775F776F777F778F779F77E6
:104AE00009E00E941644B22FA32FF42FF52EE62FD3
:104AF000172F2C0129812E7F3A813E7F4B814E7FDB
:104B00005C815E7F6D816E7F7E817E7F8F818E7FF7
:104B100098859E7F07E00E9416442B2B3A2B4F2B43
:104B20005F296E2B712B84299529C09063062C2157
:104B3000809064068322E09065064E21F090660620
:104B40005F210091670660231091680671234090F1
:104B50006906482250906A065922AD89BE899C9008
:104B6000C92CC22A11968C911197D82ED82812964A
:104B70007C901297E72CE42A13966C901397F62CEE
:104B8000F52A14960C911497062B15961C911597DF
:104B9000172B16968C911697482A17969C91179763
:104BA000592ACC921196DC9211971296EC92129798
:104BB0001396FC92139714960C93149715961C93C6
:104BC000159716964C92169717965C9229813A8102
:104BD0004B815C816D817E818F8198850E94A818B0
:104BE000EBE6F6E09080922281808322728047215A
:104BF00063805621248162232581722326818223AA
:104C0000E7819E239C2899868D288A86742E7E288B
:104C1000652E6F28602B6B87712B7C8784298D878D
:104C200095299E87ED89FE899082818272826382B6
:104C3000648375838683978383EA882E86E0982E23
:104C4000D401AC901196BC9011971296CC9012970B
:104C50001396DC9013971496EC9014971596FC908D
:104C6000159716960C91169717961C9129813A81E3
:104C70004B815C816D817E818F8198850E945F1F51
:104C8000522E432E4F87588B698B7A8B8B8B9C8B44
:104C9000E3E7F6E020812521318134214281BF857F
:104CA0004B235381F8885F2164817989672375815B
:104CB0008A89782386819B8989239781AC899A2365
:104CC000B9852B2BAD89BE892C932A85232B119670
:104CD0002C931197742A12967C921297652A139638
:104CE0006C92BB856B2BAD89BE8914966C93BC8589
:104CF0007B2BAD89BE8915967C93BD858B2BAD89A9
:104D0000BE8916968C93BE859B2BAD89BE8917965E
:104D10009C93D401AC901196BC9011971296CC90B4
:104D200012971396DC9013971496EC90149715969F
:104D3000FC90159716960C91169717961C9120814A
:104D400031814281538164817581868197810E947E
:104D50005F1FE0905B06E094F0905C06F094009199
:104D60005D06009510915E061095B0915F06B095B6
:104D7000A0916006A095F0916106F095E091620621
:104D8000E095522243222F854223388953232989D3
:104D900062233A8973232B8982233C8993235E20E3
:104DA0004F20402351236B237A238F239E23D1014D
:104DB0002C91522A5C9211963C911197432A11969C
:104DC0004C92119712962C911297422B12964C935B
:104DD000129713962C911397522B13965C9313975B
:104DE00014962C911497622B14966C931497159625
:104DF0002C911597722B15967C93159716962C91DE
:104E00001697822B16968C93169717968C91179758
:104E1000982B17969C93F401A080B180C280D38018
:104E2000E480F5800681178129813A814B815C817C
:104E30006D817E818F8198850E94801D29873A87A8
:104E4000742E652E562E472E8B879C87EBE7F6E057
:104E50002081F9842F21918193238281842373817E
:104E60007523648165215581542146813B85432307
:104E70003781AC853A23AD89BE891C91212B2C93B7
:104E800011962C911197922B11969C931197129633
:104E90009C911297892B12968C93129713968C9152
:104EA0001397872B13968C93139714968C911497C2
:104EB000862B14968C93149715968C911597852BA9
:104EC00015968C93159716968C911697842B16969B
:104ED0008C93169717968C911797832B17968C9314
:104EE000D401AC901196BC9011971296CC90129769
:104EF0001396DC9013971496EC9014971596FC90EB
:104F0000159716960C91169717961C912081318152
:104F10004281538164817581868197810E94801DC1
:104F2000E0905B06E094F0905C06F09400915D06E2
:104F3000009510915E061095B0915F06B095A09116
:104F40006006A095F0916106F095E0916206E0950B
:104F5000D984D2222A85232374226522562247220D
:104F60003B8583237C8597233E2D3D214F2D422376
:104F7000702261225B224A228F239E23D1012C9131
:104F8000232B2C9311963C911197232F242B1196B0
:104F90002C93119712964C911297742A12967C9228
:104FA000129713965C911397652A13966C92139738
:104FB00014966C911497562A14965C921497159631
:104FC0007C911597472A15964C92159716962C9119
:104FD0001697822B16968C93169717968C91179787
:104FE000982B17969C93F401A080B180C280D38047
:104FF000E480F5800681178129813A814B815C81AB
:105000006D817E818F8198850E947D2129833A83DD
:105010002A013B018B839C83E3E8F6E02081F98041
:105020002F2191819323828184237381752164814F
:1050300066215581572146813B8143233781AC81CD
:105040003A23AD89BE891C91212B2C9311962C916A
:105050001197922B11969C93119712969C911297EF
:10506000892B12968C93129713968C911397872BFA
:1050700013968C93139714968C911497862B1496F1
:105080008C93149715968C911597852B15968C9368
:10509000159716968C911697842B16968C931697C7
:1050A00017968C911797832B17968C93D401AC90FD
:1050B0001196BC9011971296CC9012971396DC9093
:1050C00013971496EC9014971596FC9015971696D6
:1050D0000C91169717961C91208131814281538142
:1050E00064817581868197810E947D2100915B0694
:1050F000009510915C061095B0915D06B095BE8349
:10510000E0915E06E095ED83B0915F06B095A091C9
:105110006006A095F0916106F095E0916206E09539
:10512000F9802F21FA803F214421552166217722E1
:105130007B818723FC809F21202331237E8147238D
:10514000FD805F216B237A228F239E23D1010C9156
:10515000202B2C9311961C911197312B11963C9377
:1051600011971296BC914B2BF10142835380552924
:1051700053836480662964837581772A758286806B
:105180008829868397809929978366960FB6F89425
:10519000DEBF0FBECDBFDF91CF911F910F91FF906A
:1051A000EF90DF90CF90BF90AF909F908F907F90C7
:1051B0006F905F904F903F902F9008952F923F9265
:1051C0004F925F926F927F928F929F92AF92BF9217
:1051D000CF92DF92EF92FF920F931F93CF93DF93C3
:1051E000CDB7DEB768970FB6F894DEBF0FBECDBF60
:1051F00029833A834B835C836D837E838F83988777
:10520000188F0F8B1701D8011C9211961C921197C1
:1052100012961C92129713961C92139714961C9236
:10522000149715961C92159716961C92169717961A
:105230001C92F7011082118212821382148215824D
:10524000168217822F773F774F775F776F777F7759
:105250008F779F7707E00E943144B22FA32FF42F5E
:10526000D52E7B01E82F192F29812E7F3A813E7F91
:105270004B814E7F5C815E7F6D816E7F7E817E7F04
:105280008F818E7F98859E7F09E00E9431442B2B71
:105290003A2B4F2B5D296E297F298E2B912BEBE228
:1052A0004E2EE6E05E2ED2011896AC9018972A2179
:1052B00019968C90199783221A96CC901A974C21A4
:1052C0001B96DC901B975D211C96EC901C976E2121
:1052D0001D96FC901D977F211E960C911E97802392
:1052E0001F961C911923EF89F88D9080A92CA22A72
:1052F0009181B92EB8287280C72CC42AD380D52AB0
:10530000E480E62AF580F72A0681082B9781192B7D
:10531000A082B182C282D382E482F582068317839F
:1053200029813A814B815C816D817E818F81988555
:105330000E94A818D20150969C90509792225196A4
:105340008C905197832252967C9052977422539658
:105350002C915397522354962C915497622355962F
:105360002C91559772235696EC9156978E2357960B
:10537000EC919E239A288B287C2879865D295A8770
:105380006E296B877F297C87802B8D87912B9E8749
:10539000EF89F88D90828182728253836483758352
:1053A00086839783F3EA6F2EF6E07F2ED301AC90CD
:1053B0001196BC9011971296CC9012971396DC9090
:1053C00013971496EC9014971596FC9015971696D3
:1053D0000C91169717961C9129813A814B815C811B
:1053E0006D817E818F8198850E945F1F2F87388B0A
:1053F000498B5A8B6B8B7C8B8D8B9E8BF201208D16
:10540000FF852F23D20159963C91B8893B23F201A5
:10541000428DF9894F23D2015B965C91BA895B2357
:10542000F201648DFB896F23D2015D967C91BC896A
:105430007B23F201868DFD898F23D2015F969C919B
:10544000BE899B23922AEF89F88D9082832A8182DC
:105450002985242B2283FA855F2BAF89B88D13967B
:105460005C93BB856B2BEF89F88D6483FC857F2B68
:10547000AF89B88D15967C93BD858B2BEF89F88D00
:105480008683FE859F2BAF89B88D17969C93F30179
:10549000A080B180C280D380E480F580068117812E
:1054A000D20158962C91589759963C9159975A96F3
:1054B0004C915A975B965C915B975C966C915C976C
:1054C0005D967C915D975E968C915E975F969C91C0
:1054D0000E945F1FEBE8F6E0E080E094F0908C061D
:1054E000F09400918D06009510918E061095B09164
:1054F0008F06B095A0919006A095F0919106F09539
:10550000E0919206E095DF842D21D8883D21D9884D
:105510004D21DA885D21DB886D21DC887D21DD88E5
:105520008D21DE889D212E213F21402351236B2395
:105530007A238F239E23D101EC912E2B2C9311964D
:105540002C911197322B11963C93119712962C9116
:105550001297422B12964C93129713962C911397F5
:10556000522B13965C93139714962C911497622BDD
:1055700014966C93149715962C911597722B15967B
:105580007C93159716962C911697822B16968C93D2
:10559000169717968C911797982B17969C93F30153
:1055A000A080B180C280D380E480F580068117811D
:1055B00029813A814B815C816D817E818F819885C3
:1055C0000E94801D922E832E49875A876B877C8785
:1055D0008D879E87D20190964C9190974921919604
:1055E0003C919197382192962C91B9852B23F20109
:1055F00093A1952384A1862375A1FC857F23D201E5
:1056000096966C91BD856B23F20157A1FE855F23B1
:10561000AF89B88DEC914E2B4C9311964C9111970C
:10562000342B11963C93119712963C911297232B91
:1056300012962C93129713962C911397922B1396E4
:105640009C93139714969C911497892B14968C9382
:10565000149715968C911597872B15968C93159703
:1056600016968C911697862B16968C9316971796EE
:105670008C911797852B17968C93F301A080B1809E
:10568000C280D380E480F58006811781D201909694
:105690002C91909791963C91919792964C919297DC
:1056A00093965C91939794966C91949795967C9130
:1056B000959796968C91969797969C910E94801DAF
:1056C000EBE8F6E0E080E094F0908C06F094009136
:1056D0008D06009510918E061095B0918F06B095AD
:1056E000A0919006A095F0919106F095E091920618
:1056F000E0959222832229852423DA845D213B854B
:105700006323DC847D213D858323DE849D219E20CF
:105710008F20022351236B237A238F239E23D101D1
:105720002C91922A9C9211963C911197832A119662
:105730008C92119712964C911297242F202B12962F
:105740002C93129713962C911397522B13965C93CC
:10575000139714962C911497622B14966C931497AC
:1057600015962C911597722B15967C931597169676
:105770002C911697822B16968C93169717968C91D0
:105780001797982B17969C93F301A080B180C28045
:10579000D380E480F5800681178129813A814B818D
:1057A0005C816D817E818F8198850E947D21298316
:1057B0003A834B835C836D837E834C01D201989640
:1057C0004C919897422399963C91BA813B23F201E0
:1057D00022A5FB812F23D2019B969C919B97952319
:1057E0009C968C919C9786239D967C91BE817B2371
:1057F000F20166A5682157A55921AF89B88DEC91B2
:105800004E2B4C9311964C911197342B11963C933F
:10581000119712963C911297232B12962C93129764
:1058200013962C911397922B13969C93139714967F
:105830009C911497892B14968C93149715968C91A0
:105840001597872B15968C93159716968C9116970E
:10585000862B16968C93169717968C911797852BF7
:1058600017968C93F301A080B180C280D380E4802E
:10587000F58006811781D20198962C919897999678
:105880003C9199979A964C919A979B965C919B978D
:105890009C966C919C979D967C919D979E968C91E1
:1058A0009E979F969C910E947D21EBE8F6E00081F7
:1058B000009510918C061095F0918D06F095F88763
:1058C000D0908E06D094DF82B0918F06B095A091D3
:1058D0009006A095F0919106F095E0919206E095E2
:1058E000F9802F21DA803D21FB804F21DC805D2172
:1058F000FD806F217E80772288219921202331230A
:1059000078854723DF805D216B237A228F239E23B6
:10591000D1010C91202B2C9311961C911197312BB6
:1059200011963C9311971296BC914B2BF101428337
:105930005380552953836480662964837581772A4F
:1059400075828680882986839780992997836896AF
:105950000FB6F894DEBF0FBECDBFDF91CF911F9180
:105960000F91FF90EF90DF90CF90BF90AF909F90FE
:105970008F907F906F905F904F903F902F90089501
:10598000EF92FF920F931F93CF93DF932095309563
:1059900040955095E62FE095709580959095F09004
:1059A0006306F222109164061323D0916506D42376
:1059B000C0916606C523B0916706BE23A091680614
:1059C000A723F0916906F82360916A066923F09293
:1059D000630610936406D0936506C0936606B09381
:1059E0006706A0936806F093690660936A06F090D4
:1059F0003306F222109134061323D0913506D423B6
:105A0000C0913606C523B0913706BE23A091380653
:105A1000A723F0913906F82360913A066923F092A2
:105A2000330610933406D0933506C0933606B093F0
:105A30003706A0933806F093390660933A06F09043
:105A40009B06F22210919C061323D0919D06D4232D
:105A5000C0919E06C523B0919F06BE23A091A006CB
:105A6000A723F091A106F8236091A2066923F09282
:105A70009B0610939C06D0939D06C0939E06B09300
:105A80009F06A093A006F093A1066093A2066091E2
:105A9000930626236091940636236091950646234B
:105AA00060919606562360919706E62360919806CA
:105AB000762360919906862360919A069623209317
:105AC0009306309394064093950650939606E09380
:105AD0009706709398068093990690939A06202FC4
