:100000000C9455010C9474010C9474010C947401BB
:100010000C9474010C94040E0C94040E0C94740152
:100020000C9474010C9474010C9474010C9474017C
:100030000C9474010C9474010C9474010C9474016C
:100040000C9474010C94BC0E0C9474010C94740107
:100050000C9474010C9474010C9474010C9474014C
:100060000C9474010C9474010C9474010C9474013C
:100070000C9474010C9474010C9474010C9474012C
:100080000C9474010C9474010C9474010C9474011C
:100090000C9474010C947401FF061E0703070C07EF
:1000A00015072D073B0753078107570760076907A7
:1000B00072078F076939593A063A593BA83A0E3CFC
:1000C000A6394B3AE139003B713AB23B7539000031
:1000D00000000000005F00000003000300143E1455
:1000E0003E14242A7F2A124333086661364955227A
:1000F000500005030000001C2241000041221C00AA
:1001000014083E081408083E080800503000000893
:1001100008080808006060000020100804023E5132
:1001200049453E0004027F0042615149462241494F
:1001300049361814127F1027454545393E4949492B
:100140003201017109073649494936264949493E74
:100150000036360000005636000008142241001414
:1001600014141414004122140802015109063E41DE
:1001700059555E7E0909097E7F494949363E41410C
:1001800041227F4141413E7F494949417F09090957
:10019000013E4141493A7F0808087F00417F410004
:1001A000304040403F7F081422417F404040407F24
:1001B000020C027F7F0204087F3E4141413E7F09DD
:1001C0000909061E2121215E7F0909097626494970
:1001D000493201017F01013F4040403F1F20402044
:1001E0001F7F2010207F41221C2241070870080732
:1001F0006151494543007F4100000204081020007E
:1002000000417F00040201020440404040400001E0
:1002100002040020545454787F4444443838444401
:100220004444384444447F385454541804047E05EC
:1002300005085454543C7F0804047800447D400071
:100240002040443D007F1028440000417F40007C56
:10025000047804787C0804047838444444387C14D6
:10026000141408081414147C007C08040448545422
:10027000542004043F44443C4040207C1C20402047
:100280001C3C4030403C44281028440C5050503C0A
:100290004464544C44000836414100007F00004152
:1002A0004136080002010204020011241FBECFEFF4
:1002B000D0E2DEBFCDBF15E0A0E0B1E0EAE7F8E8AC
:1002C00000E00BBF02C007900D92AA34B107D9F726
:1002D00029E0AAE4B5E001C01D92A03BB207E1F716
:1002E0000E94FA3F0C943B440C940000977025E068
:1002F000969587952A95E1F70895892F8695869595
:10030000869590E008958F719927089595E0660F7E
:10031000771F9A95E1F7460F571F20E030E0382FFE
:10032000330F330F330FCA01820F931F08954F927B
:100330005F926F927F928F929F92AF92BF92CF9275
:10034000DF92EF92FF92CF93DF93EC012A013B0102
:10035000BC01672F772766956695669580E090E0EB
:100360000E949E41A30192010E94AD4220E030E034
:1003700040E05FE30E9485400E946F414B015C01B9
:10038000BE01777055E0769567955A95E1F780E064
:1003900090E00E949E41A30192010E94AD4220E0A4
:1003A00030E040E05FE30E9485400E946F416B01B6
:1003B0007C01BE016F71772780E090E00E949E4132
:1003C000A30192010E94AD4220E030E040E05FE3F3
:1003D0000E9485400E946F4194012032310510F047
:1003E0002FE130E04901982C8824990C990C990C44
:1003F0006032710510F06FE170E0680D791DC60183
:100400008034910510F08FE390E025E0880F991F6C
:100410002A95E1F7860F971FDF91CF91FF90EF901C
:10042000DF90CF90BF90AF909F908F907F906F9014
:100430005F904F90089593E89093B00091E090936F
:10044000B1008093B30008959093540580935305B1
:1004500026E330E020930040009779F480EF90E0AD
:100460009093500580934F0580E491E0909352055E
:100470008093510588E490E034C08130910579F48F
:1004800080E491E09093500580934F0580EF90E0D9
:10049000909352058093510588EE90E022C08230FF
:1004A000910579F480EF90E09093500580934F058B
:1004B00080E491E0909352058093510588E890E0A4
:1004C00010C0039781F480E491E0909350058093ED
:1004D0004F0580EF90E0909352058093510588E29C
:1004E00090E0809300418AE290E08093004020E019
:1004F00030E0309300412093004180914F0590916E
:100500005005019790930041809300418BE290E069
:100510008093004030930041209300418091510529
:100520009091520501979093004180930041089566
:10053000CF93873748F4883048F08D3350F48F31AB
:1005400050F4803150F403C086E703C088E0C3E074
:1005500005C0C0E003C0C1E001C0C2E021EB30E053
:1005600020930040C0930041682F70E080E090E04D
:100570000E94A0419B01AC0160E070E080EF94E438
:100580000E94F6400E946F4170E002C07595679529
:10059000CA95E2F760930041CF9108950F931F939E
:1005A000CF93DF93CDB7DEB728970FB6F894DEBFB1
:1005B0000FBECDBF29833A834B835C836D837E83DB
:1005C0008F83988769817A812B813C814D815E81FF
:1005D0008F819885EAE2F0E0E0930040709300415B
:1005E000609300413093004120930041EBE2F0E042
:1005F000E0930040509300414093004190930041AC
:1006000080930041ECE2F0E0E09300402F5F3F4F29
:10061000261B370B0196841B950B2817390790F47E
:10062000482F4770429FB001439F700D112453E043
:10063000969587955A95E1F7829FA001839F500D6B
:10064000112411C0422F4770489FB001499F700D7F
:10065000112443E0369527954A95E1F7289FA0019C
:10066000299F500D1124862F8770815028F01093F8
:10067000004100930041F9CFCB0123E09695879587
:100680002A95E1F7840F951F019708F11093004117
:1006900000930041109300410093004110930041EA
:1006A00000930041109300410093004110930041DA
:1006B00000930041109300410093004110930041CA
:1006C000009300411093004100930041DDCF289634
:1006D0000FB6F894DEBF0FBECDBFDF91CF911F9153
:1006E0000F910895EF92FF920F931F93CF93DF9393
:1006F000CDB7DEB728970FB6F894DEBF0FBECDBFDB
:1007000029833A834B835C836D837E838F839887B1
:1007100089819A81EB80FC806D817E81AF81B88573
:100720002AE230E020930040909300418093004102
:10073000F0920041E09200412BE230E02093004033
:100740007093004160930041B0930041A093004139
:100750002CE230E020930040E816F906A0F0A80152
:100760009B018A01A217B30760F04E5F5F4FF8014B
:100770000081118110930041009300412F5F3F4F92
:10078000F0CF0196E9CF28960FB6F894DEBF0FBEE2
:10079000CDBFDF91CF911F910F91FF90EF90089502
:1007A0000F931F93CF93DF93CDB7DEB728970FB684
:1007B000F894DEBF0FBECDBFEFE4F5E017821682DE
:1007C000118610861A821982808191810197482FA3
:1007D0009C838B831E821D828281938101979887DF
:1007E0008F830485158520E03A815C8160E07E81FD
:1007F00098850E94CE0228960FB6F894DEBF0FBEF1
:10080000CDBFDF91CF911F910F910895CF93DF93CB
:10081000019729F480E8809361001092610086E0DE
:100820008093750080E8809374003F9A249A8FEC3F
:1008300097E00197F1F700C0000047988FE39CE92B
:100840000197F1F700C00000479A9FEF2DEE82E07C
:10085000915020408040E1F700C0000088E290E025
:100860008093004081E190E0809300409FEF26E775
:1008700081E0915020408040E1F700C0000081E01D
:1008800090E02BEC30E0209300408093004120EC7E
:1008900030E02093004028E036E23093004120937E
:1008A000004140E150E021EC30E0209300404093D3
:1008B000004125EC30E0209300402EE335E33093F7
:1008C00000412093004145EB50E027EC30E02093BD
:1008D00000404093004126EF30E020930040809399
:1008E0000041C0E0D0E0D0930041C093004125E535
:1008F00030E08AE390E0809300402093004181E063
:1009000090E00E9424020E94D0031092560510929B
:100910005505109258051092570510925C051092DB
:100920005B058FEF9FEF90935A058093590589E2FD
:1009300090E0809300409FE728E381E091502040C1
:100940008040E1F700C0000085E390E08093004024
:10095000C093004180916A00806280936A002C9A63
:10096000DF91CF9108959F92AF92BF92CF92DF9285
:10097000EF92FF920F931F93CF93DF932091570530
:10098000309158058A30F9F41092560510925505A9
:10099000285F3F4F309358052093570580915105AC
:1009A000909152052817390708F4A5C0DF91CF911F
:1009B0001F910F91FF90EF90DF90CF90BF90AF907D
:1009C0009F900C94D00390EE980F9F3508F093C041
:1009D0006091550570915605A901495F5F4F082E3A
:1009E000000C990B8097E5E0E89FE001E99FD00DAE
:1009F00011248BE290E080930040309300412093DB
:100A000000415093004140930041CB01DB0114961B
:100A10000AE210E0ECE2EE2EF12CA817B90780F103
:100A200000930040909300418093004190930041D7
:100A300080930041E0920040FC01E61BF70BEC0FB5
:100A4000FD1FE253FF4F94906901F1E04C155D05E5
:100A5000A8F0BF2EB92029F0A0905905B0905A05F2
:100A600004C0A0905B05B0905C05B0920041A092DC
:100A70000041EFEFCE1ADE0AFF0FE8CF0196CDCF8F
:100A80006AE270E0609300409093004180930041DF
:100A900090930041809300418CE290E0809300406D
:100AA0004217530758F080915B0590915C05909335
:100AB0000041809300412F5F3F4FF2CF8091550559
:100AC0009091560506969093560580935505209172
:100AD0004F05309150058217930768F01092560524
:100AE000109255058091570590915805089690935E
:100AF000580580935705DF91CF911F910F91FF907B
:100B0000EF90DF90CF90BF90AF909F9008950F939C
:100B10001F93CF938C01C0E0F801EC0FF11D808191
:100B2000882321F00E94B304CF5FF6CFCF911F91AD
:100B30000F910895EFE4F5E09783868371876087CE
:100B40000895EFE4F5E093878287758764870895B9
:100B50000F931F93CF938C017093560560935505A7
:100B60005093580540935705C0E0F801EC0FF11D74
:100B70008081882321F00E94B304CF5FF6CFCF910C
:100B80001F910F9108954F925F926F927F928F9273
:100B90009F92AF92BF92CF92DF92EF92FF92CF934C
:100BA000DF9300D000D000D0CDB7DEB76B017C0161
:100BB0005E834D839B01AC0160E070E080E89FE3C1
:100BC0000E9484404B015C0120E030E040E450E4AE
:100BD0000E94AD4269837A838B839C83A501940133
:100BE000C501B4010E94AD42A50194010E94AD422D
:100BF0002B013C01ED81FE816081718180E090E0FC
:100C00000E949E419B01AC01C301B2010E94AD4212
:100C10002B013C0129813A814B815C81C501B401E2
:100C20000E94AD42A70196010E94AD424B015C01BA
:100C3000ED81FE816281738180E090E00E949E419F
:100C40009B01AC01C501B4010E94AD429B01AC0106
:100C5000C301B2010E9485404B015C0129813A81A8
:100C60004B815C81C701B6010E94AD42A70196018C
:100C70000E94AD422B013C01ED81FE8164817581B2
:100C800080E090E00E949E419B01AC01C301B20153
:100C90000E94AD429B01AC01C501B4010E94854098
:100CA0004B015C01A7019601C701B6010E94AD424C
:100CB000A70196010E94AD426B017C01ED81FE818E
:100CC0006681778180E090E00E949E419B01AC01AB
:100CD000C701B6010E94AD429B01AC01C501B40140
:100CE0000E9485400E946841072E000C880B990BDA
:100CF0000E94A04120E030E040E05FE30E94854098
:100D00000E946841CB0126960FB6F894DEBF0FBE55
:100D1000CDBFDF91CF91FF90EF90DF90CF90BF904C
:100D2000AF909F908F907F906F905F904F900895BD
:100D3000CF92DF92EF92FF926B017C0120E030E0D6
:100D4000A9010E94F14087FF11C0C701B6010E94AE
:100D5000DB419B01AC01C701B6010E9484409B01AD
:100D6000AC0160E070E080E89FE308C0C701B60115
:100D70000E94DB419B01AC01C701B6010E94844087
:100D8000FF90EF90DF90CF9008950E9498069B010E
:100D9000AC0160E070E080E89FE30E948440089529
:100DA000CF92DF92EF92FF920F931F93FC0100818D
:100DB000118122813381FB01C080D180E280F380E8
:100DC000FC01C082D182E282F382FB0100831183A5
:100DD000228333831F910F91FF90EF90DF90CF908C
:100DE0000895CF93DF93DC01EB01FA013197E730EF
:100DF000F10508F047C0E45BFF4F0C942C408D9147
:100E00009C91119733C08D919C91119791958195EB
:100E100091098D939C9336C08D919C9111979195DA
:100E2000819591098D939C9326C08D919C911197EA
:100E300091958195910911969C938E9388819981C2
:100E4000919581959109998388832D913C91119772
:100E50008D939C933983288315C08D919C91119714
:100E600091958195910911969C938E932881398152
:100E70002D933C9305C08881998191958195910925
:100E800099838883DF91CF910895CF93DF93DC011D
:100E9000EB01FA013197E730F10508F047C0ED5A50
:100EA000FF4F0C942C408D919C91119733C08D91E4
:100EB0009C9111979195819591098D939C9336C042
:100EC0008D919C9111979195819591098D939C930A
:100ED00026C08D919C9111979195819591091196BC
:100EE0009C938E938881998191958195910999839D
:100EF00088832D913C9111978D939C9339832883FE
:100F000015C08D919C91119791958195910911969C
:100F10009C938E93288139812D933C9305C08881C1
:100F2000998191958195910999838883DF91CF91DA
:100F30000895FC0120813181FB0140815181FC0138
:100F400051834083FB01318320830895CF92DF9248
:100F5000EF92FF920F931F93CF93DF938901061BAC
:100F6000170BEA01C81BD90BB801012E000C880B26
:100F7000990B0E94A0416B017C01E894F7F8BE0137
:100F80000D2E000C880B990B0E94A0419B01AC0117
:100F90005F77C701B6010E94A842181694F417FFA4
:100FA00009C02D2F221F2227221F86E090E0821BDE
:100FB000910918C08D2F881F8827881F90E00196FF
:100FC00011C017FF05C0D7FD08C087E090E00AC038
:100FD000D7FD06C080E090E005C084E090E002C04C
:100FE00083E090E0DF91CF911F910F91FF90EF9000
:100FF000DF90CF9008952AE230E020930040909354
:1010000000418093004190930041809300418BE226
:1010100090E0809300407093004160930041709392
:101020000041609300418CE290E080930040509337
:1010300000414093004108952F923F924F925F925A
:101040006F927F928F929F92AF92BF92CF92DF92D8
:10105000EF92FF920F931F93CF93DF93CDB7DEB73D
:10106000A6970FB6F894DEBF0FBECDBF2B013C0193
:1010700069837A838B839C83298B3A8B4B8B5C8B24
:101080002D833E834F835887ED8AFE8A0F8B188FFE
:10109000E986FA860B871C87C601B501AD86BE8638
:1010A000CF86D88A14010E9484406B017C01E894A9
:1010B000F7F8A30192016D897E898F89988D0E942E
:1010C00084409B01AC015F77C701B6010E94844058
:1010D000698F7A8F8B8F9C8F20E030E0A9010E946E
:1010E000A842181674F4BE016F5F7F4FCE010596BB
:1010F0000E94D006BE01675F7F4FCE010D960E9411
:10110000D00629853A854B855C8569817A818B81FA
:101110009C810E94A842181674F4BE01675F7F4F3D
:10112000CE0101960E94D006BE016B5F7F4FCE01BB
:101130000D960E94D006C980DA80EB80FC804D803D
:101140005E806F807884A30192016D857E858F8596
:1011500098890E9484404B015C01A7019601698532
:101160007A858B859C850E9484409B01AC01C501DA
:10117000B4010E94F6406D8F7E8F8F8F98A320E080
:1011800030E040E05FE3C701B6010E9485404B01BB
:101190005C010E946841698B7A8B8B8B9C8B2989BF
:1011A0003A89B901330F880B990B0E94A041A7011E
:1011B00096010E9484402D8D3E8D4F8D58A10E9436
:1011C000AD42A30192010E9485406B017C01C501E3
:1011D000B4010E94C5064B015C01C701B6010E9423
:1011E0006F412B013C0120E030E0A901698D7A8D2F
:1011F0008B8D9C8D0E94A8421816C4F5C701B601BC
:101200000E94C5069B01AC01C501B4010E94AD421C
:1012100020E030E040E85FE30E948540AB01BC0184
:10122000C1010E949701AC0169897A89C2010E94BB
:10123000FB07C701B6010E9498069B01AC01C501DE
:10124000B4010E94AD4220E030E040E85FE30E943C
:101250008540AB01BC01C1010E9497013FEF431AD9
:10126000530AAC0169897A89C20136C0C701B60147
:101270000E94C5069B01AC01C501B4010E94AD42AC
:1012800020E030E040E85FE30E948540AB01BC0114
:10129000C1010E949701AC01B20189899A890E941B
:1012A000FB07C701B6010E9498069B01AC01C5016E
:1012B000B4010E94AD4220E030E040E85FE30E94CC
:1012C0008540AB01BC01C1010E949701B2016F5F73
:1012D0007F4FAC0189899A890E94FB07A70196017B
:1012E0006D8D7E8D8F8D98A10E9485402B013C01D4
:1012F000C984DA84EB84FC8420E030E040E05FE3E2
:10130000C701B6010E9485404B015C010E94684103
:101310006D8B7E8B8F8B988F2D893E89B901330F12
:10132000880B990B0E94A041A70196010E9484405E
:101330002D8D3E8D4F8D58A10E94AD422D853E854D
:101340004F8558890E9485406B017C01C501B4011D
:101350000E94C5064B015C018D899E899EA38DA3C9
:10136000C701B6010E946F4169A37AA38BA39CA316
:1013700020E030E0A901698D7A8D8B8D9C8D0E94D3
:10138000A842181664F5C701B6010E94C5069B0164
:10139000AC01C501B4010E94AD42AB01BC01C10169
:1013A0000E949701AC016D897E8989A19AA10E9452
:1013B000FB07C701B6010E9498069B01AC01C5015D
:1013C000B4010E94AD42AB01BC01C1010E94970172
:1013D000AC0189A19AA101966D897E892CC0C701B3
:1013E000B6010E94C5069B01AC01C501B4010E9473
:1013F000AD42AB01BC01C1010E949701AC0169A1E2
:101400007AA18D899E890E94FB07C701B6010E94BF
:1014100098069B01AC01C501B4010E94AD42AB012D
:10142000BC01C1010E94970169A17AA16F5F7F4F42
:10143000AC018D899E890E94FB0709891A890F5F7B
:101440001F4F8DA19EA10817190708F05FC020E06B
:1014500030E0A901698D7A8D8B8D9C8D0E94A84208
:1014600018162CF5C301B2010E94C506AB01BC01E0
:10147000C1010E9497017C01C301B2010E946F412A
:101480004B015C01A701B801C4010E94FB07C30125
:10149000B2010E949806AB01BC01C1010E949701F4
:1014A0002FEF821A920AAC01B801C40122C0C30115
:1014B000B2010E94C506AB01BC01C1010E949701A7
:1014C0007C01C301B2010E946F414B015C01A70185
:1014D000C8010E94FB07C301B2010E949806AB013C
:1014E000BC01C1010E949701B4016F5F7F4FAC0145
:1014F000C8010E94FB072D8D3E8D4F8D58A1C30161
:10150000B2010E9485402B013C0199CFA6960FB6EF
:10151000F894DEBF0FBECDBFDF91CF911F910F9129
:10152000FF90EF90DF90CF90BF90AF909F908F9003
:101530007F906F905F904F903F902F9008952F92E3
:101540003F924F925F926F927F928F929F92AF9253
:10155000BF92CF92DF92EF92FF920F931F93CF93A0
:10156000DF93CDB7DEB760970FB6F894DEBF0FBE3E
:10157000CDBF9E838D8378876F835A8749873C8749
:101580002B871801A8010E94FB072B853C85498504
:101590005A856F8178858D819E810E94A6075C01A6
:1015A000AC01BE01695F7F4FCE0105960E944507E1
:1015B000A501BE01655F7F4FCE0109960E944507D8
:1015C0008F8098840D811E8189859A85801B910B5F
:1015D000CB84DC84C818D908CC0CDD1C0D2C000C85
:1015E000EE08FF08AC01092E000C660B770B2601F4
:1015F0003701441A550A660A770A0F5F1F4F880F92
:10160000991F9C01990F440B550B2D873E874F87DF
:10161000588B89859A858017910774F1D301C2018F
:101620008C0D9D1DAE1DBF1D77FE03C02C013D011D
:101630000DC03FEF831A930A2C013D012D853E8595
:101640004F855889421A530A640A750A1C830B8312
:101650009A828982A501BE016F5F7F4FCE010396FA
:101660000E94F10669817A81A1018B819C810E948F
:10167000FB070F5F1F4FCDCF60960FB6F894DEBF0C
:101680000FBECDBFDF91CF911F910F91FF90EF90D3
:10169000DF90CF90BF90AF909F908F907F906F9092
:1016A0005F904F903F902F9008952F923F924F92CE
:1016B0005F926F927F928F929F92AF92BF92CF92E2
:1016C000DF92EF92FF920F931F93CF93DF93CDB7EB
:1016D000DEB728970FB6F894DEBF0FBECDBF6C0102
:1016E0005B014A0128013901AC0160E070E0CB01E7
:1016F0000E94C305382E292EA50160E070E0CB01C1
:101700000E94C30589839A83780168867F8220E0DE
:1017100030E040E85FE3B201C3010E9485409B01D5
:10172000AC01B70188859F810E94F14087FF2BC0E3
:10173000A601B70188859F810E94C3058B839C8386
:10174000A501B70188859F810E94C3058D839E8373
:1017500084019C014B815C8169817A81832D922D6A
:101760000E949F0A9201A301B70188859F810E9470
:1017700085407B0188879F838D8189838E818A83C1
:101780003B802C80C4CF28960FB6F894DEBF0FBEE6
:10179000CDBFDF91CF911F910F91FF90EF90DF9020
:1017A000CF90BF90AF909F908F907F906F905F9001
:1017B0004F903F902F9008952F923F924F925F92BB
:1017C0006F927F928F929F92AF92BF92CF92DF9251
:1017D000EF92FF920F931F93CF93DF93CDB7DEB7B6
:1017E0002C970FB6F894DEBF0FBECDBF9C838B83C2
:1017F0007E836D835A874987922E832EAC0160E0E9
:1018000070E0CB010E94C3057C014D815E8160E0E8
:1018100070E0CB010E94C3055C019801492D582D51
:1018200060E070E080E89FE30E94F64020E030E056
:1018300040EC5FE30E9485400E946F417A83698398
:101840009B01220F331F38872F83C9010E941A433F
:10185000782E692E8F8198850E941A436C018B87A0
:10186000DC86EB85FC85A192B192FC87EB87A72CE7
:10187000B62CF501E192F1925F01502E412E140138
:10188000EE24E394F12C89819A81E816F90678F523
:101890004B815C81652D742D832D922D0E94C30593
:1018A00098878F834D815E81652D742D832D922DB8
:1018B0000E94C305EB85FC8581939193FC87EB87A0
:1018C000F5012F813885219331935F019801492DCE
:1018D000582D652D742D832D922D0E948540562EF6
:1018E000472E382E292E3FEFE31AF30ACCCFCB82B6
:1018F000DC82E72CF62C812C912C5C0191E0A91A5A
:10190000B1088A149B04E0F4EFEF8E1A9E0AAB81B3
:10191000BC81F70112962D913C911397CD0102964F
:101920009C838B834281538192E0E90EF11C6D917F
:101930007C9109851A85808191810E949F0AE1CF5F
:10194000C6010E94B243872D962D2C960FB6F894AF
:10195000DEBF0FBECDBFDF91CF911F910F91FF90E2
:10196000EF90DF90CF90BF90AF909F908F907F903F
:101970006F905F904F903F902F900C94B2432F92B6
:101980003F924F925F926F927F928F929F92AF920F
:10199000BF92CF92DF92EF92FF920F931F93CF935C
:1019A000DF9300D000D000D0CDB7DEB75C014B0193
:1019B0008A017901C12CD12C1E821D828D819E81CC
:1019C000081719070CF464C0A7014D805E80480C0D
:1019D000591CB201C8018A0D9B1D9C838B830E94F8
:1019E000FB07A7013801680C791CB3018D819E812A
:1019F0008A0D9B1D9A8389830E94FB07A701B3016F
:101A000015018D819E81281A390AC1010E94FB07A8
:101A1000A701B2013501601A710AC3010E94FB07D8
:101A2000A70124018D819E81481A590AB201C30180
:101A30000E94FB07A7013401601A710AB301C101BA
:101A40000E94FB07A701B30189819A810E94FB07CD
:101A5000A701B2018B819C810E94FB071C141D040D
:101A600074F08D819E8101969E838D83880F991FCE
:101A70000196C80ED91E1C141D040CF09FCF0150F6
:101A80001109C801880F991F0196C81AD90A96CF63
:101A900026960FB6F894DEBF0FBECDBFDF91CF9173
:101AA0001F910F91FF90EF90DF90CF90BF90AF907C
:101AB0009F908F907F906F905F904F903F902F906E
:101AC00008954F925F926F927F928F929F92AF9202
:101AD000BF92CF92DF92EF92FF920F931F93CF931B
:101AE000DF93EC017B016A0159014B01820E931EC9
:101AF0003C01640E751EA801B401C3010E94FB07DE
:101B00002E014C185D08A801B401C2010E94FB0718
:101B100047018A189B08A801B401C3010E94FB0772
:101B2000A801B401C2010E94FB0747018C0C9D1C57
:101B300035016C0E7D1EA801B401C3010E94FB0794
:101B4000CA19DB09A801B401CE010E94FB07EC18F9
:101B5000FD08A801B701C3010E94FB07A801B70156
:101B6000CE01DF91CF911F910F91FF90EF90DF9009
:101B7000CF90BF90AF909F908F907F906F905F902D
:101B80004F900C94FB078DB18F748DB98EB1806B23
:101B90008EB987B1837C87B988B18C6388B9EAE64E
:101BA000F0E080818568808308958CB1807349F46A
:101BB00090914B05903281F090914B059031E1F47A
:101BC00013C08033C9F490914B05903129F0909166
:101BD0004B05903289F408C090914A05915090933A
:101BE0004A058033A1F306C090914A059F5F909308
:101BF0004A0502C0882301F380934B0580914A0572
:101C0000089586B18C7308951F920F920FB60F92AC
:101C100011240BB60F922F933F934F935F936F93C3
:101C20007F938F939F93AF93BF93EF93FF930E9404
:101C3000D50D87EC90E00197F1F700C00000FF910F
:101C4000EF91BF91AF919F918F917F916F915F9134
:101C50004F913F912F910F900BBE0F900FBE0F90A1
:101C60001F9018953F924F925F926F927F928F9242
:101C70009F92AF92BF92CF92DF92EF92FF920F931B
:101C80001F93CF93DF93CDB7DEB728970FB6F894A5
:101C9000DEBF0FBECDBF3C01322E2EE1629F600140
:101CA000112488E2C80ED11C2EE1429F700111243C
:101CB000512C570183E0A80EB11CC601412C4C01E8
:101CC00023E0820E911C252D240DF301E20FF11D5E
:101CD0002081213391F4282F9A838983482D9C8277
:101CE0008B826E2DFE82ED82B886AF8200E010E01E
:101CF0003A815C817E818A2D1AC02033D9F49A837F
:101D000089839C828B82FE82ED82B886AF8201E05D
:101D100010E0311002C000E010E0119501951109AA
:101D200029813A814B815C816D817E818F8198858B
:101D30000E94CE024394C4012AE04212C0CF520E48
:101D4000750184E65812B5CF28960FB6F894DEBF19
:101D50000FBECDBFDF91CF911F910F91FF90EF90FC
:101D6000DF90CF90BF90AF909F908F907F906F90BB
:101D70005F904F903F9008951F920F920FB60F9271
:101D800011242F938F939F9380914A05882379F193
:101D90009091A6099093A8098091A7098093A90919
:101DA00020914A0512166CF4992311F0915010C03D
:101DB0008823C1F081508093A70987E08093A6090A
:101DC00011C020914A0527FF0DC0973020F49F5F76
:101DD0009093A60907C0873028F48F5F8093A709E6
:101DE0001092A60981E080934C0510924A059F91BC
:101DF0008F912F910F900FBE0F901F901895FF920B
:101E00000F931F93CF93DF93122FD32FC42FB52F90
:101E1000F62FE72FF82E092FAFEF0E946C402123F9
:101E20003D234C235B236F237E23E1E08F2190230E
:101E3000A0E00E94784009F4E0E08E2FDF91CF917E
:101E40001F910F91FF90089597E0961B28E0929FB5
:101E5000800D11240895282F26952695269597E024
:101E6000921BFA0190838770FB01808308950F9382
:101E70001F93CF93DF93CDB7DEB728970FB6F894B3
:101E8000DEBF0FBECDBFF8948AE5282F86EE482F1F
:101E90008EE6682F82E800EA1EEF30E050E070E046
:101EA00090E00E94CE028CE5282F89831A8284EE6E
:101EB000482F8B831C8280E7682F8D831E8280E8E9
:101EC0008F83188600E010E030E050E070E090E092
:101ED0000E94CE0245E750E062E870E089ED94E0B0
:101EE0000E94A805789428960FB6F894DEBF0FBE1E
:101EF000CDBFDF91CF911F910F9108950F931F9345
:101F0000CF93DF93CDB7DEB728970FB6F894DEBF37
:101F10000FBECDBFF8948AE5282F86EE482F8EE6B7
:101F2000682F82E800EA1EEF30E050E070E090E0B9
:101F30000E94CE028CE5282F89831A8284EE482FD6
:101F40008B831C8280E7682F8D831E8280E88F83BD
:101F5000188600E010E030E050E070E090E00E9471
:101F6000CE0245E750E062E870E083EE94E00E9424
:101F7000A805789428960FB6F894DEBF0FBECDBFA3
:101F8000DF91CF911F910F9108950F931F93CF93DE
:101F9000DF93CDB7DEB760970FB6F894DEBF0FBE04
:101FA000CDBFF8948AE291E09A8789878EE291E02A
:101FB0009C878B8780914E05882319F02FED30E0A8
:101FC00002C027E130E03E872D87882311F083EEA1
:101FD00001C08BE190E08F87988B00E010E02985AD
:101FE0003A854B855C856D857E850E94CE028AE2AE
:101FF00091E09A8389838EE291E09C838B83809128
:102000004E05813019F02FED30E002C027E130E0BD
:102010003E832D83813011F083EE01C08BE190E08F
:102020008F8398870FEF1FEF29813A814B815C8165
:102030006D817E810E94CE02789460960FB6F894EE
:10204000DEBF0FBECDBFDF91CF911F910F910895DD
:102050000F931F93CF93DF93CDB7DEB728970FB6BB
:10206000F894DEBF0FBECDBF8A012EE1829FC00172
:102070001124DC0198968A5B9F4F482F9C838B83A9
:102080008EE1689FF0011124CF014E9698878F83CF
:102090002A2FBA83A9836E2FFE83ED833A815C8158
:1020A0007E8198850E94CE0228960FB6F894DEBFF6
:1020B0000FBECDBFDF91CF911F910F9108950F9368
:1020C0001F93CF93DF9300E010E0C0E0D0E0C801A1
:1020D0008C0F9D1F80FD03C04CE255EF02C042E211
:1020E0005AE86C2F802F0E9428102196C830D10505
:1020F00071F70F5F1F4F0830110539F7DF91CF914E
:102100001F910F910895462F98E0899FF0011124A7
:10211000EB59FA4FE60FF11D2081222319F19FEFB1
:10212000920F963058F430E02150310994E6929F96
:10213000F001939FF00D112421E00EC099EF920F52
:10214000963080F430E02750310994E6929FF001F8
:10215000939FF00D112420E0682FCF01875F9E4FE1
:102160000C94320E08950F931F93CF9380914C05DA
:10217000882309F46FC0F894B091A809C091A90907
:102180008B2F8C0F80FD03C00CE215EF02C002E222
:102190001AE887E08C1BEB2F98E0899FE00D112453
:1021A00088E0E89FF0011124EB55F84F20818091E1
:1021B0005D052823318180915E053823428180911D
:1021C0005F05482353818091600558236481809185
:1021D000610568237581809162057823A6818091CD
:1021E0006305E781909164058A239E23A0E00E9405
:1021F000784031F080914D05882311F002ED17E908
:102200008091A509813051F48091AA09B81306C0C4
:102210008091AB09C81302C000E014E0A8016C2F44
:102220008B2F0E9428106091A9098091A8090E9413
:10223000831048E156EC6091A7098091A6090E949D
:1022400028106091A7098091A6090E94831010921E
:102250004C057894CF911F910F910895EF92FF92C2
:102260000F931F93CF93DF93C5EAD7E010E087E089
:10227000E82E288139814A815B816C817D818E8144
:102280009F812896E0915D052E23E0915E053E2317
:10229000E0915F054E23E09160055E23E0916105CA
:1022A0006E23E09162057E23F0916305E091640561
:1022B0008F239E23A0E00E947840C9F0812F86954D
:1022C00086958695FE2CF81A012F0770802F8F0DAA
:1022D00080FD03C04CE255EF02C042E25AE86F2D88
:1022E000802F0E9428106F2D802F0E9483101F5F67
:1022F000103409F0BECF10925D0510925E05109269
:102300005F051092600510926105109262051092AF
:10231000630510926405DF91CF911F910F91FF909B
:10232000EF900895EF92FF920F931F93CF93DF9357
:10233000C5EAD7E010E087E0E82E288139814A819C
:102340005B816C817D818E819F812896E0915D0506
:102350002E23E0915E053E23E0915F054E23E09140
:1023600060055E23E09161056E23E09162057E23A6
:10237000F0916305E09164058F239E23A0E00E9405
:10238000784091F0812F869586958695FE2CF81AD7
:1023900042ED57E96F2D012F0770802F0E94281002
:1023A0006F2D802F0E9483101F5F103431F6DF9154
:1023B000CF911F910F91FF90EF900895CF93DF93EE
:1023C000D0E0C0E06C2F8D2F0E948310CF5FC8300B
:1023D000C9F7DF5FD830A9F7DF91CF9108950F9348
:1023E0001F93CF93DF930DEE14E0C0E0F801D1917D
:1023F0008F01DD2379F08FE0C89FB00111246A5E60
:102400007F4F8FE090E00E949A058D2F0E94B304C9
:10241000CF5FECCFDF91CF911F910F910895122FD5
:10242000F32EE42ED52EC62EB72EA82E992EF89474
:10243000C0E0D0E087E0882E8C2F86958695869523
:10244000F82DF81BEC2FE770212F3F2D4E2D5D2D21
:102450006C2D7B2D8A2D992D0C2F0E9450402170C0
:1024600030E040E050E060E070E080E090E0A0E02C
:102470000E94784019F04FEF5FEF02C040E154E84E
:102480006F2F8E2F0E9428102196C034D105A1F6FF
:10249000FFCF3F924F925F926F927F928F929F9267
:1024A000AF92BF92CF92DF92EF92FF920F931F9362
:1024B000CF93DF937C011092A5091092A609109288
:1024C000A7091092A8091092A909E0E0F0E0412CB8
:1024D00057E0352E14E068E0D62E7BE0C72EAAE048
:1024E000BA2EB9E0AB2ECCE09C2ED2E08D2E05E0CA
:1024F000702E83E0682E96E0592ED701A40DB11DF1
:102500008C91882309F42FC3932D9E1B0F2F28E055
:10251000929F000D1124AF2FB0E0823509F463C102
:102520000CF08FC08E3409F49DC10CF045C082348C
:1025300009F4D7C18B3409F00EC321E030E040E04C
:1025400050E060E070E080E090E00E943540009153
:10255000D505202B0091D605302B0091D705402BB7
:102560000091D805502B0091D905602B0091DA0518
:10257000702B0091DB05802B0091DC05902B2093C4
:10258000D5053093D6054093D7055093D805609371
:10259000D9057093DA058093DB059093DC05CD01B6
:1025A000C3E0880F991FCA95E1F78B599A4F8E0F98
:1025B000911DEC015882CFC2803509F4D4C0813519
:1025C00009F0C9C221E030E040E050E060E070E096
:1025D00080E090E00E9435400091CD05202B0091D5
:1025E000CE05302B0091CF05402B0091D005502B0C
:1025F0000091D105602B0091D205702B0091D3057D
:10260000802B0091D405902B2093CD053093CE05DF
:102610004093CF055093D0056093D1057093D205B8
:102620008093D3059093D405CD01D3E0880F991FF3
:10263000DA95E1F78B599A4F8E0F911DEC01788254
:102640008AC28E3609F4CBC10CF045C0823609F43B
:1026500005C28B3609F07FC221E030E040E050E057
:1026600060E070E080E090E00E9435400091050657
:10267000202B00910606302B00910706402B00917D
:102680000806502B00910906602B00910A06702B5A
:1026900000910B06802B00910C06902B20930506D1
:1026A0003093060640930706509308066093090688
:1026B00070930A0680930B0690930C06CD0123E0DD
:1026C000880F991F2A95E1F78B599A4F8E0F911D0C
:1026D000EC01988240C2813709F4FFC1823709F4C6
:1026E0003FC1803709F037C221E030E040E050E0E0
:1026F00060E070E080E090E00E9435400091DD05F0
:10270000202B0091DE05302B0091DF05402B00913E
:10271000E005502B0091E105602B0091E205702B44
:102720000091E305802B0091E405902B2093DD05BB
:102730003093DE054093DF055093E0056093E1059B
:102740007093E2058093E3059093E405CD0173E077
:10275000880F991F7A95E1F78B599A4F8E0F911D2B
:10276000EC013882F8C121E030E040E050E060E068
:1027700070E080E090E00E9435400091AD05202B94
:102780000091AE05302B0091AF05402B0091B005B4
:10279000502B0091B105602B0091B205702B009178
:1027A000B305802B0091B405902B2093AD05309399
:1027B000AE054093AF055093B0056093B10570939B
:1027C000B2058093B3059093B405CD0143E0880F23
:1027D000991F4A95E1F78B599A4F8E0F911D21E071
:1027E000EC012883B8C121E030E040E050E060E037
:1027F00070E080E090E00E9435400091C505202BFC
:102800000091C605302B0091C705402B0091C805EB
:10281000502B0091C905602B0091CA05702B0091C7
:10282000CB05802B0091CC05902B2093C5053093D0
:10283000C6054093C7055093C8056093C9057093BA
:10284000CA058093CB059093CC05CD0133E0880F6A
:10285000991F3A95E1F78B599A4F8E0F911DEC0114
:10286000188379C121E030E040E050E060E070E0A2
:1028700080E090E00E9435400091B505202B00914A
:10288000B605302B0091B705402B0091B805502BB1
:102890000091B905602B0091BA05702B0091BB0522
:1028A000802B0091BC05902B2093B5053093B60585
:1028B0004093B7055093B8056093B9057093BA0576
:1028C0008093BB059093BC05CD0123E0880F991F31
:1028D0002A95E1F78B599A4F8E0F911DEC01888252
:1028E0003AC121E030E040E050E060E070E080E09C
:1028F00090E00E9435400091BD05202B0091BE055F
:10290000302B0091BF05402B0091C005502B00914A
:10291000C105602B0091C205702B0091C305802B6F
:102920000091C405902B2093BD053093BE054093C4
:10293000BF055093C0056093C1057093C205809395
:10294000C3059093C405CD0103E0880F991F0A9534
:10295000E1F78B599A4F8E0F911DEC016882FBC0F5
:1029600021E030E040E050E060E070E080E090E0A6
:102970000E9435400091F505202B0091F605302B83
:102980000091F705402B0091F805502B0091F905B7
:10299000602B0091FA05702B0091FB05802B0091B4
:1029A000FC05902B2093F5053093F6054093F70531
:1029B0005093F8056093F9057093FA058093FB0531
:1029C0009093FC05CD0163E0880F991F6A95E1F7AC
:1029D0008B599A4F8E0F911DEC01B882BCC021E03B
:1029E00030E040E050E060E070E080E090E00E9485
:1029F00035400091E505202B0091E605302B009134
:102A0000E705402B0091E805502B0091E905602B6C
:102A10000091EA05702B0091EB05802B0091EC05ED
:102A2000902B2093E5053093E6054093E7055093FE
:102A3000E8056093E9057093EA058093EB059093B0
:102A4000EC05CD0153E0880F991F5A95E1F78B599A
:102A50009A4F8E0F911DEC01D8827DC021E030E0AD
:102A600040E050E060E070E080E090E00E9435409F
:102A70000091ED05202B0091EE05302B0091EF0524
:102A8000402B0091F005502B0091F105602B009137
:102A9000F205702B0091F305802B0091F405902B2B
:102AA0002093ED053093EE054093EF055093F0052C
:102AB0006093F1057093F2058093F3059093F4050C
:102AC000CD0143E0880F991F4A95E1F78B599A4F42
:102AD0008E0F911DEC01A8823EC021E030E040E065
:102AE00050E060E070E080E090E00E9435400091AE
:102AF000FD05202B0091FE05302B0091FF05402B9A
:102B000000910006502B00910106602B00910206F7
:102B1000702B00910306802B00910406902B2093CC
:102B2000FD053093FE054093FF055093000660932A
:102B30000106709302068093030690930406CD016C
:102B400033E0880F991F3A95E1F78B599A4F8E0F12
:102B5000911DEC01C88217971CF0EF5FF0E001C0F7
:102B6000FF5F4394CACC7091AD058091C505782B69
:102B70006091AE058091C605682B5091AF0580919C
:102B8000C705582B4091B0058091C805482B30915E
:102B9000B1058091C905382B2091B2058091CA05F5
:102BA000282B9091B3058091CB05982BE091B4052B
:102BB0008091CC058E2BE091B5057E2BE091B6057A
:102BC0006E2BE091B7055E2BE091B8054E2BE0919E
:102BD000B9053E2BE091BA052E2BE091BB059E2B4B
:102BE000E091BC058E2BE091BD057E2BE091BE05EA
:102BF0006E2BE091BF055E2BE091C0054E2BE0915E
:102C0000C1053E2BE091C2052E2BE091C3059E2B02
:102C1000E091C4058E2BE091CD057E2BE091CE0591
:102C20006E2BE091CF055E2BE091D0054E2BE0910D
:102C3000D1053E2BE091D2052E2BE091D3059E2BA2
:102C4000E091D4058E2B1091D505712BD091D6052E
:102C50006D2BC091D7055C2B0091D805402BB0910E
:102C6000D9053B2BA091DA052A2BF091DB059F2B90
:102C7000E091DC058E2B70930D0660930E06509349
:102C80000F0640931006309311062093120690937E
:102C90001306809314061091DD05E091F5051E2BB7
:102CA000D091DE05E091F605DE2BC091DF05E091C5
:102CB000F705CE2B0091E005E091F8050E2BB091C1
:102CC000E105E091F905BE2BA091E205E091FA053E
:102CD000AE2BF091E305E091FB05FE2BF090E405AF
:102CE000E091FC05EF29F090E5051F29F090E6053D
:102CF000DF29F090E705CF29F090E8050F29F09043
:102D0000E905BF29F090EA05AF29F090EB05FF290E
:102D1000F090EC05EF29F090ED051F29F090EE05FD
:102D2000DF29F090EF05CF29F090F0050F29F09002
:102D3000F105BF29F090F205AF29F090F305FF29C6
:102D4000F090F405EF29F090FD051F29F090FE05A5
:102D5000DF29F090FF05CF29B0900006B02AC0907F
:102D60000106CB2AD0900206DA2AE0900306EF2A69
:102D7000F0900406FE2AE09105061E2BE09106065F
:102D8000DE2BE0910706CE2B009108060B29B091AF
:102D90000906BC29A0910A06AD29F0910B06FE296F
:102DA000E0910C06EF2910931506D0931606C093F8
:102DB000170600931806B0931906A0931A06F0930D
:102DC0001B06E0931C06712B6D2B5C2B042BB32B85
:102DD000A22BF92BE82B70931D0660931E065093CF
:102DE0001F0600932006B0932106A0932206F093BD
:102DF0002306E0932406E5EAF7E0A0E0B0E021E056
:102E000030E040E050E060E070E080E090E00A2FC9
:102E10000E943540208331834283538364837583CA
:102E20008683978338961196A034B10541F7DF91D8
:102E3000CF911F910F91FF90EF90DF90CF90BF90B7
:102E4000AF909F908F907F906F905F904F903F904A
:102E500008952F923F924F925F926F927F928F923E
:102E60009F92AF92BF92CF92DF92EF92FF920F9319
:102E70001F93CF93DF93CDB7DEB765970FB6F89466
:102E8000DEBF0FBECDBF39014A016D8B7C8BB82FE1
:102E9000A92FA88AB98A0A8B1B8B822F8F778983E7
:102EA000872D8F778A83842F8F778B83892D8F77D8
:102EB0008C83162F1F77872F8F778D838B2F8F779C
:102EC0008E83892F8F778F83822F8E7F8887872DA0
:102ED0008E7F8987842F8E7F8A87892D8E7F8B872F
:102EE000862F8E7F8C87872F8E7F8D878B2F8E7F6F
:102EF0008E87892F8E7F8F878B2F08E00E94354029
:102F000019012A015B01F82FE92F9301A4016D89B2
:102F10007C898B2F9A2F0E945040222A332A442AE0
:102F2000552AA62AB72AF82BE92B288539854A8500
:102F30005B856C857D858E859F8507E00E94354089
:102F4000222A332A442A552AA62AB72AF82BE92B03
:102F500029813A814B815C81612F7D818E819F81A6
:102F600009E00E943540222A332A442A552AA62AFB
:102F7000B72AF82BE92B29813A814B815C81612F9B
:102F80007D818E819F8101E00E943540222A332A73
:102F9000442A552AA62AB72AF82BE92B29813A81F7
:102FA0004B815C81612F7D818E819F8107E00E9432
:102FB0005040222A332A442A552AA62AB72AF82B17
:102FC000E92B288539854A855B856C857D858E85CD
:102FD0009F8509E00E945040222A332A442A552A1C
:102FE000A62AB72AF82BE92B288539854A855B85DF
:102FF0006C857D858E859F8501E00E945040222A48
:10300000332A442A552AA62AB72AF82BE92B2889DD
:103010002095A989A095C094D094E094F0948A89D1
:1030200080959B8990952221332D3A23442D4C2164
:10303000552D5D216A2D6E217B2D7F218F239E23AF
:1030400065960FB6F894DEBF0FBECDBFDF91CF916E
:103050001F910F91FF90EF90DF90CF90BF90AF90B6
:103060009F908F907F906F905F904F903F902F90A8
:1030700008952F923F924F925F926F927F928F921C
:103080009F92AF92BF92CF92DF92EF92FF920F93F7
:103090001F93CF93DF93CDB7DEB765970FB6F89444
:1030A000DEBF0FBECDBFE22FEC7FE983E32FEC7FC5
:1030B000EA83E42FEC7FEB83E52FEC7FEC83E62FB4
:1030C000EC7FED83E72FEC7FEE83E82FEC7FEF833F
:1030D000E92FEC7FE887E22FEE7FE987E32FEE7F91
:1030E000EA87E42FEE7FEB87E52FEE7FEC87E62F74
:1030F000EE7FED87E72FEE7FEE87E82FEE7FEF87FD
:10310000E92FEE7FE88BE22FEF772E2EE32FEF777C
:103110003E2EE42FEF774E2EE52FEF775E2EE62F33
:10312000EF776E2EE72FEF77E98BE82FEF77EA8BBB
:10313000E92FEF77EB8B2F73D22E3F73E32E4F7374
:10314000F42E152F1F736F736D8B7F737C8BB82FCD
:10315000BF73A92FAF7329813A814B815C816D8147
:103160007E818F81988506E00E943540722E832EE5
:10317000942EA52EB62EC72EF82FE92F29853A8535
:103180004B855C856D857E858F8598890FE00E94D3
:103190003540722A832A942AA52AB62AC72AF82BF0
:1031A000E92B9101A201662D79898A899B8901E128
:1031B0000E943540722A832A942AA52AB62AC72A51
:1031C000F82BE92B2D2D3E2D4F2D512F6D897C890C
:1031D0008B2F9A2F0AE00E943540722A832A942A64
:1031E000A52AB62AC72AF82BE92B2D2D3E2D4F2DC7
:1031F000512F6D897C898B2F9A2F06E00E945040B9
:10320000722A832A942AA52AB62AC72AF82BE92BE0
:103210009101A201662D79898A899B890FE00E941C
:103220005040722A832A942AA52AB62AC72AF82B44
:10323000E92B29853A854B855C856D857E858F8553
:10324000988901E10E945040722A832A942AA52A73
:10325000B62AC72AF82BE92B29813A814B815C8158
:103260006D817E818F8198850AE00E9450402729D8
:10327000382949295A296B297C298F2B9E2B659641
:103280000FB6F894DEBF0FBECDBFDF91CF911F9177
:103290000F91FF90EF90DF90CF90BF90AF909F90F5
:1032A0008F907F906F905F904F903F902F900895F8
:1032B000AF92BF92CF92DF92EF92FF920F931F9344
:1032C0000E943918A094B094C094D094E094F094E3
:1032D000009510952A213B214C215D216E217F21F3
:1032E000802391231F910F91FF90EF90DF90CF905B
:1032F000BF90AF9008957F928F929F92AF92BF92AE
:10330000CF92DF92EF92FF920F931F93CF93DF93B1
:10331000D22FC32FB42FA52FF62FE72FF82E192F5A
:103320002E7F3E7F4E7F5E7F6E7F7E7F8E7F9E7F75
:1033300007E00E943540722E832E942EA52EB62EC5
:10334000C72ED82EE92E2D2F2F773C2F3F774B2FCE
:103350004F775A2F5F776F2F6F777E2F7F778F2D65
:103360008F77912F9F7709E00E94354027293829D0
:1033700049295A296B297C298D299E29DF91CF91D2
:103380001F910F91FF90EF90DF90CF90BF90AF9083
:103390009F908F907F9008952F923F924F925F92CF
:1033A0006F927F928F929F92AF92BF92CF92DF9255
:1033B000EF92FF920F931F93CF93DF93CDB7DEB7BA
:1033C0002F970FB6F894DEBF0FBECDBF29833A8387
:1033D000142F5D876C87B72F8B83A92F4DE156E0A3
:1033E000FA01808180958E87818180958F874280C8
:1033F00040944C82538050945D826481A62EA094A8
:103400007581B72EB0948681E82EE0949781F92ECD
:10341000F094412F5D856C857B2F8B819A2F08E07E
:103420000E943540FE85F223FE83EF85E323D42CF2
:10343000D422F52DF523F8876A2169877B217A87C5
:10344000882E8E20992E9F2029812E7F3A813E7FC3
:10345000412F4E7F5D855E7F6C856E7F7B2F7E7FEB
:103460008B818E7F9A2F9E7F07E00E943540190145
:103470002A013B01C82EF92F29812F773A813F7706
:10348000412F4F775D855F776C856F777B2F7F77D7
:103490008B818F779A2F9F7709E00E9435402229F0
:1034A000332944295529662977298C299F2BA5E1A1
:1034B000B6E02C902221309016063321409017065A
:1034C000442150901806552160901906662170908D
:1034D0001A067721C0901B068C21A0911C069A2306
:1034E0002E80222A3E2E332A442E4D285884552AD7
:1034F0006984662A7A84772A882A992A20E030E02B
:103500004D2D50E060E070E080E090E008E00E9427
:103510003540EE852E23FF853F23EC814E23FD8130
:103520005F236A217B218E219F212229332944296F
:10353000552966297729882999292F960FB6F89455
:10354000DEBF0FBECDBFDF91CF911F910F91FF90D6
:10355000EF90DF90CF90BF90AF909F908F907F9033
:103560006F905F904F903F902F9008957F928F9231
:103570009F92AF92BF92CF92DF92EF92FF920F9302
:103580001F93CF93DF93D22FC32FB42FA52FF62FE6
:10359000E72FF82E192F2E7F3E7F4E7F5E7F6E7FA6
:1035A0007E7F8E7F9E7F09E00E945040722E832E88
:1035B000942EA52EB62EC72ED82EE92E2D2F2F777E
:1035C0003C2F3F774B2F4F775A2F5F776F2F6F77B7
:1035D0007E2F7F778F2D8F77912F9F7707E00E9427
:1035E00050402729382949295A296B297C298D29B6
:1035F0009E29DF91CF911F910F91FF90EF90DF9067
:10360000CF90BF90AF909F908F907F9008952F9212
:103610003F924F925F926F927F928F929F92AF9262
:10362000BF92CF92DF92EF92FF920F931F93CF93AF
:10363000DF93CDB7DEB72F970FB6F894DEBF0FBE7E
:10364000CDBF29833A83142F5D876C87B72F8B8377
:10365000A92F2DE136E0F901808180958E87818147
:1036600080958F87428140954C83538150955D832F
:103670006481A62EA0947581B72EB0948681E82E21
:10368000E0949781F92EF09429813A81412F5D854C
:103690006C857B2F8B819A2F08E00E945040FE851D
:1036A000F223FE83EF85E323EF83FC81F423F88785
:1036B000ED81E5236A216A87D72EDB20882E8E20B4
:1036C000992E9F2029812E7F3A813E7F412F4E7F68
:1036D0005D855E7F6C856E7F7B2F7E7F8B818E7F8D
:1036E0009A2F9E7F09E00E94504019012A013B0158
:1036F000C82EF92F29812F773A813F77412F4F77B5
:103700005D855F776C856F777B2F7F778B818F7778
:103710009A2F9F7707E00E9450402229332944299D
:103720005529662977298C299F2BADE0B6E02C908E
:10373000222130900E06332140900F0644215090F4
:1037400010065521609011066621709012067721AF
:10375000C09013068C21A09114069A232E80222A51
:103760003F80332A4884442A5E2E552A6A84662A7A
:10377000772E7D28882A992A20E030E040E050E02A
:1037800060E07D2D80E090E008E00E945040FE85E2
:103790002F23EF853E23FC814F23ED815E236A2199
:1037A0007B218E219F2122293329442955296629ED
:1037B0007729882999292F960FB6F894DEBF0FBE76
:1037C000CDBFDF91CF911F910F91FF90EF90DF90D0
:1037D000CF90BF90AF909F908F907F906F905F90B1
:1037E0004F903F902F9008952F923F924F925F926B
:1037F0006F927F928F929F92AF92BF92CF92DF9201
:10380000EF92FF920F931F93CF93DF93CDB7DEB765
:1038100060970FB6F894DEBF0FBECDBF2B833C83FD
:103820004D835E836F83788789879A87612EE5EA67
:10383000F7E010E0712C812C912C1E861D861F86CE
:1038400019821A822081318142815381648175817C
:10385000868197813896BB812B23BC813B23BD8118
:103860004B23BE815B23BF816B23B8857B23B98546
:103870008B23BA859B23A0E00E94784009F429C1DC
:10388000512E412E27E324150CF43FC028E0420EB0
:1038900088E0489E900111242B55384FD9013C9067
:1038A00011962C90119712964C91129713965C9149
:1038B000139714966C91149715967C9115971696FC
:1038C0008C91169717969C9173288228942ABE850E
:1038D000B52BBE87BD85B62BBD87BF85B72BBF87F0
:1038E000B981B82BB983BA81B92BBA83232D2A2188
:1038F000322D3B214C215D216E217F218023962199
:10390000A0E00E94784009F4BDCF412E27E02415A5
:103910000CF03FC038EF430E88E0489E9001112420
:103920002B55384FD9013C9011962C901197129637
:103930004C91129713965C91139714966C9114976F
:1039400015967C91159716968C91169717969C91C3
:1039500073288228942ABE85B52BBE87BD85B62BD9
:10396000BD87BF85B72BBF87B981B82BB983BA8113
:10397000B92BBA832A2D23213B2D32214C215D21E5
:103980006E217F2180239621A0E00E94784009F4D7
:10399000BDCF312F387F332E87E0830F412EA82FE4
:1039A000B0E0BC87AB87842D042C000C990B2B85D1
:1039B0003C85821793070CF041C04394B42D88E0F6
:1039C000B802900111242B55384FD9012C90119633
:1039D000BC91B88BD90112964C91129713965C91B9
:1039E000139714966C91149715967C9115971696CB
:1039F0008C91169717969C917228B8898B2A942AD5
:103A0000BE85B52BBE87BD85B62BBD87BF85B72BC1
:103A1000BF87B981B82BB983BA81B92BBA832A2D54
:103A2000222138893B214C215D216E217F21802379
:103A30009621A0E00E94784009F4B5CF232C312CC8
:103A4000852D052C000C990B281639060CF041C069
:103A50005A94852D98E08902900111242B55384FF6
:103A6000D9014C901196BC91BB87D90112964C910B
:103A7000129713965C91139714966C911497159660
:103A80007C91159716968C91169717969C91742891
:103A9000BB858B2A942ABE85B52BBE87BD85B62BE8
:103AA000BD87BF85B72BBF87B981B82BB983BA81D2
:103AB000B92BBA832A2D24213B853B214C215D2142
:103AC0006E217F2180239621A0E00E94784009F496
:103AD000B7CF1F5F103409F0B5CE272D382D492DF3
:103AE0005E856D857F8589819A8160960FB6F89491
:103AF000DEBF0FBECDBFDF91CF911F910F91FF9021
:103B0000EF90DF90CF90BF90AF909F908F907F907D
:103B10006F905F904F903F902F9008952F923F921B
:103B20004F925F926F927F928F929F92AF92BF92CD
:103B3000CF92DF92EF92FF920F931F93CF93DF9379
:103B4000CDB7DEB71501260137014801AD88BE8823
:103B5000CF88D88CE98CFA8C0B8D1C8D0E94F41BBD
:103B600020943094409450946094709480949094F5
:103B70002221332144215521662177218821992151
:103B8000DF91CF911F910F91FF90EF90DF90CF9039
:103B9000BF90AF909F908F907F906F905F904F906D
:103BA0003F902F9008952F923F924F925F926F9285
:103BB0007F928F929F92AF92BF92CF92DF92EF92BD
:103BC000FF920F931F93CF93DF93CDB7DEB7639729
:103BD0000FB6F894DEBF0FBECDBF2F83388749875D
:103BE0005A876B877C878D879E874A2C2B2CCD82AA
:103BF000712E85EA97E0998B888B1C82912CA12CE1
:103C0000B12CC12C19821A821A8AF0E0A889B989CC
:103C10002C9111963C91119712964C9112971396F4
:103C20005C91139714966C91149715967C91159747
:103C300016968C91169717969C9117971896B98B94
:103C4000A88BBF812B23E8853E23B9854B23EA85CA
:103C50005E23BB856B23EC857E23BD858B23EE85A0
:103C60009E23A0E00E94784009F44FC18C81869584
:103C70008695869597E0892E881AEC81E770BE2F8D
:103C8000B80DBE831B2F27EF829E100D11246E2EC0
:103C9000512CB1E4B10FBB83862D90E007970CF057
:103CA00045C0BE816B1609F441C063942B81250D7C
:103CB00088E0289F900111242B55384FD9013C9062
:103CC0001196BC91BF87D90112964C911297139609
:103CD0005C91139714966C91149715967C91159797
:103CE00016968C91169717969C919328BF85AB2AB0
:103CF000B42AC52AB981B62BB983BA81B72BBA8346
:103D0000BA89B82BBA8BF92B29E0520E232D242126
:103D10003F853221BD814B235D216E217F21802390
:103D20009721A0E00E94784009F4B6CF312E29EF08
:103D3000829E301811246E2E1B82BFE3B10FBF8705
:103D4000662009F446C0631409F443C06A942F85C1
:103D5000BB812B0F88E0289F900111242B55384FF1
:103D6000D9015C901196BC91BB8BD90112964C91F4
:103D7000129713965C91139714966C91149715965D
:103D80007C91159716968C91169717969C9195286D
:103D9000BB89AB2AB42AC52AB981B62BB983BA81AB
:103DA000B72BBA83BA89B82BBA8BF92BBB81B95F11
:103DB000BB83242D25213B893221BD814B235D21ED
:103DC0006E217F2180239721A0E00E94784009F492
:103DD000B7CF682C512CBFE2B10FBB83BE816B16ED
:103DE00009F446C0862D90E007970CF041C063941B
:103DF0002B81250D88E0289F900111242B55384FE9
:103E0000D9013C901196BC91BF87D90112964C9173
:103E1000129713965C91139714966C9114971596BC
:103E20007C91159716968C91169717969C919328CE
:103E3000BF85AB2AB42AC52AB981B62BB983BA810A
:103E4000B72BBA83BA89B82BBA8BF92B27EF520E4E
:103E5000242D23213F853221BD814B235D216E21FD
:103E60007F2180239721A0E00E94784009F4B6CFFB
:103E7000612C8E1A1F5C882D8E0F2E2F30E027307C
:103E800031050CF042C0873008F03FC0EF5F212FB2
:103E9000260D88E0289F900111242B55384FD90119
:103EA0005C9011963C90119712964C911297139634
:103EB0005C91139714966C91149715967C911597B5
:103EC00016968C91169717969C919528A328B42A3C
:103ED000C52AB981B62BB983BA81B72BBA83BA89FF
:103EE000B82BBA8BF92B29EF620E242D2521322D08
:103EF0003321BD814B235D216E217F2180239721BA
:103F0000A0E00E94784009F4B6CFEC81EF5FEC832B
:103F1000E03409F07BCE292D3A2D4B2D5C2D6981A3
:103F20007A818A899F2F63960FB6F894DEBF0FBE01
:103F3000CDBFDF91CF911F910F91FF90EF90DF9058
:103F4000CF90BF90AF909F908F907F906F905F9039
:103F50004F903F902F9008952F923F924F925F92F3
:103F60006F927F928F929F92AF92BF92CF92DF9289
:103F7000EF92FF920F931F93CF93DF93CDB7DEB7EE
:103F80001501260137014801AD88BE88CF88D88C3D
:103F9000E98CFA8C0B8D1C8D0E94D31D20943094DB
:103FA0004094509460947094809490942221332192
:103FB000442155216621772188219921DF91CF91D4
:103FC0001F910F91FF90EF90DF90CF90BF90AF9037
:103FD0009F908F907F906F905F904F903F902F9029
:103FE00008952F923F924F925F926F927F928F929D
:103FF0009F92AF92BF92CF92DF92EF92FF920F9378
:104000001F93CF93DF93CDB7DEB760970FB6F894C9
:10401000DEBF0FBECDBF19012A013B014C01A88AAA
:10402000BF86C982DA82EB82FC820D831E830E94E6
:10403000F41B2F83388749875A876B877C878D8746
:104040009E87A888BF84C980DA80EB80FC800D81C0
:104050001E819101A201B301C4010E94D31DEF8111
:104060002E2BE8853E2BE9854E2BEA855E2BEB85D2
:104070006E2BEC857E2BED858E2BEE859E2B609630
:104080000FB6F894DEBF0FBECDBFDF91CF911F9169
:104090000F91FF90EF90DF90CF90BF90AF909F90E7
:1040A0008F907F906F905F904F903F902F900895EA
:1040B0002F923F924F925F926F927F928F929F9238
:1040C000AF92BF92CF92DF92EF92FF920F931F9326
:1040D000CF93DF93CDB7DEB7150126013701480135
:1040E000AD88BE88CF88D88CE98CFA8C0B8D1C8D5E
:1040F0000E94F11F209430944094509460947094E6
:1041000080949094222133214421552166217721E6
:1041100088219921DF91CF911F910F91FF90EF900E
:10412000DF90CF90BF90AF909F908F907F906F90D7
:104130005F904F903F902F9008952F923F924F9213
:104140005F926F927F928F929F92AF92BF92CF9227
:10415000DF92EF92FF920F931F93CF93DF93CDB730
:10416000DEB7A8970FB6F894DEBF0FBECDBFD090D4
:10417000AD051091AE05B091AF05A091B005F091DD
:10418000B105E091B2058090B3059090B4052D2D56
:104190002F77312F3F774B2F4F775A2F5F776F2F26
:1041A0006F777E2F7F77882D8F77992D9F7709E006
:1041B0000E94354079011A012B013C012D2D2E7FE3
:1041C000312F3E7F4B2F4E7F5A2F5E7F6F2F6E7F9A
:1041D0007E2F7E7F882D8E7F992D9E7F07E00E9407
:1041E0003540E22AE982F32AFA82242A2B82352AF0
:1041F0003C82462A4D82572A5E82682A6F82792A3B
:104200007886EDE0F6E0A080B180C280D380E480C3
:10421000F580068117812091D5053091D605409112
:10422000D7055091D8056091D9057091DA05809134
:10423000DB059091DC050E94291729873A874B8777
:104240005C876D877E878F87988B2091B50530912D
:10425000B6054091B7055091B8056091B9057091C8
:10426000BA058091BB059091BC050E943918298B35
:104270003A8B4B8B5C8B6D8B7E8B8F8B988FE5E0B5
:10428000F6E0208020943180309442804094538026
:104290005094648060947580709486808094978038
:1042A0009094EDE1F6E0808128228181382282819C
:1042B00048228381582284816822858178228681E0
:1042C0008822878198222091C5053091C6054091AA
:1042D000C7055091C8056091C9057091CA05510183
:1042E0006201730184018091CB059091CC050E94FD
:1042F000F41B298F3A8F4B8F5C8F6D8F7E8F8F8F42
:1043000098A32091BD053091BE054091BF05509105
:10431000C0056091C1057091C2058091C30590915F
:10432000C4050E94D31D29A33AA34BA35CA36DA38C
:104330007EA38FA398A72091CD053091CE05409103
:10434000CF055091D0056091D1057091D205809133
:10435000D3059091D4050E94F11FF980E984FE28CD
:104360001A810A85102BEB81FB85EF2BEA83EC8009
:104370000C85E02AE982ED81FD85EF2BBE81EE847C
:10438000BE29AF810F85A02BF885E888FE29098911
:10439000F02AEA881E290A81EB880E290A830981FE
:1043A000EC880E2909830D89E02BEE88BE290F8940
:1043B000A02BE88CFE29098DF02AEA8C1E290A819F
:1043C000EB8C0E290A830981EC8C0E2909830D8D53
:1043D000E02BEE8CBE290F8DA02BE8A0FE2909A1B1
:1043E000F02AEAA01E290A81EBA00E290A8309817E
:1043F000ECA00E2909830DA1E02BEEA0BE290FA190
:10440000A02BE8A4FE292F29312B0A81402B1981EA
:10441000512B6E2B7B2B8A2B9F2BA8960FB6F894D3
:10442000DEBF0FBECDBFDF91CF911F910F91FF90E7
:10443000EF90DF90CF90BF90AF909F908F907F9044
:104440006F905F904F903F902F9008952F923F92E2
:104450004F925F926F927F928F929F92AF92BF9294
:10446000CF92DF92EF92FF920F931F93CF93DF9340
:10447000CDB7DEB7A8970FB6F894DEBF0FBECDBF9D
:10448000D090DD051091DE05B091DF05A091E0052B
:10449000F091E105E091E2058090E3059090E4055C
:1044A0002D2D2F77312F3F774B2F4F775A2F5F7757
:1044B0006F2F6F777E2F7F77882D8F77992D9F773E
:1044C00007E00E94504079012A013B011C012D2D7B
:1044D0002E7F312F3E7F4B2F4E7F5A2F5E7F6F2FC7
:1044E0006E7F7E2F7E7F882D8E7F992D9E7F09E0A7
:1044F0000E945040E22AE982F32AFA82442A4B823F
:10450000552A5C82662A6D82772A7E82282A2F822B
:10451000392A3886E5E1F6E0A080B180C280D380F8
:10452000E480F58006811781E5E0F6E020813181A5
:104530004281538164817581868197810E94291708
:1045400029873A874B875C876D877E878F87988B13
:10455000E5EEF5E0208131814281538164817581EE
:10456000868197810E943918298B3A8B4B8B5C8B03
:104570006D8B7E8B8F8B988F4090D505409450909B
:10458000D60550946090D70560947090D8057094CB
:104590008090D90580949090DA0590948091DB0505
:1045A0008095E090DC05E094EDE1F6E09081492211
:1045B0009181592292816922938179229481892261
:1045C000958199220681082308A78781E822EFA216
:1045D000E5EFF5E02081318142815381648175816D
:1045E0005201630174011FA1868197810E94F41B0F
:1045F000298F3A8F4B8F5C8F6D8F7E8F8F8F98A313
:10460000EDEEF5E020813181428153816481758135
:1046100008A51FA1868197810E94D31D29A33AA3D3
:104620004BA35CA36DA37EA31C01EDEFF5E02081FD
:1046300031814281538164817581868197810E9495
:10464000F11F1981E9851E2B1987FA81EA84FE2959
:10465000F983BB810B85B02BAC811C85A12BED812F
:10466000FD85EF2BFE81EE84FE29FF800F85F02A69
:104670001885E8881E290985E9880E290A83098199
:10468000EA880E2909830B89B02BEC88AE290D89A5
:10469000E02BEE88FE290F89F02AE88C1E290A817A
:1046A000E98C0E290A830981EA8C0E2909830B8D76
:1046B000B02BEC8CAE290D8DE02BEE8CFE290F8DEE
:1046C000F02AE8A01E290A81E9A00E290A8309819F
:1046D000EAA00E2909830BA1B02BECA0AE290DA1F5
:1046E000E02BEEA0FE292F28312A0A81202B1981E8
:1046F000312B4B2B5A2B6E2B7F2B82299329A8967B
:104700000FB6F894DEBF0FBECDBFDF91CF911F91E2
:104710000F91FF90EF90DF90CF90BF90AF909F9060
:104720008F907F906F905F904F903F902F90089563
:104730002F923F924F925F926F927F928F929F92B1
:10474000AF92BF92CF92DF92EF92FF920F931F939F
:10475000CF93DF93CDB7DEB766970FB6F894DEBF81
:104760000FBECDBF29833A834B835C836D837E83E9
:104770008F8398871E8B0D8B1701D8011C92119681
:104780001C92119712961C92129713961C921397D3
:1047900014961C92149715961C92159716961C92B7
:1047A000169717961C92F7011082118212821382BB
:1047B00014821582168217822F773F774F775F77A3
:1047C0006F777F778F779F7709E00E943540B22F10
:1047D000A32FF42FF52EE62F172F2C0129812E7FE2
:1047E0003A813E7F4B814E7F5C815E7F6D816E7F23
:1047F0007E817E7F8F818E7F98859E7F07E00E94DD
:1048000035402B2B3A2B4F2B5F296E2B712B842994
:104810009529C090DD052C218090DE058322E09053
:10482000DF054E21F090E0055F210091E105602356
:104830001091E20571234090E30548225090E40571
:104840005922AD89BE899C90C92CC22A11968C919F
:104850001197D82ED82812967C901297E72CE42A2C
:1048600013966C901397F62CF52A14960C911497C6
:10487000062B15961C911597172B16968C9116974B
:10488000482A17969C911797592ACC921196DC9238
:1048900011971296EC9212971396FC921397149616
:1048A0000C93149715961C93159716964C92169781
:1048B00017965C9229813A814B815C816D817E8162
:1048C0008F8198850E943918E5EEF5E0908092225C
:1048D0008180832272804721638056212481622354
:1048E0002581722326818223E7819E239C28998635
:1048F0008D288A86742E7E28652E6F28602B6B8704
:10490000712B7C8784298D8795299E87ED89FE8967
:1049100090828182728263826483758386839783A7
:104920008DE1882E86E0982ED401AC901196BC9033
:1049300011971296CC9012971396DC9013971496B9
:10494000EC9014971596FC90159716960C91169767
:1049500017961C9129813A814B815C816D817E8102
:104960008F8198850E94D31D522E432E4F87588BDE
:10497000698B7A8B8B8B9C8BEDEEF5E0208125216A
:10498000318134214281BF854B235381F8885F21D7
:1049900064817989672375818A89782386819B89D7
:1049A00089239781AC899A23B9852B2BAD89BE8940
:1049B0002C932A85232B11962C931197742A1296E7
:1049C0007C921297652A13966C92BB856B2BAD89EE
:1049D000BE8914966C93BC857B2BAD89BE891596D8
:1049E0007C93BD858B2BAD89BE8916968C93BE8535
:1049F0009B2BAD89BE8917969C93D401AC901196E0
:104A0000BC9011971296CC9012971396DC90139746
:104A10001496EC9014971596FC90159716960C9199
:104A2000169717961C9120813181428153816481B0
:104A30007581868197810E94D31DE090D505E09411
:104A4000F090D605F0940091D70500951091D80507
:104A50001095B091D905B095A091DA05A095F09187
:104A6000DB05F095E091DC05E095522243222F858D
:104A7000422338895323298962233A8973232B8956
:104A800082233C8993235E204F20402351236B23B4
:104A90007A238F239E23D1012C91522A5C92119666
:104AA0003C911197432A11964C92119712962C9192
:104AB0001297422B12964C93129713962C911397A0
:104AC000522B13965C93139714962C911497622B88
:104AD00014966C93149715962C911597722B159626
:104AE0007C93159716962C911697822B16968C937D
:104AF000169717968C911797982B17969C93F401FD
:104B0000A080B180C280D380E480F58006811781C7
:104B100029813A814B815C816D817E818F8198856D
:104B20000E94F41B29873A87742E652E562E472E35
:104B30008B879C87E5EFF5E02081F9842F21918117
:104B40009323828184237381752364816521558138
:104B5000542146813B8543233781AC853A23AD8977
:104B6000BE891C91212B2C9311962C911197922B7D
:104B700011969C93119712969C911297892B1296DD
:104B80008C93129713968C911397872B13968C9373
:104B9000139714968C911497862B14968C931497D4
:104BA00015968C911597852B15968C9315971696BF
:104BB0008C911697842B16968C93169717968C913A
:104BC0001797832B17968C93D401AC901196BC90B9
:104BD00011971296CC9012971396DC901397149617
:104BE000EC9014971596FC90159716960C911697C5
:104BF00017961C9120813181428153816481758196
:104C0000868197810E94F41BE090D505E094F09096
:104C1000D605F0940091D70500951091D805109510
:104C2000B091D905B095A091DA05A095F091DB057A
:104C3000F095E091DC05E095D984D2222A852323E2
:104C400074226522562247223B8583237C85972345
:104C50003E2D3D214F2D4223702261225B224A22AC
:104C60008F239E23D1012C91232B2C9311963C91C1
:104C70001197232F242B11962C93119712964C9158
:104C80001297742A12967C92129713965C9113973E
:104C9000652A13966C92139714966C911497562A62
:104CA00014965C92149715967C911597472A159641
:104CB0004C92159716962C911697822B16968C93DC
:104CC000169717968C911797982B17969C93F4012B
:104CD000A080B180C280D380E480F58006811781F6
:104CE00029813A814B815C816D817E818F8198859C
:104CF0000E94F11F29833A832A013B018B839C8305
:104D0000EDEFF5E02081F9802F21918193238281BD
:104D100084237381752164816621558157214681E1
:104D20003B8143233781AC813A23AD89BE891C91F5
:104D3000212B2C9311962C911197922B11969C93C9
:104D4000119712969C911297892B12968C93129719
:104D500013968C911397872B13968C931397149615
:104D60008C911497862B14968C93149715968C918E
:104D70001597852B15968C93159716968C911697EB
:104D8000842B16968C93169717968C911797832BD6
:104D900017968C93D401AC901196BC9011971296F3
:104DA000CC9012971396DC9013971496EC9014976E
:104DB0001596FC90159716960C91169717961C91C0
:104DC00020813181428153816481758186819781FF
:104DD0000E94F11F0091D50500951091D605109500
:104DE000B091D705B095BE83E091D805E095ED83ED
:104DF000B091D905B095A091DA05A095F091DB05A9
:104E0000F095E091DC05E095F9802F21FA803F21B3
:104E100044215521662177227B818723FC809F21B5
:104E2000202331237E814723FD805F216B237A225B
:104E30008F239E23D1010C91202B2C9311961C9132
:104E40001197312B11963C9311971296BC914B2BD5
:104E5000F10142835380552953836480662964831A
:104E60007581772A7582868088298683978099291B
:104E7000978366960FB6F894DEBF0FBECDBFDF9165
:104E8000CF911F910F91FF90EF90DF90CF90BF9047
:104E9000AF909F908F907F906F905F904F903F90DA
:104EA0002F9008952F923F924F925F926F927F9230
:104EB0008F929F92AF92BF92CF92DF92EF92FF922A
:104EC0000F931F93CF93DF93CDB7DEB768970FB6DD
:104ED000F894DEBF0FBECDBF29833A834B835C833A
:104EE0006D837E838F839887188F0F8B1701D8016E
:104EF0001C9211961C92119712961C92129713965F
:104F00001C92139714961C92149715961C92159741
:104F100016961C92169717961C92F7011082118212
:104F20001282138214821582168217822F773F779E
:104F30004F775F776F777F778F779F7707E00E9454
:104F40005040B22FA32FF42FD52E7B01E82F192F1D
:104F500029812E7F3A813E7F4B814E7F5C815E7F2F
:104F60006D816E7F7E817E7F8F818E7F98859E7F13
:104F700009E00E9450402B2B3A2B4F2B5D296E29C4
:104F80007F298E2B912BE5EA4E2EE5E05E2ED20195
:104F90001896AC9018972A2119968C90199783220D
:104FA0001A96CC901A974C211B96DC901B975D218A
:104FB0001C96EC901C976E211D96FC901D977F21EE
:104FC0001E960C911E9780231F961C911923EF8922
:104FD000F88D9080A92CA22A9181B92EB8287280D0
:104FE000C72CC42AD380D52AE480E62AF580F72A84
:104FF0000681082B9781192BA082B182C282D382AD
:10500000E482F5820683178329813A814B815C8192
:105010006D817E818F8198850E943918D2015096CA
:105020009C905097922251968C9051978322529641
:105030007C905297742253962C91539752235496F6
:105040002C915497622355962C915597722356961E
:10505000EC9156978E235796EC919E239A288B2895
:105060007C2879865D295A876E296B877F297C8702
:10507000802B8D87912B9E87EF89F88D908281827E
:10508000728253836483758386839783FDE16F2ED9
:10509000F6E07F2ED301AC901196BC90119712963A
:1050A000CC9012971396DC9013971496EC9014976B
:1050B0001596FC90159716960C91169717961C91BD
:1050C00029813A814B815C816D817E818F819885B8
:1050D0000E94D31D2F87388B498B5A8B6B8B7C8B0F
:1050E0008D8B9E8BF201208DFF852F23D201599647
:1050F0003C91B8893B23F201428DF9894F23D201BB
:105100005B965C91BA895B23F201648DFB896F2306
:10511000D2015D967C91BC897B23F201868DFD894D
:105120008F23D2015F969C91BE899B23922AEF899F
:10513000F88D9082832A81822985242B2283FA8507
:105140005F2BAF89B88D13965C93BB856B2BEF8972
:10515000F88D6483FC857F2BAF89B88D15967C9381
:10516000BD858B2BEF89F88D8683FE859F2BAF89BC
:10517000B88D17969C93F301A080B180C280D38034
:10518000E480F58006811781D20158962C915897BA
:1051900059963C9159975A964C915A975B965C91C7
:1051A0005B975C966C915C975D967C915D975E9643
:1051B0008C915E975F969C910E94D31DE5E0F6E08E
:1051C000E080E094F0900606F094009107060095C8
:1051D000109108061095B0910906B095A0910A06A5
:1051E000A095F0910B06F095E0910C06E095DF8418
:1051F0002D21D8883D21D9884D21DA885D21DB8891
:105200006D21DC887D21DD888D21DE889D212E2188
:105210003F21402351236B237A238F239E23D101E7
:10522000EC912E2B2C9311962C911197322B1196D9
:105230003C93119712962C911297422B12964C93F5
:10524000129713962C911397522B13965C931397E6
:1052500014962C911497622B14966C9314971596B0
:105260002C911597722B15967C93159716962C9169
:105270001697822B16968C93169717968C911797E4
:10528000982B17969C93F301A080B180C280D380A5
:10529000E480F5800681178129813A814B815C8108
:1052A0006D817E818F8198850E94F41B922E832EC2
:1052B00049875A876B877C878D879E87D201909616
:1052C0004C919097492191963C91919738219296D3
:1052D0002C91B9852B23F20193A1952384A18623D8
:1052E00075A1FC857F23D20196966C91BD856B23B9
:1052F000F20157A1FE855F23AF89B88DEC914E2B4B
:105300004C9311964C911197342B11963C93119715
:1053100012963C911297232B12962C931297139668
:105320002C911397922B13969C93139714969C9100
:105330001497892B14968C93149715968C91159726
:10534000872B15968C93159716968C911697862B0E
:1053500016968C93169717968C911797852B179600
:105360008C93F301A080B180C280D380E480F5806B
:1053700006811781D20190962C91909791963C913D
:10538000919792964C91929793965C91939794965D
:105390006C91949795967C91959796968C9196970B
:1053A00097969C910E94F41BE5E0F6E0E080E09483
:1053B000F0900606F09400910706009510910806FB
:1053C0001095B0910906B095A0910A06A095F091AC
:1053D0000B06F095E0910C06E09592228322298538
:1053E0002423DA845D213B856323DC847D213D8594
:1053F0008323DE849D219E208F20022351236B2353
:105400007A238F239E23D1012C91922A9C9211966C
:105410003C911197832A11968C92119712964C9178
:105420001297242F202B12962C93129713962C91BF
:105430001397522B13965C93139714962C911497F1
:10544000622B14966C93149715962C911597722BCA
:1054500015967C93159716962C911697822B169677
:105460008C93169717968C911797982B17969C9359
:10547000F301A080B180C280D380E480F5800681F2
:10548000178129813A814B815C816D817E818F8179
:1054900098850E94F11F29833A834B835C836D8337
:1054A0007E834C01D20198964C919897422399960D
:1054B0003C91BA813B23F20122A5FB812F23D2012B
:1054C0009B969C919B9795239C968C919C97862369
:1054D0009D967C91BE817B23F20166A5682157A52C
:1054E0005921AF89B88DEC914E2B4C9311964C916C
:1054F0001197342B11963C93119712963C91129769
:10550000232B12962C93129713962C911397922B70
:1055100013969C93139714969C911497892B149629
:105520008C93149715968C911597872B15968C93C1
:10553000159716968C911697862B16968C93169720
:1055400017968C911797852B17968C93F301A08053
:10555000B180C280D380E480F58006811781D201BA
:1055600098962C91989799963C9199979A964C91E8
:105570009A979B965C919B979C966C919C979D9615
:105580007C919D979E968C919E979F969C910E9450
:10559000F11FE5E0F6E000810095109106061095F8
:1055A000F0910706F095F887D0900806D094DF8236
:1055B000B0910906B095A0910A06A095F0910B064E
:1055C000F095E0910C06E095F9802F21DA803D21DD
:1055D000FB804F21DC805D21FD806F217E80772262
:1055E000882199212023312378854723DF805D217D
:1055F0006B237A228F239E23D1010C91202B2C9395
:1056000011961C911197312B11963C93119712967C
:10561000BC914B2BF1014283538055295383648005
:10562000662964837581772A7582868088298683B6
:1056300097809929978368960FB6F894DEBF0FBEBE
:10564000CDBFDF91CF911F910F91FF90EF90DF9031
:10565000CF90BF90AF909F908F907F906F905F9012
:105660004F903F902F9008952F923F924F925F92CC
:105670006F927F928F929F92AF92BF92CF92DF9262
:10568000EF92FF920F931F93CF93DF93CDB7DEB7C7
:105690002F970FB6F894DEBF0FBECDBFF901242EB1
:1056A000952E762E672E582E492E8CA1282F30E06D
:1056B0003A832983A8E08A9EC00111249E838D83AA
:1056C0008B599A4F820F931FDC013C908EA1282F9B
:1056D00030E03C832B838DA128E0829FD0011124F0
:1056E000B887AF83CD018B599A4FAB81BC818A0FAC
:1056F0009B1FDC018C90B6E03B1609F45CC02CE0EB
:10570000321609F458C034E0331239C09F01852D98
:10571000942D20383105410551056105710581053C
:10572000910581F0B4E08B1211C09501A601B7017B
:10573000C801203831054105510561057105810514
:10574000910569F4809102018E7F33C09F01852D00
:10575000942DA1E00E94784009F093C10CC0B4E000
:105760003B1609F481C19501A601B701C801A1E06A
:105770000E94784039F4809102018D7F1AC034E094
:10578000831699F2BAE03B127CC19F01422D592D3C
:10579000672D762D852D942D211531054105510557
:1057A000610571058105904809F039C180910201B8
:1057B0008B7F809302012E2F2095F095F9872094FE
:1057C0002A8690949B8670947C8660946D86509413
:1057D0005E8640944F86B8E03B9EF0011124EB5565
:1057E000FA4FA081A22371813985732362816221DE
:1057F0005381592144814721358136219681952154
:1058000087818421AA297B296C295D294E293F297A
:10581000902B812BA08371836283538344833583D0
:10582000968387836A2C60947B2C70949C2C909434
:105830007D2D70956E2D60955F2D5095402F409574
:10584000312F309588E0889ED0011124AB55BA4F96
:105850002C90262011964C901197472012965C9020
:105860001297592013968C90139787221496FC91C7
:105870001497F6231596EC911597E52316969C91AF
:105880001697942317968C91179783232C92119631
:105890004C92119712965C92129713968C921397D2
:1058A0001496FC9314971596EC93159716969C9363
:1058B000169717968C93E8A5A8E0EA9FC0011124DB
:1058C000FC01EB55FA4F8081682281817822828128
:1058D0009822838178238481682385815823868157
:1058E0004823878138236082718292827383648324
:1058F000558346833783AFA138E0A39FD00111249D
:10590000AB55BA4F8C91282311968C91119799859C
:10591000892312969C9112973A85932313969C9013
:1059200013973B85932214967C9014973C857322A1
:1059300015966C9015973D85632216965C90169788
:105940003E85532217964C9017973F8543222A296C
:10595000B82AC92AD928E728F628052914292C931A
:105960001196BC9211971296CC9212971396DC92D4
:1059700013971496EC9214971596FC921597169619
:105980000C93169717961C93A0802A298181B82A18
:105990009281C92A9380D9287480E7286580F628E7
:1059A000568005294780142920931D06B0921E06B3
:1059B000C0921F06D0922006E0922106F0922206A5
:1059C0000093230610932406ED81FE81EB59FA4FD4
:1059D00089819A81E80FF91F1082EF81F885EB59D0
:1059E000FA4FAB81BC81EA0FFB1F30822F960FB6B6
:1059F000F894DEBF0FBECDBFDF91CF911F910F9105
:105A0000FF90EF90DF90CF90BF90AF909F908F90DE
:105A10007F906F905F904F903F902F9008958B12E2
:105A200034C09501A601B701C80121153105410512
:105A30005105610571058105904809F4B7CE2AE04A
:105A4000321659F19501A601B701C801211531059A
:105A500041055105610571058105914009F0ABCE05
:105A600080910201877FA5CE9F01422D592D672D80
:105A7000762D852D942DA1E00E94784009F073CEFB
:105A80007ACE8AE0881297CECCCF9F01422D592D35
:105A9000672D762D852D942DD9CF9F01422D592D1F
:105AA000672D762D852D942D211531054105510544
:105AB000610571058105914029F6D2CF2F923F9261
:105AC0004F925F926F927F928F929F92AF92BF920E
:105AD000CF92DF92EF92FF920F931F93CF93DF93BA
