:100000000C9448010C9467010C9467010C946701EF
:100010000C9467010C94F70D0C94F70D0C94670188
:100020000C9467010C9467010C9467010C946701B0
:100030000C9467010C9467010C9467010C946701A0
:100040000C9467010C94250E0C9467010C946701C5
:100050000C9467010C9467010C9467010C94670180
:100060000C9467010C9467010C9467010C94670170
:100070000C9467010C9467010C9467010C94670160
:100080000C9467010C9467010C9467010C94670150
:100090000C9467010C946701F2061107F606FF063F
:1000A000080720072E07460774074A0753075C070F
:1000B00065078207000000000000005F00000003E9
:1000C000000300143E143E14242A7F2A12433308EE
:1000D000666136495522500005030000001C22418C
:1000E000000041221C0014083E081408083E0808BD
:1000F0000050300000080808080800606000002078
:10010000100804023E5149453E0004027F0042614E
:1001100051494622414949361814127F1027454556
:1001200045393E4949493201017109073649494972
:1001300036264949493E0036360000005636000052
:10014000081422410014141414140041221408024B
:10015000015109063E4159555E7E0909097E7F49D4
:100160004949363E414141227F4141413E7F494913
:1001700049417F090909013E4141493A7F08080880
:100180007F00417F4100304040403F7F08142241C2
:100190007F404040407F020C027F7F0204087F3E88
:1001A0004141413E7F090909061E2121215E7F0947
:1001B000090976264949493201017F01013F404042
:1001C000403F1F2040201F7F2010207F41221C2203
:1001D0004107087008076151494543007F4100000D
:1001E00002040810200000417F00040201020440C4
:1001F00040404040000102040020545454787F44A1
:100200004444383844444444384444447F38545483
:10021000541804047E0505085454543C7F08040413
:100220007800447D40002040443D007F1028440079
:1002300000417F40007C047804787C08040478380E
:10024000444444387C14141408081414147C007CAE
:10025000080404485454542004043F44443C40409F
:10026000207C1C2040201C3C4030403C442810286E
:10027000440C5050503C4464544C440008364141B6
:1002800000007F0000414136080002010204020024
:1002900011241FBECFEFD0E2DEBFCDBF11E0A0E042
:1002A000B1E0E2E0F7E200E00BBF02C007900D9280
:1002B000A432B107D9F721E0A4E2B1E001C01D9258
:1002C000AD37B207E1F70E946A0F0C947F130C94CC
:1002D0000000977025E0969587952A95E1F7089597
:1002E000892F86958695869590E008958F71992738
:1002F000089595E0660F771F9A95E1F7460F571F0F
:1003000020E030E0382F330F330F330FCA01820F54
:10031000931F08954F925F926F927F928F929F9258
:10032000AF92BF92CF92DF92EF92FF92CF93DF9383
:10033000EC012A013B01BC01672F77276695669582
:10034000669580E090E00E94E210A30192010E9475
:10035000F11120E030E040E05FE30E94C90F0E940D
:10036000B3104B015C01BE01777055E0769567953F
:100370005A95E1F780E090E00E94E210A30192011B
:100380000E94F11120E030E040E05FE30E94C90FDD
:100390000E94B3106B017C01BE016F71772780E072
:1003A00090E00E94E210A30192010E94F11120E06E
:1003B00030E040E05FE30E94C90F0E94B310940157
:1003C0002032310510F02FE130E04901982C8824CB
:1003D000990C990C990C6032710510F06FE170E086
:1003E000680D791DC6018034910510F08FE390E00F
:1003F00025E0880F991F2A95E1F7860F971FDF9157
:10040000CF91FF90EF90DF90CF90BF90AF909F90F3
:100410008F907F906F905F904F90089593E89093A6
:10042000B00091E09093B1008093B3000895909351
:10043000300180932F0126E330E0209300400097A5
:1004400079F480EF90E090932C0180932B0180E46D
:1004500091E090932E0180932D0188E490E034C0C8
:100460008130910579F480E491E090932C018093A0
:100470002B0180EF90E090932E0180932D0188EE68
:1004800090E022C08230910579F480EF90E0909363
:100490002C0180932B0180E491E090932E018093B6
:1004A0002D0188E890E010C0039781F480E491E08A
:1004B00090932C0180932B0180EF90E090932E017C
:1004C00080932D0188E290E0809300418AE290E0E1
:1004D0008093004020E030E03093004120930041C1
:1004E00080912B0190912C01019790930041809372
:1004F00000418BE290E080930040309300412093D4
:10050000004180912D0190912E010197909300411F
:10051000809300410895CF93873748F4883048F09E
:100520008D3350F48F3150F4803150F403C086E79E
:1005300003C088E0C3E005C0C0E003C0C1E001C063
:10054000C2E021EB30E020930040C0930041682FCF
:1005500070E080E090E00E94E4109B01AC0160E05C
:1005600070E080EF94E40E943A100E94B31070E0B3
:1005700002C075956795CA95E2F760930041CF91E7
:1005800008950F931F93CF93DF93CDB7DEB72897CE
:100590000FB6F894DEBF0FBECDBF29833A834B83DD
:1005A0005C836D837E838F83988769817A812B81B9
:1005B0003C814D815E818F819885EAE2F0E0E09395
:1005C00000407093004160930041309300412093BC
:1005D0000041EBE2F0E0E093004050930041409393
:1005E00000419093004180930041ECE2F0E0E09301
:1005F00000402F5F3F4F261B370B0196841B950B46
:100600002817390790F4482F4770429FB001439F45
:10061000700D112453E0969587955A95E1F7829FC6
:10062000A001839F500D112411C0422F4770489F95
:10063000B001499F700D112443E0369527954A95E6
:10064000E1F7289FA001299F500D1124862F877064
:10065000815028F01093004100930041F9CFCB0165
:1006600023E0969587952A95E1F7840F951F0197CA
:1006700008F1109300410093004110930041009352
:1006800000411093004100930041109300410093FA
:1006900000411093004100930041109300410093EA
:1006A00000411093004100930041109300410093DA
:1006B0000041DDCF28960FB6F894DEBF0FBECDBF48
:1006C000DF91CF911F910F910895EF92FF920F93B9
:1006D0001F93CF93DF93CDB7DEB728970FB6F8946B
:1006E000DEBF0FBECDBF29833A834B835C836D830E
:1006F0007E838F83988789819A81EB80FC806D81CE
:100700007E81AF81B8852AE230E02093004090934B
:10071000004180930041F0920041E09200412BE2C1
:1007200030E0209300407093004160930041B0930B
:100730000041A09300412CE230E020930040E816F5
:10074000F906A0F0A8019B018A01A217B30760F087
:100750004E5F5F4FF80100811181109300410093BB
:1007600000412F5F3F4FF0CF0196E9CF28960FB69B
:10077000F894DEBF0FBECDBFDF91CF911F910F91D7
:10078000FF90EF9008950F931F93CF93DF93CDB712
:10079000DEB728970FB6F894DEBF0FBECDBFEBE2F1
:1007A000F1E017821682118610861A8219828081E2
:1007B00091810197482F9C838B831E821D828281A9
:1007C0009381019798878F830485158520E03A816E
:1007D0005C8160E07E8198850E94C10228960FB6F8
:1007E000F894DEBF0FBECDBFDF91CF911F910F9167
:1007F0000895CF93DF93019729F480E880936100F7
:100800001092610086E08093750080E88093740008
:100810003F9A249A8FEC97E00197F1F700C000000F
:1008200047988FE39CE90197F1F700C00000479AD1
:100830009FEF2DEE82E0915020408040E1F700C014
:10084000000088E290E08093004081E190E0809396
:1008500000409FEF26E781E0915020408040E1F783
:1008600000C0000081E090E02BEC30E020930040DD
:100870008093004120EC30E02093004028E036E2F5
:10088000309300412093004140E150E021EC30E002
:10089000209300404093004125EC30E0209300403D
:1008A0002EE335E3309300412093004145EB50E0C7
:1008B00027EC30E0209300404093004126EF30E0E9
:1008C0002093004080930041C0E0D0E0D0930041ED
:1008D000C093004125E530E08AE390E0809300403A
:1008E0002093004181E090E00E9417020E94C30320
:1008F00010923201109231011092340110923301A2
:1009000010923801109237018FEF9FEF90933601CC
:100910008093350189E290E0809300409FE728E3CF
:1009200081E0915020408040E1F700C0000085E365
:1009300090E080930040C093004180916A00806203
:1009400080936A002C9ADF91CF9108959F92AF9285
:10095000BF92CF92DF92EF92FF920F931F93CF93AC
:10096000DF9320913301309134018A30F9F41092F1
:10097000320110923101285F3F4F309334012093B0
:10098000330180912D0190912E012817390708F429
:10099000A5C0DF91CF911F910F91FF90EF90DF9055
:1009A000CF90BF90AF909F900C94C30390EE980FA0
:1009B0009F3508F093C06091310170913201A90117
:1009C000495F5F4F082E000C990B8097E5E0E89F88
:1009D000E001E99FD00D11248BE290E0809300406C
:1009E00030930041209300415093004140930041D7
:1009F000CB01DB0114960AE210E0ECE2EE2EF12CC2
:100A0000A817B90780F100930040909300418093AC
:100A100000419093004180930041E0920040FC012E
:100A2000E61BF70BEC0FFD1FEC54FF4F9490690190
:100A3000F1E04C155D05A8F0BF2EB92029F0A0907B
:100A40003501B090360104C0A0903701B090380154
:100A5000B0920041A0920041EFEFCE1ADE0AFF0FE4
:100A6000E8CF0196CDCF6AE270E0609300409093AA
:100A700000418093004190930041809300418CE2BB
:100A800090E0809300404217530758F0809137015F
:100A90009091380190930041809300412F5F3F4F28
:100AA000F2CF8091310190913201069690933201FC
:100AB0008093310120912B0130912C0182179307F3
:100AC00068F01092320110923101809133019091BF
:100AD000340108969093340180933301DF91CF91D4
:100AE0001F910F91FF90EF90DF90CF90BF90AF904C
:100AF0009F9008950F931F93CF938C01C0E0F8014E
:100B0000EC0FF11D8081882321F00E94A604CF5FA5
:100B1000F6CFCF911F910F910895EBE2F1E097830B
:100B20008683718760870895EBE2F1E0938782877F
:100B30007587648708950F931F93CF938C017093EB
:100B40003201609331015093340140933301C0E08E
:100B5000F801EC0FF11D8081882321F00E94A6048A
:100B6000CF5FF6CFCF911F910F9108954F925F9273
:100B70006F927F928F929F92AF92BF92CF92DF92AD
:100B8000EF92FF92CF93DF9300D000D000D0CDB78B
:100B9000DEB76B017C015E834D839B01AC0160E09D
:100BA00070E080E89FE30E94C80F4B015C0120E0E9
:100BB00030E040E450E40E94F11169837A838B8332
:100BC0009C83A5019401C501B4010E94F111A50106
:100BD00094010E94F1112B013C01ED81FE816081A5
:100BE000718180E090E00E94E2109B01AC01C301A2
:100BF000B2010E94F1112B013C0129813A814B8104
:100C00005C81C501B4010E94F111A70196010E9407
:100C1000F1114B015C01ED81FE816281738180E005
:100C200090E00E94E2109B01AC01C501B4010E945A
:100C3000F1119B01AC01C301B2010E94C90F4B012C
:100C40005C0129813A814B815C81C701B6010E9418
:100C5000F111A70196010E94F1112B013C01ED81D8
:100C6000FE816481758180E090E00E94E2109B012A
:100C7000AC01C301B2010E94F1119B01AC01C5019D
:100C8000B4010E94C90F4B015C01A7019601C70185
:100C9000B6010E94F111A70196010E94F1116B01AA
:100CA0007C01ED81FE816681778180E090E00E9489
:100CB000E2109B01AC01C701B6010E94F1119B013A
:100CC000AC01C501B4010E94C90F0E94AC10072EEF
:100CD000000C880B990B0E94E41020E030E040E00B
:100CE0005FE30E94C90F0E94AC10CB0126960FB69D
:100CF000F894DEBF0FBECDBFDF91CF91FF90EF9094
:100D0000DF90CF90BF90AF909F908F907F906F902B
:100D10005F904F900895CF92DF92EF92FF926B0118
:100D20007C0120E030E0A9010E94351087FF11C04E
:100D3000C701B6010E941F119B01AC01C701B6019A
:100D40000E94C80F9B01AC0160E070E080E89FE367
:100D500008C0C701B6010E941F119B01AC01C70169
:100D6000B6010E94C80FFF90EF90DF90CF900895DA
:100D70000E948B069B01AC0160E070E080E89FE37D
:100D80000E94C80F0895CF92DF92EF92FF920F93C7
:100D90001F93FC010081118122813381FB01C080FE
:100DA000D180E280F380FC01C082D182E282F382B2
:100DB000FB0100831183228333831F910F91FF90E6
:100DC000EF90DF90CF900895CF93DF93DC01EB019C
:100DD000FA013197E730F10508F047C0E45BFF4FB7
:100DE0000C94BF0F8D919C91119733C08D919C9164
:100DF00011979195819591098D939C9336C08D9112
:100E00009C9111979195819591098D939C9326C002
:100E10008D919C91119791958195910911969C9333
:100E20008E93888199819195819591099983888381
:100E30002D913C9111978D939C933983288315C0F4
:100E40008D919C91119791958195910911969C9303
:100E50008E93288139812D933C9305C08881998197
:100E600091958195910999838883DF91CF91089518
:100E7000CF93DF93DC01EB01FA013197E730F10505
:100E800008F047C0ED5AFF4F0C94BF0F8D919C9115
:100E9000119733C08D919C911197919581959109EE
:100EA0008D939C9336C08D919C91119791958195CE
:100EB00091098D939C9326C08D919C91119791954A
:100EC0008195910911969C938E9388819981919532
:100ED00081959109998388832D913C9111978D93E8
:100EE0009C933983288315C08D919C91119791957E
:100EF0008195910911969C938E93288139812D9328
:100F00003C9305C088819981919581959109998338
:100F10008883DF91CF910895FC0120813181FB010D
:100F200040815181FC0151834083FB013183208347
:100F30000895CF92DF92EF92FF920F931F93CF937A
:100F4000DF938901061B170BEA01C81BD90BB801F7
:100F5000012E000C880B990B0E94E4106B017C01A0
:100F6000E894F7F8BE010D2E000C880B990B0E9437
:100F7000E4109B01AC015F77C701B6010E94EC1140
:100F8000181694F417FF09C02D2F221F2227221FA5
:100F900086E090E0821B910918C08D2F881F88275A
:100FA000881F90E0019611C017FF05C0D7FD08C04B
:100FB00087E090E00AC0D7FD06C080E090E005C061
:100FC00084E090E002C083E090E0DF91CF911F9138
:100FD0000F91FF90EF90DF90CF9008952AE230E0DC
:100FE00020930040909300418093004190930041F2
:100FF000809300418BE290E0809300407093004129
:101000006093004170930041609300418CE290E056
:1010100080930040509300414093004108952F92E7
:101020003F924F925F926F927F928F929F92AF9278
:10103000BF92CF92DF92EF92FF920F931F93CF93C5
:10104000DF93CDB7DEB7A6970FB6F894DEBF0FBE1D
:10105000CDBF2B013C0169837A838B839C83298BD1
:101060003A8B4B8B5C8B2D833E834F835887ED8A65
:10107000FE8A0F8B188FE986FA860B871C87C601BC
:10108000B501AD86BE86CF86D88A14010E94C80FEE
:101090006B017C01E894F7F8A30192016D897E89C8
:1010A0008F89988D0E94C80F9B01AC015F77C701A3
:1010B000B6010E94C80F698F7A8F8B8F9C8F20E0BA
:1010C00030E0A9010E94EC11181674F4BE016F5FA4
:1010D0007F4FCE0105960E94C306BE01675F7F4F1A
:1010E000CE010D960E94C30629853A854B855C8505
:1010F00069817A818B819C810E94EC11181674F4AD
:10110000BE01675F7F4FCE0101960E94C306BE01FC
:101110006B5F7F4FCE010D960E94C306C980DA80B7
:10112000EB80FC804D805E806F807884A30192010B
:101130006D857E858F8598890E94C80F4B015C0163
:10114000A701960169857A858B859C850E94C80FC9
:101150009B01AC01C501B4010E943A106D8F7E8FD6
:101160008F8F98A320E030E040E05FE3C701B60135
:101170000E94C90F4B015C010E94AC10698B7A8BF5
:101180008B8B9C8B29893A89B901330F880B990B7A
:101190000E94E410A70196010E94C80F2D8D3E8D7C
:1011A0004F8D58A10E94F111A30192010E94C90F15
:1011B0006B017C01C501B4010E94B8064B015C01C2
:1011C000C701B6010E94B3102B013C0120E030E0C2
:1011D000A901698D7A8D8B8D9C8D0E94EC1118165A
:1011E000C4F5C701B6010E94B8069B01AC01C50158
:1011F000B4010E94F11120E030E040E85FE30E947A
:10120000C90FAB01BC01C1010E948A01AC0169890F
:101210007A89C2010E94EE07C701B6010E948B06BF
:101220009B01AC01C501B4010E94F11120E030E046
:1012300040E85FE30E94C90FAB01BC01C1010E94FD
:101240008A013FEF431A530AAC0169897A89C201C6
:1012500036C0C701B6010E94B8069B01AC01C501AA
:10126000B4010E94F11120E030E040E85FE30E9409
:10127000C90FAB01BC01C1010E948A01AC01B201DE
:1012800089899A890E94EE07C701B6010E948B06E0
:101290009B01AC01C501B4010E94F11120E030E0D6
:1012A00040E85FE30E94C90FAB01BC01C1010E948D
:1012B0008A01B2016F5F7F4FAC0189899A890E94D0
:1012C000EE07A70196016D8D7E8D8F8D98A10E94EE
:1012D000C90F2B013C01C984DA84EB84FC8420E033
:1012E00030E040E05FE3C701B6010E94C90F4B0147
:1012F0005C010E94AC106D8B7E8B8F8B988F2D893B
:101300003E89B901330F880B990B0E94E410A701A5
:1013100096010E94C80F2D8D3E8D4F8D58A10E94C1
:10132000F1112D853E854F8558890E94C90F6B01AB
:101330007C01C501B4010E94B8064B015C018D8996
:101340009E899EA38DA3C701B6010E94B31069A315
:101350007AA38BA39CA320E030E0A901698D7A8D4C
:101360008B8D9C8D0E94EC11181664F5C701B60197
:101370000E94B8069B01AC01C501B4010E94F111A5
:10138000AB01BC01C1010E948A01AC016D897E895B
:1013900089A19AA10E94EE07C701B6010E948B069F
:1013A0009B01AC01C501B4010E94F111AB01BC016C
:1013B000C1010E948A01AC0189A19AA101966D899F
:1013C0007E892CC0C701B6010E94B8069B01AC0102
:1013D000C501B4010E94F111AB01BC01C1010E9421
:1013E0008A01AC0169A17AA18D899E890E94EE07CC
:1013F000C701B6010E948B069B01AC01C501B40177
:101400000E94F111AB01BC01C1010E948A0169A1D6
:101410007AA16F5F7F4FAC018D899E890E94EE0794
:1014200009891A890F5F1F4F8DA19EA108171907FF
:1014300008F05FC020E030E0A901698D7A8D8B8DC6
:101440009C8D0E94EC1118162CF5C301B2010E946C
:10145000B806AB01BC01C1010E948A017C01C30135
:10146000B2010E94B3104B015C01A701B801C40195
:101470000E94EE07C301B2010E948B06AB01BC01C2
:10148000C1010E948A012FEF821A920AAC01B801B1
:10149000C40122C0C301B2010E94B806AB01BC0165
:1014A000C1010E948A017C01C301B2010E94B310F4
:1014B0004B015C01A701C8010E94EE07C301B20104
:1014C0000E948B06AB01BC01C1010E948A01B401DC
:1014D0006F5F7F4FAC01C8010E94EE072D8D3E8DDE
:1014E0004F8D58A1C301B2010E94C90F2B013C01CD
:1014F00099CFA6960FB6F894DEBF0FBECDBFDF9191
:10150000CF911F910F91FF90EF90DF90CF90BF9000
:10151000AF909F908F907F906F905F904F903F9093
:101520002F9008952F923F924F925F926F927F92E9
:101530008F929F92AF92BF92CF92DF92EF92FF92E3
:101540000F931F93CF93DF93CDB7DEB760970FB69E
:10155000F894DEBF0FBECDBF9E838D8378876F83E7
:101560005A8749873C872B871801A8010E94EE07FC
:101570002B853C8549855A856F8178858D819E8133
:101580000E9499075C01AC01BE01695F7F4FCE01EB
:1015900005960E943807A501BE01655F7F4FCE0109
:1015A00009960E9438078F8098840D811E81898555
:1015B0009A85801B910BCB84DC84C818D908CC0C8D
:1015C000DD1C0D2C000CEE08FF08AC01092E000CF0
:1015D000660B770B26013701441A550A660A770A0B
:1015E0000F5F1F4F880F991F9C01990F440B550BDC
:1015F0002D873E874F87588B89859A85801791075D
:1016000074F1D301C2018C0D9D1DAE1DBF1D77FE6F
:1016100003C02C013D010DC03FEF831A930A2C013A
:101620003D012D853E854F855889421A530A640A2B
:10163000750A1C830B839A828982A501BE016F5FA4
:101640007F4FCE0103960E94E40669817A81A10151
:101650008B819C810E94EE070F5F1F4FCDCF60965C
:101660000FB6F894DEBF0FBECDBFDF91CF911F91B3
:101670000F91FF90EF90DF90CF90BF90AF909F9031
:101680008F907F906F905F904F903F902F90089534
:101690002F923F924F925F926F927F928F929F9282
:1016A000AF92BF92CF92DF92EF92FF920F931F9370
:1016B000CF93DF93CDB7DEB728970FB6F894DEBF90
:1016C0000FBECDBF6C015B014A0128013901AC019D
:1016D00060E070E0CB010E94B605382E292EA501EE
:1016E00060E070E0CB010E94B60589839A8378019F
:1016F00068867F8220E030E040E85FE3B201C3010A
:101700000E94C90F9B01AC01B70188859F810E948F
:10171000351087FF2BC0A601B70188859F810E94E5
:10172000B6058B839C83A501B70188859F810E94A4
:10173000B6058D839E8384019C014B815C81698108
:101740007A81832D922D0E94920A9201A301B70102
:1017500088859F810E94C90F7B0188879F838D8127
:1017600089838E818A833B802C80C4CF28960FB6D4
:10177000F894DEBF0FBECDBFDF91CF911F910F91C7
:10178000FF90EF90DF90CF90BF90AF909F908F90A1
:101790007F906F905F904F903F902F9008952F9281
:1017A0003F924F925F926F927F928F929F92AF92F1
:1017B000BF92CF92DF92EF92FF920F931F93CF933E
:1017C000DF93CDB7DEB72C970FB6F894DEBF0FBE10
:1017D000CDBF9C838B837E836D835A874987922EEE
:1017E000832EAC0160E070E0CB010E94B6057C0165
:1017F0004D815E8160E070E0CB010E94B6055C0126
:101800009801492D582D60E070E080E89FE30E9428
:101810003A1020E030E040EC5FE30E94C90F0E94E4
:10182000B3107A8369839B01220F331F38872F837C
:10183000C9010E945E12782E692E8F8198850E94C0
:101840005E126C018B87DC86EB85FC85A192B192E0
:10185000FC87EB87A72CB62CF501E192F1925F0192
:10186000502E412E1401EE24E394F12C89819A81AB
:10187000E816F90678F54B815C81652D742D832D72
:10188000922D0E94B60598878F834D815E81652DCC
:10189000742D832D922D0E94B605EB85FC858193D6
:1018A0009193FC87EB87F5012F8138852193319344
:1018B0005F019801492D582D652D742D832D922D92
:1018C0000E94C90F562E472E382E292E3FEFE31ABD
:1018D000F30ACCCFCB82DC82E72CF62C812C912C26
:1018E0005C0191E0A91AB1088A149B04E0F4EFEFBF
:1018F0008E1A9E0AAB81BC81F70112962D913C9104
:101900001397CD0102969C838B834281538192E091
:10191000E90EF11C6D917C9109851A858081918178
:101920000E94920AE1CFC6010E94F612872D962DE1
:101930002C960FB6F894DEBF0FBECDBFDF91CF91CE
:101940001F910F91FF90EF90DF90CF90BF90AF90DD
:101950009F908F907F906F905F904F903F902F90CF
:101960000C94F6122F923F924F925F926F927F9259
:101970008F929F92AF92BF92CF92DF92EF92FF929F
:101980000F931F93CF93DF9300D000D000D0CDB73B
:10199000DEB75C014B018A017901C12CD12C1E827A
:1019A0001D828D819E81081719070CF464C0A70160
:1019B0004D805E80480C591CB201C8018A0D9B1DE8
:1019C0009C838B830E94EE07A7013801680C791C69
:1019D000B3018D819E818A0D9B1D9A8389830E940C
:1019E000EE07A701B30115018D819E81281A390ADE
:1019F000C1010E94EE07A701B2013501601A710A08
:101A0000C3010E94EE07A70124018D819E81481A1F
:101A1000590AB201C3010E94EE07A7013401601AFE
:101A2000710AB301C1010E94EE07A701B3018981C8
:101A30009A810E94EE07A701B2018B819C810E94CE
:101A4000EE071C141D0474F08D819E8101969E8307
:101A50008D83880F991F0196C80ED91E1C141D0472
:101A60000CF09FCF01501109C801880F991F0196F2
:101A7000C81AD90A96CF26960FB6F894DEBF0FBEC5
:101A8000CDBFDF91CF911F910F91FF90EF90DF902D
:101A9000CF90BF90AF909F908F907F906F905F900E
:101AA0004F903F902F9008954F925F926F927F9248
:101AB0008F929F92AF92BF92CF92DF92EF92FF925E
:101AC0000F931F93CF93DF93EC017B016A015901C0
:101AD0004B01820E931E3C01640E751EA801B401D9
:101AE000C3010E94EE072E014C185D08A801B40145
:101AF000C2010E94EE0747018A189B08A801B401A1
:101B0000C3010E94EE07A801B401C2010E94EE07C2
:101B100047018C0C9D1C35016C0E7D1EA801B40183
:101B2000C3010E94EE07CA19DB09A801B401CE0166
:101B30000E94EE07EC18FD08A801B701C3010E943E
:101B4000EE07A801B701CE01DF91CF911F910F9150
:101B5000FF90EF90DF90CF90BF90AF909F908F90CD
:101B60007F906F905F904F900C94EE078DB18F74C3
:101B70008DB98EB1806B8EB987B1837C87B988B1FE
:101B80008C6388B9EAE6F0E08081856880830895F7
:101B90008CB1807349F490912501903281F090913D
:101BA00025019031E1F413C08033C9F490912501EF
:101BB000903129F090912501903289F408C09091DC
:101BC00024019150909324018033A1F306C0909199
:101BD00024019F5F9093240102C0882301F3809326
:101BE000250180912401089586B18C7308951F9278
:101BF0000F920FB60F9211240BB60F922F933F93B3
:101C00004F935F936F937F938F939F93AF93BF9304
:101C1000EF93FF930E94C80D87EC90E00197F1F7D6
:101C200000C00000FF91EF91BF91AF919F918F9104
:101C30007F916F915F914F913F912F910F900BBECC
:101C40000F900FBE0F901F9018951F920F920FB616
:101C50000F9211248F93809124011816FCF4809127
:101C60002A01809328018091290180932701809186
:101C70002A01882321F080912A0181500AC0809195
:101C80002901882341F08091290181508093290105
:101C900087E080932A0181E08093260180912401CE
:101CA00087FF20C080912A0180932801809129011B
:101CB0008093270180912A01873030F480912A0196
:101CC0008F5F80932A010BC080912901873038F4FF
:101CD000809129018F5F8093290110922A0181E070
:101CE00080932601109224018F910F900FBE0F90C8
:101CF0001F9018950F931F93CF93DF93CDB7DEB747
:101D000028970FB6F894DEBF0FBECDBF8A012EE133
:101D1000829FC0011124DC0198968A5B9F4F482F57
:101D20009C838B838EE1689FF0011124CF014E9636
:101D300098878F832A2FBA83A9836E2FFE83ED8322
:101D40003A815C817E8198850E94C10228960FB6F7
:101D5000F894DEBF0FBECDBFDF91CF911F910F91E1
:101D600008950F931F93CF93DF9300E010E0C0E03E
:101D7000D0E0C8018C0F9D1F80FD03C04CE255EFE1
:101D800002C042E25AE86C2F802F0E947A0E219600
:101D9000C830D10571F70F5F1F4F0830110539F7B3
:101DA000DF91CF911F910F9108950F931F93CF93C0
:101DB000DF9308E011E0C0E0F801D1918F01DD234D
:101DC00079F08FE0C89FB00111246A5E7F4F8FE0E9
:101DD00090E00E948D058D2F0E94A604CF5FECCF6E
:101DE000DF91CF911F910F91089580E4E9E3F1E035
:101DF000DF011D928A95E9F797E081E09183868360
:101E00003896B1E0E937FB07C9F78AE080933901DA
:101E100098E09093410129E0209349013BE0309301
:101E200051013CE030935901209361019093690185
:101E30008093710184E08093400192E09093480187
:101E400023E02093500135E03093580136E0309381
:101E50006001209368019093700180937801089548
:101E6000CF93DF9328E0829FE0011124C75CDE4F0F
:101E7000C60FD11D98819923C9F09EE1699FB001D9
:101E80001124695F7F4F2EE1829FC00111248F963C
:101E90000E948D058881E0910001F0910101E80F19
:101EA000F11D8081DF91CF910C94A604DF91CF9139
:101EB0000895CF93DF93D0E0C0E06C2F8D2F0E9468
:101EC000300FCF5FC830C9F7DF5FD830A9F7DF9197
:101ED000CF91089580E880936100109261000E9484
:101EE000B60D8DB380638DBB1092800088E0809327
:101EF00081008091810081608093810080916F00DA
:101F0000826080936F0080E090E00E94F903F89473
:101F10000E94B10E0E94F50E0E94590F0E94D50E2C
:101F20007894809126018823E1F3F8949091280118
:101F300080912701890F80FD03C04CE255EF02C05C
:101F400042E25AE860912701809128010E947A0EAE
:101F500060912701809128010E94300F6091290132
:101F600080912A0149EF56E40E947A0E609129017E
:101F700080912A010E94300F10922601D1CFEE0FDE
:101F8000FF1F0024001C0BBE0790F691E02D099462
:101F90005058BB27AA270E94E00F0C949A110E9468
:101FA0008C1138F00E94931120F039F49F3F19F4FE
:101FB00026F40C9489110EF4E095E7FB0C945A1169
:101FC000E92F0E94AB1158F3BA1762077307840711
:101FD000950720F079F4A6F50C94E5110EF4E09540
:101FE0000B2EBA2FA02D0B01B90190010C01CA01D3
:101FF000A0011124FF27591B99F0593F50F4503E7E
:1020000068F11A16F040A22F232F342F4427585F6F
:10201000F3CF469537952795A795F0405395C9F787
:102020007EF41F16BA0B620B730B840BBAF091503F
:10203000A1F0FF0FBB1F661F771F881FC2F70EC0DE
:10204000BA0F621F731F841F48F4879577956795B1
:10205000B795F7959E3F08F0B0CF9395880F08F09D
:102060009927EE0F9795879508950E94361108F4E9
:1020700081E008950E944E100C949A110E949311D1
:1020800058F00E948C1140F029F45F3F29F00C9425
:102090005A1151110C94E6110C9489110E94AB1144
:1020A00068F39923B1F3552391F3951B550BBB2787
:1020B000AA2762177307840738F09F5F5F4F220FCC
:1020C000331F441FAA1FA9F335D00E2E3AF0E0E8C3
:1020D00032D091505040E695001CCAF72BD0FE2F0D
:1020E00029D0660F771F881FBB1F261737074807A1
:1020F000AB07B0E809F0BB0B802DBF01FF27935859
:102100005F4F3AF09E3F510578F00C945A110C94B1
:10211000E6115F3FE4F3983ED4F386957795679593
:10212000B795F7959F5FC9F7880F911D969587958D
:1021300097F90895E1E0660F771F881FBB1F6217AC
:1021400073078407BA0720F0621B730B840BBA0B6A
:10215000EE1F88F7E09508950E94B3106894B111BE
:102160000C94E61108950E94B31188F09F5798F0DF
:10217000B92F9927B751B0F0E1F0660F771F881F8C
:10218000991F1AF0BA95C9F714C0B13091F00E94A6
:10219000E511B1E008950C94E511672F782F882799
:1021A000B85F39F0B93FCCF3869577956795B395CD
:1021B000D9F73EF490958095709561957F4F8F4F3C
:1021C0009F4F0895E89409C097FB3EF49095809541
:1021D000709561957F4F8F4F9F4F9923A9F0F92FED
:1021E00096E9BB279395F695879577956795B7956B
:1021F000F111F8CFFAF4BB0F11F460FF1BC06F5F51
:102200007F4F8F4F9F4F16C0882311F096E911C062
:10221000772321F09EE8872F762F05C0662371F083
:1022200096E8862F70E060E02AF09A95660F771F97
:10223000881FDAF7880F9695879597F908950E9479
:10224000CD1190F09F3748F4911116F00C94E611DF
:1022500060E070E080E89FEB089526F41B16611D96
:10226000711D811D0C9460110C947B11990F000855
:10227000550FAA0BE0E8FEEF16161706E807F90758
:10228000C0F012161306E407F50798F0621B730BF3
:10229000840B950B39F40A2661F0232B242B252B74
:1022A00021F408950A2609F4A140A6958FEF811D17
:1022B000811D089597F99F6780E870E060E00895B8
:1022C000882371F4772321F09850872B762F07C04D
:1022D000662311F499270DC09051862B70E060E0C1
:1022E0002AF09A95660F771F881FDAF7880F969560
:1022F000879597F908959F3F31F0915020F4879585
:1023000077956795B795880F911D9695879597F95D
:1023100008959FEF80EC089500240A94161617067E
:1023200018060906089500240A94121613061406C6
:1023300005060895092E0394000C11F4882352F029
:10234000BB0F40F4BF2B11F460FF04C06F5F7F4FE1
:102350008F4F9F4F089557FD9058440F551F59F0C8
:102360005F3F71F04795880F97FB991F61F09F3F82
:1023700079F087950895121613061406551FF2CFAB
:102380004695F1DF08C0161617061806991FF1CFFB
:10239000869571056105089408950E94B311A0F017
:1023A000BEE7B91788F4BB279F3860F41616B11D35
:1023B000672F782F8827985FF7CF86957795679551
:1023C000B11D93959639C8F30895E894BB27662705
:1023D0007727CB0197F908950E94361108F48FEF03
:1023E00008950E9404120C949A110E948C1138F0E6
:1023F0000E94931120F0952311F00C945A110C9423
:10240000891111240C94E6110E94AB1170F3959F71
:10241000C1F3950F50E0551F629FF001729FBB27DB
:10242000F00DB11D639FAA27F00DB11DAA1F649F77
:102430006627B00DA11D661F829F2227B00DA11D2A
:10244000621F739FB00DA11D621F839FA00D611DB0
:10245000221F749F3327A00D611D231F849F600DD1
:10246000211D822F762F6A2F11249F5750409AF0FA
:10247000F1F088234AF0EE0FFF1FBB1F661F771F86
:10248000881F91505040A9F79E3F510580F00C9451
:102490005A110C94E6115F3FE4F3983ED4F386950D
:1024A00077956795B795F795E7959F5FC1F7FE2BF1
:1024B000880F911D9695879597F908950F931F930F
:1024C000CF93DF938230910510F482E090E0E091A9
:1024D0007B01F0917C0120E030E0A0E0B0E030979B
:1024E00019F1408151810281138148175907C8F0C1
:1024F0008417950769F4109731F012960C93129790
:1025000013961C9327C000937B0110937C0122C07B
:102510002115310519F04217530718F49A01BD012E
:10252000EF01DF01F801DBCF21153105F9F0281BA0
:10253000390B2430310580F48A819B816115710546
:1025400021F0FB019383828304C090937C018093EC
:102550007B01FE01329644C0FE01E20FF31F81931E
:10256000919322503109398328833AC0209179010F
:1025700030917A01232B41F420910401309105011F
:1025800030937A0120937901209102013091030167
:102590002115310541F42DB73EB740910601509108
:1025A0000701241B350BE0917901F0917A01E217C4
:1025B000F307A0F42E1B3F0B2817390778F0AC0166
:1025C0004E5F5F4F2417350748F04E0F5F1F509343
:1025D0007A01409379018193919302C0E0E0F0E0A9
:1025E000CF01DF91CF911F910F910895CF93DF938A
:1025F000009709F481C0FC01329713821282A091E6
:102600007B01B0917C01109781F420813181820F90
:10261000931F2091790130917A012817390751F5DC
:10262000F0937A01E093790167C0ED0120E030E09A
:10263000CE17DF0740F44A815B819E0141155105A9
:10264000F1F0EA01F5CFD383C28340815181840F39
:10265000951FC817D90759F488819981840F951F50
:102660000296918380838A819B8193838283211543
:10267000310529F4F0937C01E0937B013DC0E90131
:10268000FB83EA8349915991C40FD51FEC17FD07CD
:1026900061F480819181840F951F0296E9019983ED
:1026A0008883828193819B838A83E0E0F0E01296A5
:1026B0008D919C911397009719F0FD01DC01F7CFE4
:1026C0008D919C9111979D012E5F3F4F820F931F1B
:1026D0002091790130917A012817390769F43097F0
:1026E00029F410927C0110927B0102C013821282A5
:1026F000B0937A01A0937901DF91CF910895F89476
:02270000FFCF09
:10270200160100007D012000466F7274756E612013
:1027120043686573730020504E4252514B706E6293
:0427220072716B0065
:00000001FF
