:100000000C9455010C9474010C9474010C947401BB
:100010000C9474010C94040E0C94040E0C94740152
:100020000C9474010C9474010C9474010C9474017C
:100030000C9474010C9474010C9474010C9474016C
:100040000C9474010C94320E0C9474010C94740191
:100050000C9474010C9474010C9474010C9474014C
:100060000C9474010C9474010C9474010C9474013C
:100070000C9474010C9474010C9474010C9474012C
:100080000C9474010C9474010C9474010C9474011C
:100090000C9474010C947401FF061E0703070C07EF
:1000A00015072D073B0753078107570760076907A7
:1000B00072078F07053AF53AA23AF53B443BAA3C52
:1000C000423AE73A7D3A9C3B0D3B4E3C113A0000E8
:1000D00000000000005F00000003000300143E1455
:1000E0003E14242A7F2A124333086661364955227A
:1000F000500005030000001C2241000041221C00AA
:1001000014083E081408083E080800503000000893
:1001100008080808006060000020100804023E5132
:1001200049453E0004027F0042615149462241494F
:1001300049361814127F1027454545393E4949492B
:100140003201017109073649494936264949493E74
:100150000036360000005636000008142241001414
:1001600014141414004122140802015109063E41DE
:1001700059555E7E0909097E7F494949363E41410C
:1001800041227F4141413E7F494949417F09090957
:10019000013E4141493A7F0808087F00417F410004
:1001A000304040403F7F081422417F404040407F24
:1001B000020C027F7F0204087F3E4141413E7F09DD
:1001C0000909061E2121215E7F0909097626494970
:1001D000493201017F01013F4040403F1F20402044
:1001E0001F7F2010207F41221C2241070870080732
:1001F0006151494543007F4100000204081020007E
:1002000000417F00040201020440404040400001E0
:1002100002040020545454787F4444443838444401
:100220004444384444447F385454541804047E05EC
:1002300005085454543C7F0804047800447D400071
:100240002040443D007F1028440000417F40007C56
:10025000047804787C0804047838444444387C14D6
:10026000141408081414147C007C08040448545422
:10027000542004043F44443C4040207C1C20402047
:100280001C3C4030403C44281028440C5050503C0A
:100290004464544C44000836414100007F00004152
:1002A0004136080002010204020011241FBECFEFF4
:1002B000D0E2DEBFCDBF12E0A0E0B1E0ECE4F3E8B5
:1002C00000E00BBF02C007900D92AE3DB107D9F719
:1002D00027E0AEEDB2E001C01D92A434B207E1F711
:1002E0000E94653D0C94A4410C940000977025E099
:1002F000969587952A95E1F70895892F8695869595
:10030000869590E008958F719927089595E0660F7E
:10031000771F9A95E1F7460F571F20E030E0382FFE
:10032000330F330F330FCA01820F931F08954F927B
:100330005F926F927F928F929F92AF92BF92CF9275
:10034000DF92EF92FF92CF93DF93EC012A013B0102
:10035000BC01672F772766956695669580E090E0EB
:100360000E94073FA30192010E94164020E030E066
:1003700040E05FE30E94EE3D0E94D83E4B015C01ED
:10038000BE01777055E0769567955A95E1F780E064
:1003900090E00E94073FA30192010E94164020E0D6
:1003A00030E040E05FE30E94EE3D0E94D83E6B01EA
:1003B0007C01BE016F71772780E090E00E94073FCB
:1003C000A30192010E94164020E030E040E05FE38C
:1003D0000E94EE3D0E94D83E94012032310510F07B
:1003E0002FE130E04901982C8824990C990C990C44
:1003F0006032710510F06FE170E0680D791DC60183
:100400008034910510F08FE390E025E0880F991F6C
:100410002A95E1F7860F971FDF91CF91FF90EF901C
:10042000DF90CF90BF90AF909F908F907F906F9014
:100430005F904F90089593E89093B00091E090936F
:10044000B1008093B30008959093E8028093E7028F
:1004500026E330E020930040009779F480EF90E0AD
:100460009093E4028093E30280E491E09093E602AB
:100470008093E50288E490E034C08130910579F4FE
:1004800080E491E09093E4028093E30280EF90E0B7
:100490009093E6028093E50288EE90E022C08230DD
:1004A000910579F480EF90E09093E4028093E30269
:1004B00080E491E09093E6028093E50288E890E082
:1004C00010C0039781F480E491E09093E40280935C
:1004D000E30280EF90E09093E6028093E50288E2E9
:1004E00090E0809300418AE290E08093004020E019
:1004F00030E030930041209300418091E3029091DD
:10050000E402019790930041809300418BE290E0D8
:100510008093004030930041209300418091E50298
:100520009091E602019790930041809300410895D5
:10053000CF93873748F4883048F08D3350F48F31AB
:1005400050F4803150F403C086E703C088E0C3E074
:1005500005C0C0E003C0C1E001C0C2E021EB30E053
:1005600020930040C0930041682F70E080E090E04D
:100570000E94093F9B01AC0160E070E080EF94E4D1
:100580000E945F3E0E94D83E70E002C0759567955C
:10059000CA95E2F760930041CF9108950F931F939E
:1005A000CF93DF93CDB7DEB728970FB6F894DEBFB1
:1005B0000FBECDBF29833A834B835C836D837E83DB
:1005C0008F83988769817A812B813C814D815E81FF
:1005D0008F819885EAE2F0E0E0930040709300415B
:1005E000609300413093004120930041EBE2F0E042
:1005F000E0930040509300414093004190930041AC
:1006000080930041ECE2F0E0E09300402F5F3F4F29
:10061000261B370B0196841B950B2817390790F47E
:10062000482F4770429FB001439F700D112453E043
:10063000969587955A95E1F7829FA001839F500D6B
:10064000112411C0422F4770489FB001499F700D7F
:10065000112443E0369527954A95E1F7289FA0019C
:10066000299F500D1124862F8770815028F01093F8
:10067000004100930041F9CFCB0123E09695879587
:100680002A95E1F7840F951F019708F11093004117
:1006900000930041109300410093004110930041EA
:1006A00000930041109300410093004110930041DA
:1006B00000930041109300410093004110930041CA
:1006C000009300411093004100930041DDCF289634
:1006D0000FB6F894DEBF0FBECDBFDF91CF911F9153
:1006E0000F910895EF92FF920F931F93CF93DF9393
:1006F000CDB7DEB728970FB6F894DEBF0FBECDBFDB
:1007000029833A834B835C836D837E838F839887B1
:1007100089819A81EB80FC806D817E81AF81B88573
:100720002AE230E020930040909300418093004102
:10073000F0920041E09200412BE230E02093004033
:100740007093004160930041B0930041A093004139
:100750002CE230E020930040E816F906A0F0A80152
:100760009B018A01A217B30760F04E5F5F4FF8014B
:100770000081118110930041009300412F5F3F4F92
:10078000F0CF0196E9CF28960FB6F894DEBF0FBEE2
:10079000CDBFDF91CF911F910F91FF90EF90089502
:1007A0000F931F93CF93DF93CDB7DEB728970FB684
:1007B000F894DEBF0FBECDBFE3EEF2E017821682E3
:1007C000118610861A821982808191810197482FA3
:1007D0009C838B831E821D828281938101979887DF
:1007E0008F830485158520E03A815C8160E07E81FD
:1007F00098850E94CE0228960FB6F894DEBF0FBEF1
:10080000CDBFDF91CF911F910F910895CF93DF93CB
:10081000019729F480E8809361001092610086E0DE
:100820008093750080E8809374003F9A249A8FEC3F
:1008300097E00197F1F700C0000047988FE39CE92B
:100840000197F1F700C00000479A9FEF2DEE82E07C
:10085000915020408040E1F700C0000088E290E025
:100860008093004081E190E0809300409FEF26E775
:1008700081E0915020408040E1F700C0000081E01D
:1008800090E02BEC30E0209300408093004120EC7E
:1008900030E02093004028E036E23093004120937E
:1008A000004140E150E021EC30E0209300404093D3
:1008B000004125EC30E0209300402EE335E33093F7
:1008C00000412093004145EB50E027EC30E02093BD
:1008D00000404093004126EF30E020930040809399
:1008E0000041C0E0D0E0D0930041C093004125E535
:1008F00030E08AE390E0809300402093004181E063
:1009000090E00E9424020E94D0031092EA0210920A
:10091000E9021092EC021092EB021092F002109297
:10092000EF028FEF9FEF9093EE028093ED0289E24A
:1009300090E0809300409FE728E381E091502040C1
:100940008040E1F700C0000085E390E08093004024
:10095000C093004180916A00806280936A002C9A63
:10096000DF91CF9108959F92AF92BF92CF92DF9285
:10097000EF92FF920F931F93CF93DF932091EB029F
:100980003091EC028A30F9F41092EA021092E902F6
:10099000285F3F4F3093EC022093EB028091E502F9
:1009A0009091E6022817390708F4A5C0DF91CF918E
:1009B0001F910F91FF90EF90DF90CF90BF90AF907D
:1009C0009F900C94D00390EE980F9F3508F093C041
:1009D0006091E9027091EA02A901495F5F4F082E18
:1009E000000C990B8097E5E0E89FE001E99FD00DAE
:1009F00011248BE290E080930040309300412093DB
:100A000000415093004140930041CB01DB0114961B
:100A10000AE210E0ECE2EE2EF12CA817B90780F103
:100A200000930040909300418093004190930041D7
:100A300080930041E0920040FC01E61BF70BEC0FB5
:100A4000FD1FE253FF4F94906901F1E04C155D05E5
:100A5000A8F0BF2EB92029F0A090ED02B090EE02D0
:100A600004C0A090EF02B090F002B0920041A092BA
:100A70000041EFEFCE1ADE0AFF0FE8CF0196CDCF8F
:100A80006AE270E0609300409093004180930041DF
:100A900090930041809300418CE290E0809300406D
:100AA0004217530758F08091EF029091F002909313
:100AB0000041809300412F5F3F4FF2CF8091E902C8
:100AC0009091EA0206969093EA028093E9022091BF
:100AD000E3023091E4028217930768F01092EA0271
:100AE0001092E9028091EB029091EC0208969093AB
:100AF000EC028093EB02DF91CF911F910F91FF9059
:100B0000EF90DF90CF90BF90AF909F9008950F939C
:100B10001F93CF938C01C0E0F801EC0FF11D808191
:100B2000882321F00E94B304CF5FF6CFCF911F91AD
:100B30000F910895E3EEF2E09783868371876087D3
:100B40000895E3EEF2E093878287758764870895BE
:100B50000F931F93CF938C017093EA026093E90285
:100B60005093EC024093EB02C0E0F801EC0FF11D52
:100B70008081882321F00E94B304CF5FF6CFCF910C
:100B80001F910F9108954F925F926F927F928F9273
:100B90009F92AF92BF92CF92DF92EF92FF92CF934C
:100BA000DF9300D000D000D0CDB7DEB76B017C0161
:100BB0005E834D839B01AC0160E070E080E89FE3C1
:100BC0000E94ED3D4B015C0120E030E040E450E448
:100BD0000E94164069837A838B839C83A5019401CC
:100BE000C501B4010E941640A50194010E9416405F
:100BF0002B013C01ED81FE816081718180E090E0FC
:100C00000E94073F9B01AC01C301B2010E94164044
:100C10002B013C0129813A814B815C81C501B401E2
:100C20000E941640A70196010E9416404B015C01EC
:100C3000ED81FE816281738180E090E00E94073F38
:100C40009B01AC01C501B4010E9416409B01AC019F
:100C5000C301B2010E94EE3D4B015C0129813A8142
:100C60004B815C81C701B6010E941640A701960125
:100C70000E9416402B013C01ED81FE81648175814B
:100C800080E090E00E94073F9B01AC01C301B201EC
:100C90000E9416409B01AC01C501B4010E94EE3DCB
:100CA0004B015C01A7019601C701B6010E941640E5
:100CB000A70196010E9416406B017C01ED81FE8127
:100CC0006681778180E090E00E94073F9B01AC0144
:100CD000C701B6010E9416409B01AC01C501B401D9
:100CE0000E94EE3D0E94D13E072E000C880B990B0E
:100CF0000E94093F20E030E040E05FE30E94EE3DCB
:100D00000E94D13ECB0126960FB6F894DEBF0FBEEF
:100D1000CDBFDF91CF91FF90EF90DF90CF90BF904C
:100D2000AF909F908F907F906F905F904F900895BD
:100D3000CF92DF92EF92FF926B017C0120E030E0D6
:100D4000A9010E945A3E87FF11C0C701B6010E9447
:100D5000443F9B01AC01C701B6010E94ED3D9B01E0
:100D6000AC0160E070E080E89FE308C0C701B60115
:100D70000E94443F9B01AC01C701B6010E94ED3DBA
:100D8000FF90EF90DF90CF9008950E9498069B010E
:100D9000AC0160E070E080E89FE30E94ED3D0895C3
:100DA000CF92DF92EF92FF920F931F93FC0100818D
:100DB000118122813381FB01C080D180E280F380E8
:100DC000FC01C082D182E282F382FB0100831183A5
:100DD000228333831F910F91FF90EF90DF90CF908C
:100DE0000895CF93DF93DC01EB01FA013197E730EF
:100DF000F10508F047C0E45BFF4F0C94953D8D91E1
:100E00009C91119733C08D919C91119791958195EB
:100E100091098D939C9336C08D919C9111979195DA
:100E2000819591098D939C9326C08D919C911197EA
:100E300091958195910911969C938E9388819981C2
:100E4000919581959109998388832D913C91119772
:100E50008D939C933983288315C08D919C91119714
:100E600091958195910911969C938E932881398152
:100E70002D933C9305C08881998191958195910925
:100E800099838883DF91CF910895CF93DF93DC011D
:100E9000EB01FA013197E730F10508F047C0ED5A50
:100EA000FF4F0C94953D8D919C91119733C08D917E
:100EB0009C9111979195819591098D939C9336C042
:100EC0008D919C9111979195819591098D939C930A
:100ED00026C08D919C9111979195819591091196BC
:100EE0009C938E938881998191958195910999839D
:100EF00088832D913C9111978D939C9339832883FE
:100F000015C08D919C91119791958195910911969C
:100F10009C938E93288139812D933C9305C08881C1
:100F2000998191958195910999838883DF91CF91DA
:100F30000895FC0120813181FB0140815181FC0138
:100F400051834083FB01318320830895CF92DF9248
:100F5000EF92FF920F931F93CF93DF938901061BAC
:100F6000170BEA01C81BD90BB801012E000C880B26
:100F7000990B0E94093F6B017C01E894F7F8BE01D0
:100F80000D2E000C880B990B0E94093F9B01AC01B0
:100F90005F77C701B6010E941140181694F417FF3D
:100FA00009C02D2F221F2227221F86E090E0821BDE
:100FB000910918C08D2F881F8827881F90E00196FF
:100FC00011C017FF05C0D7FD08C087E090E00AC038
:100FD000D7FD06C080E090E005C084E090E002C04C
:100FE00083E090E0DF91CF911F910F91FF90EF9000
:100FF000DF90CF9008952AE230E020930040909354
:1010000000418093004190930041809300418BE226
:1010100090E0809300407093004160930041709392
:101020000041609300418CE290E080930040509337
:1010300000414093004108952F923F924F925F925A
:101040006F927F928F929F92AF92BF92CF92DF92D8
:10105000EF92FF920F931F93CF93DF93CDB7DEB73D
:10106000A6970FB6F894DEBF0FBECDBF2B013C0193
:1010700069837A838B839C83298B3A8B4B8B5C8B24
:101080002D833E834F835887ED8AFE8A0F8B188FFE
:10109000E986FA860B871C87C601B501AD86BE8638
:1010A000CF86D88A14010E94ED3D6B017C01E89443
:1010B000F7F8A30192016D897E898F89988D0E942E
:1010C000ED3D9B01AC015F77C701B6010E94ED3D8C
:1010D000698F7A8F8B8F9C8F20E030E0A9010E946E
:1010E0001140181674F4BE016F5F7F4FCE01059654
:1010F0000E94D006BE01675F7F4FCE010D960E9411
:10110000D00629853A854B855C8569817A818B81FA
:101110009C810E941140181674F4BE01675F7F4FD6
:10112000CE0101960E94D006BE016B5F7F4FCE01BB
:101130000D960E94D006C980DA80EB80FC804D803D
:101140005E806F807884A30192016D857E858F8596
:1011500098890E94ED3D4B015C01A70196016985CC
:101160007A858B859C850E94ED3D9B01AC01C50174
:10117000B4010E945F3E6D8F7E8F8F8F98A320E019
:1011800030E040E05FE3C701B6010E94EE3D4B0155
:101190005C010E94D13E698B7A8B8B8B9C8B298959
:1011A0003A89B901330F880B990B0E94093FA701B7
:1011B00096010E94ED3D2D8D3E8D4F8D58A10E94D0
:1011C0001640A30192010E94EE3D6B017C01C50116
:1011D000B4010E94C5064B015C01C701B6010E9423
:1011E000D83E2B013C0120E030E0A901698D7A8DC9
:1011F0008B8D9C8D0E9411401816C4F5C701B60155
:101200000E94C5069B01AC01C501B4010E941640B5
:1012100020E030E040E85FE30E94EE3DAB01BC011E
:10122000C1010E949701AC0169897A89C2010E94BB
:10123000FB07C701B6010E9498069B01AC01C501DE
:10124000B4010E94164020E030E040E85FE30E94D5
:10125000EE3DAB01BC01C1010E9497013FEF431A73
:10126000530AAC0169897A89C20136C0C701B60147
:101270000E94C5069B01AC01C501B4010E94164045
:1012800020E030E040E85FE30E94EE3DAB01BC01AE
:10129000C1010E949701AC01B20189899A890E941B
:1012A000FB07C701B6010E9498069B01AC01C5016E
:1012B000B4010E94164020E030E040E85FE30E9465
:1012C000EE3DAB01BC01C1010E949701B2016F5F0D
:1012D0007F4FAC0189899A890E94FB07A70196017B
:1012E0006D8D7E8D8F8D98A10E94EE3D2B013C016E
:1012F000C984DA84EB84FC8420E030E040E05FE3E2
:10130000C701B6010E94EE3D4B015C010E94D13E37
:101310006D8B7E8B8F8B988F2D893E89B901330F12
:10132000880B990B0E94093FA70196010E94ED3D91
:101330002D8D3E8D4F8D58A10E9416402D853E85E6
:101340004F8558890E94EE3D6B017C01C501B401B7
:101350000E94C5064B015C018D899E899EA38DA3C9
:10136000C701B6010E94D83E69A37AA38BA39CA3B0
:1013700020E030E0A901698D7A8D8B8D9C8D0E94D3
:101380001140181664F5C701B6010E94C5069B01FD
:10139000AC01C501B4010E941640AB01BC01C10102
:1013A0000E949701AC016D897E8989A19AA10E9452
:1013B000FB07C701B6010E9498069B01AC01C5015D
:1013C000B4010E941640AB01BC01C1010E9497010B
:1013D000AC0189A19AA101966D897E892CC0C701B3
:1013E000B6010E94C5069B01AC01C501B4010E9473
:1013F0001640AB01BC01C1010E949701AC0169A17B
:101400007AA18D899E890E94FB07C701B6010E94BF
:1014100098069B01AC01C501B4010E941640AB01C6
:10142000BC01C1010E94970169A17AA16F5F7F4F42
:10143000AC018D899E890E94FB0709891A890F5F7B
:101440001F4F8DA19EA10817190708F05FC020E06B
:1014500030E0A901698D7A8D8B8D9C8D0E941140A1
:1014600018162CF5C301B2010E94C506AB01BC01E0
:10147000C1010E9497017C01C301B2010E94D83EC4
:101480004B015C01A701B801C4010E94FB07C30125
:10149000B2010E949806AB01BC01C1010E949701F4
:1014A0002FEF821A920AAC01B801C40122C0C30115
:1014B000B2010E94C506AB01BC01C1010E949701A7
:1014C0007C01C301B2010E94D83E4B015C01A7011F
:1014D000C8010E94FB07C301B2010E949806AB013C
:1014E000BC01C1010E949701B4016F5F7F4FAC0145
:1014F000C8010E94FB072D8D3E8D4F8D58A1C30161
:10150000B2010E94EE3D2B013C0199CFA6960FB689
:10151000F894DEBF0FBECDBFDF91CF911F910F9129
:10152000FF90EF90DF90CF90BF90AF909F908F9003
:101530007F906F905F904F903F902F9008952F92E3
:101540003F924F925F926F927F928F929F92AF9253
:10155000BF92CF92DF92EF92FF920F931F93CF93A0
:10156000DF93CDB7DEB760970FB6F894DEBF0FBE3E
:10157000CDBF9E838D8378876F835A8749873C8749
:101580002B871801A8010E94FB072B853C85498504
:101590005A856F8178858D819E810E94A6075C01A6
:1015A000AC01BE01695F7F4FCE0105960E944507E1
:1015B000A501BE01655F7F4FCE0109960E944507D8
:1015C0008F8098840D811E8189859A85801B910B5F
:1015D000CB84DC84C818D908CC0CDD1C0D2C000C85
:1015E000EE08FF08AC01092E000C660B770B2601F4
:1015F0003701441A550A660A770A0F5F1F4F880F92
:10160000991F9C01990F440B550B2D873E874F87DF
:10161000588B89859A858017910774F1D301C2018F
:101620008C0D9D1DAE1DBF1D77FE03C02C013D011D
:101630000DC03FEF831A930A2C013D012D853E8595
:101640004F855889421A530A640A750A1C830B8312
:101650009A828982A501BE016F5F7F4FCE010396FA
:101660000E94F10669817A81A1018B819C810E948F
:10167000FB070F5F1F4FCDCF60960FB6F894DEBF0C
:101680000FBECDBFDF91CF911F910F91FF90EF90D3
:10169000DF90CF90BF90AF909F908F907F906F9092
:1016A0005F904F903F902F9008952F923F924F92CE
:1016B0005F926F927F928F929F92AF92BF92CF92E2
:1016C000DF92EF92FF920F931F93CF93DF93CDB7EB
:1016D000DEB728970FB6F894DEBF0FBECDBF6C0102
:1016E0005B014A0128013901AC0160E070E0CB01E7
:1016F0000E94C305382E292EA50160E070E0CB01C1
:101700000E94C30589839A83780168867F8220E0DE
:1017100030E040E85FE3B201C3010E94EE3D9B016F
:10172000AC01B70188859F810E945A3E87FF2BC07C
:10173000A601B70188859F810E94C3058B839C8386
:10174000A501B70188859F810E94C3058D839E8373
:1017500084019C014B815C8169817A81832D922D6A
:101760000E949F0A9201A301B70188859F810E9470
:10177000EE3D7B0188879F838D8189838E818A835B
:101780003B802C80C4CF28960FB6F894DEBF0FBEE6
:10179000CDBFDF91CF911F910F91FF90EF90DF9020
:1017A000CF90BF90AF909F908F907F906F905F9001
:1017B0004F903F902F9008952F923F924F925F92BB
:1017C0006F927F928F929F92AF92BF92CF92DF9251
:1017D000EF92FF920F931F93CF93DF93CDB7DEB7B6
:1017E0002C970FB6F894DEBF0FBECDBF9C838B83C2
:1017F0007E836D835A874987922E832EAC0160E0E9
:1018000070E0CB010E94C3057C014D815E8160E0E8
:1018100070E0CB010E94C3055C019801492D582D51
:1018200060E070E080E89FE30E945F3E20E030E0EF
:1018300040EC5FE30E94EE3D0E94D83E7A836983CC
:101840009B01220F331F38872F83C9010E948340D9
:10185000782E692E8F8198850E9483406C018B873A
:10186000DC86EB85FC85A192B192FC87EB87A72CE7
:10187000B62CF501E192F1925F01502E412E140138
:10188000EE24E394F12C89819A81E816F90678F523
:101890004B815C81652D742D832D922D0E94C30593
:1018A00098878F834D815E81652D742D832D922DB8
:1018B0000E94C305EB85FC8581939193FC87EB87A0
:1018C000F5012F813885219331935F019801492DCE
:1018D000582D652D742D832D922D0E94EE3D562E90
:1018E000472E382E292E3FEFE31AF30ACCCFCB82B6
:1018F000DC82E72CF62C812C912C5C0191E0A91A5A
:10190000B1088A149B04E0F4EFEF8E1A9E0AAB81B3
:10191000BC81F70112962D913C911397CD0102964F
:101920009C838B834281538192E0E90EF11C6D917F
:101930007C9109851A85808191810E949F0AE1CF5F
:10194000C6010E941B41872D962D2C960FB6F89448
:10195000DEBF0FBECDBFDF91CF911F910F91FF90E2
:10196000EF90DF90CF90BF90AF909F908F907F903F
:101970006F905F904F903F902F900C941B412F924F
:101980003F924F925F926F927F928F929F92AF920F
:10199000BF92CF92DF92EF92FF920F931F93CF935C
:1019A000DF9300D000D000D0CDB7DEB75C014B0193
:1019B0008A017901C12CD12C1E821D828D819E81CC
:1019C000081719070CF464C0A7014D805E80480C0D
:1019D000591CB201C8018A0D9B1D9C838B830E94F8
:1019E000FB07A7013801680C791CB3018D819E812A
:1019F0008A0D9B1D9A8389830E94FB07A701B3016F
:101A000015018D819E81281A390AC1010E94FB07A8
:101A1000A701B2013501601A710AC3010E94FB07D8
:101A2000A70124018D819E81481A590AB201C30180
:101A30000E94FB07A7013401601A710AB301C101BA
:101A40000E94FB07A701B30189819A810E94FB07CD
:101A5000A701B2018B819C810E94FB071C141D040D
:101A600074F08D819E8101969E838D83880F991FCE
:101A70000196C80ED91E1C141D040CF09FCF0150F6
:101A80001109C801880F991F0196C81AD90A96CF63
:101A900026960FB6F894DEBF0FBECDBFDF91CF9173
:101AA0001F910F91FF90EF90DF90CF90BF90AF907C
:101AB0009F908F907F906F905F904F903F902F906E
:101AC00008954F925F926F927F928F929F92AF9202
:101AD000BF92CF92DF92EF92FF920F931F93CF931B
:101AE000DF93EC017B016A0159014B01820E931EC9
:101AF0003C01640E751EA801B401C3010E94FB07DE
:101B00002E014C185D08A801B401C2010E94FB0718
:101B100047018A189B08A801B401C3010E94FB0772
:101B2000A801B401C2010E94FB0747018C0C9D1C57
:101B300035016C0E7D1EA801B401C3010E94FB0794
:101B4000CA19DB09A801B401CE010E94FB07EC18F9
:101B5000FD08A801B701C3010E94FB07A801B70156
:101B6000CE01DF91CF911F910F91FF90EF90DF9009
:101B7000CF90BF90AF909F908F907F906F905F902D
:101B80004F900C94FB078DB18F748DB98EB1806B23
:101B90008EB987B1837C87B988B18C6388B9EAE64E
:101BA000F0E080818568808308958CB1807349F46A
:101BB0009091DF02903281F09091DF029031E1F458
:101BC00013C08033C9F49091DF02903129F09091D5
:101BD000DF02903289F408C09091DE029150909318
:101BE000DE028033A1F306C09091DE029F5F9093E6
:101BF000DE0202C0882301F38093DF028091DE02BF
:101C0000089586B18C7308951F920F920FB60F92AC
:101C100011240BB60F922F933F934F935F936F93C3
:101C20007F938F939F93AF93BF93EF93FF930E9404
:101C3000D50D87EC90E00197F1F700C00000FF910F
:101C4000EF91BF91AF919F918F917F916F915F9134
:101C50004F913F912F910F900BBE0F900FBE0F90A1
:101C60001F9018951F920F920FB60F9211242F9369
:101C70008F939F938091DE02882379F190913A07A8
:101C800090933C0780913B0780933D072091DE02B3
:101C900012166CF4992311F0915010C08823C1F0F2
:101CA000815080933B0787E080933A0711C02091D1
:101CB000DE0227FF0DC0973020F49F5F90933A0714
:101CC00007C0873028F48F5F80933B0710923A0754
:101CD00081E08093E0021092DE029F918F912F911C
:101CE0000F900FBE0F901F901895FF920F931F93A8
:101CF000CF93DF93122FD32FC42FB52FF62FE72FBB
:101D0000F82E092FAFEF0E94D53D21233D234C2310
:101D10005B236F237E23E1E08F219023A0E00E94CC
:101D2000E13D09F4E0E08E2FDF91CF911F910F91FB
:101D3000FF90089597E0961B28E0929F800D112454
:101D40000895282F26952695269597E0921BFA014F
:101D500090838770FB01808308950F931F93CF9327
:101D6000DF93CDB7DEB728970FB6F894DEBF0FBE6E
:101D7000CDBF8A012EE1829FC0011124DC0198961B
:101D80008A5B9F4F482F9C838B838EE1689FF00175
:101D90001124CF014E9698878F832A2FBA83A98367
:101DA0006E2FFE83ED833A815C817E8198850E944F
:101DB000CE0228960FB6F894DEBF0FBECDBFDF91DE
:101DC000CF911F910F9108950F931F93CF93DF939E
:101DD00000E010E0C0E0D0E0C8018C0F9D1F80FD46
:101DE00003C04CE255EF02C042E25AE86C2F802F4C
:101DF0000E94AD0E2196C830D10571F70F5F1F4FBD
:101E00000830110539F7DF91CF911F910F91089597
:101E1000CF93DF9328E0829FE0011124C750DD4F6C
:101E2000C60FD11D98819923C9F09EE1699FB00129
:101E30001124695F7F4F2EE1829FC00111248F968C
:101E40000E949A058881E0910001F0910101E80F5C
:101E5000F11D8081DF91CF910C94B304DF91CF917C
:101E600008950F931F93CF938091E002882309F484
:101E70006FC0F894B0913C07C0913D078B2F8C0F39
:101E800080FD03C00CE215EF02C002E21AE887E011
:101E90008C1BEB2F98E0899FE00D112488E0E89FD0
:101EA000F0011124E75CFA4F20818091F102282390
:101EB00031818091F202382342818091F3024823DC
:101EC00053818091F402582364818091F502682344
:101ED00075818091F6027823A6818091F702E781CF
:101EE0009091F8028A239E23A0E00E94E13D31F008
:101EF0008091E102882311F002ED17E98091390702
:101F0000813051F480913E07B81306C080913F079D
:101F1000C81302C000E014E0A8016C2F8B2F0E94B0
:101F2000AD0E60913D0780913C070E94080F48E18B
:101F300056EC60913B0780913A070E94AD0E60918C
:101F40003B0780913A070E94080F1092E0027894B4
:101F5000CF911F910F910895EF92FF920F931F93CE
:101F6000CF93DF93C9E3D5E010E087E0E82E288126
:101F700039814A815B816C817D818E819F81289628
:101F8000E091F1022E23E091F2023E23E091F30270
:101F90004E23E091F4025E23E091F5026E23E0917E
:101FA000F6027E23F091F702E091F8028F239E2340
:101FB000A0E00E94E13DC9F0812F86958695869527
:101FC000FE2CF81A012F0770802F8F0D80FD03C0A3
:101FD0004CE255EF02C042E25AE86F2D802F0E947A
:101FE000AD0E6F2D802F0E94080F1F5F103409F077
:101FF000BECF1092F1021092F2021092F3021092F0
:10200000F4021092F5021092F6021092F70210926A
:10201000F802DF91CF911F910F91FF90EF900895FB
:10202000EF92FF920F931F93CF93DF93C9E3D5E015
:1020300010E087E0E82E288139814A815B816C813C
:102040007D818E819F812896E091F1022E23E0917F
:10205000F2023E23E091F3024E23E091F4025E236C
:10206000E091F5026E23E091F6027E23F091F702F3
:10207000E091F8028F239E23A0E00E94E13D91F0C1
:10208000812F869586958695FE2CF81A42ED57E9A4
:102090006F2D012F0770802F0E94AD0E6F2D802FA6
:1020A0000E94080F1F5F103431F6DF91CF911F910E
:1020B0000F91FF90EF900895CF93DF93D0E0C0E0B1
:1020C0006C2F8D2F0E94080FCF5FC830C9F7DF5FDC
:1020D000D830A9F7DF91CF9108950F931F93CF9335
:1020E000DF9301E812E0C0E0F801D1918F01DD2318
:1020F00079F08FE0C89FB00111246A5E7F4F8FE0B6
:1021000090E00E949A058D2F0E94B304CF5FECCF20
:10211000DF91CF911F910F910895122FF32EE42E8E
:10212000D52EC62EB72EA82E992EF894C0E0D0E05A
:1021300087E0882E8C2F869586958695F82DF81B3E
:10214000EC2FE770212F3F2D4E2D5D2D6C2D7B2D1B
:102150008A2D992D0C2F0E94B93D217030E040E06E
:1021600050E060E070E080E090E0A0E00E94E13D9F
:1021700019F04FEF5FEF02C040E154E86F2F8E2F50
:102180000E94AD0E2196C034D105A1F6FFCF3F923B
:102190004F925F926F927F928F929F92AF92BF9277
:1021A000CF92DF92EF92FF920F931F93CF93DF9323
:1021B0007C011092390710923A0710923B07109257
:1021C0003C0710923D07E0E0F0E0412C57E0352E4F
:1021D00014E068E0D62E7BE0C72EAAE0BA2EB9E064
:1021E000AB2ECCE09C2ED2E08D2E05E0702E83E04D
:1021F000682E96E0592ED701A40DB11D8C9188232D
:1022000009F42FC3932D9E1B0F2F28E0929F000DE2
:102210001124AF2FB0E0823509F463C10CF08FC0F8
:102220008E3409F49DC10CF045C0823409F4D7C145
:102230008B3409F00EC321E030E040E050E060E074
:1022400070E080E090E00E949E3D00916903202BA9
:1022500000916A03302B00916B03402B00916C03BB
:10226000502B00916D03602B00916E03702B009139
:102270006F03802B00917003902B209369033093A0
:102280006A0340936B0350936C0360936D037093E8
:102290006E0380936F0390937003CD01C3E0880FAA
:1022A000991FCA95E1F787509D4F8E0F911DEC0144
:1022B0005882CFC2803509F4D4C0813509F0C9C233
:1022C00021E030E040E050E060E070E080E090E04D
:1022D0000E949E3D00916103202B00916203302BF0
:1022E00000916303402B00916403502B0091650320
:1022F000602B00916603702B00916703802B009187
:102300006803902B2093610330936203409363032F
:10231000509364036093650370936603809367032F
:1023200090936803CD01D3E0880F991FDA95E1F708
:1023300087509D4F8E0F911DEC0178828AC28E3698
:1023400009F4CBC10CF045C0823609F405C28B36C6
:1023500009F07FC221E030E040E050E060E070E052
:1023600080E090E00E949E3D00919903202B009117
:102370009A03302B00919B03402B00919C03502B20
:1023800000919D03602B00919E03702B00919F0391
:10239000802B0091A003902B2093990330939A03F4
:1023A00040939B0350939C0360939D0370939E0303
:1023B00080939F039093A003CD0123E0880F991F82
:1023C0002A95E1F787509D4F8E0F911DEC01988261
:1023D00040C2813709F4FFC1823709F43FC1803719
:1023E00009F037C221E030E040E050E060E070E00A
:1023F00080E090E00E949E3D00917103202B0091AF
:102400007203302B00917303402B00917403502B07
:1024100000917503602B00917603702B0091770378
:10242000802B00917803902B2093710330937203DB
:102430004093730350937403609375037093760312
:102440008093770390937803CD0173E0880F991FF1
:102450007A95E1F787509D4F8E0F911DEC013882E0
:10246000F8C121E030E040E050E060E070E080E062
:1024700090E00E949E3D00914103202B0091420379
:10248000302B00914303402B00914403502B0091CB
:102490004503602B00914603702B00914703802B6E
:1024A00000914803902B20934103309342034093C3
:1024B0004303509344036093450370934603809312
:1024C000470390934803CD0143E0880F991F4A9535
:1024D000E1F787509D4F8E0F911D21E0EC0128837D
:1024E000B8C121E030E040E050E060E070E080E022
:1024F00090E00E949E3D00915903202B00915A03C9
:10250000302B00915B03402B00915C03502B00911A
:102510005D03602B00915E03702B00915F03802BA5
:1025200000916003902B2093590330935A034093FA
:102530005B0350935C0360935D0370935E03809331
:102540005F0390936003CD0133E0880F991F3A95A4
:10255000E1F787509D4F8E0F911DEC01188379C1D3
:1025600021E030E040E050E060E070E080E090E0AA
:102570000E949E3D00914903202B00914A03302B7D
:1025800000914B03402B00914C03502B00914D03C5
:10259000602B00914E03702B00914F03802B009114
:1025A0005003902B2093490330934A0340934B03ED
:1025B00050934C0360934D0370934E0380934F03ED
:1025C00090935003CD0123E0880F991F2A95E1F7DE
:1025D00087509D4F8E0F911DEC0188823AC121E0FA
:1025E00030E040E050E060E070E080E090E00E9489
:1025F0009E3D00915103202B00915203302B0091FE
:102600005303402B00915403502B00915503602B32
:1026100000915603702B00915703802B00915803B3
:10262000902B2093510330935203409353035093C4
:10263000540360935503709356038093570390930C
:102640005803CD0103E0880F991F0A95E1F78750E1
:102650009D4F8E0F911DEC016882FBC021E030E0A0
:1026600040E050E060E070E080E090E00E949E3D3D
:1026700000918903202B00918A03302B00918B035A
:10268000402B00918C03502B00918D03602B009107
:102690008E03702B00918F03802B00919003902B61
:1026A0002093890330938A0340938B0350938C03C8
:1026B00060938D0370938E0380938F0390939003A8
:1026C000CD0163E0880F991F6A95E1F787509D4F10
:1026D0008E0F911DEC01B882BCC021E030E040E0DB
:1026E00050E060E070E080E090E00E949E3D00914C
:1026F0007903202B00917A03302B00917B03402B30
:1027000000917C03502B00917D03602B00917E0390
:10271000702B00917F03802B00918003902B2093DE
:10272000790330937A0340937B0350937C03609347
:102730007D0370937E0380937F0390938003CD018C
:1027400053E0880F991F5A95E1F787509D4F8E0FE0
:10275000911DEC01D8827DC021E030E040E050E0E6
:1027600060E070E080E090E00E949E3D0091810377
:10277000202B00918203302B00918303402B00918A
:102780008403502B00918503602B00918603702BEE
:1027900000918703802B00918803902B2093810365
:1027A00030938203409383035093840360938503A3
:1027B000709386038093870390938803CD0143E051
:1027C000880F991F4A95E1F787509D4F8E0F911DF5
:1027D000EC01A8823EC021E030E040E050E060E043
:1027E00070E080E090E00E949E3D00919103202BDC
:1027F00000919203302B00919303402B009194039E
:10280000502B00919503602B00919603702B009143
:102810009703802B00919803902B20939103309382
:1028200092034093930350939403609395037093A2
:1028300096038093970390939803CD0133E0880F1C
:10284000991F3A95E1F787509D4F8E0F911DEC012E
:10285000C88217971CF0EF5FF0E001C0FF5F439460
:10286000CACC7091410380915903782B6091420347
:1028700080915A03682B5091430380915B03582B3E
:102880004091440380915C03482B30914503809133
:102890005D03382B2091460380915E03282B909195
:1028A000470380915F03982BE09148038091600378
:1028B0008E2BE09149037E2BE0914A036E2BE09131
:1028C0004B035E2BE0914C034E2BE0914D033E2BCE
:1028D000E0914E032E2BE0914F039E2BE09150038D
:1028E0008E2BE09151037E2BE09152036E2BE091F1
:1028F00053035E2BE09154034E2BE09155033E2B86
:10290000E09156032E2BE09157039E2BE091580344
:102910008E2BE09161037E2BE09162036E2BE091A0
:1029200063035E2BE09164034E2BE09165033E2B25
:10293000E09166032E2BE09167039E2BE0916803E4
:102940008E2B10916903712BD0916A036D2BC0916E
:102950006B035C2B00916C03402BB0916D033B2B00
:10296000A0916E032A2BF0916F039F2BE0917003CF
:102970008E2B7093A1036093A2035093A303409303
:10298000A4033093A5032093A6039093A7038093F9
:10299000A80310917103E09189031E2BD09172035B
:1029A000E0918A03DE2BC0917303E0918B03CE2B61
:1029B00000917403E0918C030E2BB0917503E091AC
:1029C0008D03BE2BA0917603E0918E03AE2BF09188
:1029D0007703E0918F03FE2BF0907803E091900352
:1029E000EF29F09079031F29F0907A03DF29F09006
:1029F0007B03CF29F0907C030F29F0907D03BF2942
:102A0000F0907E03AF29F0907F03FF29F0908003C0
:102A1000EF29F09081031F29F0908203DF29F090C5
:102A20008303CF29F09084030F29F0908503BF29F9
:102A3000F0908603AF29F0908703FF29F090880378
:102A4000EF29F09091031F29F0909203DF29F09075
:102A50009303CF29B0909403B02AC0909503CB2A5A
:102A6000D0909603DA2AE0909703EF2AF09098032B
:102A7000FE2AE09199031E2BE0919A03DE2BE09150
:102A80009B03CE2B00919C030B29B0919D03BC2985
:102A9000A0919E03AD29F0919F03FE29E091A00330
:102AA000EF291093A903D093AA03C093AB0300931B
:102AB000AC03B093AD03A093AE03F093AF03E093E8
:102AC000B003712B6D2B5C2B042BB32BA22BF92B9A
:102AD000E82B7093B1036093B2035093B303009358
:102AE000B403B093B503A093B603F093B703E09398
:102AF000B803E9E3F5E0A0E0B0E021E030E040E039
:102B000050E060E070E080E090E00A2F0E949E3D7F
:102B100020833183428353836483758386839783C1
:102B200038961196A034B10541F7DF91CF911F91EE
:102B30000F91FF90EF90DF90CF90BF90AF909F905C
:102B40008F907F906F905F904F903F9008952F925D
:102B50003F924F925F926F927F928F929F92AF922D
:102B6000BF92CF92DF92EF92FF920F931F93CF937A
:102B7000DF93CDB7DEB765970FB6F894DEBF0FBE13
:102B8000CDBF39014A016D8B7C8BB82FA92FA88A44
:102B9000B98A0A8B1B8B822F8F778983872D8F773A
:102BA0008A83842F8F778B83892D8F778C83162F41
:102BB0001F77872F8F778D838B2F8F778E83892F2A
:102BC0008F778F83822F8E7F8887872D8E7F89874F
:102BD000842F8E7F8A87892D8E7F8B87862F8E7F8D
:102BE0008C87872F8E7F8D878B2F8E7F8E87892F67
:102BF0008E7F8F878B2F08E00E949E3D19012A014E
:102C00005B01F82FE92F9301A4016D897C898B2F3B
:102C10009A2F0E94B93D222A332A442A552AA62AED
:102C2000B72AF82BE92B288539854A855B856C8581
:102C30007D858E859F8507E00E949E3D222A332A4E
:102C4000442A552AA62AB72AF82BE92B29813A814A
:102C50004B815C81612F7D818E819F8109E00E9483
:102C60009E3D222A332A442A552AA62AB72AF82B1F
:102C7000E92B29813A814B815C81612F7D818E8195
:102C80009F8101E00E949E3D222A332A442A552A30
:102C9000A62AB72AF82BE92B29813A814B815C813E
:102CA000612F7D818E819F8107E00E94B93D222A9C
:102CB000332A442A552AA62AB72AF82BE92B288535
:102CC00039854A855B856C857D858E859F8509E084
:102CD0000E94B93D222A332A442A552AA62AB72A15
:102CE000F82BE92B288539854A855B856C857D85A0
:102CF0008E859F8501E00E94B93D222A332A442A0D
:102D0000552AA62AB72AF82BE92B28892095A989C4
:102D1000A095C094D094E094F0948A8980959B8982
:102D200090952221332D3A23442D4C21552D5D21A0
:102D30006A2D6E217B2D7F218F239E2365960FB6F2
:102D4000F894DEBF0FBECDBFDF91CF911F910F91E1
:102D5000FF90EF90DF90CF90BF90AF909F908F90BB
:102D60007F906F905F904F903F902F9008952F929B
:102D70003F924F925F926F927F928F929F92AF920B
:102D8000BF92CF92DF92EF92FF920F931F93CF9358
:102D9000DF93CDB7DEB765970FB6F894DEBF0FBEF1
:102DA000CDBFE22FEC7FE983E32FEC7FEA83E42FB2
:102DB000EC7FEB83E52FEC7FEC83E62FEC7FED835C
:102DC000E72FEC7FEE83E82FEC7FEF83E92FEC7F9A
:102DD000E887E22FEE7FE987E32FEE7FEA87E42F93
:102DE000EE7FEB87E52FEE7FEC87E62FEE7FED871A
:102DF000E72FEE7FEE87E82FEE7FEF87E92FEE7F5C
:102E0000E88BE22FEF772E2EE32FEF773E2EE42F85
:102E1000EF774E2EE52FEF775E2EE62FEF776E2EB3
:102E2000E72FEF77E98BE82FEF77EA8BE92FEF7742
:102E3000EB8B2F73D22E3F73E32E4F73F42E152F8F
:102E40001F736F736D8B7F737C8BB82FBF73A92F2C
:102E5000AF7329813A814B815C816D817E818F8145
:102E6000988506E00E949E3D722E832E942EA52EFC
:102E7000B62EC72EF82FE92F29853A854B855C851C
:102E80006D857E858F8598890FE00E949E3D722A10
:102E9000832A942AA52AB62AC72AF82BE92B91015E
:102EA000A201662D79898A899B8901E10E949E3D54
:102EB000722A832A942AA52AB62AC72AF82BE92B34
:102EC0002D2D3E2D4F2D512F6D897C898B2F9A2FC3
:102ED0000AE00E949E3D722A832A942AA52AB62AD5
:102EE000C72AF82BE92B2D2D3E2D4F2D512F6D8903
:102EF0007C898B2F9A2F06E00E94B93D722A832A83
:102F0000942AA52AB62AC72AF82BE92B9101A201F7
:102F1000662D79898A899B890FE00E94B93D722AC2
:102F2000832A942AA52AB62AC72AF82BE92B2985B1
:102F30003A854B855C856D857E858F85988901E115
:102F40000E94B93D722A832A942AA52AB62AC72A42
:102F5000F82BE92B29813A814B815C816D817E813F
:102F60008F8198850AE00E94B93D2729382949298F
:102F70005A296B297C298F2B9E2B65960FB6F894C6
:102F8000DEBF0FBECDBFDF91CF911F910F91FF909C
:102F9000EF90DF90CF90BF90AF909F908F907F90F9
:102FA0006F905F904F903F902F900895AF92BF9297
:102FB000CF92DF92EF92FF920F931F930E94B7166A
:102FC000A094B094C094D094E094F094009510959F
:102FD0002A213B214C215D216E217F2180239123D9
:102FE0001F910F91FF90EF90DF90CF90BF90AF9027
:102FF00008957F928F929F92AF92BF92CF92DF926D
:10300000EF92FF920F931F93CF93DF93D22FC32F93
:10301000B42FA52FF62FE72FF82E192F2E7F3E7FE6
:103020004E7F5E7F6E7F7E7F8E7F9E7F07E00E9459
:103030009E3D722E832E942EA52EB62EC72ED82EF0
:10304000E92E2D2F2F773C2F3F774B2F4F775A2F7D
:103050005F776F2F6F777E2F7F778F2D8F77912FF1
:103060009F7709E00E949E3D2729382949295A293E
:103070006B297C298D299E29DF91CF911F910F917A
:10308000FF90EF90DF90CF90BF90AF909F908F9088
:103090007F9008952F923F924F925F926F927F920E
:1030A0008F929F92AF92BF92CF92DF92EF92FF9258
:1030B0000F931F93CF93DF93CDB7DEB72F970FB644
:1030C000F894DEBF0FBECDBF29833A83142F5D87EE
:1030D0006C87B72F8B83A92F41EB53E0FA018081D6
:1030E00080958E87818180958F87428040944C8225
:1030F000538050945D826481A62EA0947581B72E72
:10310000B0948681E82EE0949781F92EF094412FB7
:103110005D856C857B2F8B819A2F08E00E949E3DF8
:10312000FE85F223FE83EF85E323D42CD422F52DF4
:10313000F523F8876A2169877B217A87882E8E207C
:10314000992E9F2029812E7F3A813E7F412F4E7FED
:103150005D855E7F6C856E7F7B2F7E7F8B818E7F12
:103160009A2F9E7F07E00E949E3D19012A013B0194
:10317000C82EF92F29812F773A813F77412F4F773A
:103180005D855F776C856F777B2F7F778B818F77FE
:103190009A2F9F7709E00E949E3D222933294429D6
:1031A0005529662977298C299F2BA9EAB3E02C9011
:1031B00022213090AA0333214090AB034421509048
:1031C000AC0355216090AD0366217090AE0377216A
:1031D000C090AF038C21A091B0039A232E80222AA5
:1031E0003E2E332A442E4D285884552A6984662A57
:1031F0007A84772A882A992A20E030E04D2D50E001
:1032000060E070E080E090E008E00E949E3DEE8586
:103210002E23FF853F23EC814E23FD815F236A210E
:103220007B218E219F212229332944295529662972
:103230007729882999292F960FB6F894DEBF0FBEFB
:10324000CDBFDF91CF911F910F91FF90EF90DF9055
:10325000CF90BF90AF909F908F907F906F905F9036
:103260004F903F902F9008957F928F929F92AF92B0
:10327000BF92CF92DF92EF92FF920F931F93CF9363
:10328000DF93D22FC32FB42FA52FF62FE72FF82EC1
:10329000192F2E7F3E7F4E7F5E7F6E7F7E7F8E7FDB
:1032A0009E7F09E00E94B93D722E832E942EA52E9A
:1032B000B62EC72ED82EE92E2D2F2F773C2F3F77F5
:1032C0004B2F4F775A2F5F776F2F6F777E2F7F7738
:1032D0008F2D8F77912F9F7707E00E94B93D272987
:1032E000382949295A296B297C298D299E29DF9162
:1032F000CF911F910F91FF90EF90DF90CF90BF90F3
:10330000AF909F908F907F9008952F923F924F9211
:103310005F926F927F928F929F92AF92BF92CF9265
:10332000DF92EF92FF920F931F93CF93DF93CDB76E
:10333000DEB72F970FB6F894DEBF0FBECDBF29833F
:103340003A83142F5D876C87B72F8B83A92F21EBCE
:1033500033E0F901808180958E87818180958F8708
:10336000428140954C83538150955D836481A62EA4
:10337000A0947581B72EB0948681E82EE094978151
:10338000F92EF09429813A81412F5D856C857B2F40
:103390008B819A2F08E00E94B93DFE85F223FE83BF
:1033A000EF85E323EF83FC81F423F887ED81E523A8
:1033B0006A216A87D72EDB20882E8E20992E9F20A7
:1033C00029812E7F3A813E7F412F4E7F5D855E7F32
:1033D0006C856E7F7B2F7E7F8B818E7F9A2F9E7F69
:1033E00009E00E94B93D19012A013B01C82EF92FBD
:1033F00029812F773A813F77412F4F775D855F771E
:103400006C856F777B2F7F778B818F779A2F9F7754
:1034100007E00E94B93D222933294429552966290C
:1034200077298C299F2BA1EAB3E02C9022213090A0
:10343000A20333214090A30344215090A4035521BB
:103440006090A50366217090A6037721C090A70322
:103450008C21A091A8039A232E80222A3F80332A10
:103460004884442A5E2E552A6A84662A772E7D284F
:10347000882A992A20E030E040E050E060E07D2D8D
:1034800080E090E008E00E94B93DFE852F23EF85A3
:103490003E23FC814F23ED815E236A217B218E2117
:1034A0009F212229332944295529662977298829EA
:1034B00099292F960FB6F894DEBF0FBECDBFDF91CE
:1034C000CF911F910F91FF90EF90DF90CF90BF9021
:1034D000AF909F908F907F906F905F904F903F90B4
:1034E0002F9008952F923F924F925F926F927F920A
:1034F0008F929F92AF92BF92CF92DF92EF92FF9204
:103500000F931F93CF93DF93CDB7DEB760970FB6BE
:10351000F894DEBF0FBECDBF2B833C834D835E830B
:103520006F83788789879A87612EE9E3F5E010E059
:10353000712C812C912C1E861D861F8619821A8261
:103540002081318142815381648175818681978197
:103550003896BB812B23BC813B23BD814B23BE818D
:103560005B23BF816B23B8857B23B9858B23BA8509
:103570009B23A0E00E94E13D09F429C1512E412E78
:1035800027E324150CF43FC028E0420E88E0489E53
:1035900090011124275C3A4FD9013C9011962C9050
:1035A000119712964C91129713965C91139714965B
:1035B0006C91149715967C91159716968C91169789
:1035C00017969C9173288228942ABE85B52BBE87B6
:1035D000BD85B62BBD87BF85B72BBF87B981B82BFB
:1035E000B983BA81B92BBA83232D2A21322D3B21ED
:1035F0004C215D216E217F2180239621A0E00E9435
:10360000E13D09F4BDCF412E27E024150CF03FC069
:1036100038EF430E88E0489E90011124275C3A4F12
:10362000D9013C9011962C90119712964C911297BB
:1036300013965C91139714966C91149715967C9140
:10364000159716968C91169717969C917328822839
:10365000942ABE85B52BBE87BD85B62BBD87BF8599
:10366000B72BBF87B981B82BB983BA81B92BBA837D
:103670002A2D23213B2D32214C215D216E217F21DA
:1036800080239621A0E00E94E13D09F4BDCF312FB7
:10369000387F332E87E0830F412EA82FB0E0BC8700
:1036A000AB87842D042C000C990B2B853C8582174D
:1036B00093070CF041C04394B42D88E0B802900108
:1036C0001124275C3A4FD9012C901196BC91B88BEC
:1036D000D90112964C91129713965C9113971496F8
:1036E0006C91149715967C91159716968C91169758
:1036F00017969C917228B8898B2A942ABE85B52B7F
:10370000BE87BD85B62BBD87BF85B72BBF87B98167
:10371000B82BB983BA81B92BBA832A2D22213889D3
:103720003B214C215D216E217F2180239621A0E049
:103730000E94E13D09F4B5CF232C312C852D052CB9
:10374000000C990B281639060CF041C05A94852DAF
:1037500098E0890290011124275C3A4FD9014C90DE
:103760001196BC91BB87D90112964C911297139672
:103770005C91139714966C91149715967C911597FC
:1037800016968C91169717969C917428BB858B2A58
:10379000942ABE85B52BBE87BD85B62BBD87BF8558
:1037A000B72BBF87B981B82BB983BA81B92BBA833C
:1037B0002A2D24213B853B214C215D216E217F2137
:1037C00080239621A0E00E94E13D09F4B7CF1F5F5E
:1037D000103409F0B5CE272D382D492D5E856D8525
:1037E0007F8589819A8160960FB6F894DEBF0FBEFF
:1037F000CDBFDF91CF911F910F91FF90EF90DF90A0
:10380000CF90BF90AF909F908F907F906F905F9080
:103810004F903F902F9008952F923F924F925F923A
:103820006F927F928F929F92AF92BF92CF92DF92D0
:10383000EF92FF920F931F93CF93DF93CDB7DEB735
:103840001501260137014801AD88BE88CF88D88C84
:10385000E98CFA8C0B8D1C8D0E94721A2094309486
:1038600040945094609470948094909422213321D9
:10387000442155216621772188219921DF91CF911B
:103880001F910F91FF90EF90DF90CF90BF90AF907E
:103890009F908F907F906F905F904F903F902F9070
:1038A00008952F923F924F925F926F927F928F92E4
:1038B0009F92AF92BF92CF92DF92EF92FF920F93BF
:1038C0001F93CF93DF93CDB7DEB763970FB6F8940E
:1038D000DEBF0FBECDBF2F83388749875A876B87DE
:1038E0007C878D879E874A2C2B2CCD82712E89E375
:1038F00095E0998B888B1C82912CA12CB12CC12C2A
:1039000019821A821A8AF0E0A889B9892C91119635
:103910003C91119712964C91129713965C911397C4
:1039200014966C91149715967C91159716968C9118
:10393000169717969C9117971896B98BA88BBF81ED
:103940002B23E8853E23B9854B23EA855E23BB857F
:103950006B23EC857E23BD858B23EE859E23A0E023
:103960000E94E13D09F44FC18C818695869586952C
:1039700097E0892E881AEC81E770BE2FB80DBE83C0
:103980001B2F27EF829E100D11246E2E512CB1E4B7
:10399000B10FBB83862D90E007970CF045C0BE8128
:1039A0006B1609F441C063942B81250D88E0289F94
:1039B00090011124275C3A4FD9013C901196BC919B
:1039C000BF87D90112964C91129713965C91139769
:1039D00014966C91149715967C91159716968C9168
:1039E000169717969C919328BF85AB2AB42AC52AAF
:1039F000B981B62BB983BA81B72BBA83BA89B82BF0
:103A0000BA8BF92B29E0520E232D24213F85322138
:103A1000BD814B235D216E217F2180239721A0E072
:103A20000E94E13D09F4B6CF312E29EF829E301875
:103A300011246E2E1B82BFE3B10FBF87662009F4ED
:103A400046C0631409F443C06A942F85BB812B0FD1
:103A500088E0289F90011124275C3A4FD9015C909F
:103A60001196BC91BB8BD90112964C91129713966B
:103A70005C91139714966C91149715967C911597F9
:103A800016968C91169717969C919528BB89AB2A10
:103A9000B42AC52AB981B62BB983BA81B72BBA83A8
:103AA000BA89B82BBA8BF92BBB81B95FBB83242DA4
:103AB00025213B893221BD814B235D216E217F2150
:103AC00080239721A0E00E94E13D09F4B7CF682C44
:103AD000512CBFE2B10FBB83BE816B1609F446C007
:103AE000862D90E007970CF041C063942B81250D43
:103AF00088E0289F90011124275C3A4FD9013C901F
:103B00001196BC91BF87D90112964C9112971396CA
:103B10005C91139714966C91149715967C91159758
:103B200016968C91169717969C919328BF85AB2A71
:103B3000B42AC52AB981B62BB983BA81B72BBA8307
:103B4000BA89B82BBA8BF92B27EF520E242D2321DB
:103B50003F853221BD814B235D216E217F21802352
:103B60009721A0E00E94E13D09F4B6CF612C8E1AA6
:103B70001F5C882D8E0F2E2F30E0273031050CF082
:103B800042C0873008F03FC0EF5F212F260D88E04C
:103B9000289F90011124275C3A4FD9015C9011961F
:103BA0003C90119712964C91129713965C91139733
:103BB00014966C91149715967C91159716968C9186
:103BC000169717969C919528A328B42AC52AB981DF
:103BD000B62BB983BA81B72BBA83BA89B82BBA8B03
:103BE000F92B29EF620E242D2521322D3321BD81A1
:103BF0004B235D216E217F2180239721A0E00E942D
:103C0000E13D09F4B6CFEC81EF5FEC83E03409F0DD
:103C10007BCE292D3A2D4B2D5C2D69817A818A89A5
:103C20009F2F63960FB6F894DEBF0FBECDBFDF9116
:103C3000CF911F910F91FF90EF90DF90CF90BF90A9
:103C4000AF909F908F907F906F905F904F903F903C
:103C50002F9008952F923F924F925F926F927F9292
:103C60008F929F92AF92BF92CF92DF92EF92FF928C
:103C70000F931F93CF93DF93CDB7DEB715012601C6
:103C800037014801AD88BE88CF88D88CE98CFA8C82
:103C90000B8D1C8D0E94511C2094309440945094A4
:103CA0006094709480949094222133214421552172
:103CB0006621772188219921DF91CF911F910F9162
:103CC000FF90EF90DF90CF90BF90AF909F908F903C
:103CD0007F906F905F904F903F902F9008952F921C
:103CE0003F924F925F926F927F928F929F92AF928C
:103CF000BF92CF92DF92EF92FF920F931F93CF93D9
:103D0000DF93CDB7DEB760970FB6F894DEBF0FBE76
:103D1000CDBF19012A013B014C01A88ABF86C98287
:103D2000DA82EB82FC820D831E830E94721A2F833B
:103D3000388749875A876B877C878D879E87A888B5
:103D4000BF84C980DA80EB80FC800D811E819101E7
:103D5000A201B301C4010E94511CEF812E2BE88502
:103D60003E2BE9854E2BEA855E2BEB856E2BEC8591
:103D70007E2BED858E2BEE859E2B60960FB6F894EC
:103D8000DEBF0FBECDBFDF91CF911F910F91FF908E
:103D9000EF90DF90CF90BF90AF909F908F907F90EB
:103DA0006F905F904F903F902F9008952F923F9289
:103DB0004F925F926F927F928F929F92AF92BF923B
:103DC000CF92DF92EF92FF920F931F93CF93DF93E7
:103DD000CDB7DEB71501260137014801AD88BE8891
:103DE000CF88D88CE98CFA8C0B8D1C8D0E946F1EAD
:103DF0002094309440945094609470948094909463
:103E000022213321442155216621772188219921BE
:103E1000DF91CF911F910F91FF90EF90DF90CF90A6
:103E2000BF90AF909F908F907F906F905F904F90DA
:103E30003F902F9008952F923F924F925F926F92F2
:103E40007F928F929F92AF92BF92CF92DF92EF922A
:103E5000FF920F931F93CF93DF93CDB7DEB7A89751
:103E60000FB6F894DEBF0FBECDBFD09041031091C6
:103E70004203B0914303A0914403F0914503E091C4
:103E8000460380904703909048032D2D2F77312FC4
:103E90003F774B2F4F775A2F5F776F2F6F777E2F9C
:103EA0007F77882D8F77992D9F7709E00E949E3D1F
:103EB00079011A012B013C012D2D2E7F312F3E7FE0
:103EC0004B2F4E7F5A2F5E7F6F2F6E7F7E2F7E7F10
:103ED000882D8E7F992D9E7F07E00E949E3DE22ACD
:103EE000E982F32AFA82242A2B82352A3C82462A46
:103EF0004D82572A5E82682A6F82792A7886E1EAA3
:103F0000F3E0A080B180C280D380E480F580068198
:103F100017812091690330916A0340916B0350919E
:103F20006C0360916D0370916E0380916F039091AB
:103F300070030E94A71529873A874B875C876D8796
:103F40007E878F87988B2091490330914A03409157
:103F50004B0350914C0360914D0370914E0380913F
:103F60004F03909150030E94B716298B3A8B4B8BCD
:103F70005C8B6D8B7E8B8F8B988FE9E9F3E02080D3
:103F800020943180309442804094538050946480D7
:103F90006094758070948680809497809094E1EB13
:103FA000F3E0808128228181382282814822838126
:103FB000582284816822858178228681882287819F
:103FC00098222091590330915A0340915B035091FC
:103FD0005C0360915D0370915E03510162017301A6
:103FE000840180915F03909160030E94721A298F6F
:103FF0003A8F4B8F5C8F6D8F7E8F8F8F98A3209120
:1040000051033091520340915303509154036091F6
:1040100055037091560380915703909158030E9465
:10402000511C29A33AA34BA35CA36DA37EA38FA32A
:1040300098A72091610330916203409163035091EE
:1040400064036091650370916603809167039091AA
:1040500068030E946F1EF980E984FE281A810A8590
:10406000102BEB81FB85EF2BEA83EC800C85E02A9B
:10407000E982ED81FD85EF2BBE81EE84BE29AF8103
:104080000F85A02BF885E888FE290989F02AEA889F
:104090001E290A81EB880E290A830981EC880E29E2
:1040A00009830D89E02BEE88BE290F89A02BE88CAF
:1040B000FE29098DF02AEA8C1E290A81EB8C0E2933
:1040C0000A830981EC8C0E2909830D8DE02BEE8C7F
:1040D000BE290F8DA02BE8A0FE2909A1F02AEAA095
:1040E0001E290A81EBA00E290A830981ECA00E2962
:1040F00009830DA1E02BEEA0BE290FA1A02BE8A4FF
:10410000FE292F29312B0A81402B1981512B6E2B2F
:104110007B2B8A2B9F2BA8960FB6F894DEBF0FBE81
:10412000CDBFDF91CF911F910F91FF90EF90DF9066
:10413000CF90BF90AF909F908F907F906F905F9047
:104140004F903F902F9008952F923F924F925F9201
:104150006F927F928F929F92AF92BF92CF92DF9297
:10416000EF92FF920F931F93CF93DF93CDB7DEB7FC
:10417000A8970FB6F894DEBF0FBECDBFD0907103E5
:1041800010917203B0917303A0917403F0917503C1
:10419000E091760380907703909078032D2D2F7710
:1041A000312F3F774B2F4F775A2F5F776F2F6F77D6
:1041B0007E2F7F77882D8F77992D9F7707E00E943C
:1041C000B93D79012A013B011C012D2D2E7F312F94
:1041D0003E7F4B2F4E7F5A2F5E7F6F2F6E7F7E2F3D
:1041E0007E7F882D8E7F992D9E7F09E00E94B93DAC
:1041F000E22AE982F32AFA82442A4B82552A5C8217
:10420000662A6D82772A7E82282A2F82392A38866A
:10421000E9EAF3E0A080B180C280D380E480F58039
:1042200006811781E9E9F3E02081318142815381E0
:1042300064817581868197810E94A71529873A87B5
:104240004B875C876D877E878F87988BE9E7F3E0E4
:10425000208131814281538164817581868197817A
:104260000E94B716298B3A8B4B8B5C8B6D8B7E8BA8
:104270008F8B988F40906903409450906A035094BC
:1042800060906B03609470906C03709480906D03E9
:10429000809490906E03909480916F038095E0904D
:1042A0007003E094E1EBF3E090814922918159227F
:1042B0009281692293817922948189229581992220
:1042C0000681082308A78781E822EFA2E9E8F3E046
:1042D0002081318142815381648175815201630162
:1042E00074011FA1868197810E94721A298F3A8FCB
:1042F0004B8F5C8F6D8F7E8F8F8F98A3E1E8F3E0FB
:1043000020813181428153816481758108A51FA17B
:10431000868197810E94511C29A33AA34BA35CA3D9
:104320006DA37EA31C01E1E9F3E02081318142818C
:10433000538164817581868197810E946F1E1981E6
:10434000E9851E2B1987FA81EA84FE29F983BB814E
:104350000B85B02BAC811C85A12BED81FD85EF2B4E
:10436000FE81EE84FE29FF800F85F02A1885E888FB
:104370001E290985E9880E290A830981EA880E2900
:1043800009830B89B02BEC88AE290D89E02BEE88D0
:10439000FE290F89F02AE88C1E290A81E98C0E2952
:1043A0000A830981EA8C0E2909830B8DB02BEC8CD2
:1043B000AE290D8DE02BEE8CFE290F8DF02AE8A0A2
:1043C0001E290A81E9A00E290A830981EAA00E2983
:1043D00009830BA1B02BECA0AE290DA1E02BEEA020
:1043E000FE292F28312A0A81202B1981312B4B2BB2
:1043F0005A2B6E2B7F2B82299329A8960FB6F894FF
:10440000DEBF0FBECDBFDF91CF911F910F91FF9007
:10441000EF90DF90CF90BF90AF909F908F907F9064
:104420006F905F904F903F902F9008952F923F9202
:104430004F925F926F927F928F929F92AF92BF92B4
:10444000CF92DF92EF92FF920F931F93CF93DF9360
:10445000CDB7DEB766970FB6F894DEBF0FBECDBFFF
:1044600029833A834B835C836D837E838F83988714
:104470001E8B0D8B1701D8011C9211961C9211975F
:1044800012961C92129713961C92139714961C92D4
:10449000149715961C92159716961C9216971796B8
:1044A0001C92F701108211821282138214821582EB
:1044B000168217822F773F774F775F776F777F77F7
:1044C0008F779F7709E00E949E3DB22FA32FF42F94
:1044D000F52EE62F172F2C0129812E7F3A813E7F62
:1044E0004B814E7F5C815E7F6D816E7F7E817E7FA2
:1044F0008F818E7F98859E7F07E00E949E3D2B2BAB
:104500003A2B4F2B5F296E2B712B84299529C09054
:1045100071032C21809072038322E09073034E215B
:10452000F09074035F21009175036023109176036E
:104530007123409077034822509078035922AD8927
:10454000BE899C90C92CC22A11968C911197D82EA5
:10455000D82812967C901297E72CE42A13966C9038
:104560001397F62CF52A14960C911497062B159692
:104570001C911597172B16968C911697482A17960B
:104580009C911797592ACC921196DC92119712960A
:10459000EC9212971396FC92139714960C9314971F
:1045A00015961C93159716964C92169717965C9233
:1045B00029813A814B815C816D817E818F819885D3
:1045C0000E94B716E9E7F3E090809222818083226F
:1045D00072804721638056212481622325817223C2
:1045E00026818223E7819E239C2899868D288A86AE
:1045F000742E7E28652E6F28602B6B87712B7C872D
:1046000084298D8795299E87ED89FE8990828182F4
:1046100072826382648375838683978381EB882E9D
:1046200083E0982ED401AC901196BC90119712960D
:10463000CC9012971396DC9013971496EC901497E5
:104640001596FC90159716960C91169717961C9137
:1046500029813A814B815C816D817E818F81988532
:104660000E94511C522E432E4F87588B698B7A8B98
:104670008B8B9C8BE1E8F3E0208125213181342173
:104680004281BF854B235381F8885F2164817989FA
:10469000672375818A89782386819B8989239781FD
:1046A000AC899A23B9852B2BAD89BE892C932A8599
:1046B000232B11962C931197742A12967C921297A1
:1046C000652A13966C92BB856B2BAD89BE891496B7
:1046D0006C93BC857B2BAD89BE8915967C93BD857B
:1046E0008B2BAD89BE8916968C93BE859B2BAD898D
:1046F000BE8917969C93D401AC901196BC901197EB
:104700001296CC9012971396DC9013971496EC9017
:1047100014971596FC90159716960C911697179668
:104720001C91208131814281538164817581868110
:1047300097810E94511CE0906903E094F0906A0315
:10474000F09400916B03009510916C031095B0915B
:104750006D03B095A0916E03A095F0916F03F09555
:10476000E0917003E095522243222F85422338893D
:104770005323298962233A8973232B8982233C8915
:1047800093235E204F20402351236B237A238F23D2
:104790009E23D1012C91522A5C9211963C91119743
:1047A000432A11964C92119712962C911297422BF4
:1047B00012964C93129713962C911397522B139693
:1047C0005C93139714962C911497622B14966C9308
:1047D000149715962C911597722B15967C93159717
:1047E00016962C911697822B16968C9316971796E1
:1047F0008C911797982B17969C93F401A080B18009
:10480000C280D380E480F5800681178129813A81B6
:104810004B815C816D817E818F8198850E94721AA7
:1048200029873A87742E652E562E472E8B879C87B4
:10483000E9E8F3E02081F9842F219181932382819B
:1048400084237381752364816521558154214681B8
:104850003B8543233781AC853A23AD89BE891C91C2
:10486000212B2C9311962C911197922B11969C939E
:10487000119712969C911297892B12968C931297EE
:1048800013968C911397872B13968C9313971496EA
:104890008C911497862B14968C93149715968C9163
:1048A0001597852B15968C93159716968C911697C0
:1048B000842B16968C93169717968C911797832BAB
:1048C00017968C93D401AC901196BC9011971296C8
:1048D000CC9012971396DC9013971496EC90149743
:1048E0001596FC90159716960C91169717961C9195
:1048F00020813181428153816481758186819781D4
:104900000E94721AE0906903E094F0906A03F094B8
:1049100000916B03009510916C031095B0916D039D
:10492000B095A0916E03A095F0916F03F095E09182
:104930007003E095D984D2222A852323742265222C
:10494000562247223B8583237C8597233E2D3D219C
:104950004F2D4223702261225B224A228F239E2305
:10496000D1012C91232B2C9311963C911197232F3D
:10497000242B11962C93119712964C911297742A0E
:1049800012967C92129713965C911397652A139650
:104990006C92139714966C911497562A14965C9205
:1049A000149715967C911597472A15964C92159752
:1049B00016962C911697822B16968C93169717960F
:1049C0008C911797982B17969C93F401A080B18037
:1049D000C280D380E480F5800681178129813A81E5
:1049E0004B815C816D817E818F8198850E946F1ED5
:1049F00029833A832A013B018B839C83E1E9F3E01D
:104A00002081F9802F2191819323828184237381D6
:104A10007521648166215581572146813B8143235D
:104A20003781AC813A23AD89BE891C91212B2C930F
:104A300011962C911197922B11969C931197129687
:104A40009C911297892B12968C93129713968C91A6
:104A50001397872B13968C93139714968C91149716
:104A6000862B14968C93149715968C911597852BFD
:104A700015968C93159716968C911697842B1696EF
:104A80008C93169717968C911797832B17968C9368
:104A9000D401AC901196BC9011971296CC901297BD
:104AA0001396DC9013971496EC9014971596FC903F
:104AB000159716960C91169717961C9120813181A7
:104AC0004281538164817581868197810E946F1E26
:104AD00000916903009510916A031095B0916B03E2
:104AE000B095BE83E0916C03E095ED83B0916D03CA
:104AF000B095A0916E03A095F0916F03F095E091B1
:104B00007003E095F9802F21FA803F21442155213F
:104B1000662177227B818723FC809F2120233123FC
:104B20007E814723FD805F216B237A228F239E2382
:104B3000D1010C91202B2C9311961C911197312BA4
:104B400011963C9311971296BC914B2BF101428325
:104B50005380552953836480662964837581772A3D
:104B6000758286808829868397809929978366969F
:104B70000FB6F894DEBF0FBECDBFDF91CF911F916E
:104B80000F91FF90EF90DF90CF90BF90AF909F90EC
:104B90008F907F906F905F904F903F902F900895EF
:104BA0002F923F924F925F926F927F928F929F923D
:104BB000AF92BF92CF92DF92EF92FF920F931F932B
:104BC000CF93DF93CDB7DEB768970FB6F894DEBF0B
:104BD0000FBECDBF29833A834B835C836D837E8375
:104BE0008F839887188F0F8B1701D8011C9211960D
:104BF0001C92119712961C92129713961C9213975F
:104C000014961C92149715961C92159716961C9242
:104C1000169717961C92F701108211821282138246
:104C200014821582168217822F773F774F775F772E
:104C30006F777F778F779F7707E00E94B93DB22F1C
:104C4000A32FF42FD52E7B01E82F192F29812E7F3A
:104C50003A813E7F4B814E7F5C815E7F6D816E7FAE
:104C60007E817E7F8F818E7F98859E7F09E00E9466
:104C7000B93D2B2B3A2B4F2B5D296E297F298E2B8B
:104C8000912BE9E34E2EE3E05E2ED2011896AC9014
:104C900018972A2119968C90199783221A96CC90EE
:104CA0001A974C211B96DC901B975D211C96EC906B
:104CB0001C976E211D96FC901D977F211E960C91CE
:104CC0001E9780231F961C911923EF89F88D9080E1
:104CD000A92CA22A9181B92EB8287280C72CC42A87
:104CE000D380D52AE480E62AF580F72A0681082BAE
:104CF0009781192BA082B182C282D382E482F5828D
:104D00000683178329813A814B815C816D817E8185
:104D10008F8198850E94B716D20150969C9050972B
:104D2000922251968C905197832252967C90529762
:104D3000742253962C915397522354962C91549746
:104D4000622355962C91559772235696EC9156975F
:104D50008E235796EC919E239A288B287C2879865F
:104D60005D295A876E296B877F297C87802B8D87E9
:104D7000912B9E87EF89F88D908281827282538376
:104D80006483758386839783F1EB6F2EF3E07F2E28
:104D9000D301AC901196BC9011971296CC901297BB
:104DA0001396DC9013971496EC9014971596FC903C
:104DB000159716960C91169717961C9129813A8192
:104DC0004B815C816D817E818F8198850E94511C11
:104DD0002F87388B498B5A8B6B8B7C8B8D8B9E8B63
:104DE000F201208DFF852F23D20159963C91B8897D
:104DF0003B23F201428DF9894F23D2015B965C91EE
:104E0000BA895B23F201648DFB896F23D2015D9621
:104E10007C91BC897B23F201868DFD898F23D20191
:104E20005F969C91BE899B23922AEF89F88D908290
:104E3000832A81822985242B2283FA855F2BAF89DF
:104E4000B88D13965C93BB856B2BEF89F88D6483CB
:104E5000FC857F2BAF89B88D15967C93BD858B2BF8
:104E6000EF89F88D8683FE859F2BAF89B88D1796C5
:104E70009C93F301A080B180C280D380E480F58050
:104E800006811781D20158962C91589759963C91DA
:104E900059975A964C915A975B965C915B975C96A2
:104EA0006C915C975D967C915D975E968C915E9718
:104EB0005F969C910E94511CE9E9F3E0E080E09448
:104EC000F0909A03F09400919B03009510919C033D
:104ED0001095B0919D03B095A0919E03A095F0917F
:104EE0009F03F095E091A003E095DF842D21D88801
:104EF0003D21D9884D21DA885D21DB886D21DC8850
:104F00007D21DD888D21DE889D212E213F214023BA
:104F100051236B237A238F239E23D101EC912E2BD7
:104F20002C9311962C911197322B11963C9311973B
:104F300012962C911297422B12964C93129713961D
:104F40002C911397522B13965C93139714962C91D4
:104F50001497622B14966C93149715962C911597B1
:104F6000722B15967C93159716962C911697822B7B
:104F700016968C93169717968C911797982B1796D1
:104F80009C93F301A080B180C280D380E480F5803F
:104F90000681178129813A814B815C816D817E81F7
:104FA0008F8198850E94721A922E832E49875A8784
:104FB0006B877C878D879E87D20190964C919097C6
:104FC000492191963C919197382192962C91B985DF
:104FD0002B23F20193A1952384A1862375A1FC853F
:104FE0007F23D20196966C91BD856B23F20157A168
:104FF000FE855F23AF89B88DEC914E2B4C931196B3
:105000004C911197342B11963C93119712963C9129
:105010001297232B12962C93129713962C91139779
:10502000922B13969C93139714969C911497892B0B
:1050300014968C93149715968C911597872B15962B
:105040008C93159716968C911697862B16968C93A3
:10505000169717968C911797852B17968C93F301BB
:10506000A080B180C280D380E480F5800681178162
:10507000D20190962C91909791963C91919792960F
:105080004C91929793965C91939794966C91949788
:1050900095967C91959796968C91969797969C91DC
:1050A0000E94721AE9E9F3E0E080E094F0909A033C
:1050B000F09400919B03009510919C031095B09182
:1050C0009D03B095A0919E03A095F0919F03F0954C
:1050D000E091A003E0959222832229852423DA849B
:1050E0005D213B856323DC847D213D858323DE8434
:1050F0009D219E208F20022351236B237A238F230F
:105100009E23D1012C91922A9C9211963C91119749
:10511000832A11968C92119712964C911297242FF4
:10512000202B12962C93129713962C911397522B97
:1051300013965C93139714962C911497622B1496E4
:105140006C93149715962C911597722B15967C934A
:10515000159716962C911697822B16968C93169768
:1051600017968C911797982B17969C93F301A08014
:10517000B180C280D380E480F580068117812981C7
:105180003A814B815C816D817E818F8198850E94FF
:105190006F1E29833A834B835C836D837E834C012E
:1051A000D20198964C919897422399963C91BA8156
:1051B0003B23F20122A5FB812F23D2019B969C91D8
:1051C0009B9795239C968C919C9786239D967C918A
:1051D000BE817B23F20166A5682157A55921AF89BD
:1051E000B88DEC914E2B4C9311964C911197342B1A
:1051F00011963C93119712963C911297232B12967D
:105200002C93129713962C911397922B13969C9391
:10521000139714969C911497892B14968C9314973A
:1052200015968C911597872B15968C931597169636
:105230008C911697862B16968C93169717968C91B1
:105240001797852B17968C93F301A080B180C280AD
:10525000D380E480F58006811781D20198962C9145
:10526000989799963C9199979A964C919A979B9674
:105270005C919B979C966C919C979D967C919D9739
:105280009E968C919E979F969C910E946F1EE9E935
:10529000F3E00081009510919A031095F0919B0323
:1052A000F095F887D0909C03D094DF82B0919D0355
:1052B000B095A0919E03A095F0919F03F095E09189
:1052C000A003E095F9802F21DA803D21FB804F215A
:1052D000DC805D21FD806F217E80772288219921ED
:1052E0002023312378854723DF805D216B237A22B9
:1052F0008F239E23D1010C91202B2C9311961C916E
:105300001197312B11963C9311971296BC914B2B10
:10531000F101428353805529538364806629648355
:105320007581772A75828680882986839780992956
:10533000978368960FB6F894DEBF0FBECDBFDF919E
:10534000CF911F910F91FF90EF90DF90CF90BF9082
:10535000AF909F908F907F906F905F904F903F9015
:105360002F9008952F923F924F925F926F927F926B
:105370008F929F92AF92BF92CF92DF92EF92FF9265
:105380000F931F93CF93DF93CDB7DEB72F970FB651
:10539000F894DEBF0FBECDBFF901242E952E762ED8
:1053A000672E582E492E8CA1282F30E03A8329836E
:1053B000A8E08A9EC00111249E838D8387509D4F53
:1053C000820F931FDC013C908EA1282F30E03C839C
:1053D0002B838DA128E0829FD0011124B887AF8351
:1053E000CD0187509D4FAB81BC818A0F9B1FDC0193
:1053F0008C90B6E03B1609F45CC02CE0321609F440
:1054000058C034E0331239C09F01852D942D2038C7
:10541000310541055105610571058105910581F051
:10542000B4E08B1211C09501A601B701C801203864
:10543000310541055105610571058105910569F445
:10544000809102018E7F33C09F01852D942DA1E0B4
:105450000E94E13D09F093C10CC0B4E03B1609F491
:1054600081C19501A601B701C801A1E00E94E13DFB
:1054700039F4809102018D7F1AC034E0831699F2CD
:10548000BAE03B127CC19F01422D592D672D762D2C
:10549000852D942D211531054105510561057105B5
:1054A0008105904809F039C1809102018B7F80937A
:1054B00002012E2F2095F095F98720942A8690944A
:1054C0009B8670947C8660946D8650945E86409432
:1054D0004F86B8E03B9EF0011124E75CFC4FA081B1
:1054E000A2237181398573236281622153815921FD
:1054F00044814721358136219681952187818421F8
:10550000AA297B296C295D294E293F29902B812BC3
:10551000A083718362835383448335839683878317
:105520006A2C60947B2C70949C2C90947D2D7095AB
:105530006E2D60955F2D5095402F4095312F309501
:1055400088E0889ED0011124A75CBC4F2C902620B7
:1055500011964C901197472012965C901297592003
:1055600013968C90139787221496FC911497F62328
:105570001596EC911597E52316969C911697942312
:1055800017968C91179783232C9211964C92119712
:1055900012965C92129713968C9213971496FC9322
:1055A00014971596EC93159716969C931697179645
:1055B0008C93E8A5A8E0EA9FC0011124FC01E75CF8
:1055C000FC4F8081682281817822828198228381A8
:1055D00078238481682385815823868148238781A5
:1055E00038236082718292827383648355834683F9
:1055F0003783AFA138E0A39FD0011124A75CBC4F33
:105600008C91282311968C91119799858923129654
:105610009C9112973A85932313969C9013973B8500
:10562000932214967C9014973C85732215966C9067
:1056300015973D85632216965C9016973E855322FA
:1056400017964C9017973F8543222A29B82AC92AD2
:10565000D928E728F628052914292C931196BC92FD
:1056600011971296CC9212971396DC921397149678
:10567000EC9214971596FC92159716960C93169724
:1056800017961C93A0802A298181B82A9281C92A61
:105690009380D9287480E7286580F62856800529EC
:1056A000478014292093B103B092B203C092B30390
:1056B000D092B403E092B503F092B6030093B7031F
:1056C0001093B803ED81FE81E750FD4F89819A81E7
:1056D000E80FF91F1082EF81F885E750FD4FAB818D
:1056E000BC81EA0FFB1F30822F960FB6F894DEBF05
:1056F0000FBECDBFDF91CF911F910F91FF90EF9023
:10570000DF90CF90BF90AF909F908F907F906F90E1
:105710005F904F903F902F9008958B1234C0950169
:10572000A601B701C80121153105410551056105E3
:1057300071058105904809F4B7CE2AE0321659F177
:105740009501A601B701C801211531054105510593
:10575000610571058105914009F0ABCE8091020190
:10576000877FA5CE9F01422D592D672D762D852D42
:10577000942DA1E00E94E13D09F073CE7ACE8AE03B
:10578000881297CECCCF9F01422D592D672D762DB3
:10579000852D942DD9CF9F01422D592D672D762D22
:1057A000852D942D211531054105510561057105A2
:1057B0008105914029F6D2CF2F923F924F925F926E
:1057C0006F927F928F929F92AF92BF92CF92DF9211
:1057D000EF92FF920F931F93CF93DF93CDB7DEB776
:1057E0002A970FB6F894DEBF0FBECDBF0E94A4204B
:1057F000522E632E742E852E962E7A87382E492EA1
:1058000080915905898390915A059A83E0915B05AF
:10581000EB8380915C058C8390915D059D83E09185
:105820005E05EE8380915F058F8390916005988778
:105830002090020120FE6EC020916105E9812E2B8F
:10584000309162058A81382B409163059B81492BF9
:1058500050916405EC815E2B609165058D81682B0C
:10586000709166059E81792B80916705EF818E2B63
:1058700090916805E8859E2BE09169052E2BE091BB
:105880006A053E2BE0916B054E2BE0916C055E2B7B
:10589000E0916D056E2BE0916E057E2BE0916F051A
:1058A0008E2BE09170059E2B252136214721582112
:1058B0006921EA857E2383219421A0E00E94E13DB5
:1058C00049F5A090B103B090B203C090B303D0905B
:1058D000B403E090B503F090B6030091B7031091C4
:1058E000B80320E130E040E050E060E070E080E0AC
:1058F00090E00E94721A207830E040E050E060E0D2
:1059000070E080E090E0A0E00E94E13D19F080E8C6
:10591000898701C0198621FE6EC0209151059981A9
:10592000292B30915205EA813E2B409153058B8102
:10593000482B509154059C81592B60915505ED8160
:105940006E2B709156058E81782B809157059F8123
:10595000892B90915805E8859E2BE09149052E2BC7
:10596000E0914A053E2BE0914B054E2BE0914C0512
:105970005E2BE0914D056E2BE0914E057E2BE09164
:105980004F058E2BE09150059E2B25213621472176
:1059900058216921EA857E2383219421A0E00E9479
:1059A000E13D49F5A090B103B090B203C090B303BC
:1059B000D090B403E090B503F090B6030091B70324
:1059C0001091B80320E130E040E050E060E070E08A
:1059D00080E090E00E94721A217030E040E050E0D8
:1059E00060E070E080E090E0A0E00E94E13D19F00E
:1059F000898581608987298530E040E050E060E05A
:105A000070E080E090E02A960FB6F894DEBF0FBEFB
:105A1000CDBFDF91CF911F910F91FF90EF90DF905D
:105A2000CF90BF90AF909F908F907F906F905F903E
:105A30004F903F902F9008952F923F924F925F92F8
:105A40006F927F928F929F92AF92BF92CF92DF928E
:105A5000EF92FF920F931F93CF93DF93CDB7DEB7F3
:105A60002A970FB6F894DEBF0FBECDBF0E941B1F52
:105A7000522E632E742E852E962E7A87382E492E1E
:105A800080911907898390911A079A83E0911B07E7
:105A9000EB8380911C078C8390911D079D83E0917F
:105AA0001E07EE8380911F078F83909120079887B0
:105AB0002090020122FE66C020912107E9812E2B51
:105AC000309122078A81382B409123079B81492BF3
:105AD00050912407EC815E2B609125078D81682B06
