:100000000C9448010C9467010C9467010C946701EF
:100010000C9467010C94F70D0C94F70D0C94670188
:100020000C9467010C9467010C9467010C946701B0
:100030000C9467010C9467010C9467010C946701A0
:100040000C9467010C94250E0C9467010C946701C5
:100050000C9467010C9467010C9467010C94670180
:100060000C9467010C9467010C9467010C94670170
:100070000C9467010C9467010C9467010C94670160
:100080000C9467010C9467010C9467010C94670150
:100090000C9467010C946701F2061107F606FF063F
:1000A000080720072E07460774074A0753075C070F
:1000B00065078207000000000000005F00000003E9
:1000C000000300143E143E14242A7F2A12433308EE
:1000D000666136495522500005030000001C22418C
:1000E000000041221C0014083E081408083E0808BD
:1000F0000050300000080808080800606000002078
:10010000100804023E5149453E0004027F0042614E
:1001100051494622414949361814127F1027454556
:1001200045393E4949493201017109073649494972
:1001300036264949493E0036360000005636000052
:10014000081422410014141414140041221408024B
:10015000015109063E4159555E7E0909097E7F49D4
:100160004949363E414141227F4141413E7F494913
:1001700049417F090909013E4141493A7F08080880
:100180007F00417F4100304040403F7F08142241C2
:100190007F404040407F020C027F7F0204087F3E88
:1001A0004141413E7F090909061E2121215E7F0947
:1001B000090976264949493201017F01013F404042
:1001C000403F1F2040201F7F2010207F41221C2203
:1001D0004107087008076151494543007F4100000D
:1001E00002040810200000417F00040201020440C4
:1001F00040404040000102040020545454787F44A1
:100200004444383844444444384444447F38545483
:10021000541804047E0505085454543C7F08040413
:100220007800447D40002040443D007F1028440079
:1002300000417F40007C047804787C08040478380E
:10024000444444387C14141408081414147C007CAE
:10025000080404485454542004043F44443C40409F
:10026000207C1C2040201C3C4030403C442810286E
:10027000440C5050503C4464544C440008364141B6
:1002800000007F0000414136080002010204020024
:1002900011241FBECFEFD0E2DEBFCDBF12E0A0E041
:1002A000B1E0E2E1F8E300E00BBF02C007900D927D
:1002B000A832B107D9F726E0A8E2B2E001C01D924A
:1002C000AA38B207E1F70E94ED140C94071C0C94B5
:1002D0000000977025E0969587952A95E1F7089597
:1002E000892F86958695869590E008958F71992738
:1002F000089595E0660F771F9A95E1F7460F571F0F
:1003000020E030E0382F330F330F330FCA01820F54
:10031000931F08954F925F926F927F928F929F9258
:10032000AF92BF92CF92DF92EF92FF92CF93DF9383
:10033000EC012A013B01BC01672F77276695669582
:10034000669580E090E00E948116A30192010E94D0
:10035000901720E030E040E05FE30E9468150E94C3
:1003600052164B015C01BE01777055E0769567959A
:100370005A95E1F780E090E00E948116A301920176
:100380000E94901720E030E040E05FE30E94681593
:100390000E9452166B017C01BE016F71772780E0CD
:1003A00090E00E948116A30192010E94901720E024
:1003B00030E040E05FE30E9468150E94521694010D
:1003C0002032310510F02FE130E04901982C8824CB
:1003D000990C990C990C6032710510F06FE170E086
:1003E000680D791DC6018034910510F08FE390E00F
:1003F00025E0880F991F2A95E1F7860F971FDF9157
:10040000CF91FF90EF90DF90CF90BF90AF909F90F3
:100410008F907F906F905F904F90089593E89093A6
:10042000B00091E09093B1008093B3000895909351
:1004300035028093340226E330E020930040009799
:1004400079F480EF90E0909331028093300280E461
:1004500091E0909333028093320288E490E034C0BC
:100460008130910579F480E491E09093310280939A
:10047000300280EF90E0909333028093320288EE56
:1004800090E022C08230910579F480EF90E0909363
:1004900031028093300280E491E0909333028093A4
:1004A000320288E890E010C0039781F480E491E084
:1004B000909331028093300280EF90E0909333026A
:1004C0008093320288E290E0809300418AE290E0DB
:1004D0008093004020E030E03093004120930041C1
:1004E0008091300290913102019790930041809366
:1004F00000418BE290E080930040309300412093D4
:100500000041809132029091330201979093004113
:10051000809300410895CF93873748F4883048F09E
:100520008D3350F48F3150F4803150F403C086E79E
:1005300003C088E0C3E005C0C0E003C0C1E001C063
:10054000C2E021EB30E020930040C0930041682FCF
:1005500070E080E090E00E9483169B01AC0160E0B7
:1005600070E080EF94E40E94D9150E94521670E06A
:1005700002C075956795CA95E2F760930041CF91E7
:1005800008950F931F93CF93DF93CDB7DEB72897CE
:100590000FB6F894DEBF0FBECDBF29833A834B83DD
:1005A0005C836D837E838F83988769817A812B81B9
:1005B0003C814D815E818F819885EAE2F0E0E09395
:1005C00000407093004160930041309300412093BC
:1005D0000041EBE2F0E0E093004050930041409393
:1005E00000419093004180930041ECE2F0E0E09301
:1005F00000402F5F3F4F261B370B0196841B950B46
:100600002817390790F4482F4770429FB001439F45
:10061000700D112453E0969587955A95E1F7829FC6
:10062000A001839F500D112411C0422F4770489F95
:10063000B001499F700D112443E0369527954A95E6
:10064000E1F7289FA001299F500D1124862F877064
:10065000815028F01093004100930041F9CFCB0165
:1006600023E0969587952A95E1F7840F951F0197CA
:1006700008F1109300410093004110930041009352
:1006800000411093004100930041109300410093FA
:1006900000411093004100930041109300410093EA
:1006A00000411093004100930041109300410093DA
:1006B0000041DDCF28960FB6F894DEBF0FBECDBF48
:1006C000DF91CF911F910F910895EF92FF920F93B9
:1006D0001F93CF93DF93CDB7DEB728970FB6F8946B
:1006E000DEBF0FBECDBF29833A834B835C836D830E
:1006F0007E838F83988789819A81EB80FC806D81CE
:100700007E81AF81B8852AE230E02093004090934B
:10071000004180930041F0920041E09200412BE2C1
:1007200030E0209300407093004160930041B0930B
:100730000041A09300412CE230E020930040E816F5
:10074000F906A0F0A8019B018A01A217B30760F087
:100750004E5F5F4FF80100811181109300410093BB
:1007600000412F5F3F4FF0CF0196E9CF28960FB69B
:10077000F894DEBF0FBECDBFDF91CF911F910F91D7
:10078000FF90EF9008950F931F93CF93DF93CDB712
:10079000DEB728970FB6F894DEBF0FBECDBFE0E3FB
:1007A000F2E017821682118610861A8219828081E1
:1007B00091810197482F9C838B831E821D828281A9
:1007C0009381019798878F830485158520E03A816E
:1007D0005C8160E07E8198850E94C10228960FB6F8
:1007E000F894DEBF0FBECDBFDF91CF911F910F9167
:1007F0000895CF93DF93019729F480E880936100F7
:100800001092610086E08093750080E88093740008
:100810003F9A249A8FEC97E00197F1F700C000000F
:1008200047988FE39CE90197F1F700C00000479AD1
:100830009FEF2DEE82E0915020408040E1F700C014
:10084000000088E290E08093004081E190E0809396
:1008500000409FEF26E781E0915020408040E1F783
:1008600000C0000081E090E02BEC30E020930040DD
:100870008093004120EC30E02093004028E036E2F5
:10088000309300412093004140E150E021EC30E002
:10089000209300404093004125EC30E0209300403D
:1008A0002EE335E3309300412093004145EB50E0C7
:1008B00027EC30E0209300404093004126EF30E0E9
:1008C0002093004080930041C0E0D0E0D0930041ED
:1008D000C093004125E530E08AE390E0809300403A
:1008E0002093004181E090E00E9417020E94C30320
:1008F000109237021092360210923902109238028A
:1009000010923D0210923C028FEF9FEF90933B02BA
:1009100080933A0289E290E0809300409FE728E3C9
:1009200081E0915020408040E1F700C0000085E365
:1009300090E080930040C093004180916A00806203
:1009400080936A002C9ADF91CF9108959F92AF9285
:10095000BF92CF92DF92EF92FF920F931F93CF93AC
:10096000DF9320913802309139028A30F9F41092E5
:10097000370210923602285F3F4F3093390220939E
:10098000380280913202909133022817390708F417
:10099000A5C0DF91CF911F910F91FF90EF90DF9055
:1009A000CF90BF90AF909F900C94C30390EE980FA0
:1009B0009F3508F093C06091360270913702A9010B
:1009C000495F5F4F082E000C990B8097E5E0E89F88
:1009D000E001E99FD00D11248BE290E0809300406C
:1009E00030930041209300415093004140930041D7
:1009F000CB01DB0114960AE210E0ECE2EE2EF12CC2
:100A0000A817B90780F100930040909300418093AC
:100A100000419093004180930041E0920040FC012E
:100A2000E61BF70BEC0FFD1FEC54FF4F9490690190
:100A3000F1E04C155D05A8F0BF2EB92029F0A0907B
:100A40003A02B0903B0204C0A0903C02B0903D023C
:100A5000B0920041A0920041EFEFCE1ADE0AFF0FE4
:100A6000E8CF0196CDCF6AE270E0609300409093AA
:100A700000418093004190930041809300418CE2BB
:100A800090E0809300404217530758F080913C0259
:100A900090913D0290930041809300412F5F3F4F22
:100AA000F2CF8091360290913702069690933702EA
:100AB00080933602209130023091310282179307E1
:100AC00068F01092370210923602809138029091AD
:100AD000390208969093390280933802DF91CF91C2
:100AE0001F910F91FF90EF90DF90CF90BF90AF904C
:100AF0009F9008950F931F93CF938C01C0E0F8014E
:100B0000EC0FF11D8081882321F00E94A604CF5FA5
:100B1000F6CFCF911F910F910895E0E3F2E0978314
:100B20008683718760870895E0E3F2E09387828788
:100B30007587648708950F931F93CF938C017093EB
:100B40003702609336025093390240933802C0E076
:100B5000F801EC0FF11D8081882321F00E94A6048A
:100B6000CF5FF6CFCF911F910F9108954F925F9273
:100B70006F927F928F929F92AF92BF92CF92DF92AD
:100B8000EF92FF92CF93DF9300D000D000D0CDB78B
:100B9000DEB76B017C015E834D839B01AC0160E09D
:100BA00070E080E89FE30E9467154B015C0120E044
:100BB00030E040E450E40E94901769837A838B838D
:100BC0009C83A5019401C501B4010E949017A50161
:100BD00094010E9490172B013C01ED81FE81608100
:100BE000718180E090E00E9481169B01AC01C301FD
:100BF000B2010E9490172B013C0129813A814B815F
:100C00005C81C501B4010E949017A70196010E9462
:100C100090174B015C01ED81FE816281738180E060
:100C200090E00E9481169B01AC01C501B4010E94B5
:100C300090179B01AC01C301B2010E9468154B01E2
:100C40005C0129813A814B815C81C701B6010E9418
:100C50009017A70196010E9490172B013C01ED818E
:100C6000FE816481758180E090E00E9481169B0185
:100C7000AC01C301B2010E9490179B01AC01C501F8
:100C8000B4010E9468154B015C01A7019601C701E0
:100C9000B6010E949017A70196010E9490176B0160
:100CA0007C01ED81FE816681778180E090E00E9489
:100CB00081169B01AC01C701B6010E9490179B01F0
:100CC000AC01C501B4010E9468150E944B16072EA5
:100CD000000C880B990B0E94831620E030E040E066
:100CE0005FE30E9468150E944B16CB0126960FB653
:100CF000F894DEBF0FBECDBFDF91CF91FF90EF9094
:100D0000DF90CF90BF90AF909F908F907F906F902B
:100D10005F904F900895CF92DF92EF92FF926B0118
:100D20007C0120E030E0A9010E94D41587FF11C0AA
:100D3000C701B6010E94BE169B01AC01C701B601F6
:100D40000E9467159B01AC0160E070E080E89FE3C2
:100D500008C0C701B6010E94BE169B01AC01C701C5
:100D6000B6010E946715FF90EF90DF90CF90089535
:100D70000E948B069B01AC0160E070E080E89FE37D
:100D80000E9467150895CF92DF92EF92FF920F9322
:100D90001F93FC010081118122813381FB01C080FE
:100DA000D180E280F380FC01C082D182E282F382B2
:100DB000FB0100831183228333831F910F91FF90E6
:100DC000EF90DF90CF900895CF93DF93DC01EB019C
:100DD000FA013197E730F10508F047C0E45BFF4FB7
:100DE0000C941B158D919C91119733C08D919C9102
:100DF00011979195819591098D939C9336C08D9112
:100E00009C9111979195819591098D939C9326C002
:100E10008D919C91119791958195910911969C9333
:100E20008E93888199819195819591099983888381
:100E30002D913C9111978D939C933983288315C0F4
:100E40008D919C91119791958195910911969C9303
:100E50008E93288139812D933C9305C08881998197
:100E600091958195910999838883DF91CF91089518
:100E7000CF93DF93DC01EB01FA013197E730F10505
:100E800008F047C0ED5AFF4F0C941B158D919C91B3
:100E9000119733C08D919C911197919581959109EE
:100EA0008D939C9336C08D919C91119791958195CE
:100EB00091098D939C9326C08D919C91119791954A
:100EC0008195910911969C938E9388819981919532
:100ED00081959109998388832D913C9111978D93E8
:100EE0009C933983288315C08D919C91119791957E
:100EF0008195910911969C938E93288139812D9328
:100F00003C9305C088819981919581959109998338
:100F10008883DF91CF910895FC0120813181FB010D
:100F200040815181FC0151834083FB013183208347
:100F30000895CF92DF92EF92FF920F931F93CF937A
:100F4000DF938901061B170BEA01C81BD90BB801F7
:100F5000012E000C880B990B0E9483166B017C01FB
:100F6000E894F7F8BE010D2E000C880B990B0E9437
:100F700083169B01AC015F77C701B6010E948B17F6
:100F8000181694F417FF09C02D2F221F2227221FA5
:100F900086E090E0821B910918C08D2F881F88275A
:100FA000881F90E0019611C017FF05C0D7FD08C04B
:100FB00087E090E00AC0D7FD06C080E090E005C061
:100FC00084E090E002C083E090E0DF91CF911F9138
:100FD0000F91FF90EF90DF90CF9008952AE230E0DC
:100FE00020930040909300418093004190930041F2
:100FF000809300418BE290E0809300407093004129
:101000006093004170930041609300418CE290E056
:1010100080930040509300414093004108952F92E7
:101020003F924F925F926F927F928F929F92AF9278
:10103000BF92CF92DF92EF92FF920F931F93CF93C5
:10104000DF93CDB7DEB7A6970FB6F894DEBF0FBE1D
:10105000CDBF2B013C0169837A838B839C83298BD1
:101060003A8B4B8B5C8B2D833E834F835887ED8A65
:10107000FE8A0F8B188FE986FA860B871C87C601BC
:10108000B501AD86BE86CF86D88A14010E94671549
:101090006B017C01E894F7F8A30192016D897E89C8
:1010A0008F89988D0E9467159B01AC015F77C701FE
:1010B000B6010E946715698F7A8F8B8F9C8F20E015
:1010C00030E0A9010E948B17181674F4BE016F5FFF
:1010D0007F4FCE0105960E94C306BE01675F7F4F1A
:1010E000CE010D960E94C30629853A854B855C8505
:1010F00069817A818B819C810E948B17181674F408
:10110000BE01675F7F4FCE0101960E94C306BE01FC
:101110006B5F7F4FCE010D960E94C306C980DA80B7
:10112000EB80FC804D805E806F807884A30192010B
:101130006D857E858F8598890E9467154B015C01BE
:10114000A701960169857A858B859C850E94671524
:101150009B01AC01C501B4010E94D9156D8F7E8F32
:101160008F8F98A320E030E040E05FE3C701B60135
:101170000E9468154B015C010E944B16698B7A8BAB
:101180008B8B9C8B29893A89B901330F880B990B7A
:101190000E948316A70196010E9467152D8D3E8D32
:1011A0004F8D58A10E949017A30192010E946815CB
:1011B0006B017C01C501B4010E94B8064B015C01C2
:1011C000C701B6010E9452162B013C0120E030E01D
:1011D000A901698D7A8D8B8D9C8D0E948B171816B5
:1011E000C4F5C701B6010E94B8069B01AC01C50158
:1011F000B4010E94901720E030E040E85FE30E94D5
:101200006815AB01BC01C1010E948A01AC0169896A
:101210007A89C2010E94EE07C701B6010E948B06BF
:101220009B01AC01C501B4010E94901720E030E0A1
:1012300040E85FE30E946815AB01BC01C1010E9458
:101240008A013FEF431A530AAC0169897A89C201C6
:1012500036C0C701B6010E94B8069B01AC01C501AA
:10126000B4010E94901720E030E040E85FE30E9464
:101270006815AB01BC01C1010E948A01AC01B20139
:1012800089899A890E94EE07C701B6010E948B06E0
:101290009B01AC01C501B4010E94901720E030E031
:1012A00040E85FE30E946815AB01BC01C1010E94E8
:1012B0008A01B2016F5F7F4FAC0189899A890E94D0
:1012C000EE07A70196016D8D7E8D8F8D98A10E94EE
:1012D00068152B013C01C984DA84EB84FC8420E08E
:1012E00030E040E05FE3C701B6010E9468154B01A2
:1012F0005C010E944B166D8B7E8B8F8B988F2D8996
:101300003E89B901330F880B990B0E948316A70100
:1013100096010E9467152D8D3E8D4F8D58A10E941C
:1013200090172D853E854F8558890E9468156B0161
:101330007C01C501B4010E94B8064B015C018D8996
:101340009E899EA38DA3C701B6010E94521669A370
:101350007AA38BA39CA320E030E0A901698D7A8D4C
:101360008B8D9C8D0E948B17181664F5C701B601F2
:101370000E94B8069B01AC01C501B4010E94901700
:10138000AB01BC01C1010E948A01AC016D897E895B
:1013900089A19AA10E94EE07C701B6010E948B069F
:1013A0009B01AC01C501B4010E949017AB01BC01C7
:1013B000C1010E948A01AC0189A19AA101966D899F
:1013C0007E892CC0C701B6010E94B8069B01AC0102
:1013D000C501B4010E949017AB01BC01C1010E947C
:1013E0008A01AC0169A17AA18D899E890E94EE07CC
:1013F000C701B6010E948B069B01AC01C501B40177
:101400000E949017AB01BC01C1010E948A0169A131
:101410007AA16F5F7F4FAC018D899E890E94EE0794
:1014200009891A890F5F1F4F8DA19EA108171907FF
:1014300008F05FC020E030E0A901698D7A8D8B8DC6
:101440009C8D0E948B1718162CF5C301B2010E94C7
:10145000B806AB01BC01C1010E948A017C01C30135
:10146000B2010E9452164B015C01A701B801C401F0
:101470000E94EE07C301B2010E948B06AB01BC01C2
:10148000C1010E948A012FEF821A920AAC01B801B1
:10149000C40122C0C301B2010E94B806AB01BC0165
:1014A000C1010E948A017C01C301B2010E9452164F
:1014B0004B015C01A701C8010E94EE07C301B20104
:1014C0000E948B06AB01BC01C1010E948A01B401DC
:1014D0006F5F7F4FAC01C8010E94EE072D8D3E8DDE
:1014E0004F8D58A1C301B2010E9468152B013C0128
:1014F00099CFA6960FB6F894DEBF0FBECDBFDF9191
:10150000CF911F910F91FF90EF90DF90CF90BF9000
:10151000AF909F908F907F906F905F904F903F9093
:101520002F9008952F923F924F925F926F927F92E9
:101530008F929F92AF92BF92CF92DF92EF92FF92E3
:101540000F931F93CF93DF93CDB7DEB760970FB69E
:10155000F894DEBF0FBECDBF9E838D8378876F83E7
:101560005A8749873C872B871801A8010E94EE07FC
:101570002B853C8549855A856F8178858D819E8133
:101580000E9499075C01AC01BE01695F7F4FCE01EB
:1015900005960E943807A501BE01655F7F4FCE0109
:1015A00009960E9438078F8098840D811E81898555
:1015B0009A85801B910BCB84DC84C818D908CC0C8D
:1015C000DD1C0D2C000CEE08FF08AC01092E000CF0
:1015D000660B770B26013701441A550A660A770A0B
:1015E0000F5F1F4F880F991F9C01990F440B550BDC
:1015F0002D873E874F87588B89859A85801791075D
:1016000074F1D301C2018C0D9D1DAE1DBF1D77FE6F
:1016100003C02C013D010DC03FEF831A930A2C013A
:101620003D012D853E854F855889421A530A640A2B
:10163000750A1C830B839A828982A501BE016F5FA4
:101640007F4FCE0103960E94E40669817A81A10151
:101650008B819C810E94EE070F5F1F4FCDCF60965C
:101660000FB6F894DEBF0FBECDBFDF91CF911F91B3
:101670000F91FF90EF90DF90CF90BF90AF909F9031
:101680008F907F906F905F904F903F902F90089534
:101690002F923F924F925F926F927F928F929F9282
:1016A000AF92BF92CF92DF92EF92FF920F931F9370
:1016B000CF93DF93CDB7DEB728970FB6F894DEBF90
:1016C0000FBECDBF6C015B014A0128013901AC019D
:1016D00060E070E0CB010E94B605382E292EA501EE
:1016E00060E070E0CB010E94B60589839A8378019F
:1016F00068867F8220E030E040E85FE3B201C3010A
:101700000E9468159B01AC01B70188859F810E94EA
:10171000D41587FF2BC0A601B70188859F810E9441
:10172000B6058B839C83A501B70188859F810E94A4
:10173000B6058D839E8384019C014B815C81698108
:101740007A81832D922D0E94920A9201A301B70102
:1017500088859F810E9468157B0188879F838D8182
:1017600089838E818A833B802C80C4CF28960FB6D4
:10177000F894DEBF0FBECDBFDF91CF911F910F91C7
:10178000FF90EF90DF90CF90BF90AF909F908F90A1
:101790007F906F905F904F903F902F9008952F9281
:1017A0003F924F925F926F927F928F929F92AF92F1
:1017B000BF92CF92DF92EF92FF920F931F93CF933E
:1017C000DF93CDB7DEB72C970FB6F894DEBF0FBE10
:1017D000CDBF9C838B837E836D835A874987922EEE
:1017E000832EAC0160E070E0CB010E94B6057C0165
:1017F0004D815E8160E070E0CB010E94B6055C0126
:101800009801492D582D60E070E080E89FE30E9428
:10181000D91520E030E040EC5FE30E9468150E949B
:1018200052167A8369839B01220F331F38872F83D7
:10183000C9010E94FD17782E692E8F8198850E941C
:10184000FD176C018B87DC86EB85FC85A192B1923C
:10185000FC87EB87A72CB62CF501E192F1925F0192
:10186000502E412E1401EE24E394F12C89819A81AB
:10187000E816F90678F54B815C81652D742D832D72
:10188000922D0E94B60598878F834D815E81652DCC
:10189000742D832D922D0E94B605EB85FC858193D6
:1018A0009193FC87EB87F5012F8138852193319344
:1018B0005F019801492D582D652D742D832D922D92
:1018C0000E946815562E472E382E292E3FEFE31A18
:1018D000F30ACCCFCB82DC82E72CF62C812C912C26
:1018E0005C0191E0A91AB1088A149B04E0F4EFEFBF
:1018F0008E1A9E0AAB81BC81F70112962D913C9104
:101900001397CD0102969C838B834281538192E091
:10191000E90EF11C6D917C9109851A858081918178
:101920000E94920AE1CFC6010E949518872D962D3C
:101930002C960FB6F894DEBF0FBECDBFDF91CF91CE
:101940001F910F91FF90EF90DF90CF90BF90AF90DD
:101950009F908F907F906F905F904F903F902F90CF
:101960000C9495182F923F924F925F926F927F92B4
:101970008F929F92AF92BF92CF92DF92EF92FF929F
:101980000F931F93CF93DF9300D000D000D0CDB73B
:10199000DEB75C014B018A017901C12CD12C1E827A
:1019A0001D828D819E81081719070CF464C0A70160
:1019B0004D805E80480C591CB201C8018A0D9B1DE8
:1019C0009C838B830E94EE07A7013801680C791C69
:1019D000B3018D819E818A0D9B1D9A8389830E940C
:1019E000EE07A701B30115018D819E81281A390ADE
:1019F000C1010E94EE07A701B2013501601A710A08
:101A0000C3010E94EE07A70124018D819E81481A1F
:101A1000590AB201C3010E94EE07A7013401601AFE
:101A2000710AB301C1010E94EE07A701B3018981C8
:101A30009A810E94EE07A701B2018B819C810E94CE
:101A4000EE071C141D0474F08D819E8101969E8307
:101A50008D83880F991F0196C80ED91E1C141D0472
:101A60000CF09FCF01501109C801880F991F0196F2
:101A7000C81AD90A96CF26960FB6F894DEBF0FBEC5
:101A8000CDBFDF91CF911F910F91FF90EF90DF902D
:101A9000CF90BF90AF909F908F907F906F905F900E
:101AA0004F903F902F9008954F925F926F927F9248
:101AB0008F929F92AF92BF92CF92DF92EF92FF925E
:101AC0000F931F93CF93DF93EC017B016A015901C0
:101AD0004B01820E931E3C01640E751EA801B401D9
:101AE000C3010E94EE072E014C185D08A801B40145
:101AF000C2010E94EE0747018A189B08A801B401A1
:101B0000C3010E94EE07A801B401C2010E94EE07C2
:101B100047018C0C9D1C35016C0E7D1EA801B40183
:101B2000C3010E94EE07CA19DB09A801B401CE0166
:101B30000E94EE07EC18FD08A801B701C3010E943E
:101B4000EE07A801B701CE01DF91CF911F910F9150
:101B5000FF90EF90DF90CF90BF90AF909F908F90CD
:101B60007F906F905F904F900C94EE078DB18F74C3
:101B70008DB98EB1806B8EB987B1837C87B988B1FE
:101B80008C6388B9EAE6F0E08081856880830895F7
:101B90008CB1807349F490912902903281F0909138
:101BA00029029031E1F413C08033C9F490912902E5
:101BB000903129F090912902903289F408C09091D7
:101BC00028029150909328028033A1F306C090918F
:101BD00028029F5F9093280202C0882301F380931C
:101BE000290280912802089586B18C7308951F926E
:101BF0000F920FB60F9211240BB60F922F933F93B3
:101C00004F935F936F937F938F939F93AF93BF9304
:101C1000EF93FF930E94C80D87EC90E00197F1F7D6
:101C200000C00000FF91EF91BF91AF919F918F9104
:101C30007F916F915F914F913F912F910F900BBECC
:101C40000F900FBE0F901F9018951F920F920FB616
:101C50000F9211248F9380910201882309F447C0C9
:101C6000809128021816FCF480912E0280932C0299
:101C700080912D0280932B0280912E02882321F0E7
:101C800080912E0281500AC080912D02882341F05C
:101C900080912D02815080932D0287E080932E0247
:101CA00081E080932A028091280287FF20C08091E2
:101CB0002E0280932C0280912D0280932B02809122
:101CC0002E02873030F480912E028F5F80932E0297
:101CD0000BC080912D02873038F480912D028F5FE8
:101CE00080932D0210922E0281E080932A0210929E
:101CF00028028F910F900FBE0F901F90189597E0BC
:101D0000961B28E0929F800D11240895282F269578
:101D10002695269597E0921BFA0190838770FB0128
:101D2000808308950F931F93CF93DF93CDB7DEB7D2
:101D300028970FB6F894DEBF0FBECDBF8A012EE103
:101D4000829FC0011124DC0198968A5B9F4F482F27
:101D50009C838B838EE1689FF0011124CF014E9606
:101D600098878F832A2FBA83A9836E2FFE83ED83F2
:101D70003A815C817E8198850E94C10228960FB6C7
:101D8000F894DEBF0FBECDBFDF91CF911F910F91B1
:101D900008950F931F93CF93DF9300E010E0C0E00E
:101DA000D0E0C8018C0F9D1F80FD03C04CE255EFB1
:101DB00002C042E25AE86C2F802F0E94920E2196B8
:101DC000C830D10571F70F5F1F4F0830110539F783
:101DD000DF91CF911F910F9108950F931F93CF9390
:101DE000DF9309E012E0C0E0F801D1918F01DD231B
:101DF00079F08FE0C89FB00111246A5E7F4F8FE0B9
:101E000090E00E948D058D2F0E94A604CF5FECCF3D
:101E1000DF91CF911F910F9108950F9310928E0231
:101E20009FEC90938F021092900210929102109268
:101E3000920210929302109294021092950251E82D
:101E40005093A6021092A7021092A8021092A90223
:101E50001092AA021092AB021092AC021092AD0244
:101E600042E44093960210929702109298021092C8
:101E7000990210929A0210929B0210929C02109268
:101E80009D0234E230939E0210929F021092A002B3
:101E90001092A1021092A2021092A3021092A40228
:101EA0001092A50228E02093AE021092AF02109289
:101EB000B0021092B1021092B2021092B3021092CC
:101EC000B4021092B50280E18093B6021092B7027C
:101ED0001092B8021092B9021092BA021092BB028C
:101EE0001092BC021092BD021092BE021092BF026C
:101EF0001092C0021092C1021092C2021092C3024C
:101F00001092C4021092C5021092D6021092D7020B
:101F10001092D8021092D9021092DA021092DB02CB
:101F20001092DC025093DD021092C6021092C7029A
:101F30001092C8021092C9021092CA021092CB02EB
:101F40001092CC024093CD021092CE021092CF029A
:101F50001092D0021092D1021092D2021092D302AB
:101F60001092D4023093D5021092DE021092DF025A
:101F70001092E0021092E1021092E2021092E3024B
:101F80001092E4022093E5021092E6021092E7021A
:101F90001092E8021092E9021092EA021092EB020B
:101FA0001092EC028093ED028FEF8093EE029093FB
:101FB000EF021092F0021092F1021092F2021092CF
:101FC000F3021092F4021092F5021092F6021092AF
:101FD000F7021092F8021092F9021092FA0210928F
:101FE000FB021092FC028093FD028093FE0290930C
:101FF000FF0210920003109201031092020310924C
:1020000003031092040380930503E6E8F4E0A0E0E4
:10201000B0E021E030E040E050E060E070E080E0DF
:1020200090E00A2F0E94241520833183428353833A
:10203000648375838683978338961196A034B1059F
:1020400041F780E4E6E4F2E0DF011D928A95E9F7CA
:1020500097E081E0918386833896B2E0E638FB070B
:10206000C9F78AE08093460298E090934E0229E0F7
:10207000209356023BE030935E023CE030936602D0
:1020800020936E029093760280937E0284E0809388
:102090004D0292E09093550223E020935D0235E0DB
:1020A0003093650236E030936D0220937502909371
:1020B0007D02809385020F910895CF93DF9328E0EE
:1020C000829FE0011124CA5BDD4FC60FD11D9881AC
:1020D0009923C9F09EE1699FB0011124695F7F4F88
:1020E0002EE1829FC00111248F960E948D05888168
:1020F000E0910001F0910101E80FF11D8081DF9175
:10210000CF910C94A604DF91CF91089580912A027B
:10211000882351F1F89490912C0280912B02890F21
:1021200080FD03C04CE255EF02C042E25AE86091E4
:102130002B0280912C020E94920E60912B028091C2
:102140002C020E945D1060912D0280912E0249EFB9
:1021500056E40E94920E60912D0280912E020E9400
:102160005D1010922A0278940895EF92FF920F93D7
:102170001F93CF93DF93C6E8D4E010E087E0E82E0A
:10218000288139814A815B816C817D818E819F812B
:102190002896E0913E022E23E0913F023E23E091FB
:1021A00040024E23E09141025E23E09142026E2301
:1021B000E09143027E23F0914402E09145028F2397
:1021C0009E23A0E00E945B15C9F0812F869586951D
:1021D0008695FE2CF81A012F0770802F8F0D80FD39
:1021E00003C04CE255EF02C042E25AE86F2D802F47
:1021F0000E94920E6F2D802F0E945D101F5F103481
:1022000009F0BECF10923E0210923F02109240029F
:102210001092410210924202109243021092440224
:1022200010924502DF91CF911F910F91FF90EF9097
:102230000895CF93DF93C091020180E0D1E06799C8
:102240002FC0F894811103C08091020101C08C2F2E
:1022500060912D02882399F080912E0240E054E095
:102260000E94920E60912D0280912E020E945D10BC
:102270001092020110922F020E94B5100EC08091A0
:102280002E0249EF56E40E94920E60912D02809139
:102290002E020E945D10D0930201789481E0CFCF8E
:1022A000DF91CF910895EF92FF920F931F93CF93F9
:1022B000DF93C6E8D4E010E087E0E82E288139817A
:1022C0004A815B816C817D818E819F812896E0911E
:1022D0003E022E23E0913F023E23E09140024E2336
:1022E000E09141025E23E09142026E23E0914302BD
:1022F0007E23F0914402E09145028F239E23A0E0CB
:102300000E945B1591F0812F869586958695FE2C0F
:10231000F81A47EB5DEF6F2D012F0770802F0E9499
:10232000920E6F2D802F0E945D101F5F103431F6CA
:10233000DF91CF911F910F91FF90EF900895CF9370
:10234000DF93D0E0C0E06C2F8D2F0E945D10CF5F37
:10235000C830C9F7DF5FD830A9F7DF91CF91089572
:102360002F923F924F925F926F927F928F929F92A5
:10237000AF92BF92CF92DF92EF92FF920F931F9393
:10238000CF93DF93CDB7DEB765970FB6F894DEBF76
:102390000FBECDBF39014A016D8B7C8BB82FA92FA1
:1023A000A88AB98A0A8B1B8B822F8F778983872D06
:1023B0008F778A83842F8F778B83892D8F778C8378
:1023C000162F1F77872F8F778D838B2F8F778E8395
:1023D000892F8F778F83822F8E7F8887872D8E7F9F
:1023E0008987842F8E7F8A87892D8E7F8B87862F82
:1023F0008E7F8C87872F8E7F8D878B2F8E7F8E870A
:10240000892F8E7F8F878B2F08E00E94241519015A
:102410002A015B01F82FE92F9301A4016D897C89C2
:102420008B2F9A2F0E943F15222A332A442A552A9D
:10243000A62AB72AF82BE92B29813A814B815C81A6
:10244000612F7D818E819F8107E00E942415222AC1
:10245000332A442A552AA62AB72AF82BE92B2981A0
:102460003A814B815C81612F7D818E819F8109E062
:102470000E942415222A332A442A552AA62AB72A3A
:10248000F82BE92B29813A814B815C81612F7D8179
:102490008E819F8101E00E942415222A332A442A3A
:1024A000552AA62AB72AF82BE92B288539854A858B
:1024B0005B856C857D858E859F8507E00E943F1535
:1024C000222A332A442A552AA62AB72AF82BE92B8E
:1024D000288539854A855B856C857D858E859F85B8
:1024E00009E00E943F15222A332A442A552AA62AA7
:1024F000B72AF82BE92B288539854A855B856C85B9
:102500007D858E859F8501E00E943F15222A332A12
:10251000442A552AA62AB72AF82BE92B2889209580
:10252000A989A095C094D094E094F0948A8980956C
:102530009B8990952221332D3A23442D4C21552DF2
:102540005D216A2D6E217B2D7F218F239E23659631
:102550000FB6F894DEBF0FBECDBFDF91CF911F91B4
:102560000F91FF90EF90DF90CF90BF90AF909F9032
:102570008F907F906F905F904F903F902F90089535
:102580002F923F924F925F926F927F928F929F9283
:10259000AF92BF92CF92DF92EF92FF920F931F9371
:1025A000CF93DF93CDB7DEB7A5970FB6F894DEBF14
:1025B0000FBECDBFACA20DA3E22FEC7FE987E32FC6
:1025C000EC7FEA87E42FEC7FEB87E52FEC7FEC874D
:1025D000E62FEC7FED87E72FEC7FEE87E82FEC7F8F
:1025E000EF87E92FEC7FE88BE22FEE7FE98BE32F7B
:1025F000EE7FEA8BE42FEE7FEB8BE52FEE7FEC8B0B
:10260000E62FEE7FED8BE72FEE7FEE8BE82FEE7F50
:10261000EF8BE92FEE7FE88FE22FEF772E2EE32F5F
:10262000EF773E2EE42FEF774E2EE52FEF77E98FF1
:10263000E62FEF77EA8FE72FEF77EB8FE82FEF7733
:10264000EC8FE92FEF77ED8F2F732E8F3F733F8F36
:102650004F7348A35F7359A36F736AA37F737BA300
:10266000B82FBF73A92FAF7329853A854B855C8539
:102670006D857E858F85988906E00E942415522EEF
:10268000632E742E852E962EA72EF82FE92F2989DA
:102690003A894B895C896D897E898F89988D0FE095
:1026A0000E942415522A632A742A852A962AA72A68
:1026B000F82BE92B9101442D598D6A8D7B8D8C8DE2
:1026C0009D8D01E10E942415522A632A742A852ACD
:1026D000962AA72AF82BE92B2E8D3F8D48A159A1C8
:1026E0006AA17BA18B2F9A2F0AE00E942415522AFF
:1026F000632A742A852A962AA72AF82BE92B2E8D7D
:102700003F8D48A159A16AA17BA18B2F9A2F06E08A
:102710000E943F15522A632A742A852A962AA72ADC
:10272000F82BE92B9101442D598D6A8D7B8D8C8D71
:102730009D8D0FE00E943F15522A632A742A852A34
:10274000962AA72AF82BE92B29893A894B895C8993
:102750006D897E898F89988D01E10E943F15522AEB
:10276000632A742A852A962AA72AF82BE92B298519
:102770003A854B855C856D857E858F8598890AE0D5
:102780000E943F15522A632A742A852A962AA72A6C
:102790008F2B9E2B2CA12095B094C094D094E094C4
:1027A000F094ADA1A095109552226B207C208D2035
:1027B0009E20AF20482E4A2219231F934F92AF929A
:1027C0009F928F927F926F925F9287E192E09F93A8
:1027D0008F93CE0101967C019F938F930E941E19C7
:1027E00045E050E065E070E0C7010E949B050FB630
:1027F000F894DEBF0FBECDBF252D362D472D582DA9
:10280000692D7A2D842D912FA5960FB6F894DEBFF1
:102810000FBECDBFDF91CF911F910F91FF90EF9031
:10282000DF90CF90BF90AF909F908F907F906F90F0
:102830005F904F903F902F900895AF92BF92CF92AC
:10284000DF92EF92FF920F931F938091020181110B
:1028500081C080912F0281117DC090912D02E09165
:102860002E0287E0891B98E0899FE00D1124A0913A
:102870002E0280912D0298E0A99FD0011124AA5B1D
:10288000BD4FA80FB11D8C91823051F1863039F0C7
:10289000882309F45FC081E080932F025BC0A09081
:1028A000EE02B090EF02C090F002D090F102E09002
:1028B000F202F090F3020091F4021091F50288E028
:1028C000E89FF0011124EA57FB4F208131814281BA
:1028D000538164817581868197810E94B01120C0E7
:1028E000A090EE02B090EF02C090F002D090F10202
:1028F000E090F202F090F3020091F4021091F502E0
:1029000098E0E99FF0011124EA57FB4F20813181C3
:102910004281538164817581868197810E94C012B2
:1029200020933E0230933F02409340025093410275
:102930006093420270934302809344029093450255
:102940001F910F91FF90EF90DF90CF90BF90AF90CD
:102950000C9453111F910F91FF90EF90DF90CF9047
:10296000BF90AF900895122FF32EE42ED52EC62ED1
:10297000B72EA82E992EF894C0E0D0E087E0882EDC
:102980008C2F869586958695F82DF81BEC2FE77091
:10299000212F3F2D4E2D5D2D6C2D7B2D8A2D992DB8
:1029A0000C2F0E943F15217030E040E050E060E0C5
:1029B00070E080E090E0A0E00E945B1519F04FEF1E
:1029C0005FEF02C040E154E86F2F8E2F0E94920EFD
:1029D0002196C034D105A1F6FFCF80E88093610035
:1029E000109261000E94B60D8DB380638DBB109272
:1029F000800088E0809381008091810081608093D5
:102A0000810080916F00826080936F0080E090E091
:102A10000E94F903F8940E94C90E0E940D0F0E94B3
:102A20009F110E94ED0E78940E9486100E94191149
:102A30000E941D14F9CFEE0FFF1F0024001C0BBED7
:102A40000790F691E02D09940F93083090F0982F9D
:102A5000872F762F652F542F432F322F2227085090
:102A6000F4CF220F331F441F551F661F771F881F87
:102A7000991F0A95B2F70F91089597FB10F81694D5
:102A800000080F93083098F00850232F342F452F5B
:102A9000562F672F782F892F902DF4CF0594979577
:102AA00087957795679557954795379527950A9513
:102AB000AAF70F9108950024A7FD00942A17300566
:102AC0004005500560057005800590050895505833
:102AD000BB27AA270E947F150C9439170E942B1739
:102AE00038F00E94321720F039F49F3F19F426F491
:102AF0000C9428170EF4E095E7FB0C94F916E92FD7
:102B00000E944A1758F3BA1762077307840795079C
:102B100020F079F4A6F50C9484170EF4E0950B2EB2
:102B2000BA2FA02D0B01B90190010C01CA01A0011F
:102B30001124FF27591B99F0593F50F4503E68F17A
:102B40001A16F040A22F232F342F4427585FF3CFBB
:102B5000469537952795A795F0405395C9F77EF48C
:102B60001F16BA0B620B730B840BBAF09150A1F0D5
:102B7000FF0FBB1F661F771F881FC2F70EC0BA0F5B
:102B8000621F731F841F48F4879577956795B795E3
:102B9000F7959E3F08F0B0CF9395880F08F09927DE
:102BA000EE0F9795879508950E94D51608F481E059
:102BB00008950E94ED150C9439170E94321758F0B1
:102BC0000E942B1740F029F45F3F29F00C94F9166E
:102BD00051110C9485170C9428170E944A1768F31A
:102BE0009923B1F3552391F3951B550BBB27AA27C6
:102BF00062177307840738F09F5F5F4F220F331F00
:102C0000441FAA1FA9F335D00E2E3AF0E0E832D0C7
:102C100091505040E695001CCAF72BD0FE2F29D0CA
:102C2000660F771F881FBB1F261737074807AB079C
:102C3000B0E809F0BB0B802DBF01FF2793585F4F11
:102C40003AF09E3F510578F00C94F9160C948517D4
:102C50005F3FE4F3983ED4F3869577956795B795F3
:102C6000F7959F5FC9F7880F911D9695879597F9FE
:102C70000895E1E0660F771F881FBB1F6217730777
:102C80008407BA0720F0621B730B840BBA0BEE1F8C
:102C900088F7E09508950E9452166894B1110C943B
:102CA000851708950E94521788F09F5798F0B92F02
:102CB0009927B751B0F0E1F0660F771F881F991F71
:102CC0001AF0BA95C9F714C0B13091F00E94841778
:102CD000B1E008950C948417672F782F8827B85F88
:102CE00039F0B93FCCF3869577956795B395D9F7C9
:102CF0003EF490958095709561957F4F8F4F9F4FD3
:102D00000895E89409C097FB3EF4909580957095DE
:102D100061957F4F8F4F9F4F9923A9F0F92F96E927
:102D2000BB279395F695879577956795B795F1119C
:102D3000F8CFFAF4BB0F11F460FF1BC06F5F7F4F39
:102D40008F4F9F4F16C0882311F096E911C077234B
:102D500021F09EE8872F762F05C0662371F096E854
:102D6000862F70E060E02AF09A95660F771F881F23
:102D7000DAF7880F9695879597F908950E946C1752
:102D800090F09F3748F4911116F00C94851760E08D
:102D900070E080E89FEB089526F41B16611D711DFD
:102DA000811D0C94FF160C941A17990F0008550FEB
:102DB000AA0BE0E8FEEF16161706E807F907C0F0C1
:102DC00012161306E407F50798F0621B730B840BC9
:102DD000950B39F40A2661F0232B242B252B21F4A3
:102DE00008950A2609F4A140A6958FEF811D811D43
:102DF000089597F99F6780E870E060E00895882360
:102E000071F4772321F09850872B762F07C0662323
:102E100011F499270DC09051862B70E060E02AF0E4
:102E20009A95660F771F881FDAF7880F9695879512
:102E300097F908959F3F31F0915020F48795779549
:102E40006795B795880F911D9695879597F9089581
:102E50009FEF80EC089500240A94161617061806B2
:102E60000906089500240A9412161306140605068E
:102E70000895092E0394000C11F4882352F0BB0F1F
:102E800040F4BF2B11F460FF04C06F5F7F4F8F4F82
:102E90009F4F089557FD9058440F551F59F05F3FBD
:102EA00071F04795880F97FB991F61F09F3F79F06C
:102EB00087950895121613061406551FF2CF4695EE
:102EC000F1DF08C0161617061806991FF1CF869570
:102ED00071056105089408950E945217A0F0BEE79D
:102EE000B91788F4BB279F3860F41616B11D672FF9
:102EF000782F8827985FF7CF869577956795B11DCE
:102F000093959639C8F30895E894BB2766277727E9
:102F1000CB0197F908950E94D51608F48FEF089514
:102F20000E94A3170C9439170E942B1738F00E94A7
:102F3000321720F0952311F00C94F9160C942817F1
:102F400011240C9485170E944A1770F3959FC1F3C2
:102F5000950F50E0551F629FF001729FBB27F00D47
:102F6000B11D639FAA27F00DB11DAA1F649F66279C
:102F7000B00DA11D661F829F2227B00DA11D621FEB
:102F8000739FB00DA11D621F839FA00D611D221FA5
:102F9000749F3327A00D611D231F849F600D211D89
:102FA000822F762F6A2F11249F5750409AF0F1F00C
:102FB00088234AF0EE0FFF1FBB1F661F771F881F75
:102FC00091505040A9F79E3F510580F00C94F9169E
:102FD0000C9485175F3FE4F3983ED4F3869577957C
:102FE0006795B795F795E7959F5FC1F7FE2B880F1B
:102FF000911D9695879597F908950F931F93CF93F9
:10300000DF938230910510F482E090E0E091880631
:10301000F091890620E030E0A0E0B0E0309719F1AF
:10302000408151810281138148175907C8F08417E4
:10303000950769F4109731F012960C931297139636
:103040001C9327C0009388061093890622C021157F
:10305000310519F04217530718F49A01BD01EF0129
:10306000DF01F801DBCF21153105F9F0281B390B01
:103070002430310580F48A819B816115710521F02E
:10308000FB019383828304C0909389068093880612
:10309000FE01329644C0FE01E20FF31F819391932B
:1030A00022503109398328833AC020918606309115
:1030B0008706232B41F420910501309106013093BE
:1030C0008706209386062091030130910401211583
:1030D000310541F42DB73EB74091070150910801E9
:1030E000241B350BE0918606F0918706E217F30763
:1030F000A0F42E1B3F0B2817390778F0AC014E5F68
:103100005F4F2417350748F04E0F5F1F5093870617
:10311000409386068193919302C0E0E0F0E0CF01F6
:10312000DF91CF911F910F910895CF93DF93009777
:1031300009F481C0FC01329713821282A0918806A3
:10314000B0918906109781F420813181820F931FFD
:1031500020918606309187062817390751F5F0939C
:103160008706E093860667C0ED0120E030E0CE17C9
:10317000DF0740F44A815B819E0141155105F1F062
:10318000EA01F5CFD383C28340815181840F951F1B
:10319000C817D90759F488819981840F951F029621
:1031A000918380838A819B8193838283211531055A
:1031B00029F4F0938906E09388063DC0E901FB837A
:1031C000EA8349915991C40FD51FEC17FD0761F4AB
:1031D00080819181840F951F0296E90199838883EC
:1031E000828193819B838A83E0E0F0E012968D9147
:1031F0009C911397009719F0FD01DC01F7CF8D9199
:103200009C9111979D012E5F3F4F820F931F20913C
:103210008606309187062817390769F4309729F414
:10322000109289061092880602C013821282B0930F
:103230008706A0938606DF91CF9108950F931F9381
:10324000CF93DF93CDB7DEB72E970FB6F894DEBFDE
:103250000FBECDBF0D891E8986E08C831A8309833A
:103260008FEF9FE79E838D83AE01475E5F4F6F892F
:10327000788DCE0101960E944D19EF81F885E00FFF
:10328000F11F10822E960FB6F894DEBF0FBECDBF91
:10329000DF91CF911F910F9108952F923F924F92FE
:1032A0005F926F927F928F929F92AF92BF92CF92D6
:1032B000DF92EF92FF920F931F93CF93DF93CDB7DF
:1032C000DEB72B970FB6F894DEBF0FBECDBF6C01F3
:1032D0007B018A01FC0117821682838181FFCCC1A8
:1032E000CE0101963C01F6019381F70193FD859192
:1032F00093FF81917F01882309F4BAC1853239F4A3
:1033000093FD859193FF81917F01853229F4B60168
:1033100090E00E946D1BE7CF912C212C312CFFE116
:10332000F315D8F08B3279F038F4803279F08332AB
:10333000A1F4232D20611DC08D3261F0803369F42A
:10334000232D216016C0832D8260382EE32DE4608A
:103350003E2E2AC0F32DF8601DC037FC2DC020ED95
:10336000280F2A3040F08E32B9F436FC81C1232D6B
:103370002064322E19C036FE06C08AE0989E200DC9
:103380001124922E11C0EAE02E9E200D1124222E2F
:10339000F32DF0623F2E08C08C3621F4832D806817
:1033A000382E02C0883641F4F70193FD859193FFD2
:1033B00081917F018111B3CF982F9F7D95549330D8
:1033C00028F40C5F1F4F9FE399830DC0833631F0C3
:1033D000833771F0833509F059C021C0F80180812D
:1033E00089830E5F1F4F88248394912C530113C04F
:1033F0002801F2E04F0E511CF801A080B18036FE8A
:1034000003C0692D70E002C06FEF7FEFC5010E941D
:10341000621B4C018201F32DFF773F2E16C028015D
:1034200022E0420E511CF801A080B18036FE03C09C
:10343000692D70E002C06FEF7FEFC5010E94571B3E
:103440004C01F32DF0683F2E820133FC1BC0822D0E
:1034500090E088169906B0F4B60180E290E00E94F0
:103460006D1B2A94F4CFF50137FC859137FE8191CD
:103470005F01B60190E00E946D1B21102A9421E0AB
:10348000821A91088114910471F7E8C0843611F012
:10349000893641F5F80137FE07C06081718182816C
:1034A00093810C5F1F4F08C060817181072E000C53
:1034B000880B990B0E5F1F4FF32DFF763F2E97FF62
:1034C00009C090958095709561957F4F8F4F9F4F64
:1034D000F0683F2E2AE030E0A3010E94A91B882E4D
:1034E000861845C0853731F4232D2F7EB22E2AE071
:1034F00030E025C0932D997FB92E8F36C1F018F496
:10350000883579F0B5C0803719F0883721F0B0C020
:10351000E92FE061BE2EB4FE0DC0FB2DF460BF2E7E
:1035200009C034FE0AC0292F2660B22E06C028E04A
:1035300030E005C020E130E002C020E132E0F801D7
:10354000B7FE07C060817181828193810C5F1F4F3C
:1035500006C06081718180E090E00E5F1F4FA30183
:103560000E94A91B882E8618FB2DFF773F2E36FE62
:103570000DC0232D2E7FA22E891458F434FE0BC0CB
:1035800032FC09C0832D8E7EA82E05C0B82CA32C3A
:1035900003C0B82C01C0B92CA4FE0FC0FE01E80D79
:1035A000F11D8081803321F49A2D997EA92E09C0C6
:1035B000A2FE06C0B394B39404C08A2D867809F0A5
:1035C000B394A3FC11C0A0FE06C0B21488F4280C6A
:1035D000922C9B180EC0B21460F4B60180E290E009
:1035E0000E946D1BB394F7CFB21418F42B1802C0CD
:1035F000982C212CA4FE10C0B60180E390E00E941C
:103600006D1BA2FE17C0A1FC03C088E790E002C0BA
:1036100088E590E0B6010CC08A2D867859F0A1FEAD
:1036200002C08BE201C080E2A7FC8DE2B60190E00F
:103630000E946D1B891438F4B60180E390E00E946B
:103640006D1B9A94F7CF8A94F301E80DF11D8081E8
:10365000B60190E00E946D1B8110F5CF222009F485
:1036600042CEB60180E290E00E946D1B2A94F6CF14
:10367000F6018681978102C08FEF9FEF2B960FB6E0
:10368000F894DEBF0FBECDBFDF91CF911F910F9198
:10369000FF90EF90DF90CF90BF90AF909F908F9072
:1036A0007F906F905F904F903F902F900895FC0116
:1036B0000590615070400110D8F7809590958E0F5D
:1036C0009F1F0895FC016150704001900110D8F7D0
:1036D000809590958E0F9F1F08950F931F93CF9302
:1036E000DF93FB01238121FD03C08FEF9FEF2CC0EF
:1036F00022FF16C046815781248135814217530726
:1037000044F4A081B1819D012F5F3F4F318320831D
:103710008C93268137812F5F3F4F3783268314C0D8
:103720008B01EC01FB010084F185E02D0995892BCB
:10373000E1F6D80116968D919C91179701961796F0
:103740009C938E931697CE01DF91CF911F910F918D
:103750000895FA01AA27283051F1203181F1E89427
:103760006F936E7F6E5F7F4F8F4F9F4FAF4FB1E074
:103770003ED0B4E03CD0670F781F891F9A1FA11D6F
:10378000680F791F8A1F911DA11D6A0F711D811D70
:10379000911DA11D20D009F468943F912AE0269F35
:1037A00011243019305D3193DEF6CF010895462F94
:1037B0004770405D4193B3E00FD0C9F7F6CF462F75
:1037C0004F70405D4A3318F0495D31FD40524193DE
:1037D00002D0A9F7EACFB4E0A6959795879577959B
:1037E0006795BA95C9F700976105710508959B0122
:1037F000AC010A2E06945795479537952795BA95AB
:10380000C9F7620F731F841F951FA01D0895F894B8
:02381000FFCFE8
:103812001A020100008A06200001010101010101D2
:103822000102020202020202020404040404040469
:1038320004080808080808080810101010101010D2
:1038420010202020202020202040404040404040A6
:10385200408080808080808080FEFEFEFEFEFEFE34
:10386200FEFDFDFDFDFDFDFDFDFBFBFBFBFBFBFB93
:10387200FBF7F7F7F7F7F7F7F7EFEFEFEFEFEFEF0A
:10388200EFDFDFDFDFDFDFDFDFBFBFBFBFBFBFBF16
:10389200BF7F7F7F7F7F7F7F7FFF00000000000070
:1038A2000000FF0000000000000000FF0000000018
:1038B20000000000FF0000000000000000FF000008
:1038C200000000000000FF0000000000000000FFF8
:1038D2000000000000000000FF00FFFFFFFFFFFFED
:1038E200FFFF00FFFFFFFFFFFFFFFF00FFFFFFFFE4
:1038F200FFFFFFFF00FFFFFFFFFFFFFFFF00FFFFD4
:10390200FFFFFFFFFFFF00FFFFFFFFFFFFFFFF00C3
:10391200FFFFFFFFFFFFFFFF00466F7274756E61CE
:103922002043686573730025640020504E42525153
:083932004B706E6272716B00B4
:00000001FF
