:100000000C9455010C9474010C9474010C947401BB
:100010000C9474010C94040E0C94040E0C94740152
:100020000C9474010C9474010C9474010C9474017C
:100030000C9474010C9474010C9474010C9474016C
:100040000C9474010C94320E0C9474010C94740191
:100050000C9474010C9474010C9474010C9474014C
:100060000C9474010C9474010C9474010C9474013C
:100070000C9474010C9474010C9474010C9474012C
:100080000C9474010C9474010C9474010C9474011C
:100090000C9474010C947401FF061E0703070C07EF
:1000A00015072D073B0753078107570760076907A7
:1000B00072078F07041DCD1BAC1B021D301CB21C28
:1000C000761BDE1B971B021DEF1B711C611B0000C2
:1000D00000000000005F00000003000300143E1455
:1000E0003E14242A7F2A124333086661364955227A
:1000F000500005030000001C2241000041221C00AA
:1001000014083E081408083E080800503000000893
:1001100008080808006060000020100804023E5132
:1001200049453E0004027F0042615149462241494F
:1001300049361814127F1027454545393E4949492B
:100140003201017109073649494936264949493E74
:100150000036360000005636000008142241001414
:1001600014141414004122140802015109063E41DE
:1001700059555E7E0909097E7F494949363E41410C
:1001800041227F4141413E7F494949417F09090957
:10019000013E4141493A7F0808087F00417F410004
:1001A000304040403F7F081422417F404040407F24
:1001B000020C027F7F0204087F3E4141413E7F09DD
:1001C0000909061E2121215E7F0909097626494970
:1001D000493201017F01013F4040403F1F20402044
:1001E0001F7F2010207F41221C2241070870080732
:1001F0006151494543007F4100000204081020007E
:1002000000417F00040201020440404040400001E0
:1002100002040020545454787F4444443838444401
:100220004444384444447F385454541804047E05EC
:1002300005085454543C7F0804047800447D400071
:100240002040443D007F1028440000417F40007C56
:10025000047804787C0804047838444444387C14D6
:10026000141408081414147C007C08040448545422
:10027000542004043F44443C4040207C1C20402047
:100280001C3C4030403C44281028440C5050503C0A
:100290004464544C44000836414100007F00004152
:1002A0004136080002010204020011241FBECFEFF4
:1002B000D0E2DEBFCDBF12E0A0E0B1E0E6E8F2E4BC
:1002C00000E00BBF02C007900D92A632B107D9F72C
:1002D00026E0A6E2B2E001C01D92A838B207E1F71D
:1002E0000E94101D0C9441210C940000977025E091
:1002F000969587952A95E1F70895892F8695869595
:10030000869590E008958F719927089595E0660F7E
:10031000771F9A95E1F7460F571F20E030E0382FFE
:10032000330F330F330FCA01820F931F08954F927B
:100330005F926F927F928F929F92AF92BF92CF9275
:10034000DF92EF92FF92CF93DF93EC012A013B0102
:10035000BC01672F772766956695669580E090E0EB
:100360000E94A41EA30192010E94B31F20E030E06E
:1003700040E05FE30E948B1D0E94751E4B015C01F3
:10038000BE01777055E0769567955A95E1F780E064
:1003900090E00E94A41EA30192010E94B31F20E0DE
:1003A00030E040E05FE30E948B1D0E94751E6B01F0
:1003B0007C01BE016F71772780E090E00E94A41E4F
:1003C000A30192010E94B31F20E030E040E05FE310
:1003D0000E948B1D0E94751E94012032310510F081
:1003E0002FE130E04901982C8824990C990C990C44
:1003F0006032710510F06FE170E0680D791DC60183
:100400008034910510F08FE390E025E0880F991F6C
:100410002A95E1F7860F971FDF91CF91FF90EF901C
:10042000DF90CF90BF90AF909F908F907F906F9014
:100430005F904F90089593E89093B00091E090936F
:10044000B1008093B30008959093330280933202F9
:1004500026E330E020930040009779F480EF90E0AD
:1004600090932F0280932E0280E491E090933102CA
:100470008093300288E490E034C08130910579F4B3
:1004800080E491E090932F0280932E0280EF90E021
:10049000909331028093300288EE90E022C0823047
:1004A000910579F480EF90E090932F0280932E02D3
:1004B00080E491E0909331028093300288E890E0EC
:1004C00010C0039781F480E491E090932F02809311
:1004D0002E0280EF90E0909331028093300288E208
:1004E00090E0809300418AE290E08093004020E019
:1004F00030E0309300412093004180912E02909192
:100500002F02019790930041809300418BE290E08D
:10051000809300403093004120930041809130024D
:10052000909131020197909300418093004108958A
:10053000CF93873748F4883048F08D3350F48F31AB
:1005400050F4803150F403C086E703C088E0C3E074
:1005500005C0C0E003C0C1E001C0C2E021EB30E053
:1005600020930040C0930041682F70E080E090E04D
:100570000E94A61E9B01AC0160E070E080EF94E455
:100580000E94FC1D0E94751E70E002C07595679563
:10059000CA95E2F760930041CF9108950F931F939E
:1005A000CF93DF93CDB7DEB728970FB6F894DEBFB1
:1005B0000FBECDBF29833A834B835C836D837E83DB
:1005C0008F83988769817A812B813C814D815E81FF
:1005D0008F819885EAE2F0E0E0930040709300415B
:1005E000609300413093004120930041EBE2F0E042
:1005F000E0930040509300414093004190930041AC
:1006000080930041ECE2F0E0E09300402F5F3F4F29
:10061000261B370B0196841B950B2817390790F47E
:10062000482F4770429FB001439F700D112453E043
:10063000969587955A95E1F7829FA001839F500D6B
:10064000112411C0422F4770489FB001499F700D7F
:10065000112443E0369527954A95E1F7289FA0019C
:10066000299F500D1124862F8770815028F01093F8
:10067000004100930041F9CFCB0123E09695879587
:100680002A95E1F7840F951F019708F11093004117
:1006900000930041109300410093004110930041EA
:1006A00000930041109300410093004110930041DA
:1006B00000930041109300410093004110930041CA
:1006C000009300411093004100930041DDCF289634
:1006D0000FB6F894DEBF0FBECDBFDF91CF911F9153
:1006E0000F910895EF92FF920F931F93CF93DF9393
:1006F000CDB7DEB728970FB6F894DEBF0FBECDBFDB
:1007000029833A834B835C836D837E838F839887B1
:1007100089819A81EB80FC806D817E81AF81B88573
:100720002AE230E020930040909300418093004102
:10073000F0920041E09200412BE230E02093004033
:100740007093004160930041B0930041A093004139
:100750002CE230E020930040E816F906A0F0A80152
:100760009B018A01A217B30760F04E5F5F4FF8014B
:100770000081118110930041009300412F5F3F4F92
:10078000F0CF0196E9CF28960FB6F894DEBF0FBEE2
:10079000CDBFDF91CF911F910F91FF90EF90089502
:1007A0000F931F93CF93DF93CDB7DEB728970FB684
:1007B000F894DEBF0FBECDBFEEE2F2E017821682E4
:1007C000118610861A821982808191810197482FA3
:1007D0009C838B831E821D828281938101979887DF
:1007E0008F830485158520E03A815C8160E07E81FD
:1007F00098850E94CE0228960FB6F894DEBF0FBEF1
:10080000CDBFDF91CF911F910F910895CF93DF93CB
:10081000019729F480E8809361001092610086E0DE
:100820008093750080E8809374003F9A249A8FEC3F
:1008300097E00197F1F700C0000047988FE39CE92B
:100840000197F1F700C00000479A9FEF2DEE82E07C
:10085000915020408040E1F700C0000088E290E025
:100860008093004081E190E0809300409FEF26E775
:1008700081E0915020408040E1F700C0000081E01D
:1008800090E02BEC30E0209300408093004120EC7E
:1008900030E02093004028E036E23093004120937E
:1008A000004140E150E021EC30E0209300404093D3
:1008B000004125EC30E0209300402EE335E33093F7
:1008C00000412093004145EB50E027EC30E02093BD
:1008D00000404093004126EF30E020930040809399
:1008E0000041C0E0D0E0D0930041C093004125E535
:1008F00030E08AE390E0809300402093004181E063
:1009000090E00E9424020E94D003109235021092BF
:100910003402109237021092360210923B0210926B
:100920003A028FEF9FEF909339028093380289E269
:1009300090E0809300409FE728E381E091502040C1
:100940008040E1F700C0000085E390E08093004024
:10095000C093004180916A00806280936A002C9A63
:10096000DF91CF9108959F92AF92BF92CF92DF9285
:10097000EF92FF920F931F93CF93DF932091360254
:10098000309137028A30F9F4109235021092340215
:10099000285F3F4F30933702209336028091300218
:1009A000909131022817390708F4A5C0DF91CF9143
:1009B0001F910F91FF90EF90DF90CF90BF90AF907D
:1009C0009F900C94D00390EE980F9F3508F093C041
:1009D0006091340270913502A901495F5F4F082E82
:1009E000000C990B8097E5E0E89FE001E99FD00DAE
:1009F00011248BE290E080930040309300412093DB
:100A000000415093004140930041CB01DB0114961B
:100A10000AE210E0ECE2EE2EF12CA817B90780F103
:100A200000930040909300418093004190930041D7
:100A300080930041E0920040FC01E61BF70BEC0FB5
:100A4000FD1FE253FF4F94906901F1E04C155D05E5
:100A5000A8F0BF2EB92029F0A0903802B09039023A
:100A600004C0A0903A02B0903B02B0920041A09224
:100A70000041EFEFCE1ADE0AFF0FE8CF0196CDCF8F
:100A80006AE270E0609300409093004180930041DF
:100A900090930041809300418CE290E0809300406D
:100AA0004217530758F080913A0290913B0290937D
:100AB0000041809300412F5F3F4FF2CF809134027D
:100AC00090913502069690933502809334022091DE
:100AD0002E0230912F028217930768F01092350290
:100AE00010923402809136029091370208969093CA
:100AF000370280933602DF91CF911F910F91FF90C3
:100B0000EF90DF90CF90BF90AF909F9008950F939C
:100B10001F93CF938C01C0E0F801EC0FF11D808191
:100B2000882321F00E94B304CF5FF6CFCF911F91AD
:100B30000F910895EEE2F2E09783868371876087D4
:100B40000895EEE2F2E093878287758764870895BF
:100B50000F931F93CF938C017093350260933402EF
:100B60005093370240933602C0E0F801EC0FF11DBC
:100B70008081882321F00E94B304CF5FF6CFCF910C
:100B80001F910F9108954F925F926F927F928F9273
:100B90009F92AF92BF92CF92DF92EF92FF92CF934C
:100BA000DF9300D000D000D0CDB7DEB76B017C0161
:100BB0005E834D839B01AC0160E070E080E89FE3C1
:100BC0000E948A1D4B015C0120E030E040E450E4CB
:100BD0000E94B31F69837A838B839C83A501940150
:100BE000C501B4010E94B31FA50194010E94B31F67
:100BF0002B013C01ED81FE816081718180E090E0FC
:100C00000E94A41E9B01AC01C301B2010E94B31F4C
:100C10002B013C0129813A814B815C81C501B401E2
:100C20000E94B31FA70196010E94B31F4B015C01F4
:100C3000ED81FE816281738180E090E00E94A41EBC
:100C40009B01AC01C501B4010E94B31F9B01AC0123
:100C5000C301B2010E948B1D4B015C0129813A81C5
:100C60004B815C81C701B6010E94B31FA7019601A9
:100C70000E94B31F2B013C01ED81FE8164817581CF
:100C800080E090E00E94A41E9B01AC01C301B20170
:100C90000E94B31F9B01AC01C501B4010E948B1DD2
:100CA0004B015C01A7019601C701B6010E94B31F69
:100CB000A70196010E94B31F6B017C01ED81FE81AB
:100CC0006681778180E090E00E94A41E9B01AC01C8
:100CD000C701B6010E94B31F9B01AC01C501B4015D
:100CE0000E948B1D0E946E1E072E000C880B990B14
:100CF0000E94A61E20E030E040E05FE30E948B1DD2
:100D00000E946E1ECB0126960FB6F894DEBF0FBE72
:100D1000CDBFDF91CF91FF90EF90DF90CF90BF904C
:100D2000AF909F908F907F906F905F904F900895BD
:100D3000CF92DF92EF92FF926B017C0120E030E0D6
:100D4000A9010E94F71D87FF11C0C701B6010E94CB
:100D5000E11E9B01AC01C701B6010E948A1D9B01E7
:100D6000AC0160E070E080E89FE308C0C701B60115
:100D70000E94E11E9B01AC01C701B6010E948A1DC1
:100D8000FF90EF90DF90CF9008950E9498069B010E
:100D9000AC0160E070E080E89FE30E948A1D089546
:100DA000CF92DF92EF92FF920F931F93FC0100818D
:100DB000118122813381FB01C080D180E280F380E8
:100DC000FC01C082D182E282F382FB0100831183A5
:100DD000228333831F910F91FF90EF90DF90CF908C
:100DE0000895CF93DF93DC01EB01FA013197E730EF
:100DF000F10508F047C0E45BFF4F0C943E1D8D9158
:100E00009C91119733C08D919C91119791958195EB
:100E100091098D939C9336C08D919C9111979195DA
:100E2000819591098D939C9326C08D919C911197EA
:100E300091958195910911969C938E9388819981C2
:100E4000919581959109998388832D913C91119772
:100E50008D939C933983288315C08D919C91119714
:100E600091958195910911969C938E932881398152
:100E70002D933C9305C08881998191958195910925
:100E800099838883DF91CF910895CF93DF93DC011D
:100E9000EB01FA013197E730F10508F047C0ED5A50
:100EA000FF4F0C943E1D8D919C91119733C08D91F5
:100EB0009C9111979195819591098D939C9336C042
:100EC0008D919C9111979195819591098D939C930A
:100ED00026C08D919C9111979195819591091196BC
:100EE0009C938E938881998191958195910999839D
:100EF00088832D913C9111978D939C9339832883FE
:100F000015C08D919C91119791958195910911969C
:100F10009C938E93288139812D933C9305C08881C1
:100F2000998191958195910999838883DF91CF91DA
:100F30000895FC0120813181FB0140815181FC0138
:100F400051834083FB01318320830895CF92DF9248
:100F5000EF92FF920F931F93CF93DF938901061BAC
:100F6000170BEA01C81BD90BB801012E000C880B26
:100F7000990B0E94A61E6B017C01E894F7F8BE0154
:100F80000D2E000C880B990B0E94A61E9B01AC0134
:100F90005F77C701B6010E94AE1F181694F417FFC1
:100FA00009C02D2F221F2227221F86E090E0821BDE
:100FB000910918C08D2F881F8827881F90E00196FF
:100FC00011C017FF05C0D7FD08C087E090E00AC038
:100FD000D7FD06C080E090E005C084E090E002C04C
:100FE00083E090E0DF91CF911F910F91FF90EF9000
:100FF000DF90CF9008952AE230E020930040909354
:1010000000418093004190930041809300418BE226
:1010100090E0809300407093004160930041709392
:101020000041609300418CE290E080930040509337
:1010300000414093004108952F923F924F925F925A
:101040006F927F928F929F92AF92BF92CF92DF92D8
:10105000EF92FF920F931F93CF93DF93CDB7DEB73D
:10106000A6970FB6F894DEBF0FBECDBF2B013C0193
:1010700069837A838B839C83298B3A8B4B8B5C8B24
:101080002D833E834F835887ED8AFE8A0F8B188FFE
:10109000E986FA860B871C87C601B501AD86BE8638
:1010A000CF86D88A14010E948A1D6B017C01E894C6
:1010B000F7F8A30192016D897E898F89988D0E942E
:1010C0008A1D9B01AC015F77C701B6010E948A1D92
:1010D000698F7A8F8B8F9C8F20E030E0A9010E946E
:1010E000AE1F181674F4BE016F5F7F4FCE010596D8
:1010F0000E94D006BE01675F7F4FCE010D960E9411
:10110000D00629853A854B855C8569817A818B81FA
:101110009C810E94AE1F181674F4BE01675F7F4F5A
:10112000CE0101960E94D006BE016B5F7F4FCE01BB
:101130000D960E94D006C980DA80EB80FC804D803D
:101140005E806F807884A30192016D857E858F8596
:1011500098890E948A1D4B015C01A701960169854F
:101160007A858B859C850E948A1D9B01AC01C501F7
:10117000B4010E94FC1D6D8F7E8F8F8F98A320E09D
:1011800030E040E05FE3C701B6010E948B1D4B01D8
:101190005C010E946E1E698B7A8B8B8B9C8B2989DC
:1011A0003A89B901330F880B990B0E94A61EA7013B
:1011B00096010E948A1D2D8D3E8D4F8D58A10E9453
:1011C000B31FA30192010E948B1D6B017C01C5011D
:1011D000B4010E94C5064B015C01C701B6010E9423
:1011E000751E2B013C0120E030E0A901698D7A8D4C
:1011F0008B8D9C8D0E94AE1F1816C4F5C701B601D9
:101200000E94C5069B01AC01C501B4010E94B31F39
:1012100020E030E040E85FE30E948B1DAB01BC01A1
:10122000C1010E949701AC0169897A89C2010E94BB
:10123000FB07C701B6010E9498069B01AC01C501DE
:10124000B4010E94B31F20E030E040E85FE30E9459
:101250008B1DAB01BC01C1010E9497013FEF431AF6
:10126000530AAC0169897A89C20136C0C701B60147
:101270000E94C5069B01AC01C501B4010E94B31FC9
:1012800020E030E040E85FE30E948B1DAB01BC0131
:10129000C1010E949701AC01B20189899A890E941B
:1012A000FB07C701B6010E9498069B01AC01C5016E
:1012B000B4010E94B31F20E030E040E85FE30E94E9
:1012C0008B1DAB01BC01C1010E949701B2016F5F90
:1012D0007F4FAC0189899A890E94FB07A70196017B
:1012E0006D8D7E8D8F8D98A10E948B1D2B013C01F1
:1012F000C984DA84EB84FC8420E030E040E05FE3E2
:10130000C701B6010E948B1D4B015C010E946E1E3D
:101310006D8B7E8B8F8B988F2D893E89B901330F12
:10132000880B990B0E94A61EA70196010E948A1D98
:101330002D8D3E8D4F8D58A10E94B31F2D853E856A
:101340004F8558890E948B1D6B017C01C501B4013A
:101350000E94C5064B015C018D899E899EA38DA3C9
:10136000C701B6010E94751E69A37AA38BA39CA333
:1013700020E030E0A901698D7A8D8B8D9C8D0E94D3
:10138000AE1F181664F5C701B6010E94C5069B0181
:10139000AC01C501B4010E94B31FAB01BC01C10186
:1013A0000E949701AC016D897E8989A19AA10E9452
:1013B000FB07C701B6010E9498069B01AC01C5015D
:1013C000B4010E94B31FAB01BC01C1010E9497018F
:1013D000AC0189A19AA101966D897E892CC0C701B3
:1013E000B6010E94C5069B01AC01C501B4010E9473
:1013F000B31FAB01BC01C1010E949701AC0169A1FF
:101400007AA18D899E890E94FB07C701B6010E94BF
:1014100098069B01AC01C501B4010E94B31FAB014A
:10142000BC01C1010E94970169A17AA16F5F7F4F42
:10143000AC018D899E890E94FB0709891A890F5F7B
:101440001F4F8DA19EA10817190708F05FC020E06B
:1014500030E0A901698D7A8D8B8D9C8D0E94AE1F25
:1014600018162CF5C301B2010E94C506AB01BC01E0
:10147000C1010E9497017C01C301B2010E94751E47
:101480004B015C01A701B801C4010E94FB07C30125
:10149000B2010E949806AB01BC01C1010E949701F4
:1014A0002FEF821A920AAC01B801C40122C0C30115
:1014B000B2010E94C506AB01BC01C1010E949701A7
:1014C0007C01C301B2010E94751E4B015C01A701A2
:1014D000C8010E94FB07C301B2010E949806AB013C
:1014E000BC01C1010E949701B4016F5F7F4FAC0145
:1014F000C8010E94FB072D8D3E8D4F8D58A1C30161
:10150000B2010E948B1D2B013C0199CFA6960FB60C
:10151000F894DEBF0FBECDBFDF91CF911F910F9129
:10152000FF90EF90DF90CF90BF90AF909F908F9003
:101530007F906F905F904F903F902F9008952F92E3
:101540003F924F925F926F927F928F929F92AF9253
:10155000BF92CF92DF92EF92FF920F931F93CF93A0
:10156000DF93CDB7DEB760970FB6F894DEBF0FBE3E
:10157000CDBF9E838D8378876F835A8749873C8749
:101580002B871801A8010E94FB072B853C85498504
:101590005A856F8178858D819E810E94A6075C01A6
:1015A000AC01BE01695F7F4FCE0105960E944507E1
:1015B000A501BE01655F7F4FCE0109960E944507D8
:1015C0008F8098840D811E8189859A85801B910B5F
:1015D000CB84DC84C818D908CC0CDD1C0D2C000C85
:1015E000EE08FF08AC01092E000C660B770B2601F4
:1015F0003701441A550A660A770A0F5F1F4F880F92
:10160000991F9C01990F440B550B2D873E874F87DF
:10161000588B89859A858017910774F1D301C2018F
:101620008C0D9D1DAE1DBF1D77FE03C02C013D011D
:101630000DC03FEF831A930A2C013D012D853E8595
:101640004F855889421A530A640A750A1C830B8312
:101650009A828982A501BE016F5F7F4FCE010396FA
:101660000E94F10669817A81A1018B819C810E948F
:10167000FB070F5F1F4FCDCF60960FB6F894DEBF0C
:101680000FBECDBFDF91CF911F910F91FF90EF90D3
:10169000DF90CF90BF90AF909F908F907F906F9092
:1016A0005F904F903F902F9008952F923F924F92CE
:1016B0005F926F927F928F929F92AF92BF92CF92E2
:1016C000DF92EF92FF920F931F93CF93DF93CDB7EB
:1016D000DEB728970FB6F894DEBF0FBECDBF6C0102
:1016E0005B014A0128013901AC0160E070E0CB01E7
:1016F0000E94C305382E292EA50160E070E0CB01C1
:101700000E94C30589839A83780168867F8220E0DE
:1017100030E040E85FE3B201C3010E948B1D9B01F2
:10172000AC01B70188859F810E94F71D87FF2BC000
:10173000A601B70188859F810E94C3058B839C8386
:10174000A501B70188859F810E94C3058D839E8373
:1017500084019C014B815C8169817A81832D922D6A
:101760000E949F0A9201A301B70188859F810E9470
:101770008B1D7B0188879F838D8189838E818A83DE
:101780003B802C80C4CF28960FB6F894DEBF0FBEE6
:10179000CDBFDF91CF911F910F91FF90EF90DF9020
:1017A000CF90BF90AF909F908F907F906F905F9001
:1017B0004F903F902F9008952F923F924F925F92BB
:1017C0006F927F928F929F92AF92BF92CF92DF9251
:1017D000EF92FF920F931F93CF93DF93CDB7DEB7B6
:1017E0002C970FB6F894DEBF0FBECDBF9C838B83C2
:1017F0007E836D835A874987922E832EAC0160E0E9
:1018000070E0CB010E94C3057C014D815E8160E0E8
:1018100070E0CB010E94C3055C019801492D582D51
:1018200060E070E080E89FE30E94FC1D20E030E073
:1018300040EC5FE30E948B1D0E94751E7A836983D2
:101840009B01220F331F38872F83C9010E9420205C
:10185000782E692E8F8198850E9420206C018B87BD
:10186000DC86EB85FC85A192B192FC87EB87A72CE7
:10187000B62CF501E192F1925F01502E412E140138
:10188000EE24E394F12C89819A81E816F90678F523
:101890004B815C81652D742D832D922D0E94C30593
:1018A00098878F834D815E81652D742D832D922DB8
:1018B0000E94C305EB85FC8581939193FC87EB87A0
:1018C000F5012F813885219331935F019801492DCE
:1018D000582D652D742D832D922D0E948B1D562E13
:1018E000472E382E292E3FEFE31AF30ACCCFCB82B6
:1018F000DC82E72CF62C812C912C5C0191E0A91A5A
:10190000B1088A149B04E0F4EFEF8E1A9E0AAB81B3
:10191000BC81F70112962D913C911397CD0102964F
:101920009C838B834281538192E0E90EF11C6D917F
:101930007C9109851A85808191810E949F0AE1CF5F
:10194000C6010E94B820872D962D2C960FB6F894CC
:10195000DEBF0FBECDBFDF91CF911F910F91FF90E2
:10196000EF90DF90CF90BF90AF909F908F907F903F
:101970006F905F904F903F902F900C94B8202F92D3
:101980003F924F925F926F927F928F929F92AF920F
:10199000BF92CF92DF92EF92FF920F931F93CF935C
:1019A000DF9300D000D000D0CDB7DEB75C014B0193
:1019B0008A017901C12CD12C1E821D828D819E81CC
:1019C000081719070CF464C0A7014D805E80480C0D
:1019D000591CB201C8018A0D9B1D9C838B830E94F8
:1019E000FB07A7013801680C791CB3018D819E812A
:1019F0008A0D9B1D9A8389830E94FB07A701B3016F
:101A000015018D819E81281A390AC1010E94FB07A8
:101A1000A701B2013501601A710AC3010E94FB07D8
:101A2000A70124018D819E81481A590AB201C30180
:101A30000E94FB07A7013401601A710AB301C101BA
:101A40000E94FB07A701B30189819A810E94FB07CD
:101A5000A701B2018B819C810E94FB071C141D040D
:101A600074F08D819E8101969E838D83880F991FCE
:101A70000196C80ED91E1C141D040CF09FCF0150F6
:101A80001109C801880F991F0196C81AD90A96CF63
:101A900026960FB6F894DEBF0FBECDBFDF91CF9173
:101AA0001F910F91FF90EF90DF90CF90BF90AF907C
:101AB0009F908F907F906F905F904F903F902F906E
:101AC00008954F925F926F927F928F929F92AF9202
:101AD000BF92CF92DF92EF92FF920F931F93CF931B
:101AE000DF93EC017B016A0159014B01820E931EC9
:101AF0003C01640E751EA801B401C3010E94FB07DE
:101B00002E014C185D08A801B401C2010E94FB0718
:101B100047018A189B08A801B401C3010E94FB0772
:101B2000A801B401C2010E94FB0747018C0C9D1C57
:101B300035016C0E7D1EA801B401C3010E94FB0794
:101B4000CA19DB09A801B401CE010E94FB07EC18F9
:101B5000FD08A801B701C3010E94FB07A801B70156
:101B6000CE01DF91CF911F910F91FF90EF90DF9009
:101B7000CF90BF90AF909F908F907F906F905F902D
:101B80004F900C94FB078DB18F748DB98EB1806B23
:101B90008EB987B1837C87B988B18C6388B9EAE64E
:101BA000F0E080818568808308958CB1807349F46A
:101BB00090912702903281F0909127029031E1F4C8
:101BC00013C08033C9F490912702903129F090918D
:101BD0002702903289F408C0909126029150909388
:101BE00026028033A1F306C0909126029F5F909356
:101BF000260202C0882301F38093270280912602E7
:101C0000089586B18C7308951F920F920FB60F92AC
:101C100011240BB60F922F933F934F935F936F93C3
:101C20007F938F939F93AF93BF93EF93FF930E9404
:101C3000D50D87EC90E00197F1F700C00000FF910F
:101C4000EF91BF91AF919F918F917F916F915F9134
:101C50004F913F912F910F900BBE0F900FBE0F90A1
:101C60001F9018951F920F920FB60F9211248F9309
:101C700080910201882309F447C08091260218163A
:101C8000FCF480912C0280932A0280912B02809395
:101C9000290280912C02882321F080912C0281500E
:101CA0000AC080912B02882341F080912B02815041
:101CB00080932B0287E080932C0281E0809328029E
:101CC0008091260287FF20C080912C0280932A02F7
:101CD00080912B028093290280912C02873030F46E
:101CE00080912C028F5F80932C020BC080912B027D
:101CF000873038F480912B028F5F80932B021092F3
:101D00002C0281E080932802109226028F910F907E
:101D10000FBE0F901F90189597E0961B28E0929F9A
:101D2000800D11240895282F26952695269597E055
:101D3000921BFA0190838770FB01808308950F93B3
:101D40001F93CF93DF93CDB7DEB728970FB6F894E4
:101D5000DEBF0FBECDBF8A012EE1829FC0011124DC
:101D6000DC0198968A5B9F4F482F9C838B838EE182
:101D7000689FF0011124CF014E9698878F832A2FF8
:101D8000BA83A9836E2FFE83ED833A815C817E81C5
:101D900098850E94CE0228960FB6F894DEBF0FBE3B
:101DA000CDBFDF91CF911F910F9108950F931F9396
:101DB000CF93DF9300E010E0C0E0D0E0C8018C0FCB
:101DC0009D1F80FD03C04CE255EF02C042E25AE87D
:101DD0006C2F802F0E949F0E2196C830D10571F77D
:101DE0000F5F1F4F0830110539F7DF91CF911F9119
:101DF0000F910895CF93DF9328E0829FE001112493
:101E0000CC5BDD4FC60FD11D98819923C9F09EE1AF
:101E1000699FB0011124695F7F4F2EE1829FC0014D
:101E200011248F960E949A058881E0910001F0911B
:101E30000101E80FF11D8081DF91CF910C94B30473
:101E4000DF91CF910895CF93DF938091280288236B
:101E500009F465C0F89490912A0280912902890FB3
:101E600080FD03C0CCE2D5EF02C0C2E2DAE8909177
:101E70002902E0912A0287E0891B98E0899FE00D02
:101E8000112488E0E89FF0011124EC57FB4F2081DA
:101E900080913C022823318180913D023823428188
:101EA00080913E024823538180913F0258236481F0
:101EB0008091400268237581809141027823A68138
:101EC00080914202E781909143028A239E23A0E001
:101ED0000E947E1D31F080912D02882311F0C7EB06
:101EE000DDEF6091290280912A02AE010E949F0ECF
:101EF0006091290280912A020E94FA0E60912B02C1
:101F000080912C0249EF56E40E949F0E60912B02B3
:101F100080912C020E94FA0E109228027894DF9190
:101F2000CF910895EF92FF920F931F93CF93DF937A
:101F3000C4E8D4E010E087E0E82E288139814A81A6
:101F40005B816C817D818E819F812896E0913C022E
:101F50002E23E0913D023E23E0913E024E23E0918C
:101F60003F025E23E09140026E23E09141027E2316
:101F7000F0914202E09143028F239E23A0E00E9451
:101F80007E1DC9F0812F869586958695FE2CF81AC0
:101F9000012F0770802F8F0D80FD03C04CE255EF9D
:101FA00002C042E25AE86F2D802F0E949F0E6F2DD3
:101FB000802F0E94FA0E1F5F103409F0BECF1092DE
:101FC0003C0210923D0210923E0210923F0210928B
:101FD0004002109241021092420210924302DF919D
:101FE000CF911F910F91FF90EF900895CF93DF93C2
:101FF000C091020180E0D1E067992FC0F89481116F
:1020000003C08091020101C08C2F60912B028823B4
:1020100099F080912C0240E054E00E949F0E609164
:102020002B0280912C020E94FA0E10920201109253
:102030002D020E94920F0EC080912C0249EF56E4AF
:102040000E949F0E60912B0280912C020E94FA0E3A
:10205000D0930201789481E0CFCFDF91CF910895A2
:10206000EF92FF920F931F93CF93DF93C4E8D4E0D6
:1020700010E087E0E82E288139814A815B816C81FC
:102080007D818E819F812896E0913C022E23E091F4
:102090003D023E23E0913E024E23E0913F025E234B
:1020A000E09140026E23E09141027E23F0914202D2
:1020B000E09143028F239E23A0E00E947E1D91F0B9
:1020C000812F869586958695FE2CF81A47EB5DEF55
:1020D0006F2D012F0770802F0E949F0E6F2D802F74
:1020E0000E94FA0E1F5F103431F6DF91CF911F91DD
:1020F0000F91FF90EF900895CF93DF93D0E0C0E071
:102100006C2F8D2F0E94FA0ECF5FC830C9F7DF5FAA
:10211000D830A9F7DF91CF9108950F931F93CF93F4
:10212000DF9309E012E0C0E0F801D1918F01DD23D7
:1021300079F08FE0C89FB00111246A5E7F4F8FE075
:1021400090E00E949A058D2F0E94B304CF5FECCFE0
:10215000DF91CF911F910F910895122FF32EE42E4E
:10216000D52EC62EB72EA82E992EF894C0E0D0E01A
:1021700087E0882E8C2F869586958695F82DF81BFE
:10218000EC2FE770212F3F2D4E2D5D2D6C2D7B2DDB
:102190008A2D992D0C2F0E94621D217030E040E0A5
:1021A00050E060E070E080E090E0A0E00E947E1DE2
:1021B00019F04FEF5FEF02C040E154E86F2F8E2F10
:1021C0000E949F0E2196C034D105A1F6FFCF0F9338
:1021D00010928C0210928D0210928E0210928F0239
:1021E0001092900210929102109292021092930219
:1021F00031E83093A4021092A5021092A602109228
:10220000A7021092A8021092A9021092AA0210929C
:10221000AB021092940210929502109296021092C4
:102220009702109298021092990210929A021092BC
:102230009B0224E220939C0210929D0210929E0227
:1022400010929F021092A0021092A1021092A2027C
:102250001092A30298E09093AC021092AD021092FB
:10226000AE021092AF021092B0021092B102109220
:10227000B2021092B30280E18093B4021092B502D0
:102280001092B6021092B7021092B8021092B902E0
:102290001092BA021092BB021092BC021092BD02C0
:1022A0001092BE021092BF021092C0021092C102A0
:1022B0001092C2021092C3021092D4021092D50260
:1022C0001092D6021092D7021092D8021092D90220
:1022D0001092DA023093DB021092C4021092C5020F
:1022E0001092C6021092C7021092C8021092C90240
:1022F0001092CA021092CB021092CC021092CD0220
:102300001092CE021092CF021092D0021092D102FF
:102310001092D2022093D3021092DC021092DD02BE
:102320001092DE021092DF021092E0021092E1029F
:102330001092E2029093E3021092E4021092E502FE
:102340001092E6021092E7021092E8021092E9025F
:102350001092EA028093EB028DEB8093EC021092D4
:10236000ED021092EE021092EF021092F002109223
:10237000F1021092F2021092F3021092F402109203
:10238000F5021092F6021092F7021092F8021092E3
:10239000F9021092FA028093FB028093FC021092E1
:1023A000FD021092FE021092FF02109200031092A2
:1023B00001031092020380930303E4E8F4E0A0E039
:1023C000B0E021E030E040E050E060E070E080E02C
:1023D00090E00A2F0E94471D20833183428353835C
:1023E000648375838683978338961196A034B105EC
:1023F00041F780E4E4E4F2E0DF011D928A95E9F719
:1024000097E081E0918386833896B2E0E438FB0759
:10241000C9F78AE08093440298E090934C0229E047
:10242000209354023BE030935C023CE03093640222
:1024300020936C029093740280937C0284E08093DA
:102440004B0292E09093530223E020935B0235E02D
:102450003093630236E030936B02209373029093C3
:102460007B02809383020F9108952F923F924F92A7
:102470005F926F927F928F929F92AF92BF92CF9214
:10248000DF92EF92FF920F931F93CF93DF93CDB71D
:10249000DEB765970FB6F894DEBF0FBECDBF39012A
:1024A0004A016D8B7C8BB82FA92FA88AB98A0A8B19
:1024B0001B8B822F8F778983872D8F778A83842F39
:1024C0008F778B83892D8F778C83162F1F77872F9C
:1024D0008F778D838B2F8F778E83892F8F778F8345
:1024E000822F8E7F8887872D8E7F8987842F8E7F8E
:1024F0008A87892D8E7F8B87862F8E7F8C87872F6B
:102500008E7F8D878B2F8E7F8E87892F8E7F8F87F3
:102510008B2F08E00E94471D19012A015B01F82F4B
:10252000E92F9301A4016D897C898B2F9A2F0E943A
:10253000621D222A332A442A552AA62AB72AF82BB2
:10254000E92B29813A814B815C81612F7D818E81CC
:102550009F8107E00E94471D222A332A442A552AD8
:10256000A62AB72AF82BE92B29813A814B815C8175
:10257000612F7D818E819F8109E00E94471D222A63
:10258000332A442A552AA62AB72AF82BE92B29816F
:102590003A814B815C81612F7D818E819F8101E039
:1025A0000E94471D222A332A442A552AA62AB72ADE
:1025B000F82BE92B288539854A855B856C857D85D7
:1025C0008E859F8507E00E94621D222A332A442AB5
:1025D000552AA62AB72AF82BE92B288539854A855A
:1025E0005B856C857D858E859F8509E00E94621DD7
:1025F000222A332A442A552AA62AB72AF82BE92B5D
:10260000288539854A855B856C857D858E859F8586
:1026100001E00E94621D222A332A442A552AA62A52
:10262000B72AF82BE92B28892095A989A095C09471
:10263000D094E094F0948A8980959B89909522218A
:10264000332D3A23442D4C21552D5D216A2D6E21C9
:102650007B2D7F218F239E2365960FB6F894DEBFD6
:102660000FBECDBFDF91CF911F910F91FF90EF90E3
:10267000DF90CF90BF90AF909F908F907F906F90A2
:102680005F904F903F902F9008952F923F924F92DE
:102690005F926F927F928F929F92AF92BF92CF92F2
:1026A000DF92EF92FF920F931F93CF93DF93CDB7FB
:1026B000DEB76D970FB6F894DEBF0FBECDBFA88E04
:1026C000B98ECA8E0B8FE22FEC7FE983E32FEC7F6C
:1026D000EA83E42FEC7FEB83E52FEC7FEC83E62F9E
:1026E000EC7FED83E72FEC7FEE83E82FEC7FEF8329
:1026F000E92FEC7FE887E22FEE7FE987E32FEE7F7B
:10270000EA87E42FEE7FEB87E52FEE7FEC87E62F5D
:10271000EE7FED87E72FEE7FEE87E82FEE7FEF87E6
:10272000E92FEE7FE88BE22FEF772E2EE32FEF7766
:102730003E2EE42FEF774E2EE52FEF775E2EE62F1D
:10274000EF776E2EE72FEF77E98BE82FEF77EA8BA5
:10275000E92FEF77EB8B2F732C8B3F733D8B4F73F0
:102760004E8B5F735F8B6F736D8F7F737C8FB82F12
:10277000BF73A92FAF7329813A814B815C816D8131
:102780007E818F81988506E00E94471D722E832EE0
:10279000942EA52EB62EC72EF82FE92F29853A851F
:1027A0004B855C856D857E858F8598890FE00E94BD
:1027B000471D722A832A942AA52AB62AC72AF82BEB
:1027C000E92B9101A201662D79898A899B8901E112
:1027D0000E94471D722A832A942AA52AB62AC72A4C
:1027E000F82BE92B2C893D894E895F896D8D7C8D75
:1027F0008B2F9A2F0AE00E94471D722A832A942A5F
:10280000A52AB62AC72AF82BE92B2C893D894E899F
:102810005F896D8D7C8D8B2F9A2F06E00E94621D43
:10282000722A832A942AA52AB62AC72AF82BE92BCA
:102830009101A201662D79898A899B890FE00E9406
:10284000621D722A832A942AA52AB62AC72AF82B3F
:10285000E92B29853A854B855C856D857E858F853D
:10286000988901E10E94621D722A832A942AA52A6E
:10287000B62AC72AF82BE92B29813A814B815C8142
:102880006D817E818F8198850AE00E94621D722A87
:10289000832A942AA52AB62AC72AF82BE92B288D41
:1028A0002095B98DB095AA8DA095D094E094F09420
:1028B0008B8D8095912F90952721382D3B23492D85
:1028C0004A235A2D5D216B2D6E217C2D7F218F2374
:1028D0009E236D960FB6F894DEBF0FBECDBFDF917D
:1028E000CF911F910F91FF90EF90DF90CF90BF900D
:1028F000AF909F908F907F906F905F904F903F90A0
:102900002F9008952F923F924F925F926F927F92F5
:102910008F929F92AF92BF92CF92DF92EF92FF92EF
:102920000F931F93CF93DF93CDB7DEB72F970FB6DB
:10293000F894DEBF0FBECDBF29833A83142F5D8785
:102940006C87B72F8B83A92F4CEF52E0FA0180815F
:1029500080958E87818180958F87428040944C82BC
:10296000538050945D826481A62EA0947581B72E09
:10297000B0948681E82EE0949781F92EF094412F4F
:102980005D856C857B2F8B819A2F08E00E94471D07
:10299000FE85F223FE83EF85E323D42CD422F52D8C
:1029A000F523F8876A2169877B217A87882E8E2014
:1029B000992E9F2029812E7F3A813E7F412F4E7F85
:1029C0005D855E7F6C856E7F7B2F7E7F8B818E7FAA
:1029D0009A2F9E7F07E00E94471D19012A013B01A3
:1029E000C82EF92F29812F773A813F77412F4F77D2
:1029F0005D855F776C856F777B2F7F778B818F7796
:102A00009A2F9F7709E00E94471D222933294429E4
:102A10005529662977298C299F2BA4EFB2E02C90A9
:102A200022213090F50233214090F602442150904B
:102A3000F70255216090F80266217090F902772123
:102A4000C090FA028C21A091FB029A232E80222AA8
:102A50003E2E332A442E4D285884552A6984662AEE
:102A60007A84772A882A992A20E030E04D2D50E098
:102A700060E070E080E090E008E00E94471DEE8595
:102A80002E23FF853F23EC814E23FD815F236A21A6
:102A90007B218E219F21222933294429552966290A
:102AA0007729882999292F960FB6F894DEBF0FBE93
:102AB000CDBFDF91CF911F910F91FF90EF90DF90ED
:102AC000CF90BF90AF909F908F907F906F905F90CE
:102AD0004F903F902F9008952F923F924F925F9288
:102AE0006F927F928F929F92AF92BF92CF92DF921E
:102AF000EF92FF920F931F93CF93DF93CDB7DEB783
:102B00002F970FB6F894DEBF0FBECDBF29833A834F
:102B1000142F5D876C87B72F8B83A92F2CEF32E0A2
:102B2000F901808180958E87818180958F87428190
:102B300040954C83538150955D836481A62EA0946B
:102B40007581B72EB0948681E82EE0949781F92E96
:102B5000F09429813A81412F5D856C857B2F8B8193
:102B60009A2F08E00E94621DFE85F223FE83EF8506
:102B7000E323EF83FC81F423F887ED81E5236A21C9
:102B80006A87D72EDB20882E8E20992E9F202981C0
:102B90002E7F3A813E7F412F4E7F5D855E7F6C8523
:102BA0006E7F7B2F7E7F8B818E7F9A2F9E7F09E0A9
:102BB0000E94621D19012A013B01C82EF92F2981AB
:102BC0002F773A813F77412F4F775D855F776C850F
:102BD0006F777B2F7F778B818F779A2F9F7707E097
:102BE0000E94621D22293329442955296629772903
:102BF0008C299F2BA4EFB2E02C9022213090F5027B
:102C000033214090F60244215090F7025521609004
:102C1000F80266217090F9027721C090FA028C21A7
:102C2000A091FB029A232E80222A3F80332A4884D7
:102C3000442A5E2E552A6A84662A772E7D28882AA1
:102C4000992A20E030E040E050E060E07D2D80E017
:102C500090E008E00E94621DFE852F23EF853E2351
:102C6000FC814F23ED815E236A217B218E219F21F0
:102C70002229332944295529662977298829992920
:102C80002F960FB6F894DEBF0FBECDBFDF91CF9168
:102C90001F910F91FF90EF90DF90CF90BF90AF907A
:102CA0009F908F907F906F905F904F903F902F906C
:102CB00008952F923F924F925F926F927F928F92E0
:102CC0009F92AF92BF92CF92DF92EF92FF920F93BB
:102CD0001F93CF93DF93CDB7DEB763970FB6F8940A
:102CE000DEBF0FBECDBF122F032FF42EE52ED62E42
:102CF000C72EB82EA92EB8A5BB87B9A5BC87BAA583
:102D0000BD87BBA5BE87BCA5BF87BDA5B88BBEA52B
:102D1000B98BBFA5BA8BE9E0F1E0B0E02081318149
:102D20004281538164817581868197813896212300
:102D300030234F215E216D217C218B219A21A0E03F
:102D40000E947E1D19F4BF5FB83041F7E9E8F1E059
:102D5000912C2081318142815381648175818681EA
:102D600097813896212330234F215E216D217C21CC
:102D70008B219A21A0E00E947E1D21F4939428E0EB
:102D80009212E7CFCB2E38E0939EC00C1124B09165
:102D9000FC02BB83B091FD02BC83B091FE02BD83F7
:102DA000B091FF02BE83B0910003BF83B0910103D5
:102DB000B887B0910203B987B0910303BA87BC2CDE
:102DC000D12CE12CF12C00E010E01B8AF0E0E0E0D7
:102DD00027E32B150CF44FC028E0B20E38E0B39E69
:102DE000C00111248C579B4FDC013C9011964C90F4
:102DF000119712965C90129713966C9013971496F5
:102E00007C90149715968C90159716969C90169713
:102E10001796AC902B8123213C8134214D81452193
:102E20005E8156216F816721788578218985892186
:102E30009A859A21A0E00E947E1DF9F02B8523211E
:102E40003C8534214D8545215E8556216F8567215E
:102E500078897821898989219A899A210E947E1D01
:102E600051F0D328E428F52806291729BB89B82969
:102E7000BB8BF929EA29BC2C47C0D328E428F528C4
:102E800006291729BB89B829BB8BF929EA29A0CFC4
:102E900038EFB30EA8E0BA9EC00111248C579B4FA7
:102EA000DC013C9011964C90119712965C90129711
:102EB00013966C90139714967C90149715968C909B
:102EC000159716969C9016971796AC902B812321F8
:102ED0003C8134214D8145215E8156216F816721DE
:102EE00078857821898589219A859A21A0E00E9498
:102EF0007E1D71F4D328E428F52806291729BB89FB
:102F0000B829BB8BF929EA2927E02B150CF21DC043
:102F10002B8523213C8534214D8545215E85562115
:102F20006F85672178897821898989219A899A21F1
:102F30000E947E1D51F0D328E428F5280629172980
:102F4000BB89B829BB8BF929EA293C2D387FA32EF0
:102F500087E0830FBC2CA82FB0E0BA83A9838B2D08
:102F60000B2C000C990B29813A81821793070CF0E6
:102F70004FC0B394BB2D28E0B202C00111248C577E
:102F80009B4FDC012C9011963C90119712964C901F
:102F9000129713965C90139714966C90149715964D
:102FA0007C90159716968C90169717969C902B816F
:102FB00022213C8133214D8144215E8155216F8145
:102FC000662178857721898588219A859921A0E0D5
:102FD0000E947E1DF9F02B8522213C8533214D85F1
:102FE00044215E8555216F856621788977218989FD
:102FF00088219A8999210E947E1D51F0D228E328C8
:10300000F42805291629BB89B729BB8BF829E9299A
:10301000B12C47C0D228E328F42805291629BB89FA
:10302000B729BB8BF829E9299ACFCA943C2DA8E08F
:103030003A02C00111248C579B4FDC012C90119651
:103040003C90119712964C90129713965C901397A0
:1030500014966C90149715967C90159716968C90F4
:10306000169717969C902B8122213C8133214D810C
:1030700044215E8155216F8166217885772189857C
:1030800088219A859921A0E00E947E1D99F4D2287A
:10309000E328F42805291629BB89B729BB8BF82911
:1030A000E9298C2D0C2C000C990BA816B9060CF4F0
:1030B000BCCF1DC02B8522213C8533214D85442169
:1030C0005E8555216F8566217889772189898821D8
:1030D0009A8999210E947E1D51F0D228E328F42874
:1030E00005291629BB89B729BB8BF829E9292D2D7C
:1030F0003E2D4F2D502F612F7B898F2F9E2F639652
:103100000FB6F894DEBF0FBECDBFDF91CF911F91F8
:103110000F91FF90EF90DF90CF90BF90AF909F9076
:103120008F907F906F905F904F903F902F90089579
:103130002F923F924F925F926F927F928F929F92C7
:10314000AF92BF92CF92DF92EF92FF920F931F93B5
:10315000CF93DF93CDB7DEB76E970FB6F894DEBF8F
:103160000FBECDBF922E832E742E652E562E472E67
:10317000382E292E2BA92D838CA98E839DA99F8360
:10318000AEA9A887BFA9B987E8ADEA87F9ADFB87E3
:103190002AAD2C872F93FF93EF93BF93AF939F9309
:1031A0008F938D818F93292D832D922D0E945916F7
:1031B0000FB6F894DEBF0FBECDBF2E8B3F8B488F6E
:1031C000598F6A8F7B8F8C8F9D8FE9E0F1E0B0E0A3
:1031D000208131814281538164817581868197810B
:1031E00038962921382147215621652174218321D0
:1031F0009221A0E00E947E1D19F4BF5FB83041F714
:10320000E9E8F1E010E0208131814281538164815D
:103210007581868197813896292138214721562149
:103220006521742183219221A0E00E947E1D19F462
:103230001F5F183041F7E8E01E9FB00D11248B2F5F
:1032400086958695869597E0981B9C83B7702B2E64
:10325000F091FC02FE87B091FD02BF87E091FE0273
:10326000E88BF091FF02F98BB0910003BA8BE091EB
:103270000103EB8BF0910203FC8BB0910303BD8B38
:10328000920D9D87FC81E9E0FE9F901911249A839D
:10329000C22C312CD12CE12CF12C00E010E01E8E40
:1032A000F0E0E0E09F5B998326E02C1568F4BA819A
:1032B0008C8127E0829FB00D1124B983C22C312C60
:1032C000BA81B15CBB83A5C0BD85CB1681F3C39425
:1032D0008981830D28E0829FC00111248C579B4F68
:1032E000DC014C9011965C90119712966C9012979D
:1032F00013967C90139714968C90149715969C9027
:1033000015971696AC9016971796BC90B9E03B0EA1
:103310002E8524213F853521488946215989572109
:103320006A8968217B8979218C898A219D899B21E1
:10333000A0E00E947E1DF9F02D8124213E813521DF
:103340004F81462158855721698568217A857921E1
:103350008B858A219C859B210E947E1D09F4A7CF25
:10336000D428E528F62807291829BE8DB929BE8F4B
:10337000FA29EB299CCFD428E528F6280729182913
:10338000BE8DB929BE8FFA29EB298ECFB981CB1614
:1033900009F441C0CA948B81830D28E0829FC0014B
:1033A00011248C579B4FDC014C9011965C90119727
:1033B00012966C90129713967C90139714968C909B
:1033C000149715969C9015971696AC90169717968D
:1033D000BC90B7E03B0E2E8524213F8535214889DE
:1033E0004621598957216A8968217B8979218C89ED
:1033F0008A219D899B21A0E00E947E1D91F4D42802
:10340000E528F62807291829BE8DB929BE8FFA2983
:10341000EB29C110BBCFCC80312CBA81B15DB9830F
:1034200062C02D8124213E8135214F81462158855E
:103430005721698568217A8579218B858A219C8528
:103440009B210E947E1D39F3D428E528F628072900
:103450001829BE8DB929BE8FFA29EB29DCCF8C2D16
:1034600090E007970CF042C0C3948981830D28E057
:10347000829FC00111248C579B4FDC014C90119608
:103480005C90119712966C90129713967C901397FC
:1034900014968C90149715969C9015971696AC9050
:1034A00016971796BC90B7EF3B0E2E8524213F85CB
:1034B000352148894621598957216A8968217B89A4
:1034C00079218C898A219D899B21A0E00E947E1D03
:1034D000A9F4D428E528F62807291829BE8DB9298A
:1034E000BE8FFA29EB29BD85CB12B9CFC22C212C76
:1034F000BC80BC18BA81BF5CBA8360C02D81242116
:103500003E8135214F8146215885572169856821A3
:103510007A8579218B858A219C859B210E947E1D3D
:1035200029F3D428E528F62807291829BE8DB929BA
:10353000BE8FFA29EB29DACF873008F065C0C39433
:103540008A81820D28E0829FC00111248C579B4FF5
:10355000DC013C9011964C90119712965C9012975A
:1035600013966C90139714967C90149715968C90E4
:10357000159716969C9016971796AC90B9EF2B0E50
:103580002E8523213F85342148894521598956219B
:103590006A8967217B8978218C8989219D899A2173
:1035A000A0E00E947E1D99F4D328E428F52806297E
:1035B0001729BE8DB829BE8FF929EA298B2D8C0DCC
:1035C0002C2D30E0273031050CF4B6CF1DC02D81F5
:1035D00023213E8134214F8145215885562169851B
:1035E00067217A8578218B8589219C859A210E9483
:1035F0007E1D51F0D328E428F52806291729BE8D11
:10360000B829BE8FF929EA292E892D293F893E291B
:10361000488D4F29598D502B6A8D612B7B8DBE8D26
:103620007B2B8C8D8F2B9D8D9E2B6E960FB6F894D9
:10363000DEBF0FBECDBFDF91CF911F910F91FF90E5
:10364000EF90DF90CF90BF90AF909F908F907F9042
:103650006F905F904F903F902F900895AF92BF92E0
:10366000CF92DF92EF92FF920F931F93809102010E
:103670008111CDC180912D028111C9C180912B0290
:10368000E0912C0297E0981B8E2F28E0929F800DEE
:103690001124E0912C0290912B0228E0E29FF0018E
:1036A0001124EC5BFD4FE90FF11DE0814E2F50E03E
:1036B0004D30510508F0A6C1FA01E65AFF4F0C94AF
:1036C0003E1DA090F402B090F502C090F602D0909A
:1036D000F702E090F802F090F9020091FA021091DE
:1036E000FB0298E0899FF001112414C0A090EC0225
:1036F000B090ED02C090EE02D090EF02E090F002A8
:10370000F090F1020091F2021091F30228E0829F02
:10371000F0011124EC57FB4F20813181428153810C
:1037200064817581868197810E9435125BC1A0906A
:10373000F402B090F502C090F602D090F702E0904B
:10374000F802F090F9020091FA021091FB0298E061
:10375000899FF001112414C0A090EC02B090ED02FA
:10376000C090EE02D090EF02E090F002F090F102F3
:103770000091F2021091F30228E0829FF0011124DF
:10378000EC57FB4F208131814281538164817581E7
:10379000868197810E94451325C198E0899FF00199
:1037A0001124EC57FB4F2081318142815381648188
:1037B0007581868197810E94821414C128E0829FBE
:1037C000F0011124EC57FB4F20813181428153815C
:1037D00064817581868197810E946C1503C1A090D8
:1037E000F402B090F502C090F602D090F702E0909B
:1037F000F802F090F9020091FA021091FB0298E0B1
:10380000899FF0011124EC57FB4F208131814281C7
:103810005381648175818091F3028F938091F202CC
:103820008F938091F1028F938091F0028F9380911A
:10383000EF028F938091EE028F938091ED028F9330
:103840008091EC028F93868197810E945916EDB783
:10385000FEB738960FB6F894FEBF0FBEEDBFC2C0DC
:10386000A090EC02B090ED02C090EE02D090EF027A
:10387000E090F002F090F1020091F2021091F30258
:1038800028E0829FF0011124EC57FB4F2081318109
:1038900042815381648175818091FB028F93809175
:1038A000FA028F938091F9028F938091F8028F939F
:1038B0008091F7028F938091F6028F938091F502A9
:1038C0008F938091F4028F93868197810E9459167D
:1038D000EDB7FEB738960FB6F894FEBF0FBEEDBF3A
:1038E00081C0A090F402B090F502C090F602D09092
:1038F000F702E090F802F090F9020091FA021091BC
:10390000FB0228E0829FF0011124EC57FB4F20813D
:10391000318142815381648175818091F3028F935B
:103920008091F2028F938091F1028F938091F00247
:103930008F938091EF028F938091EE028F9380910D
:10394000ED028F938091EC028F93868197810E9484
:103950009818EDB7FEB738960FB6F894FEBF0FBEB5
:10396000EDBF40C0A090EC02B090ED02C090EE021E
:10397000D090EF02E090F002F090F1020091F2029C
:103980001091F30228E0829FF0011124EC57FB4FC5
:103990002081318142815381648175818091FB0254
:1039A0008F938091FA028F938091F9028F93809187
:1039B000F8028F938091F7028F938091F6028F9394
:1039C0008091F5028F938091F4028F938681978185
:1039D0000E949818EDB7FEB738960FB6F894FEBF60
:1039E0000FBEEDBF20933C0230933D0240933E0258
:1039F00050933F02609340027093410280934202D1
:103A0000909343020E94301081E080932D021F9119
:103A10000F91FF90EF90DF90CF90BF90AF900895FF
:103A200080E880936100109261000E94C30D8DB305
:103A300080638DBB1092800088E08093810080912C
:103A4000810081608093810080916F00826080930B
:103A50006F0080E090E00E940604F8940E94D60E69
:103A60000E94E7100E947C100E948D1078940E94A2
:103A7000230F0E94F60F0E942E1BF9CFEE0FFF1F9F
:103A80000024001C0BBE0790F691E02D09940F93C3
:103A9000083090F0982F872F762F652F542F432FC3
:103AA000322F22270850F4CF220F331F441F551FF7
:103AB000661F771F881F991F0A95B2F70F91089507
:103AC00097FB10F8169400080F93083098F00850F0
:103AD000232F342F452F562F672F782F892F902D86
:103AE000F4CF059497958795779567955795479562
:103AF000379527950A95AAF70F9108950024A7FDF9
:103B000000942A17300540055005600570058005B2
:103B1000900508955058BB27AA270E94A21D0C9417
:103B20005C1F0E944E1F38F00E94551F20F039F490
:103B30009F3F19F426F40C944B1F0EF4E095E7FB1D
:103B40000C941C1FE92F0E946D1F58F3BA176207CF
:103B500073078407950720F079F4A6F50C94A71F46
:103B60000EF4E0950B2EBA2FA02D0B01B901900198
:103B70000C01CA01A0011124FF27591B99F0593FDC
:103B800050F4503E68F11A16F040A22F232F342F24
:103B90004427585FF3CF469537952795A795F04072
:103BA0005395C9F77EF41F16BA0B620B730B840B87
:103BB000BAF09150A1F0FF0FBB1F661F771F881F3F
:103BC000C2F70EC0BA0F621F731F841F48F4879597
:103BD00077956795B795F7959E3F08F0B0CF939589
:103BE000880F08F09927EE0F9795879508950E9402
:103BF000F81E08F481E008950E94101E0C945C1FCA
:103C00000E94551F58F00E944E1F40F029F45F3F5C
:103C100029F00C941C1F51110C94A81F0C944B1FDD
:103C20000E946D1F68F39923B1F3552391F3951BFF
:103C3000550BBB27AA2762177307840738F09F5FCD
:103C40005F4F220F331F441FAA1FA9F335D00E2E3A
:103C50003AF0E0E832D091505040E695001CCAF7A7
:103C60002BD0FE2F29D0660F771F881FBB1F26176A
:103C700037074807AB07B0E809F0BB0B802DBF0141
:103C8000FF2793585F4F3AF09E3F510578F00C9410
:103C90001C1F0C94A81F5F3FE4F3983ED4F3869555
:103CA00077956795B795F7959F5FC9F7880F911D31
:103CB0009695879597F90895E1E0660F771F881F1D
:103CC000BB1F621773078407BA0720F0621B730BD0
:103CD000840BBA0BEE1F88F7E09508950E94751EBD
:103CE0006894B1110C94A81F08950E94751F88F064
:103CF0009F5798F0B92F9927B751B0F0E1F0660FB0
:103D0000771F881F991F1AF0BA95C9F714C0B130F0
:103D100091F00E94A71FB1E008950C94A71F672F90
:103D2000782F8827B85F39F0B93FCCF3869577951F
:103D30006795B395D9F73EF4909580957095619508
:103D40007F4F8F4F9F4F0895E89409C097FB3EF433
:103D500090958095709561957F4F8F4F9F4F9923D8
:103D6000A9F0F92F96E9BB279395F6958795779556
:103D70006795B795F111F8CFFAF4BB0F11F460FF16
:103D80001BC06F5F7F4F8F4F9F4F16C0882311F06E
:103D900096E911C0772321F09EE8872F762F05C082
:103DA000662371F096E8862F70E060E02AF09A951D
:103DB000660F771F881FDAF7880F9695879597F912
:103DC00008950E948F1F90F09F3748F4911116F0CC
:103DD0000C94A81F60E070E080E89FEB089526F443
:103DE0001B16611D711D811D0C94221F0C943D1F1B
:103DF000990F0008550FAA0BE0E8FEEF16161706FC
:103E0000E807F907C0F012161306E407F50798F063
:103E1000621B730B840B950B39F40A2661F0232B7C
:103E2000242B252B21F408950A2609F4A140A695F8
:103E30008FEF811D811D089597F99F6780E870E0DD
:103E400060E00895882371F4772321F09850872B40
:103E5000762F07C0662311F499270DC09051862B49
:103E600070E060E02AF09A95660F771F881FDAF7F6
:103E7000880F9695879597F908959F3F31F0915057
:103E800020F4879577956795B795880F911D96953E
:103E9000879597F908959FEF80EC089500240A9480
:103EA0001616170618060906089500240A94121615
:103EB0001306140605060895092E0394000C11F448
:103EC000882352F0BB0F40F4BF2B11F460FF04C0F5
:103ED0006F5F7F4F8F4F9F4F089557FD9058440F4E
:103EE000551F59F05F3F71F04795880F97FB991F59
:103EF00061F09F3F79F08795089512161306140616
:103F0000551FF2CF4695F1DF08C0161617061806A2
:103F1000991FF1CF869571056105089408950E9457
:103F2000751FA0F0BEE7B91788F4BB279F3860F46F
:103F30001616B11D672F782F8827985FF7CF8695C3
:103F400077956795B11D93959639C8F30895E894D0
:103F5000BB2766277727CB0197F908950E94F81EA3
:103F600008F48FEF08950E94C61F0C945C1F0E94F6
:103F70004E1F38F00E94551F20F0952311F00C942D
:103F80001C1F0C944B1F11240C94A81F0E946D1F22
:103F900070F3959FC1F3950F50E0551F629FF0019C
:103FA000729FBB27F00DB11D639FAA27F00DB11DB5
:103FB000AA1F649F6627B00DA11D661F829F22273E
:103FC000B00DA11D621F739FB00DA11D621F839FC5
:103FD000A00D611D221F749F3327A00D611D231F9B
:103FE000849F600D211D822F762F6A2F11249F57E9
:103FF00050409AF0F1F088234AF0EE0FFF1FBB1FEC
:10400000661F771F881F91505040A9F79E3F5105AA
:1040100080F00C941C1F0C94A81F5F3FE4F3983EA3
:10402000D4F3869577956795B795F795E7959F5F54
:10403000C1F7FE2B880F911D9695879597F90895E6
:104040000F931F93CF93DF938230910510F482E09A
:1040500090E0E0918606F091870620E030E0A0E055
:10406000B0E0309719F140815181028113814817E6
:104070005907C8F08417950769F4109731F0129624
:104080000C93129713961C9327C0009386061093E7
:10409000870622C02115310519F04217530718F47D
:1040A0009A01BD01EF01DF01F801DBCF21153105D8
:1040B000F9F0281B390B2430310580F48A819B816B
:1040C0006115710521F0FB019383828304C09093F5
:1040D000870680938606FE01329644C0FE01E20FF9
:1040E000F31F8193919322503109398328833AC079
:1040F0002091840630918506232B41F420910501FF
:1041000030910601309385062093840620910301A7
:10411000309104012115310541F42DB73EB740918E
:10412000070150910801241B350BE0918406F091A2
:104130008506E217F307A0F42E1B3F0B281739075B
:1041400078F0AC014E5F5F4F2417350748F04E0FF3
:104150005F1F50938506409384068193919302C01C
:10416000E0E0F0E0CF01DF91CF911F910F91089532
:10417000CF93DF93009709F481C0FC01329713823B
:104180001282A0918606B0918706109781F4208153
:104190003181820F931F2091840630918506281764
:1041A000390751F5F0938506E093840667C0ED0169
:1041B00020E030E0CE17DF0740F44A815B819E01AA
:1041C00041155105F1F0EA01F5CFD383C283408157
:1041D0005181840F951FC817D90759F48881998197
:1041E000840F951F0296918380838A819B8193839C
:1041F00082832115310529F4F0938706E093860622
:104200003DC0E901FB83EA8349915991C40FD51F51
:10421000EC17FD0761F480819181840F951F029650
:10422000E90199838883828193819B838A83E0E07B
:10423000F0E012968D919C911397009719F0FD0173
:10424000DC01F7CF8D919C9111979D012E5F3F4F1F
:10425000820F931F20918406309185062817390715
:1042600069F4309729F4109287061092860602C0EE
:1042700013821282B0938506A0938406DF91CF91BA
:064280000895F894FFCF41
:104286001702010000880620000101010101010159
:1042960001020202020202020204040404040404EB
:1042A6000408080808080808081010101010101054
:1042B6001020202020202020204040404040404028
:1042C600408080808080808080FEFEFEFEFEFEFEB6
:1042D600FEFDFDFDFDFDFDFDFDFBFBFBFBFBFBFB15
:1042E600FBF7F7F7F7F7F7F7F7EFEFEFEFEFEFEF8C
:1042F600EFDFDFDFDFDFDFDFDFBFBFBFBFBFBFBF98
:10430600BF7F7F7F7F7F7F7F7FFF000000000000F1
:104316000000FF0000000000000000FF0000000099
:1043260000000000FF0000000000000000FF000089
:10433600000000000000FF0000000000000000FF79
:104346000000000000000000FF00FFFFFFFFFFFF6E
:10435600FFFF00FFFFFFFFFFFFFFFF00FFFFFFFF65
:10436600FFFFFFFF00FFFFFFFFFFFFFFFF00FFFF55
:10437600FFFFFFFFFFFF00FFFFFFFFFFFFFFFF0045
:10438600FFFFFFFFFFFFFFFF00466F7274756E6150
:104396002043686573730020504E4252514B706E35
:0643A6006272716B000061
:00000001FF
