:100000000C9455010C9474010C9474010C947401BB
:100010000C9474010C94040E0C94040E0C94740152
:100020000C9474010C9474010C9474010C9474017C
:100030000C9474010C9474010C9474010C9474016C
:100040000C9474010C94320E0C9474010C94740191
:100050000C9474010C9474010C9474010C9474014C
:100060000C9474010C9474010C9474010C9474013C
:100070000C9474010C9474010C9474010C9474012C
:100080000C9474010C9474010C9474010C9474011C
:100090000C9474010C947401FF061E0703070C07EF
:1000A00015072D073B0753078107570760076907A7
:1000B00072078F074D34943273329133EF32FE332F
:1000C0009B31A532E5315D33B632CA337131000060
:1000D00000000000005F00000003000300143E1455
:1000E0003E14242A7F2A124333086661364955227A
:1000F000500005030000001C2241000041221C00AA
:1001000014083E081408083E080800503000000893
:1001100008080808006060000020100804023E5132
:1001200049453E0004027F0042615149462241494F
:1001300049361814127F1027454545393E4949492B
:100140003201017109073649494936264949493E74
:100150000036360000005636000008142241001414
:1001600014141414004122140802015109063E41DE
:1001700059555E7E0909097E7F494949363E41410C
:1001800041227F4141413E7F494949417F09090957
:10019000013E4141493A7F0808087F00417F410004
:1001A000304040403F7F081422417F404040407F24
:1001B000020C027F7F0204087F3E4141413E7F09DD
:1001C0000909061E2121215E7F0909097626494970
:1001D000493201017F01013F4040403F1F20402044
:1001E0001F7F2010207F41221C2241070870080732
:1001F0006151494543007F4100000204081020007E
:1002000000417F00040201020440404040400001E0
:1002100002040020545454787F4444443838444401
:100220004444384444447F385454541804047E05EC
:1002300005085454543C7F0804047800447D400071
:100240002040443D007F1028440000417F40007C56
:10025000047804787C0804047838444444387C14D6
:10026000141408081414147C007C08040448545422
:10027000542004043F44443C4040207C1C20402047
:100280001C3C4030403C44281028440C5050503C0A
:100290004464544C44000836414100007F00004152
:1002A0004136080002010204020011241FBECFEFF4
:1002B000D0E2DEBFCDBF12E0A0E0B1E0E2E5F7E7BB
:1002C00000E00BBF02C007900D92A636B107D9F728
:1002D00026E0A6E6B2E001C01D92AB3CB207E1F712
:1002E0000E9474370C94A73B0C940000977025E093
:1002F000969587952A95E1F70895892F8695869595
:10030000869590E008958F719927089595E0660F7E
:10031000771F9A95E1F7460F571F20E030E0382FFE
:10032000330F330F330FCA01820F931F08954F927B
:100330005F926F927F928F929F92AF92BF92CF9275
:10034000DF92EF92FF92CF93DF93EC012A013B0102
:10035000BC01672F772766956695669580E090E0EB
:100360000E940A39A30192010E94193A20E030E06C
:1003700040E05FE30E94F1370E94DB384B015C01F3
:10038000BE01777055E0769567955A95E1F780E064
:1003900090E00E940A39A30192010E94193A20E0DC
:1003A00030E040E05FE30E94F1370E94DB386B01F0
:1003B0007C01BE016F71772780E090E00E940A39CE
:1003C000A30192010E94193A20E030E040E05FE38F
:1003D0000E94F1370E94DB3894012032310510F081
:1003E0002FE130E04901982C8824990C990C990C44
:1003F0006032710510F06FE170E0680D791DC60183
:100400008034910510F08FE390E025E0880F991F6C
:100410002A95E1F7860F971FDF91CF91FF90EF901C
:10042000DF90CF90BF90AF909F908F907F906F9014
:100430005F904F90089593E89093B00091E090936F
:10044000B1008093B300089590936F0280936E0281
:1004500026E330E020930040009779F480EF90E0AD
:1004600090936B0280936A0280E491E090936D0216
:1004700080936C0288E490E034C08130910579F477
:1004800080E491E090936B0280936A0280EF90E0A9
:1004900090936D0280936C0288EE90E022C08230CF
:1004A000910579F480EF90E090936B0280936A025B
:1004B00080E491E090936D0280936C0288E890E074
:1004C00010C0039781F480E491E090936B028093D5
:1004D0006A0280EF90E090936D0280936C0288E254
:1004E00090E0809300418AE290E08093004020E019
:1004F00030E0309300412093004180916A02909156
:100500006B02019790930041809300418BE290E051
:1005100080930040309300412093004180916C0211
:1005200090916D020197909300418093004108954E
:10053000CF93873748F4883048F08D3350F48F31AB
:1005400050F4803150F403C086E703C088E0C3E074
:1005500005C0C0E003C0C1E001C0C2E021EB30E053
:1005600020930040C0930041682F70E080E090E04D
:100570000E940C399B01AC0160E070E080EF94E4D4
:100580000E9462380E94DB3870E002C07595679562
:10059000CA95E2F760930041CF9108950F931F939E
:1005A000CF93DF93CDB7DEB728970FB6F894DEBFB1
:1005B0000FBECDBF29833A834B835C836D837E83DB
:1005C0008F83988769817A812B813C814D815E81FF
:1005D0008F819885EAE2F0E0E0930040709300415B
:1005E000609300413093004120930041EBE2F0E042
:1005F000E0930040509300414093004190930041AC
:1006000080930041ECE2F0E0E09300402F5F3F4F29
:10061000261B370B0196841B950B2817390790F47E
:10062000482F4770429FB001439F700D112453E043
:10063000969587955A95E1F7829FA001839F500D6B
:10064000112411C0422F4770489FB001499F700D7F
:10065000112443E0369527954A95E1F7289FA0019C
:10066000299F500D1124862F8770815028F01093F8
:10067000004100930041F9CFCB0123E09695879587
:100680002A95E1F7840F951F019708F11093004117
:1006900000930041109300410093004110930041EA
:1006A00000930041109300410093004110930041DA
:1006B00000930041109300410093004110930041CA
:1006C000009300411093004100930041DDCF289634
:1006D0000FB6F894DEBF0FBECDBFDF91CF911F9153
:1006E0000F910895EF92FF920F931F93CF93DF9393
:1006F000CDB7DEB728970FB6F894DEBF0FBECDBFDB
:1007000029833A834B835C836D837E838F839887B1
:1007100089819A81EB80FC806D817E81AF81B88573
:100720002AE230E020930040909300418093004102
:10073000F0920041E09200412BE230E02093004033
:100740007093004160930041B0930041A093004139
:100750002CE230E020930040E816F906A0F0A80152
:100760009B018A01A217B30760F04E5F5F4FF8014B
:100770000081118110930041009300412F5F3F4F92
:10078000F0CF0196E9CF28960FB6F894DEBF0FBEE2
:10079000CDBFDF91CF911F910F91FF90EF90089502
:1007A0000F931F93CF93DF93CDB7DEB728970FB684
:1007B000F894DEBF0FBECDBFEAE6F2E017821682E4
:1007C000118610861A821982808191810197482FA3
:1007D0009C838B831E821D828281938101979887DF
:1007E0008F830485158520E03A815C8160E07E81FD
:1007F00098850E94CE0228960FB6F894DEBF0FBEF1
:10080000CDBFDF91CF911F910F910895CF93DF93CB
:10081000019729F480E8809361001092610086E0DE
:100820008093750080E8809374003F9A249A8FEC3F
:1008300097E00197F1F700C0000047988FE39CE92B
:100840000197F1F700C00000479A9FEF2DEE82E07C
:10085000915020408040E1F700C0000088E290E025
:100860008093004081E190E0809300409FEF26E775
:1008700081E0915020408040E1F700C0000081E01D
:1008800090E02BEC30E0209300408093004120EC7E
:1008900030E02093004028E036E23093004120937E
:1008A000004140E150E021EC30E0209300404093D3
:1008B000004125EC30E0209300402EE335E33093F7
:1008C00000412093004145EB50E027EC30E02093BD
:1008D00000404093004126EF30E020930040809399
:1008E0000041C0E0D0E0D0930041C093004125E535
:1008F00030E08AE390E0809300402093004181E063
:1009000090E00E9424020E94D00310927102109283
:10091000700210927302109272021092770210927B
:1009200076028FEF9FEF909375028093740289E2B5
:1009300090E0809300409FE728E381E091502040C1
:100940008040E1F700C0000085E390E08093004024
:10095000C093004180916A00806280936A002C9A63
:10096000DF91CF9108959F92AF92BF92CF92DF9285
:10097000EF92FF920F931F93CF93DF932091720218
:10098000309173028A30F9F4109271021092700261
:10099000285F3F4F309373022093720280916C0264
:1009A00090916D022817390708F4A5C0DF91CF9107
:1009B0001F910F91FF90EF90DF90CF90BF90AF907D
:1009C0009F900C94D00390EE980F9F3508F093C041
:1009D0006091700270917102A901495F5F4F082E0A
:1009E000000C990B8097E5E0E89FE001E99FD00DAE
:1009F00011248BE290E080930040309300412093DB
:100A000000415093004140930041CB01DB0114961B
:100A10000AE210E0ECE2EE2EF12CA817B90780F103
:100A200000930040909300418093004190930041D7
:100A300080930041E0920040FC01E61BF70BEC0FB5
:100A4000FD1FE253FF4F94906901F1E04C155D05E5
:100A5000A8F0BF2EB92029F0A0907402B0907502C2
:100A600004C0A0907602B0907702B0920041A092AC
:100A70000041EFEFCE1ADE0AFF0FE8CF0196CDCF8F
:100A80006AE270E0609300409093004180930041DF
:100A900090930041809300418CE290E0809300406D
:100AA0004217530758F08091760290917702909305
:100AB0000041809300412F5F3F4FF2CF8091700241
:100AC000909171020696909371028093700220912A
:100AD0006A0230916B028217930768F010927102DC
:100AE0001092700280917202909173020896909316
:100AF000730280937202DF91CF911F910F91FF904B
:100B0000EF90DF90CF90BF90AF909F9008950F939C
:100B10001F93CF938C01C0E0F801EC0FF11D808191
:100B2000882321F00E94B304CF5FF6CFCF911F91AD
:100B30000F910895EAE6F2E09783868371876087D4
:100B40000895EAE6F2E093878287758764870895BF
:100B50000F931F93CF938C01709371026093700277
:100B60005093730240937202C0E0F801EC0FF11D44
:100B70008081882321F00E94B304CF5FF6CFCF910C
:100B80001F910F9108954F925F926F927F928F9273
:100B90009F92AF92BF92CF92DF92EF92FF92CF934C
:100BA000DF9300D000D000D0CDB7DEB76B017C0161
:100BB0005E834D839B01AC0160E070E080E89FE3C1
:100BC0000E94F0374B015C0120E030E040E450E44B
:100BD0000E94193A69837A838B839C83A5019401CF
:100BE000C501B4010E94193AA50194010E94193A65
:100BF0002B013C01ED81FE816081718180E090E0FC
:100C00000E940A399B01AC01C301B2010E94193A4A
:100C10002B013C0129813A814B815C81C501B401E2
:100C20000E94193AA70196010E94193A4B015C01F2
:100C3000ED81FE816281738180E090E00E940A393B
:100C40009B01AC01C501B4010E94193A9B01AC01A2
:100C5000C301B2010E94F1374B015C0129813A8145
:100C60004B815C81C701B6010E94193AA701960128
:100C70000E94193A2B013C01ED81FE81648175814E
:100C800080E090E00E940A399B01AC01C301B201EF
:100C90000E94193A9B01AC01C501B4010E94F137D1
:100CA0004B015C01A7019601C701B6010E94193AE8
:100CB000A70196010E94193A6B017C01ED81FE812A
:100CC0006681778180E090E00E940A399B01AC0147
:100CD000C701B6010E94193A9B01AC01C501B401DC
:100CE0000E94F1370E94D438072E000C880B990B14
:100CF0000E940C3920E030E040E05FE30E94F137D1
:100D00000E94D438CB0126960FB6F894DEBF0FBEF2
:100D1000CDBFDF91CF91FF90EF90DF90CF90BF904C
:100D2000AF909F908F907F906F905F904F900895BD
:100D3000CF92DF92EF92FF926B017C0120E030E0D6
:100D4000A9010E945D3887FF11C0C701B6010E944A
:100D500047399B01AC01C701B6010E94F0379B01E6
:100D6000AC0160E070E080E89FE308C0C701B60115
:100D70000E9447399B01AC01C701B6010E94F037C0
:100D8000FF90EF90DF90CF9008950E9498069B010E
:100D9000AC0160E070E080E89FE30E94F0370895C6
:100DA000CF92DF92EF92FF920F931F93FC0100818D
:100DB000118122813381FB01C080D180E280F380E8
:100DC000FC01C082D182E282F382FB0100831183A5
:100DD000228333831F910F91FF90EF90DF90CF908C
:100DE0000895CF93DF93DC01EB01FA013197E730EF
:100DF000F10508F047C0E45BFF4F0C94A4378D91D8
:100E00009C91119733C08D919C91119791958195EB
:100E100091098D939C9336C08D919C9111979195DA
:100E2000819591098D939C9326C08D919C911197EA
:100E300091958195910911969C938E9388819981C2
:100E4000919581959109998388832D913C91119772
:100E50008D939C933983288315C08D919C91119714
:100E600091958195910911969C938E932881398152
:100E70002D933C9305C08881998191958195910925
:100E800099838883DF91CF910895CF93DF93DC011D
:100E9000EB01FA013197E730F10508F047C0ED5A50
:100EA000FF4F0C94A4378D919C91119733C08D9175
:100EB0009C9111979195819591098D939C9336C042
:100EC0008D919C9111979195819591098D939C930A
:100ED00026C08D919C9111979195819591091196BC
:100EE0009C938E938881998191958195910999839D
:100EF00088832D913C9111978D939C9339832883FE
:100F000015C08D919C91119791958195910911969C
:100F10009C938E93288139812D933C9305C08881C1
:100F2000998191958195910999838883DF91CF91DA
:100F30000895FC0120813181FB0140815181FC0138
:100F400051834083FB01318320830895CF92DF9248
:100F5000EF92FF920F931F93CF93DF938901061BAC
:100F6000170BEA01C81BD90BB801012E000C880B26
:100F7000990B0E940C396B017C01E894F7F8BE01D3
:100F80000D2E000C880B990B0E940C399B01AC01B3
:100F90005F77C701B6010E94143A181694F417FF40
:100FA00009C02D2F221F2227221F86E090E0821BDE
:100FB000910918C08D2F881F8827881F90E00196FF
:100FC00011C017FF05C0D7FD08C087E090E00AC038
:100FD000D7FD06C080E090E005C084E090E002C04C
:100FE00083E090E0DF91CF911F910F91FF90EF9000
:100FF000DF90CF9008952AE230E020930040909354
:1010000000418093004190930041809300418BE226
:1010100090E0809300407093004160930041709392
:101020000041609300418CE290E080930040509337
:1010300000414093004108952F923F924F925F925A
:101040006F927F928F929F92AF92BF92CF92DF92D8
:10105000EF92FF920F931F93CF93DF93CDB7DEB73D
:10106000A6970FB6F894DEBF0FBECDBF2B013C0193
:1010700069837A838B839C83298B3A8B4B8B5C8B24
:101080002D833E834F835887ED8AFE8A0F8B188FFE
:10109000E986FA860B871C87C601B501AD86BE8638
:1010A000CF86D88A14010E94F0376B017C01E89446
:1010B000F7F8A30192016D897E898F89988D0E942E
:1010C000F0379B01AC015F77C701B6010E94F03792
:1010D000698F7A8F8B8F9C8F20E030E0A9010E946E
:1010E000143A181674F4BE016F5F7F4FCE01059657
:1010F0000E94D006BE01675F7F4FCE010D960E9411
:10110000D00629853A854B855C8569817A818B81FA
:101110009C810E94143A181674F4BE01675F7F4FD9
:10112000CE0101960E94D006BE016B5F7F4FCE01BB
:101130000D960E94D006C980DA80EB80FC804D803D
:101140005E806F807884A30192016D857E858F8596
:1011500098890E94F0374B015C01A70196016985CF
:101160007A858B859C850E94F0379B01AC01C50177
:10117000B4010E9462386D8F7E8F8F8F98A320E01C
:1011800030E040E05FE3C701B6010E94F1374B0158
:101190005C010E94D438698B7A8B8B8B9C8B29895C
:1011A0003A89B901330F880B990B0E940C39A701BA
:1011B00096010E94F0372D8D3E8D4F8D58A10E94D3
:1011C000193AA30192010E94F1376B017C01C5011C
:1011D000B4010E94C5064B015C01C701B6010E9423
:1011E000DB382B013C0120E030E0A901698D7A8DCC
:1011F0008B8D9C8D0E94143A1816C4F5C701B60158
:101200000E94C5069B01AC01C501B4010E94193AB8
:1012100020E030E040E85FE30E94F137AB01BC0121
:10122000C1010E949701AC0169897A89C2010E94BB
:10123000FB07C701B6010E9498069B01AC01C501DE
:10124000B4010E94193A20E030E040E85FE30E94D8
:10125000F137AB01BC01C1010E9497013FEF431A76
:10126000530AAC0169897A89C20136C0C701B60147
:101270000E94C5069B01AC01C501B4010E94193A48
:1012800020E030E040E85FE30E94F137AB01BC01B1
:10129000C1010E949701AC01B20189899A890E941B
:1012A000FB07C701B6010E9498069B01AC01C5016E
:1012B000B4010E94193A20E030E040E85FE30E9468
:1012C000F137AB01BC01C1010E949701B2016F5F10
:1012D0007F4FAC0189899A890E94FB07A70196017B
:1012E0006D8D7E8D8F8D98A10E94F1372B013C0171
:1012F000C984DA84EB84FC8420E030E040E05FE3E2
:10130000C701B6010E94F1374B015C010E94D4383D
:101310006D8B7E8B8F8B988F2D893E89B901330F12
:10132000880B990B0E940C39A70196010E94F03797
:101330002D8D3E8D4F8D58A10E94193A2D853E85E9
:101340004F8558890E94F1376B017C01C501B401BA
:101350000E94C5064B015C018D899E899EA38DA3C9
:10136000C701B6010E94DB3869A37AA38BA39CA3B3
:1013700020E030E0A901698D7A8D8B8D9C8D0E94D3
:10138000143A181664F5C701B6010E94C5069B0100
:10139000AC01C501B4010E94193AAB01BC01C10105
:1013A0000E949701AC016D897E8989A19AA10E9452
:1013B000FB07C701B6010E9498069B01AC01C5015D
:1013C000B4010E94193AAB01BC01C1010E9497010E
:1013D000AC0189A19AA101966D897E892CC0C701B3
:1013E000B6010E94C5069B01AC01C501B4010E9473
:1013F000193AAB01BC01C1010E949701AC0169A17E
:101400007AA18D899E890E94FB07C701B6010E94BF
:1014100098069B01AC01C501B4010E94193AAB01C9
:10142000BC01C1010E94970169A17AA16F5F7F4F42
:10143000AC018D899E890E94FB0709891A890F5F7B
:101440001F4F8DA19EA10817190708F05FC020E06B
:1014500030E0A901698D7A8D8B8D9C8D0E94143AA4
:1014600018162CF5C301B2010E94C506AB01BC01E0
:10147000C1010E9497017C01C301B2010E94DB38C7
:101480004B015C01A701B801C4010E94FB07C30125
:10149000B2010E949806AB01BC01C1010E949701F4
:1014A0002FEF821A920AAC01B801C40122C0C30115
:1014B000B2010E94C506AB01BC01C1010E949701A7
:1014C0007C01C301B2010E94DB384B015C01A70122
:1014D000C8010E94FB07C301B2010E949806AB013C
:1014E000BC01C1010E949701B4016F5F7F4FAC0145
:1014F000C8010E94FB072D8D3E8D4F8D58A1C30161
:10150000B2010E94F1372B013C0199CFA6960FB68C
:10151000F894DEBF0FBECDBFDF91CF911F910F9129
:10152000FF90EF90DF90CF90BF90AF909F908F9003
:101530007F906F905F904F903F902F9008952F92E3
:101540003F924F925F926F927F928F929F92AF9253
:10155000BF92CF92DF92EF92FF920F931F93CF93A0
:10156000DF93CDB7DEB760970FB6F894DEBF0FBE3E
:10157000CDBF9E838D8378876F835A8749873C8749
:101580002B871801A8010E94FB072B853C85498504
:101590005A856F8178858D819E810E94A6075C01A6
:1015A000AC01BE01695F7F4FCE0105960E944507E1
:1015B000A501BE01655F7F4FCE0109960E944507D8
:1015C0008F8098840D811E8189859A85801B910B5F
:1015D000CB84DC84C818D908CC0CDD1C0D2C000C85
:1015E000EE08FF08AC01092E000C660B770B2601F4
:1015F0003701441A550A660A770A0F5F1F4F880F92
:10160000991F9C01990F440B550B2D873E874F87DF
:10161000588B89859A858017910774F1D301C2018F
:101620008C0D9D1DAE1DBF1D77FE03C02C013D011D
:101630000DC03FEF831A930A2C013D012D853E8595
:101640004F855889421A530A640A750A1C830B8312
:101650009A828982A501BE016F5F7F4FCE010396FA
:101660000E94F10669817A81A1018B819C810E948F
:10167000FB070F5F1F4FCDCF60960FB6F894DEBF0C
:101680000FBECDBFDF91CF911F910F91FF90EF90D3
:10169000DF90CF90BF90AF909F908F907F906F9092
:1016A0005F904F903F902F9008952F923F924F92CE
:1016B0005F926F927F928F929F92AF92BF92CF92E2
:1016C000DF92EF92FF920F931F93CF93DF93CDB7EB
:1016D000DEB728970FB6F894DEBF0FBECDBF6C0102
:1016E0005B014A0128013901AC0160E070E0CB01E7
:1016F0000E94C305382E292EA50160E070E0CB01C1
:101700000E94C30589839A83780168867F8220E0DE
:1017100030E040E85FE3B201C3010E94F1379B0172
:10172000AC01B70188859F810E945D3887FF2BC07F
:10173000A601B70188859F810E94C3058B839C8386
:10174000A501B70188859F810E94C3058D839E8373
:1017500084019C014B815C8169817A81832D922D6A
:101760000E949F0A9201A301B70188859F810E9470
:10177000F1377B0188879F838D8189838E818A835E
:101780003B802C80C4CF28960FB6F894DEBF0FBEE6
:10179000CDBFDF91CF911F910F91FF90EF90DF9020
:1017A000CF90BF90AF909F908F907F906F905F9001
:1017B0004F903F902F9008952F923F924F925F92BB
:1017C0006F927F928F929F92AF92BF92CF92DF9251
:1017D000EF92FF920F931F93CF93DF93CDB7DEB7B6
:1017E0002C970FB6F894DEBF0FBECDBF9C838B83C2
:1017F0007E836D835A874987922E832EAC0160E0E9
:1018000070E0CB010E94C3057C014D815E8160E0E8
:1018100070E0CB010E94C3055C019801492D582D51
:1018200060E070E080E89FE30E94623820E030E0F2
:1018300040EC5FE30E94F1370E94DB387A836983D2
:101840009B01220F331F38872F83C9010E94863ADC
:10185000782E692E8F8198850E94863A6C018B873D
:10186000DC86EB85FC85A192B192FC87EB87A72CE7
:10187000B62CF501E192F1925F01502E412E140138
:10188000EE24E394F12C89819A81E816F90678F523
:101890004B815C81652D742D832D922D0E94C30593
:1018A00098878F834D815E81652D742D832D922DB8
:1018B0000E94C305EB85FC8581939193FC87EB87A0
:1018C000F5012F813885219331935F019801492DCE
:1018D000582D652D742D832D922D0E94F137562E93
:1018E000472E382E292E3FEFE31AF30ACCCFCB82B6
:1018F000DC82E72CF62C812C912C5C0191E0A91A5A
:10190000B1088A149B04E0F4EFEF8E1A9E0AAB81B3
:10191000BC81F70112962D913C911397CD0102964F
:101920009C838B834281538192E0E90EF11C6D917F
:101930007C9109851A85808191810E949F0AE1CF5F
:10194000C6010E941E3B872D962D2C960FB6F8944B
:10195000DEBF0FBECDBFDF91CF911F910F91FF90E2
:10196000EF90DF90CF90BF90AF909F908F907F903F
:101970006F905F904F903F902F900C941E3B2F9252
:101980003F924F925F926F927F928F929F92AF920F
:10199000BF92CF92DF92EF92FF920F931F93CF935C
:1019A000DF9300D000D000D0CDB7DEB75C014B0193
:1019B0008A017901C12CD12C1E821D828D819E81CC
:1019C000081719070CF464C0A7014D805E80480C0D
:1019D000591CB201C8018A0D9B1D9C838B830E94F8
:1019E000FB07A7013801680C791CB3018D819E812A
:1019F0008A0D9B1D9A8389830E94FB07A701B3016F
:101A000015018D819E81281A390AC1010E94FB07A8
:101A1000A701B2013501601A710AC3010E94FB07D8
:101A2000A70124018D819E81481A590AB201C30180
:101A30000E94FB07A7013401601A710AB301C101BA
:101A40000E94FB07A701B30189819A810E94FB07CD
:101A5000A701B2018B819C810E94FB071C141D040D
:101A600074F08D819E8101969E838D83880F991FCE
:101A70000196C80ED91E1C141D040CF09FCF0150F6
:101A80001109C801880F991F0196C81AD90A96CF63
:101A900026960FB6F894DEBF0FBECDBFDF91CF9173
:101AA0001F910F91FF90EF90DF90CF90BF90AF907C
:101AB0009F908F907F906F905F904F903F902F906E
:101AC00008954F925F926F927F928F929F92AF9202
:101AD000BF92CF92DF92EF92FF920F931F93CF931B
:101AE000DF93EC017B016A0159014B01820E931EC9
:101AF0003C01640E751EA801B401C3010E94FB07DE
:101B00002E014C185D08A801B401C2010E94FB0718
:101B100047018A189B08A801B401C3010E94FB0772
:101B2000A801B401C2010E94FB0747018C0C9D1C57
:101B300035016C0E7D1EA801B401C3010E94FB0794
:101B4000CA19DB09A801B401CE010E94FB07EC18F9
:101B5000FD08A801B701C3010E94FB07A801B70156
:101B6000CE01DF91CF911F910F91FF90EF90DF9009
:101B7000CF90BF90AF909F908F907F906F905F902D
:101B80004F900C94FB078DB18F748DB98EB1806B23
:101B90008EB987B1837C87B988B18C6388B9EAE64E
:101BA000F0E080818568808308958CB1807349F46A
:101BB00090916702903281F0909167029031E1F448
:101BC00013C08033C9F490916702903129F090914D
:101BD0006702903289F408C0909166029150909308
:101BE00066028033A1F306C0909166029F5F9093D6
:101BF000660202C0882301F3809367028091660227
:101C0000089586B18C7308951F920F920FB60F92AC
:101C100011240BB60F922F933F934F935F936F93C3
:101C20007F938F939F93AF93BF93EF93FF930E9404
:101C3000D50D87EC90E00197F1F700C00000FF910F
:101C4000EF91BF91AF919F918F917F916F915F9134
:101C50004F913F912F910F900BBE0F900FBE0F90A1
:101C60001F9018951F920F920FB60F9211242F9369
:101C70008F939F9380916602882379F19091C1069A
:101C80009093C3068091C2068093C4062091660299
:101C900012166CF4992311F0915010C08823C1F0F2
:101CA00081508093C20687E08093C10611C02091C5
:101CB000660227FF0DC0973020F49F5F9093C10606
:101CC00007C0873028F48F5F8093C2061092C10648
:101CD00081E080936802109266029F918F912F910C
:101CE0000F900FBE0F901F90189597E0961B28E05D
:101CF000929F800D11240895282F269526952695CC
:101D000097E0921BFA0190838770FB01808308950E
:101D10000F931F93CF93DF93CDB7DEB728970FB6FE
:101D2000F894DEBF0FBECDBF8A012EE1829FC001B5
:101D30001124DC0198968A5B9F4F482F9C838B83EC
:101D40008EE1689FF0011124CF014E9698878F8312
:101D50002A2FBA83A9836E2FFE83ED833A815C819B
:101D60007E8198850E94CE0228960FB6F894DEBF39
:101D70000FBECDBFDF91CF911F910F9108950F93AB
:101D80001F93CF93DF9300E010E0C0E0D0E0C801E4
:101D90008C0F9D1F80FD03C04CE255EF02C042E254
:101DA0005AE86C2F802F0E94880E2196C830D105EA
:101DB00071F70F5F1F4F0830110539F7DF91CF9191
:101DC0001F910F910895CF93DF9328E0829FE00148
:101DD0001124C058DD4FC60FD11D98819923C9F039
:101DE0009EE1699FB0011124695F7F4F2EE1829FC0
:101DF000C00111248F960E949A058881E09100010C
:101E0000F0910101E80FF11D8081DF91CF910C94D9
:101E1000B304DF91CF9108950F931F93CF938091D7
:101E20006802882309F46FC0F894B091C306C0918A
:101E3000C4068B2F8C0F80FD03C00CE215EF02C08F
:101E400002E21AE887E08C1BEB2F98E0899FE00DF7
:101E5000112488E0E89FF0011124E054FB4F208119
:101E60008091780228233181809179023823428140
:101E700080917A024823538180917B0258236481A8
:101E800080917C026823758180917D027823A681F0
:101E900080917E02E78190917F028A239E23A0E0B9
:101EA0000E94E43731F080916902882311F007EB3A
:101EB0001DEF8091C006813051F48091C506B813A2
:101EC00006C08091C606C81302C000E014E0A80155
:101ED0006C2F8B2F0E94880E6091C4068091C306E0
:101EE0000E94E30E49EF56E46091C2068091C1065C
:101EF0000E94880E6091C2068091C1060E94E30E86
:101F0000109268027894CF911F910F910895EF92EB
:101F1000FF920F931F93CF93DF93C0ECD4E010E0B8
:101F200087E0E82E288139814A815B816C817D813F
:101F30008E819F812896E09178022E23E09179028C
:101F40003E23E0917A024E23E0917B025E23E091F2
:101F50007C026E23E0917D027E23F0917E02E0916F
:101F60007F028F239E23A0E00E94E437C9F0812FD7
:101F7000869586958695FE2CF81A012F0770802F7E
:101F80008F0D80FD03C04CE255EF02C042E25AE8DB
:101F90006F2D802F0E94880E6F2D802F0E94E30EE0
:101FA0001F5F103409F0BECF1092780210927902B0
:101FB00010927A0210927B0210927C0210927D02A3
:101FC00010927E0210927F02DF91CF911F910F91AC
:101FD000FF90EF900895EF92FF920F931F93CF938E
:101FE000DF93C0ECD4E010E087E0E82E288139814F
:101FF0004A815B816C817D818E819F812896E091F1
:1020000078022E23E09179023E23E0917A024E235A
:10201000E0917B025E23E0917C026E23E0917D02E1
:102020007E23F0917E02E0917F028F239E23A0E029
:102030000E94E43791F0812F869586958695FE2C37
:10204000F81A47EB5DEF6F2D012F0770802F0E946C
:10205000880E6F2D802F0E94E30E1F5F103431F623
:10206000DF91CF911F910F91FF90EF900895CF9343
:10207000DF93D0E0C0E06C2F8D2F0E94E30ECF5F86
:10208000C830C9F7DF5FD830A9F7DF91CF91089545
:102090000F931F93CF93DF9308E012E0C0E0F801A5
:1020A000D1918F01DD2379F08FE0C89FB001112419
:1020B0006A5E7F4F8FE090E00E949A058D2F0E940C
:1020C000B304CF5FECCFDF91CF911F910F910895B3
:1020D000122FF32EE42ED52EC62EB72EA82E992E13
:1020E000F894C0E0D0E087E0882E8C2F8695869506
:1020F0008695F82DF81BEC2FE770212F3F2D4E2DE4
:102100005D2D6C2D7B2D8A2D992D0C2F0E94C837AB
:10211000217030E040E050E060E070E080E090E06E
:10212000A0E00E94E43719F04FEF5FEF02C040E1FA
:1021300054E86F2F8E2F0E94880E2196C034D1054F
:10214000A1F6FFCF3F924F925F926F927F928F9254
:102150009F92AF92BF92CF92DF92EF92FF920F9336
:102160001F93CF93DF937C011092C0061092C1069B
:102170001092C2061092C3061092C406E0E0F0E08E
:10218000412C57E0352E14E068E0D62E7BE0C72EB8
:10219000AAE0BA2EB9E0AB2ECCE09C2ED2E08D2E78
:1021A00005E0702E83E0682E96E0592ED701A40D2D
:1021B000B11D8C91882309F42FC3932D9E1B0F2FE3
:1021C00028E0929F000D1124AF2FB0E0823509F472
:1021D00063C10CF08FC08E3409F49DC10CF045C072
:1021E000823409F4D7C18B3409F00EC321E030E00A
:1021F00040E050E060E070E080E090E00E94AD37A9
:102200000091F002202B0091F102302B0091F2029C
:10221000402B0091F302502B0091F402602B0091AF
:10222000F502702B0091F602802B0091F702902BA3
:102230002093F0023093F1024093F2025093F302A4
:102240006093F4027093F5028093F6029093F70284
:10225000CD01C3E0880F991FCA95E1F780589D4FC3
:102260008E0F911DEC015882CFC2803509F4D4C085
:10227000813509F0C9C221E030E040E050E060E083
:1022800070E080E090E00E94AD370091E802202BE2
:102290000091E902302B0091EA02402B0091EB0201
:1022A000502B0091EC02602B0091ED02702B0091FD
:1022B000EE02802B0091EF02902B2093E8023093E6
:1022C000E9024093EA025093EB026093EC027093B0
:1022D000ED028093EE029093EF02CD01D3E0880FE0
:1022E000991FDA95E1F780589D4F8E0F911DEC01F3
:1022F00078828AC28E3609F4CBC10CF045C0823692
:1023000009F405C28B3609F07FC221E030E040E0DD
:1023100050E060E070E080E090E00E94AD37009116
:102320002003202B00912103302B00912203402B0E
:1023300000912303502B00912403602B009125036F
:10234000702B00912603802B00912703902B209364
:10235000200330932103409322035093230360937F
:102360002403709325038093260390932703CD01C4
:1023700023E0880F991F2A95E1F780589D4F8E0F13
:10238000911DEC01988240C2813709F4FFC1823768
:1023900009F43FC1803709F037C221E030E040E066
:1023A00050E060E070E080E090E00E94AD37009186
:1023B000F802202B0091F902302B0091FA02402BF9
:1023C0000091FB02502B0091FC02602B0091FD025A
:1023D000702B0091FE02802B0091FF02902B209326
:1023E000F8023093F9024093FA025093FB02609393
:1023F000FC027093FD028093FE029093FF02CD01D8
:1024000073E0880F991F7A95E1F780589D4F8E0FE2
:10241000911DEC013882F8C121E030E040E050E04D
:1024200060E070E080E090E00E94AD370091C8026B
:10243000202B0091C902302B0091CA02402B009141
:10244000CB02502B0091CC02602B0091CD02702B5F
:102450000091CE02802B0091CF02902B2093C802D6
:102460003093C9024093CA025093CB026093CC02CE
:102470007093CD028093CE029093CF02CD0143E0C2
:10248000880F991F4A95E1F780589D4F8E0F911D37
:1024900021E0EC012883B8C121E030E040E050E0C9
:1024A00060E070E080E090E00E94AD370091E002D3
:1024B000202B0091E102302B0091E202402B009191
:1024C000E302502B0091E402602B0091E502702B97
:1024D0000091E602802B0091E702902B2093E0020E
:1024E0003093E1024093E2025093E3026093E402EE
:1024F0007093E5028093E6029093E702CD0133E00A
:10250000880F991F3A95E1F780589D4F8E0F911DC6
:10251000EC01188379C121E030E040E050E060E058
:1025200070E080E090E00E94AD370091D002202B57
:102530000091D102302B0091D202402B0091D302A6
:10254000502B0091D402602B0091D502702B00918A
:10255000D602802B0091D702902B2093D00230938B
:10256000D1024093D2025093D3026093D40270936D
:10257000D5028093D6029093D702CD0123E0880F35
:10258000991F2A95E1F780589D4F8E0F911DEC0100
:1025900088823AC121E030E040E050E060E070E045
:1025A00080E090E00E94AD370091D802202B00918E
:1025B000D902302B0091DA02402B0091DB02502B24
:1025C0000091DC02602B0091DD02702B0091DE0295
:1025D000802B0091DF02902B2093D8023093D902F8
:1025E0004093DA025093DB026093DC027093DD02C9
:1025F0008093DE029093DF02CD0103E0880F991FE4
:102600000A95E1F780589D4F8E0F911DEC0168826D
:10261000FBC021E030E040E050E060E070E080E0AE
:1026200090E00E94AD3700911003202B0091110320
:10263000302B00911203402B00911303502B00917B
:102640001403602B00911503702B00911603802B4F
:1026500000911703902B20931003309311034093A4
:102660001203509313036093140370931503809324
:10267000160390931703CD0163E0880F991F6A95A5
:10268000E1F780589D4F8E0F911DEC01B882BCC0C0
:1026900021E030E040E050E060E070E080E090E079
:1026A0000E94AD3700910003202B00910103302BD5
:1026B00000910203402B00910303502B009104036F
:1026C000602B00910503702B00910603802B009175
:1026D0000703902B209300033093010340930203E0
:1026E00050930303609304037093050380930603E0
:1026F00090930703CD0153E0880F991F5A95E1F796
:1027000080589D4F8E0F911DEC01D8827DC021E035
:1027100030E040E050E060E070E080E090E00E9457
:10272000AD3700910803202B00910903302B009155
:102730000A03402B00910B03502B00910C03602BDC
:1027400000910D03702B00910E03802B00910F035D
:10275000902B209308033093090340930A0350936E
:102760000B0360930C0370930D0380930E039093FF
:102770000F03CD0143E0880F991F4A95E1F7805878
:102780009D4F8E0F911DEC01A8823EC021E030E0EC
:1027900040E050E060E070E080E090E00E94AD3703
:1027A00000911803202B00911903302B00911A037C
:1027B000402B00911B03502B00911C03602B0091B8
:1027C0001D03702B00911E03802B00911F03902B83
:1027D000209318033093190340931A0350931B035B
:1027E00060931C0370931D0380931E0390931F033B
:1027F000CD0133E0880F991F3A95E1F780589D4F3E
:102800008E0F911DEC01C88217971CF0EF5FF0E06E
:1028100001C0FF5F4394CACC7091C8028091E0026E
:10282000782B6091C9028091E102682B5091CA0215
:102830008091E202582B4091CB028091E302482B19
:102840003091CC028091E402382B2091CD0280910E
:10285000E502282B9091CE028091E602982BE09120
:10286000CF028091E7028E2BE091D0027E2BE09187
:10287000D1026E2BE091D2025E2BE091D3024E2B5F
:10288000E091D4023E2BE091D5022E2BE091D602AE
:102890009E2BE091D7028E2BE091D8027E2BE09107
:1028A000D9026E2BE091DA025E2BE091DB024E2B17
:1028B000E091DC023E2BE091DD022E2BE091DE0266
:1028C0009E2BE091DF028E2BE091E8027E2BE091BF
:1028D000E9026E2BE091EA025E2BE091EB024E2BB7
:1028E000E091EC023E2BE091ED022E2BE091EE0206
:1028F0009E2BE091EF028E2B1091F002712BD09164
:10290000F1026D2BC091F2025C2B0091F302402B7F
:10291000B091F4023B2BA091F5022A2BF091F60224
:102920009F2BE091F7028E2B70932803609329036D
:1029300050932A0340932B0330932C0320932D03B1
:1029400090932E0380932F031091F802E0911003CF
:102950001E2BD091F902E0911103DE2BC091FA02F7
:10296000E0911203CE2B0091FB02E09113030E2B9A
:10297000B091FC02E0911403BE2BA091FD02E09106
:102980001503AE2BF091FE02E0911603FE2BF090A2
:10299000FF02E0911703EF29F09000031F29F09048
:1029A0000103DF29F0900203CF29F09003030F29E0
:1029B000F0900403BF29F0900503AF29F0900603BF
:1029C000FF29F0900703EF29F09008031F29F090EA
:1029D0000903DF29F0900A03CF29F0900B030F2998
:1029E000F0900C03BF29F0900D03AF29F0900E0377
:1029F000FF29F0900F03EF29F09018031F29F090A2
:102A00001903DF29F0901A03CF29B0901B03B02AD5
:102A1000C0901C03CB2AD0901D03DA2AE0901E033D
:102A2000EF2AF0901F03FE2AE09120031E2BE09175
:102A30002103DE2BE0912203CE2B009123030B29EF
:102A4000B0912403BC29A0912503AD29F091260360
:102A5000FE29E0912703EF2910933003D09331032F
:102A6000C093320300933303B0933403A093350330
:102A7000F0933603E0933703712B6D2B5C2B042B03
:102A8000B32BA22BF92BE82B7093380360933903F7
:102A900050933A0300933B03B0933C03A0933D0350
:102AA000F0933E03E0933F03E0ECF4E0A0E0B0E0FD
:102AB00021E030E040E050E060E070E080E090E055
:102AC0000A2F0E94AD37208331834283538364836E
:102AD00075838683978338961196A034B10541F7A4
:102AE000DF91CF911F910F91FF90EF90DF90CF90EA
:102AF000BF90AF909F908F907F906F905F904F901E
:102B00003F9008952F923F924F925F926F927F92E3
:102B10008F929F92AF92BF92CF92DF92EF92FF92ED
:102B20000F931F93CF93DF93CDB7DEB765970FB6A3
:102B3000F894DEBF0FBECDBF39014A016D8B7C8B8F
:102B4000B82FA92FA88AB98A0A8B1B8B822F8F775F
:102B50008983872D8F778A83842F8F778B83892D25
:102B60008F778C83162F1F77872F8F778D838B2FEF
:102B70008F778E83892F8F778F83822F8E7F8887A1
:102B8000872D8E7F8987842F8E7F8A87892D8E7FE0
:102B90008B87862F8E7F8C87872F8E7F8D878B2FBD
:102BA0008E7F8E87892F8E7F8F878B2F08E00E94E4
:102BB000AD3719012A015B01F82FE92F9301A40118
:102BC0006D897C898B2F9A2F0E94C837222A332A3D
:102BD000442A552AA62AB72AF82BE92B28853985B5
:102BE0004A855B856C857D858E859F8507E00E9483
:102BF000AD37222A332A442A552AA62AB72AF82B87
:102C0000E92B29813A814B815C81612F7D818E8105
:102C10009F8109E00E94AD37222A332A442A552A8F
:102C2000A62AB72AF82BE92B29813A814B815C81AE
:102C3000612F7D818E819F8101E00E94AD37222A24
:102C4000332A442A552AA62AB72AF82BE92B2981A8
:102C50003A814B815C81612F7D818E819F8107E06C
:102C60000E94C837222A332A442A552AA62AB72A7C
:102C7000F82BE92B288539854A855B856C857D8510
:102C80008E859F8509E00E94C837222A332A442A6C
:102C9000552AA62AB72AF82BE92B288539854A8593
:102CA0005B856C857D858E859F8501E00E94C83798
:102CB000222A332A442A552AA62AB72AF82BE92B96
:102CC00028892095A989A095C094D094E094F09487
:102CD0008A8980959B8990952221332D3A23442D12
:102CE0004C21552D5D216A2D6E217B2D7F218F2357
:102CF0009E2365960FB6F894DEBF0FBECDBFDF9161
:102D0000CF911F910F91FF90EF90DF90CF90BF90E8
:102D1000AF909F908F907F906F905F904F903F907B
:102D20002F9008952F923F924F925F926F927F92D1
:102D30008F929F92AF92BF92CF92DF92EF92FF92CB
:102D40000F931F93CF93DF93CDB7DEB76D970FB679
:102D5000F894DEBF0FBECDBFA88EB98ECA8E0B8F82
:102D6000E22FEC7FE983E32FEC7FEA83E42FEC7F13
:102D7000EB83E52FEC7FEC83E62FEC7FED83E72FF1
:102D8000EC7FEE83E82FEC7FEF83E92FEC7FE88781
:102D9000E22FEE7FE987E32FEE7FEA87E42FEE7FD5
:102DA000EB87E52FEE7FEC87E62FEE7FED87E72FB1
:102DB000EE7FEE87E82FEE7FEF87E92FEE7FE88B3F
:102DC000E22FEF772E2EE32FEF773E2EE42FEF77D3
:102DD0004E2EE52FEF775E2EE62FEF776E2EE72F44
:102DE000EF77E98BE82FEF77EA8BE92FEF77EB8B23
:102DF0002F732C8B3F733D8B4F734E8B5F735F8BA9
:102E00006F736D8F7F737C8FB82FBF73A92FAF73D4
:102E100029813A814B815C816D817E818F8198858A
:102E200006E00E94AD37722E832E942EA52EB62E6C
:102E3000C72EF82FE92F29853A854B855C856D854E
:102E40007E858F8598890FE00E94AD37722A832A8C
:102E5000942AA52AB62AC72AF82BE92B9101A201A8
:102E6000662D79898A899B8901E10E94AD37722A92
:102E7000832A942AA52AB62AC72AF82BE92B2C895B
:102E80003D894E895F896D8D7C8D8B2F9A2F0AE04D
:102E90000E94AD37722A832A942AA52AB62AC72A05
:102EA000F82BE92B2C893D894E895F896D8D7C8DAE
:102EB0008B2F9A2F06E00E94C837722A832A942A01
:102EC000A52AB62AC72AF82BE92B9101A201662D63
:102ED00079898A899B890FE00E94C837722A832AE0
:102EE000942AA52AB62AC72AF82BE92B29853A85E0
:102EF0004B855C856D857E858F85988901E10E9473
:102F0000C837722A832A942AA52AB62AC72AF82BF8
:102F1000E92B29813A814B815C816D817E818F8192
:102F200098850AE00E94C837722A832A942AA52A23
:102F3000B62AC72AF82BE92B288D2095B98DB09594
:102F4000AA8DA095D094E094F0948B8D8095912FCC
:102F500090952721382D3B23492D4A235A2D5D2159
:102F60006B2D6E217C2D7F218F239E236D960FB6B6
:102F7000F894DEBF0FBECDBFDF91CF911F910F91AF
:102F8000FF90EF90DF90CF90BF90AF909F908F9089
:102F90007F906F905F904F903F902F9008952F9269
:102FA0003F924F925F926F927F928F929F92AF92D9
:102FB000BF92CF92DF92EF92FF920F931F93CF9326
:102FC000DF93CDB7DEB72F970FB6F894DEBF0FBEF5
:102FD000CDBF29833A83142F5D876C87B72F8B83EE
:102FE000A92F48E353E0FA01808180958E87818183
:102FF00080958F87428040944C82538050945D82AC
:103000006481A62EA0947581B72EB0948681E82E97
:10301000E0949781F92EF094412F5D856C857B2F8C
:103020008B819A2F08E00E94AD37FE85F223FE8344
:10303000EF85E323D42CD422F52DF523F8876A21DC
:1030400069877B217A87882E8E20992E9F2029815F
:103050002E7F3A813E7F412F4E7F5D855E7F6C855E
:103060006E7F7B2F7E7F8B818E7F9A2F9E7F07E0E6
:103070000E94AD3719012A013B01C82EF92F298181
:103080002F773A813F77412F4F775D855F776C854A
:103090006F777B2F7F778B818F779A2F9F7709E0D0
:1030A0000E94AD37222933294429552966297729D9
:1030B0008C299F2BA0E3B3E02C9022213090310388
:1030C00033214090320344215090330355216090C6
:1030D00034036621709035037721C09036038C212C
:1030E000A09137039A232E80222A3E2E332A442E83
:1030F0004D285884552A6984662A7A84772A882A32
:10310000992A20E030E04D2D50E060E070E080E052
:1031100090E008E00E94AD37EE852E23FF853F2327
:10312000EC814E23FD815F236A217B218E219F212B
:10313000222933294429552966297729882999295B
:103140002F960FB6F894DEBF0FBECDBFDF91CF91A3
:103150001F910F91FF90EF90DF90CF90BF90AF90B5
:103160009F908F907F906F905F904F903F902F90A7
:1031700008952F923F924F925F926F927F928F921B
:103180009F92AF92BF92CF92DF92EF92FF920F93F6
:103190001F93CF93DF93CDB7DEB72F970FB6F89479
:1031A000DEBF0FBECDBF29833A83142F5D876C87A6
:1031B000B72F8B83A92F28E333E0F9018081809515
:1031C0008E87818180958F87428140954C83538182
:1031D00050955D836481A62EA0947581B72EB0941E
:1031E0008681E82EE0949781F92EF09429813A8126
:1031F000412F5D856C857B2F8B819A2F08E00E9483
:10320000C837FE85F223FE83EF85E323EF83FC813D
:10321000F423F887ED81E5236A216A87D72EDB2026
:10322000882E8E20992E9F2029812E7F3A813E7FE5
:10323000412F4E7F5D855E7F6C856E7F7B2F7E7F0D
:103240008B818E7F9A2F9E7F09E00E94C8371901DB
:103250002A013B01C82EF92F29812F773A813F7728
:10326000412F4F775D855F776C856F777B2F7F77F9
:103270008B818F779A2F9F7707E00E94C83722298A
:10328000332944295529662977298C299F2BA0E3C6
:10329000B3E02C902221309031033321409032034F
:1032A000442150903303552160903403662170907F
:1032B00035037721C09036038C21A09137039A23E0
:1032C0002E80222A3F80332A4884442A5E2E552AA3
:1032D0006A84662A772E7D28882A992A20E030E0A1
:1032E00040E050E060E07D2D80E090E008E00E944A
:1032F000C837FE852F23EF853E23FC814F23ED81C8
:103300005E236A217B218E219F2122293329442992
:10331000552966297729882999292F960FB6F89477
:10332000DEBF0FBECDBFDF91CF911F910F91FF90F8
:10333000EF90DF90CF90BF90AF909F908F907F9055
:103340006F905F904F903F902F9008952F923F92F3
:103350004F925F926F927F928F929F92AF92BF92A5
:10336000CF92DF92EF92FF920F931F93CF93DF9351
:10337000CDB7DEB76F970FB6F894DEBF0FBECDBFE7
:103380002F8B388F498F5A8F6B8F7C8F8D8F9E8FAD
:103390002CA8BDA9B887BEA9B987BFA9BA87B8ADFF
:1033A000BB87B9ADBC87BAADBD87BBADBE87A22810
:1033B000AF86B885BB29B88BB985BC29B98BBA85CE
:1033C000BD29BA8BBB85BE29BB8BBC85BF29BC8BF5
:1033D000BD85B02BBD8BBE85B12BBE8B20EC34E000
:1033E0003A832983C12CD12CE12CF12C00E010E090
:1033F0001F8EF0E0E0E0A981BA812C9111963C91FA
:10340000119712964C91129713965C9113971496FC
:103410006C91149715967C91159716968C9116972A
:1034200017969C9117971896BA83A983BF892B2367
:10343000B88D3B23B98D4B23BA8D5B23BB8D6B239A
:10344000BC8D7B23BD8D8B23BE8D9B23A0E00E9472
:10345000E43709F498C1CF82BC2C27E32B150CF478
:103460004FC028E0B20E38E0B39EC0011124805452
:103470009B4FDC013C9011964C90119712965C90FA
:10348000129713966C90139714967C901497159638
:103490008C90159716969C9016971796AC902F8542
:1034A000232138893421498945215A8956216B893C
:1034B00067217C8978218D8989219E899A21A0E0C4
:1034C0000E94E437F9F0222D2321388534214985E3
:1034D00045215A8556216B8567217C8578218D850C
:1034E00089219E859A210E94E43751F0D328E4284F
:1034F000F52806291729BF8DB829BF8FF929EA2990
:10350000BC2C47C0D328E428F52806291729BF8DED
:10351000B829BF8FF929EA29A0CF38EFB30EA8E068
:10352000BA9EC001112480549B4FDC013C9011963F
:103530004C90119712965C90129713966C9013977B
:1035400014967C90149715968C90159716969C90CF
:1035500016971796AC902F852321388934214989F5
:1035600045215A8956216B8967217C8978218D896B
:1035700089219E899A21A0E00E94E43771F4D32822
:10358000E428F52806291729BF8DB829BF8FF92906
:10359000EA2927E02B150CF21DC0222D23213885A6
:1035A0003421498545215A8556216B8567217C85C3
:1035B00078218D8589219E859A210E94E43751F0DA
:1035C000D328E428F52806291729BF8DB829BF8FED
:1035D000F929EA29BC2DB87FBB838B2F895FBC2CCE
:1035E000282F30E03E832D838B2D0B2C000C990B64
:1035F0002D813E81821793070CF04FC0B3943B2D71
:10360000A8E03A02C001112480549B4FDC013C9099
:1036100011964C90119712965C90129713966C909D
:10362000139714967C90149715968C901597169670
:103630009C9016971796AC902F85232138893421BA
:10364000498945215A8956216B8967217C897821CE
:103650008D8989219E899A21A0E00E94E43719F181
:10366000222D232138853421498545215A8556212B
:103670006B8567217C8578218D8589219E859A219E
:103680000E94E43751F0D328E428F52806291729A9
:10369000BF8DB829BF8FF929EA293B81232F30E05C
:1036A0003C832B8348C0D328E428F5280629172912
:1036B000BF8DB829BF8FF929EA2996CFBF81B150B4
:1036C000BF8328E0B202C001112480549B4FDC016B
:1036D0004C9011965C90119712966C9012971396DD
:1036E0007C90139714968C90149715969C90159730
:1036F0001696AC9016971796BC902F852421388982
:103700003521498946215A8957216B8968217C894D
:1037100079218D898A219E899B21A0E00E94E4372E
:10372000A9F4D428E528F62807291829BF8DB92936
:10373000BF8FFA29EB29BF818B2FBB0F990B2B81F0
:103740003C81281739070CF4B9CF1DC0222D242144
:1037500038853521498546215A8557216B85682151
:103760007C8579218D858A219E859B210E94E43765
:1037700051F0D428E528F62807291829BF8DB92942
:10378000BF8FFA29EB29C39430E4C31234CE2D2D18
:103790003E2D4F2D502F612F7F8D8F2F9E2F6F9697
:1037A0000FB6F894DEBF0FBECDBFDF91CF911F9152
:1037B0000F91FF90EF90DF90CF90BF90AF909F90D0
:1037C0008F907F906F905F904F903F902F900895D3
:1037D0002F923F924F925F926F927F928F929F9221
:1037E000AF92BF92CF92DF92EF92FF920F931F930F
:1037F000CF93DF93CDB7DEB7A1970FB6F894DEBFB6
:103800000FBECDBF298F3A8F4B8F5C8F6D8F7E8F10
:103810008F8F98A32EA8BFA9BA87B8ADBB87B9ADC3
:10382000BC87BAADBD87BBADBE87BCADBF87BDADE4
:10383000B88BA228A98ABA85BB29BA8BBB85BC29BB
:10384000BB8BBC85BD29BC8BBD85BE29BD8BBE8510
:10385000BF29BE8BBF85B02BBF8BB889B12BB88F6A
:1038600080EC94E09B838A831986D12CE12CF12C87
:1038700000E010E019A2F0E0E0E0AA81BB812C9109
:1038800011963C91119712964C91129713965C9158
:10389000139714966C91149715967C91159716961C
:1038A0008C91169717969C9117971896BB83AA83AD
:1038B000B98D2B23BA8D3B23BB8D4B23BC8D5B2352
:1038C000BD8D6B23BE8D7B23BF8D8B23B8A19B2326
:1038D000A0E00E94E43709F4C8C1898586958695E1
:1038E0008695B7E0B81BBC83B985B770B8872C81C3
:1038F000B20FBF8387EF289FB00D1124BD83C8840A
:10390000312CBF5BB9838C2D90E007976CF0BD81A3
:103910002C8189EF289FB0191124B983C884312CD8
:10392000BD81B15CBE83A5C0BF81CB1681F3C394BA
:103930008981830DA8E08A9FC001112480549B4F88
:10394000DC014C9011965C90119712966C90129736
:1039500013967C90139714968C90149715969C90C0
:1039600015971696AC9016971796BC90B9E03B0E3B
:10397000298924213A8935214B8946215C8957219F
:103980006D8968217E8979218F898A21988D9B2173
:10399000A0E00E94E437F9F0222D24213A85352158
:1039A0004B8546215C8557216D8568217E8579216F
:1039B0008F858A2198899B210E94E43709F4A7CF3B
:1039C000D428E528F62807291829B9A1B929B9A3C7
:1039D000FA29EB299CCFD428E528F62807291829AD
:1039E000B9A1B929B9A3FA29EB298DCFB981CB1691
:1039F00009F441C0CA948E81830D28E0829FC001E2
:103A0000112480549B4FDC014C9011965C901197CF
:103A100012966C90129713967C90139714968C9034
:103A2000149715969C9015971696AC901697179626
:103A3000BC90B7E03B0E298924213A8935214B8976
:103A400046215C8957216D8968217E8979218F897A
:103A50008A21988D9B21A0E00E94E43791F4D4281C
:103A6000E528F62807291829B9A1B929B9A3FA29FF
:103A7000EB29C110BBCFCC80312CBD81B15DB983A6
:103A800062C0222D24213A8535214B8546215C8553
:103A900057216D8568217E8579218F858A219889B6
:103AA0009B210E94E43739F3D428E528F62807291A
:103AB0001829B9A1B929B9A3FA29EB29DCCF8C2D92
:103AC00090E007970CF042C0C3948981830D28E0F1
:103AD000829FC001112480549B4FDC014C901196B1
:103AE0005C90119712966C90129713967C90139796
:103AF00014968C90149715969C9015971696AC90EA
:103B000016971796BC90B7EF3B0E298924213A8966
:103B100035214B8946215C8957216D8968217E8931
:103B200079218F898A21988D9B21A0E00E94E4371A
:103B3000B1F4D428E528F62807291829B9A1B9290C
:103B4000B9A3FA29EB29BF81CB12B9CFC884B12C14
:103B5000BC81BC19BC83BD81BF5CBD8360C0222D0C
:103B600024213A8535214B8546215C8557216D8579
:103B700068217E8579218F858A2198899B210E94E1
:103B8000E43721F3D428E528F62807291829B9A114
:103B9000B929B9A3FA29EB29D9CF873008F065C034
:103BA000C3948D818B0D28E0829FC0011124805425
:103BB0009B4FDC013C9011964C90119712965C90B3
:103BC000129713966C90139714967C9014971596F1
:103BD0008C90159716969C9016971796AC90B9EF07
:103BE000BB0E298923213A8934214B8945215C89DF
:103BF00056216D8967217E8978218F898921988D49
:103C00009A21A0E00E94E43799F4D328E428F5280B
:103C100006291729B9A1B829B9A3F929EA298C815C
:103C20008C0D2C2D30E0273031050CF4B6CF1DC0A3
:103C3000222D23213A8534214B8545215C8556214F
:103C40006D8567217E8578218F85892198899A21C4
:103C50000E94E43751F0D328E428F52806291729D3
:103C6000B9A1B829B9A3F929EA29B985BF5FB987EC
:103C7000B03409F002CE2D2D3E2D4F2D502F612F47
:103C800079A18F2F9E2FA1960FB6F894DEBF0FBE9D
:103C9000CDBFDF91CF911F910F91FF90EF90DF90FB
:103CA000CF90BF90AF909F908F907F906F905F90DC
:103CB0004F903F902F9008952F923F924F925F9296
:103CC0006F927F928F929F92AF92BF92CF92DF922C
:103CD000EF92FF920F931F93CF93DF93CDB7DEB791
:103CE00068970FB6F894DEBF0FBECDBF29833A8325
:103CF0004B835C836D837E838F839887A986BA8686
:103D0000CB86DC86ED86FE860F87188B9DA48EA45D
:103D10007FA468A859A84AA83BA82CA82F923F9234
:103D20004F925F926F927F928F929F92A984BA84F2
:103D3000CB84DC84ED84FE840F85188929813A8147
:103D40004B815C816D817E818F8198850E94A6194F
:103D50000FB6F894DEBF0FBECDBF298B3A8B4B8BCD
:103D60005C8B6D8B7E8B8F8B988F2F923F924F92B7
:103D70005F926F927F928F929F92A984BA84CB8434
:103D8000DC84ED84FE840F85188929813A814B817A
:103D90005C816D817E818F8198850E94E81B0FB6C2
:103DA000F894DEBF0FBECDBFF9892F2BEA893E2BD9
:103DB000FB894F2BEC895E2BFD896F2BEE897E2BC7
:103DC000FF898F2BE88D9E2B68960FB6F894DEBF87
:103DD0000FBECDBFDF91CF911F910F91FF90EF905C
:103DE000DF90CF90BF90AF909F908F907F906F901B
:103DF0005F904F903F902F9008952F923F924F9257
:103E00005F926F927F928F929F92AF92BF92CF926A
:103E1000DF92EF92FF920F931F93CF93DF93CDB773
:103E2000DEB7E0970FB6F894DEBF0FBECDBF20918E
:103E3000C8023091C9024091CA025091CB026091F0
:103E4000CC027091CD028091CE029091CF020E945F
:103E5000CF1729873A874B875C876D877E878F8747
:103E6000988BE8E2F3E03080418052806380748078
:103E70008580968027802091F0023091F102409158
:103E8000F2025091F3026091F4027091F502A32CBA
:103E9000B42CC52CD62CE72CF82C092D122D809192
:103EA000F6029091F7020E948215298B3A8B4B8B78
:103EB0005C8B6D8B7E8B8F8B988F2091D002309195
:103EC000D1024091D2025091D3026091D4027091FC
:103ED000D5028091D6029091D7020E949216298F26
:103EE0003A8F4B8F5C8F6D8F7E8F8F8F98A3E0E220
:103EF000F3E07081709561816095528150954381A6
:103F000040953481309525812095968190958781C3
:103F10008095E0E3F3E0A081A723A9837181762354
:103F20007A83628165236B83538154235C8344814C
:103F300043234D83358132233E83268129232F83DA
:103F40009781982398872091E0023091E102409177
:103F5000E2025091E3026091E4027091E5029F93C6
:103F60000F810F931E811F938D818F93EC81EF93AF
:103F7000FB81FF930A810F9319811F93092D122D45
:103F80008091E6029091E7020E94A6190FB6F8947C
:103F9000DEBF0FBECDBF29A33AA34BA35CA36DA385
:103FA0007EA38FA398A72091D8023091D902409187
:103FB000DA025091DB026091DC027091DD02F8853B
:103FC000FF930F810F931E811F938D818F93EC813F
:103FD000EF93FB81FF930A810F9319811F93092DA2
:103FE000122D8091DE029091DF020E94E81B0FB635
:103FF000F894DEBF0FBECDBF29A73AA74BA75CA799
:104000006DA77EA78FA798AB2091E8023091E902B7
:104010004091EA025091EB026091EC027091ED0246
:10402000F885FF930F810F931E811F938D818F93CE
:10403000EC81EF93FB81FF930A810F9319811F930A
:10404000092D122D8091EE029091EF020E945C1ECC
:104050000FB6F894DEBF0FBECDBF9984F9899F2AB1
:104060000A851A89012B0A83EB85FB89EF2BE983EB
:10407000BC850C89B02BED851D89E12BAE85FE89B1
:10408000AF2BFF850F89F02B8888188D812A098D29
:10409000902A1A810A8D102B1A8319810B8D102BEF
:1040A00019831C8DB12B0D8DE02B1E8DA12B0F8D37
:1040B000F02B18A1812A09A1902A1A810AA1102B9C
:1040C0001A8319810BA1102B19831CA1B12B0DA1EF
:1040D000E02B1EA1A12B0FA1F02B18A5812A09A569
:1040E000902A1A810AA5102B1A8319810BA5102B6F
:1040F00019831CA5B12B0DA5E02B1EA5A12B0FA587
:10410000F02B28A8282829291A81312B0981402B36
:104110005B2B6E2B7A2B8F2B9229E0960FB6F8949F
:10412000DEBF0FBECDBFDF91CF911F910F91FF90EA
:10413000EF90DF90CF90BF90AF909F908F907F9047
:104140006F905F904F903F902F9008952F923F92E5
:104150004F925F926F927F928F929F92AF92BF9297
:10416000CF92DF92EF92FF920F931F93CF93DF9343
:10417000CDB7DEB7E0970FB6F894DEBF0FBECDBF68
:104180002091F8023091F9024091FA025091FB021D
:104190006091FC027091FD028091FE029091FF02FD
:1041A0000E94CF172F83388749875A876B877C8770
:1041B0008D879E87E0E3F3E020803180428053804A
:1041C0006480758086809780E0E2F3E02081318111
:1041D00042815381648175815101620173018401BF
:1041E000868197810E9482152F87388B498B5A8B45
:1041F0006B8B7C8B8D8B9E8BE0E0F3E0208131819B
:104200004281538164817581868197810E949216D3
:104210002F8B388F498F5A8F6B8F7C8F8D8F9E8F0E
:104220007091F00270956091F10260955091F202E8
:1042300050954091F30240953091F40230952091D1
:10424000F50220959091F60290958091F702809565
:10425000E8E2F3E0A081A723AFA77181762378ABD2
:10426000628165236983538154235A8344814323A4
:104270004B83358132233C83268129232D839781EB
:1042800098239E83E0E1F3E02081318142815381D4
:10429000648175819F931D811F938C818F931B81F6
:1042A0001F938A818F9319811F9388A98F931FA5CC
:1042B0001F93192D868197810E94A6190FB6F89435
:1042C000DEBF0FBECDBF2F8F38A349A35AA36BA368
:1042D0007CA38DA39EA3E8E0F3E02081318142819D
:1042E0005381648175811E811F938D818F931C8101
:1042F0001F938B818F931A811F9389818F9318A9A4
:104300001F938FA58F93192D868197810E94E81B9B
:104310000FB6F894DEBF0FBECDBF2FA338A749A7B5
:104320005AA76BA77CA78DA79EA7E8E1F3E02081A1
:10433000318142815381648175811E811F938D81FA
:104340008F931C811F938B818F931A811F93898177
:104350008F9318A91F938FA58F93192D868197810D
:104360000E945C1E0FB6F894DEBF0FBECDBF8F80DB
:10437000FF858F2A98841889912AB985E989BE2BEF
:10438000AA85FA89AF2BEB851B89E12BFC851C895B
:10439000F12B6D841D89612A7E841E89712A1F89F3
:1043A000812A188D912A198DB12B1A8DA12B1B8D65
:1043B000E12B1C8DF12B1D8D612A1E8D712A1F8D05
:1043C000812A18A1912A19A1B12B1AA1A12B1BA1F5
:1043D000E12B1CA1F12B1DA1612A1EA1712A1FA195
:1043E000812A18A5912A19A5B12B1AA5A12B1BA5C5
:1043F000E12B1CA5F12B1DA516291A831EA5172933
:10440000282939294B2B5A2B6E2B7F2BEA818E2B97
:10441000912BE0960FB6F894DEBF0FBECDBFDF91B3
:10442000CF911F910F91FF90EF90DF90CF90BF90B1
:10443000AF909F908F907F906F905F904F903F9044
:104440002F9008952F923F924F925F926F927F929A
:104450008F929F92AF92BF92CF92DF92EF92FF9294
:104460000F931F93CF93DF93CDB7DEB768970FB647
:10447000F894DEBF0FBECDBF2D833E834F83588798
:1044800069877A878B879C87188F0F8B1701D801D4
:104490001C9211961C92119712961C9212971396C9
:1044A0001C92139714961C92149715961C921597AC
:1044B00016961C92169717961C92F701108211827D
:1044C0001282138214821582168217820E94CF17DD
:1044D0006090F80226217090F90237218090FA024C
:1044E00048219090FB0259215090FC026521409098
:1044F000FD027421E091FE02FE2FF8238091FF025D
:10450000E82FE923D8016C90622A11967C901197CC
:10451000732A12968C901297842A898213969C9003
:104520001397952A9A8214965C901497562A15969A
:104530004C901597472A16968C9116978F2B8B8344
:1045400017969C9117979E2B9C836C9211967C9248
:10455000119712968C92129713969C921397149619
:104560005C92149715964C92159716968C93169705
:1045700017969C9388E2882E83E0982ED401AC9005
:104580001196BC9011971296CC9012971396DC90CE
:1045900013971496EC9014971596FC901597169611
:1045A0000C91169717961C912D813E814F8158854D
:1045B00069857A858B859C850E949216E0E0F3E000
:1045C000A0812A23A1813A23A2814A23A3815A23CD
:1045D000A4816A23A5817A23A6818A23E7819E2369
:1045E00026292D8737293E87B981B42BB983EA81E3
:1045F000E52BEA8365296F877429788BFB81F82B7B
:10460000FB83DC80D92ADC82AF89B88D2C9311968C
:104610003C931197E9811296EC931297FA811396C5
:10462000FC93139714966C93149715967C93159797
:10463000FB801696FC9216972C8117962C93D4012A
:10464000AC901196BC9011971296CC90129713963D
:10465000DC9013971496EC9014971596FC90159790
:1046600016960C91169717961C9190E3692E93E07D
:10467000792EF30187818F9386818F9385818F9324
:1046800084818F9383818F9382818F9381818F9394
:1046900080818F932D813E814F81588569857A85F0
:1046A0008B859C850E94E81B0FB6F894DEBF0FBE79
:1046B000CDBF298B3A8B4B8B552E462E7C8B8D8B09
:1046C0009E8BE8E0F3E02081B9892B233181DA88E1
:1046D0003D214281FB884F21538155216481642112
:1046E00075818C89782386819D8989239781AE89FC
:1046F0009A23BD852B2BAF89B88D2C93BE853B2B80
:10470000AF89B88D11963C93B9814B2BAF89B88D89
:1047100012964C93BA815B2BAF89B88D13965C933C
:10472000BF856B2BAF89B88D14966C93B8897B2BA2
:10473000AF89B88D15967C93BB818B2BAF89B88DD3
:1047400016968C93BC819B2BAF89B88D17969C9342
:10475000D301AC901196BC9011971296CC90129701
:104760001396DC9013971496EC9014971596FC9082
:10477000159716960C91169717961C9120813181EA
:104780004281538164817581D40117968C9117976A
:104790008F9316968C9116978F9315968C911597EB
:1047A0008F9314968C9114978F9313968C911397E3
:1047B0008F9312968C9112978F9311968C911197DB
:1047C0008F938C918F93868197810E94E81B0FB6FF
:1047D000F894DEBF0FBECDBFE090F002E094F09001
:1047E000F102F0940091F20200951091F3021095FD
:1047F000B091F402B095A091F502A095F091F60267
:10480000F095E091F702E095D9882D21DA883D21D5
:10481000DB884D2155216421DC887D21DD888D21B7
:10482000DE889D212E213F21402351236B23A72386
:104830008F239E23F101E0802E292083F1803F29E0
:1048400031830281402B42831381512B5383448057
:10485000642964837581272F2A2B25832681822B47
:1048600086838781982B9783D401AC901196BC9056
:1048700011971296CC9012971396DC90139714967A
:10488000EC9014971596FC90159716960C91169728
:1048900017961C91F30187818F9386818F93858171
:1048A0008F9384818F9383818F9382818F93818172
:1048B0008F9380818F932D813E814F8158856985AB
:1048C0007A858B859C850E94A6190FB6F894DEBF69
:1048D0000FBECDBF29833A834B835C83562E472E70
:1048E0008D879E87E0E1F3E02081B9812B239181C0
:1048F000932382818423738175236481652155818B
:1049000054214681DD844D213781FE843F21AF89CA
:10491000B88D1C91212B2C9311962C911197922BD1
:1049200011969C93119712969C911297892B12962F
:104930008C93129713968C911397872B13968C93C5
:10494000139714968C911497862B14968C93149726
:1049500015968C911597852B15968C931597169611
:104960008C911697842B16968C93169717968C918C
:104970001797832B17968C93D301AC901196BC900C
:1049800011971296CC9012971396DC901397149669
:10499000EC9014971596FC90159716960C91169717
:1049A00017961C91208131814281538164817581E8
:1049B000D40117968C9117978F9316968C91169712
:1049C0008F9315968C9115978F9314968C911497BD
:1049D0008F9313968C9113978F9312968C911297B5
:1049E0008F9311968C9111978F938C918F938681D1
:1049F00097810E94A6190FB6F894DEBF0FBECDBFF7
:104A0000E090F002E094F090F102F0940091F20254
:104A100000951091F3021095B091F402B095A09119
:104A2000F502A095F091F602F095E091F702E0957D
:104A3000B980B222CA80C322DB80D4222C812523F4
:104A4000562247223D8583237E8597233E2D3B2199
:104A50004F2D4C21502F5D21612F62235B224A2272
:104A60008F239E23D1012C91232B2C9311963C91C3
:104A70001197232F242B11962C93119712964C915A
:104A80001297242F252B12962C93129713965C9134
:104A90001397252F262B13962C93139714966C910E
:104AA0001497562A14965C92149715967C91159734
:104AB000472A15964C92159716962C911697822B8D
:104AC00016968C93169717968C911797982B179686
:104AD0009C93F401A080B180C280D380E480F580F3
:104AE00006811781D30117968C9117978F9316968D
:104AF0008C9116978F9315968C9115978F9314968A
:104B00008C9114978F9313968C9113978F93129681
:104B10008C9112978F9311968C9111978F938C9102
:104B20008F932D813E814F81588569857A858B854C
:104B30009C850E945C1E0FB6F894DEBF0FBECDBFF1
:104B400029833A832A016B837C838D839E83E8E1EA
:104B5000F3E02081D9802D219181932382818423C8
:104B6000738175216481FB806F2155813C815323C2
:104B70004681AD814A233781BE813B23AF89B88D01
:104B80001C91212B2C9311962C911197922B1196FD
:104B90009C93119712969C911297892B12968C9345
:104BA000129713968C911397872B13968C931397C8
:104BB00014968C911497862B14968C9314971596B3
:104BC0008C911597852B15968C93159716968C912D
:104BD0001697842B16968C93169717968C91179789
:104BE000832B17968C93D301AC901196BC901197A0
:104BF0001296CC9012971396DC9013971496EC9023
:104C000014971596FC90159716960C911697179673
:104C10001C91208131814281538164817581D4014D
:104C200017968C9117978F9316968C9116978F9352
:104C300015968C9115978F9314968C9114978F934A
:104C400013968C9113978F9312968C9112978F9342
:104C500011968C9111978F938C918F938681978168
:104C60000E945C1E0FB6F894DEBF0FBECDBF009150
:104C7000F00200951091F1021095F091F202F0957A
:104C8000F887D090F302D094DF82B091F402B0950F
:104C9000A091F502A095F091F602F095E091F7024F
:104CA000E095F9802F21DA803D2144215521FB80B8
:104CB0006F217C8077227D818723DE809D212023C8
:104CC0003123F8844F217F8157236B237A228F234E
:104CD0009E23D1010C91202B2C9311961C9111979E
:104CE000312B11963C9311971296BC914B2BF101ED
:104CF0004283538055295383648066296483758178
:104D0000772A758286808829868397809929978358
:104D100068960FB6F894DEBF0FBECDBFDF91CF917E
:104D20001F910F91FF90EF90DF90CF90BF90AF90C9
:104D30009F908F907F906F905F904F903F902F90BB
:104D400008952F923F924F925F926F927F928F922F
:104D50009F92AF92BF92CF92DF92EF92FF920F930A
:104D60001F93CF93DF93CDB7DEB76A970FB6F89452
:104D7000DEBF0FBECDBF2F83388749875A876B8729
:104D80007C878D879E871A8F098F1701D8011C9207
:104D900011961C92119712961C92129713961C92C0
:104DA000139714961C92149715961C9215971696A5
:104DB0001C92169717961C92F7011082118212828C
:104DC000138214821582168217820E94B918E0ECB1
:104DD0008E2EE2E09E2ED4011896EC9118972E2389
:104DE0001996EC9119973E231A967C901A974721B1
:104DF0001B966C901B9756211C965C901C97652106
:104E00001D964C901D9774211E96EC911E97FE2FB7
:104E1000F8231F968C91E82FE923D8018C91822BDF
:104E2000898311968C911197832B8A8312967C909B
:104E30001297742A7B8213966C901397652A6C8262
:104E400014965C901497562A15964C901597472AFD
:104E500016968C9116978F2B8D8317969C9117978A
:104E60009E2B9E83E981EC93FA811196FC93119716
:104E700012967C92129713966C92139714965C92EA
:104E8000149715964C92159716968C93169717961D
:104E90009C93F0E36F2EF3E07F2ED301AC9011963C
:104EA000BC9011971296CC9012971396DC901397A2
:104EB0001496EC9014971596FC90159716960C91F5
:104EC000169717961C912F81388549855A856B85D1
:104ED0007C858D859E850E949216D4015096EC911A
:104EE00050972E235196EC9151973E235296EC9178
:104EF00052974E235396EC9153975E235496EC9120
:104F000054976E235596EC9155977E235696EC91C7
:104F100056978E235796EC919E23B981B22BB98375
:104F2000EA81E32BEA83FB81F42BFB83DC80D52A27
:104F3000DC8265296F877429788BFD80F82AFD82D1
:104F40002E81292B2E83EB2FA98DBA8DEC93FA811C
:104F50001196FC931197DB801296DC921297FC80DD
:104F60001396FC92139714966C93149715967C9352
:104F700015973D8116963C9316975E8117965C9324
:104F8000D301AC901196BC9011971296CC901297C9
:104F90001396DC9013971496EC9014971596FC904A
:104FA000159716960C91169717961C91A8E24A2E03
:104FB000A3E05A2EF20187818F9386818F9385819A
:104FC0008F9384818F9383818F9382818F9381814B
:104FD0008F9380818F932F81388549855A856B8582
:104FE0007C858D859E850E94E81B0FB6F894DEBFF8
:104FF0000FBECDBF298B3A8B4B8B5C8B6D8B7E8B21
:105000008F8B988FF401208DF9892F23D401599625
:105010003C91BA893B23F401428DFB894F23D40193
:105020005B965C91BC895B23F401648DFD896F23E1
:10503000D4015D967C91BE897B23F401868DFF8926
:105040008F23D4015F969C91B88D9B23E9812E2BF1
:10505000A98DBA8D2C93BA813B2BE98DFA8D3183C2
:10506000FB814F2BA98DBA8D12964C93BC815B2B83
:10507000E98DFA8D5383FF856F2BA98DBA8D149618
:105080006C93B8897B2BE98DFA8D7583FD818F2B0D
:10509000A98DBA8D16968C93BE819B2BE98DFA8DC6
:1050A0009783D201AC901196BC9011971296CC9038
:1050B00012971396DC9013971496EC90149715960C
:1050C000FC90159716960C91169717961C91F40163
:1050D000208D318D428D538D648D758DD301179642
:1050E0008C9117978F9316968C9116978F93159690
:1050F0008C9115978F9314968C9114978F93139688
:105100008C9113978F9312968C9112978F9311967F
:105110008C9111978F938C918F93868D978D0E9490
:10512000E81B0FB6F894DEBF0FBECDBFA0E2B3E020
:10513000EC90E094F0902103F0940091220300950C
:10514000109123031095B0912403B095A0912503ED
:10515000A095F0912603F095E0912703E095D9887A
:105160002D21DA883D21DB884D21DC885D21DD8819
:105170006D21DE887D21DF888D21D88C9D212E2117
:105180003F21402351236B23A7238F239E23F1012B
:10519000E0802E292083F1803F2931830281402B3A
:1051A00042831381512B53832481622B6483758145
:1051B000272F2A2B25832681822B86838781982B74
:1051C0009783D301AC901196BC9011971296CC9016
:1051D00012971396DC9013971496EC9014971596EB
:1051E000FC90159716960C91169717961C91F20144
:1051F00087818F9386818F9385818F9384818F930D
:1052000083818F9382818F9381818F9380818F930C
:105210002F81388549855A856B857C858D859E854E
:105220000E94A6190FB6F894DEBF0FBECDBF29832A
:105230003A834B835C836D837E838F87988BF401E5
:1052400040A1422331A1FA813F23D40192962C91AF
:10525000BB812B23F40193A1952384A1862375A1FF
:10526000FE817F23D40196966C91BF856B23F40158
:1052700057A1F8895F23A98DBA8DEC914E2B4C93E1
:1052800011964C911197342B11963C9311971296CD
:105290003C911297232B12962C93129713962C91D4
:1052A0001397922B13969C93139714969C91149793
:1052B000892B14968C93149715968C911597872BA0
:1052C00015968C93159716968C911697862B169695
:1052D0008C93169717968C911797852B17968C930E
:1052E000F201A080B180C280D380E480F580068185
:1052F0001781D40190962C91909791963C9191971B
:1053000092964C91929793965C91939794966C9108
:10531000949795967C919597F30187818F938681D9
:105320008F9385818F9384818F9383818F938281E3
:105330008F9381818F9380818F9396968C9196978E
:1053400097969C910E94A6190FB6F894DEBF0FBEE7
:10535000CDBFE0E2F3E0E080E094F0902103F09430
:10536000009122030095109123031095B09124031E
:10537000B095A0912503A095F0912603F095E091BA
:105380002703E095D980D222D982AA80A322BB80AC
:10539000B422CC80C522DD80D6222E8127233F85F2
:1053A00083235889952339813E214F2D4A21502F3F
:1053B0005B21612F6C217B2F7D21A2238F239E23D4
:1053C000F1012081232B20833181232F242B218362
:1053D0004281242F252B22835381252F262B2383A3
:1053E0006481262F272B24837581272F2A2B258341
:1053F0002681822B86838781982B9783D301AC905B
:105400001196BC9011971296CC9012971396DC903F
:1054100013971496EC9014971596FC901597169682
:105420000C91169717961C91F20187818F938681B4
:105430008F9385818F9384818F9383818F938281D2
:105440008F9381818F9380818F932F8138854985B8
:105450005A856B857C858D859E850E945C1E0FB666
:10546000F894DEBF0FBECDBF29833A834B835C83A4
:105470006D837E838F839887F40140A5422331A5F5
:10548000FA813F23D4019A962C91BB812B23F401FE
:1054900093A5952384A5862375A5FE817F23D4013A
:1054A0009E966C91BF816B23F40157A5F8855F230D
:1054B000A98DBA8DEC914E2B4C9311964C9111976E
:1054C000342B11963C93119712963C911297232BF3
:1054D00012962C93129713962C911397922B139646
:1054E0009C93139714969C911497892B14968C93E4
:1054F000149715968C911597872B15968C93159765
:1055000016968C911697862B16968C93169717964F
:105510008C911797852B17968C93F201A080B18000
:10552000C280D380E480F58006811781D4019896EB
:105530002C91989799963C9199979A964C919A9715
:105540009B965C919B979C966C919C979D967C9169
:105550009D97F30187818F9386818F9385818F93A8
:1055600084818F9383818F9382818F9381818F93A5
:1055700080818F939E968C919E979F969C910E947E
:105580005C1E0FB6F894DEBF0FBECDBFE0E2F3E0C5
:1055900000810095109121031095F0912203F09560
:1055A000FA87D0902303D094D986B0912403B09584
:1055B000A0912503A095F0912603F095E091270393
:1055C000E095F9802F21DA803D21FB804F21DC809E
:1055D0005D21FD806F217E8077227F818723D884A3
:1055E0009D2120233123FA844F21798557236B2372
:1055F0007A228F239E23D1010C91202B2C9311967C
:105600001C911197312B11963C9311971296BC91D6
:105610004B2BF101428353805529538364806629C3
:1056200064837581772A758286808829868397802E
:10563000992997836A960FB6F894DEBF0FBECDBF47
:10564000DF91CF911F910F91FF90EF90DF90CF905E
:10565000BF90AF909F908F907F906F905F904F9092
:105660003F902F9008952F923F924F925F926F92AA
:105670007F928F929F92AF92BF92CF92DF92EF92E2
:10568000FF920F931F93CF93DF93CDB7DEB7B88D03
:10569000A8E0BA9FF0011124E054FD4F422E40943F
:1056A000532E5094642E6094752E7094962E909480
:1056B000A72FA095B82FB095292E209430803420A4
:1056C0004180452052805620638067207480792075
:1056D00095809A22A681BA23A781A2213A284B2835
:1056E0005C286D287E289F28B02BA12B3082418218
:1056F0005282638274829582B683A783E98DA8E083
:10570000EA9FF0011124E054FD4FA0812A27A181D6
:105710003A27A2814A27A3815A27A4816A27A58113
:105720007A27A6818A27A7819A27A22AB32AC42A80
:10573000D52AE62AF72A082B192BA082B182C28229
:10574000D382E482F58206831783EA8DB8E0EB9F6B
:10575000F0011124E054FD4F2081A22A3181B32AA7
:105760004281C42A5381D52A6481E62A7581F72AA9
:105770008681082B9781192BE8E3F3E0A082B182A0
:10578000C282D382E482F5820683178388E0889EF2
:10579000F0011124E058FD4F8D89E80FF11D1082B2
:1057A000EE89A8E0EA9FF0011124E058FD4F8F89AF
:1057B000E80FF11DB88DB083DF91CF911F910F914C
:1057C000FF90EF90DF90CF90BF90AF909F908F9021
:1057D0007F906F905F904F903F902F900895CF9261
:1057E000DF92EF92FF920F931F93CF93DF93E90124
:1057F000142F052FF62EE72ED82EC92EE8ECF2E056
:10580000B1E020813181428153816481758186813B
:10581000978138962C233D23412350236F217E21ED
:105820008D219C21A0E00E94E43729F4BF5FBD30A8
:1058300041F780E001C08B2FDF91CF911F910F9135
:10584000FF90EF90DF90CF9008952F923F924F926C
:105850005F926F927F928F929F92AF92BF92CF9200
:10586000DF92EF92FF920F931F93CF93DF9300D0BD
:1058700000D01F92CDB7DEB78091C0068B8380E049
:105880006799E2C0F894811103C08091C00601C0FD
:105890008B8181111EC040E054E06091C20680916E
:1058A000C1060E94880E6091C2068091C1060E94C6
:1058B000E30E8091C1068093C5068091C206809355
:1058C000C60691E09093C006109269020E94870F6D
:1058D000B8C08091C20689839091C1069A8387E0FF
:1058E0009981891BEA8198E0899FE00D112488E065
:1058F000E89FF0011124E054FB4FA080B180C280EA
:10590000D380E480F58006811781209178022A21D6
:10591000309179023B2140917A024C2150917B02D7
:105920005D2160917C026E2170917D027F218091CA
:105930007E0290917F0280239123A0E02090C606F2
:105940008090C5060E94E43709F462C087E082199E
:10595000E82D98E0899FE00D112488E0E89FF00190
:105960001124E054FB4F308041805280638074806A
:10597000958096819D8387818C83232D342D452DA1
:10598000562D672D792D892F9C810E94EF2B873012
:1059900018F49DE02EE002C09EE02DE02F939F932F
:1059A0008F9399819F938A818F932F92232D342DEA
:1059B000452D562D672D792D8D819C810E94332B8D
:1059C0008091C5066091C606982F960F0F900F9094
:1059D0000F900F900F900F9090FD03C04CE255EF89
:1059E00002C042E25AE80E94880E6091C606809189
:1059F000C5060E94E30E49EF56E46091C20680910D
:105A0000C1060E94880E6091C2068091C10611C035
:105A1000882D820D80FD03C04CE255EF02C042E2AA
:105A20005AE8622D882D0E94880E6091C6068091EA
:105A3000C5060E94E30E109269020E94870F109221
:105A4000C006789481E01CCF0F900F900F900F90BC
:105A50000F90DF91CF911F910F91FF90EF90DF900A
:105A6000CF90BF90AF909F908F907F906F905F90FE
:105A70004F903F902F9008952F923F924F925F92B8
:105A80006F927F928F929F92AF92BF92CF92DF924E
:105A9000EF92FF920F931F93CF93DF93CDB7DEB7B3
:105AA000E9970FB6F894DEBF0FBECDBF2DA33EA37E
:105AB0004FA358A769A77AA78BA79CA72095288BE7
:105AC000232F2095298B542F50955A8B88A580958C
:105AD0008B8B962F90959C8BA72FA095AD8BEBA5CC
