:100000000C9455010C9474010C9474010C947401BB
:100010000C9474010C94040E0C94040E0C94740152
:100020000C9474010C9474010C9474010C9474017C
:100030000C9474010C9474010C9474010C9474016C
:100040000C9474010C94320E0C9474010C94740191
:100050000C9474010C9474010C9474010C9474014C
:100060000C9474010C9474010C9474010C9474013C
:100070000C9474010C9474010C9474010C9474012C
:100080000C9474010C9474010C9474010C9474011C
:100090000C9474010C947401FF061E0703070C07EF
:1000A00015072D073B0753078107570760076907A7
:1000B00072078F071D2B9E297D29612AF429CE2ADC
:1000C000A828AF29EF282D2AC0299A2A81280000C4
:1000D00000000000005F00000003000300143E1455
:1000E0003E14242A7F2A124333086661364955227A
:1000F000500005030000001C2241000041221C00AA
:1001000014083E081408083E080800503000000893
:1001100008080808006060000020100804023E5132
:1001200049453E0004027F0042615149462241494F
:1001300049361814127F1027454545393E4949492B
:100140003201017109073649494936264949493E74
:100150000036360000005636000008142241001414
:1001600014141414004122140802015109063E41DE
:1001700059555E7E0909097E7F494949363E41410C
:1001800041227F4141413E7F494949417F09090957
:10019000013E4141493A7F0808087F00417F410004
:1001A000304040403F7F081422417F404040407F24
:1001B000020C027F7F0204087F3E4141413E7F09DD
:1001C0000909061E2121215E7F0909097626494970
:1001D000493201017F01013F4040403F1F20402044
:1001E0001F7F2010207F41221C2241070870080732
:1001F0006151494543007F4100000204081020007E
:1002000000417F00040201020440404040400001E0
:1002100002040020545454787F4444443838444401
:100220004444384444447F385454541804047E05EC
:1002300005085454543C7F0804047800447D400071
:100240002040443D007F1028440000417F40007C56
:10025000047804787C0804047838444444387C14D6
:10026000141408081414147C007C08040448545422
:10027000542004043F44443C4040207C1C20402047
:100280001C3C4030403C44281028440C5050503C0A
:100290004464544C44000836414100007F00004152
:1002A0004136080002010204020011241FBECFEFF4
:1002B000D0E2DEBFCDBF12E0A0E0B1E0E6EDFEE5AA
:1002C00000E00BBF02C007900D92A636B107D9F728
:1002D00026E0A6E6B2E001C01D92A83CB207E1F715
:1002E0000E94362B0C94692F0C940000977025E027
:1002F000969587952A95E1F70895892F8695869595
:10030000869590E008958F719927089595E0660F7E
:10031000771F9A95E1F7460F571F20E030E0382FFE
:10032000330F330F330FCA01820F931F08954F927B
:100330005F926F927F928F929F92AF92BF92CF9275
:10034000DF92EF92FF92CF93DF93EC012A013B0102
:10035000BC01672F772766956695669580E090E0EB
:100360000E94CC2CA30192010E94DB2D20E030E002
:1003700040E05FE30E94B32B0E949D2C4B015C0187
:10038000BE01777055E0769567955A95E1F780E064
:1003900090E00E94CC2CA30192010E94DB2D20E072
:1003A00030E040E05FE30E94B32B0E949D2C6B0184
:1003B0007C01BE016F71772780E090E00E94CC2C19
:1003C000A30192010E94DB2D20E030E040E05FE3DA
:1003D0000E94B32B0E949D2C94012032310510F015
:1003E0002FE130E04901982C8824990C990C990C44
:1003F0006032710510F06FE170E0680D791DC60183
:100400008034910510F08FE390E025E0880F991F6C
:100410002A95E1F7860F971FDF91CF91FF90EF901C
:10042000DF90CF90BF90AF909F908F907F906F9014
:100430005F904F90089593E89093B00091E090936F
:10044000B1008093B3000895909373028093720279
:1004500026E330E020930040009779F480EF90E0AD
:1004600090936F0280936E0280E491E0909371020A
:100470008093700288E490E034C08130910579F473
:1004800080E491E090936F0280936E0280EF90E0A1
:10049000909371028093700288EE90E022C08230C7
:1004A000910579F480EF90E090936F0280936E0253
:1004B00080E491E0909371028093700288E890E06C
:1004C00010C0039781F480E491E090936F028093D1
:1004D0006E0280EF90E0909371028093700288E248
:1004E00090E0809300418AE290E08093004020E019
:1004F00030E0309300412093004180916E02909152
:100500006F02019790930041809300418BE290E04D
:10051000809300403093004120930041809170020D
:10052000909171020197909300418093004108954A
:10053000CF93873748F4883048F08D3350F48F31AB
:1005400050F4803150F403C086E703C088E0C3E074
:1005500005C0C0E003C0C1E001C0C2E021EB30E053
:1005600020930040C0930041682F70E080E090E04D
:100570000E94CE2C9B01AC0160E070E080EF94E41F
:100580000E94242C0E949D2C70E002C075956795F6
:10059000CA95E2F760930041CF9108950F931F939E
:1005A000CF93DF93CDB7DEB728970FB6F894DEBFB1
:1005B0000FBECDBF29833A834B835C836D837E83DB
:1005C0008F83988769817A812B813C814D815E81FF
:1005D0008F819885EAE2F0E0E0930040709300415B
:1005E000609300413093004120930041EBE2F0E042
:1005F000E0930040509300414093004190930041AC
:1006000080930041ECE2F0E0E09300402F5F3F4F29
:10061000261B370B0196841B950B2817390790F47E
:10062000482F4770429FB001439F700D112453E043
:10063000969587955A95E1F7829FA001839F500D6B
:10064000112411C0422F4770489FB001499F700D7F
:10065000112443E0369527954A95E1F7289FA0019C
:10066000299F500D1124862F8770815028F01093F8
:10067000004100930041F9CFCB0123E09695879587
:100680002A95E1F7840F951F019708F11093004117
:1006900000930041109300410093004110930041EA
:1006A00000930041109300410093004110930041DA
:1006B00000930041109300410093004110930041CA
:1006C000009300411093004100930041DDCF289634
:1006D0000FB6F894DEBF0FBECDBFDF91CF911F9153
:1006E0000F910895EF92FF920F931F93CF93DF9393
:1006F000CDB7DEB728970FB6F894DEBF0FBECDBFDB
:1007000029833A834B835C836D837E838F839887B1
:1007100089819A81EB80FC806D817E81AF81B88573
:100720002AE230E020930040909300418093004102
:10073000F0920041E09200412BE230E02093004033
:100740007093004160930041B0930041A093004139
:100750002CE230E020930040E816F906A0F0A80152
:100760009B018A01A217B30760F04E5F5F4FF8014B
:100770000081118110930041009300412F5F3F4F92
:10078000F0CF0196E9CF28960FB6F894DEBF0FBEE2
:10079000CDBFDF91CF911F910F91FF90EF90089502
:1007A0000F931F93CF93DF93CDB7DEB728970FB684
:1007B000F894DEBF0FBECDBFEEE6F2E017821682E0
:1007C000118610861A821982808191810197482FA3
:1007D0009C838B831E821D828281938101979887DF
:1007E0008F830485158520E03A815C8160E07E81FD
:1007F00098850E94CE0228960FB6F894DEBF0FBEF1
:10080000CDBFDF91CF911F910F910895CF93DF93CB
:10081000019729F480E8809361001092610086E0DE
:100820008093750080E8809374003F9A249A8FEC3F
:1008300097E00197F1F700C0000047988FE39CE92B
:100840000197F1F700C00000479A9FEF2DEE82E07C
:10085000915020408040E1F700C0000088E290E025
:100860008093004081E190E0809300409FEF26E775
:1008700081E0915020408040E1F700C0000081E01D
:1008800090E02BEC30E0209300408093004120EC7E
:1008900030E02093004028E036E23093004120937E
:1008A000004140E150E021EC30E0209300404093D3
:1008B000004125EC30E0209300402EE335E33093F7
:1008C00000412093004145EB50E027EC30E02093BD
:1008D00000404093004126EF30E020930040809399
:1008E0000041C0E0D0E0D0930041C093004125E535
:1008F00030E08AE390E0809300402093004181E063
:1009000090E00E9424020E94D0031092750210927F
:100910007402109277021092760210927B0210926B
:100920007A028FEF9FEF909379028093780289E2A9
:1009300090E0809300409FE728E381E091502040C1
:100940008040E1F700C0000085E390E08093004024
:10095000C093004180916A00806280936A002C9A63
:10096000DF91CF9108959F92AF92BF92CF92DF9285
:10097000EF92FF920F931F93CF93DF932091760214
:10098000309177028A30F9F4109275021092740255
:10099000285F3F4F30937702209376028091700258
:1009A000909171022817390708F4A5C0DF91CF9103
:1009B0001F910F91FF90EF90DF90CF90BF90AF907D
:1009C0009F900C94D00390EE980F9F3508F093C041
:1009D0006091740270917502A901495F5F4F082E02
:1009E000000C990B8097E5E0E89FE001E99FD00DAE
:1009F00011248BE290E080930040309300412093DB
:100A000000415093004140930041CB01DB0114961B
:100A10000AE210E0ECE2EE2EF12CA817B90780F103
:100A200000930040909300418093004190930041D7
:100A300080930041E0920040FC01E61BF70BEC0FB5
:100A4000FD1FE253FF4F94906901F1E04C155D05E5
:100A5000A8F0BF2EB92029F0A0907802B0907902BA
:100A600004C0A0907A02B0907B02B0920041A092A4
:100A70000041EFEFCE1ADE0AFF0FE8CF0196CDCF8F
:100A80006AE270E0609300409093004180930041DF
:100A900090930041809300418CE290E0809300406D
:100AA0004217530758F080917A0290917B029093FD
:100AB0000041809300412F5F3F4FF2CF809174023D
:100AC000909175020696909375028093740220911E
:100AD0006E0230916F028217930768F010927502D0
:100AE000109274028091760290917702089690930A
:100AF000770280937602DF91CF911F910F91FF9043
:100B0000EF90DF90CF90BF90AF909F9008950F939C
:100B10001F93CF938C01C0E0F801EC0FF11D808191
:100B2000882321F00E94B304CF5FF6CFCF911F91AD
:100B30000F910895EEE6F2E09783868371876087D0
:100B40000895EEE6F2E093878287758764870895BB
:100B50000F931F93CF938C0170937502609374026F
:100B60005093770240937602C0E0F801EC0FF11D3C
:100B70008081882321F00E94B304CF5FF6CFCF910C
:100B80001F910F9108954F925F926F927F928F9273
:100B90009F92AF92BF92CF92DF92EF92FF92CF934C
:100BA000DF9300D000D000D0CDB7DEB76B017C0161
:100BB0005E834D839B01AC0160E070E080E89FE3C1
:100BC0000E94B22B4B015C0120E030E040E450E495
:100BD0000E94DB2D69837A838B839C83A50194011A
:100BE000C501B4010E94DB2DA50194010E94DB2DFB
:100BF0002B013C01ED81FE816081718180E090E0FC
:100C00000E94CC2C9B01AC01C301B2010E94DB2DE0
:100C10002B013C0129813A814B815C81C501B401E2
:100C20000E94DB2DA70196010E94DB2D4B015C0188
:100C3000ED81FE816281738180E090E00E94CC2C86
:100C40009B01AC01C501B4010E94DB2D9B01AC01ED
:100C5000C301B2010E94B32B4B015C0129813A818F
:100C60004B815C81C701B6010E94DB2DA701960173
:100C70000E94DB2D2B013C01ED81FE816481758199
:100C800080E090E00E94CC2C9B01AC01C301B2013A
:100C90000E94DB2D9B01AC01C501B4010E94B32B66
:100CA0004B015C01A7019601C701B6010E94DB2D33
:100CB000A70196010E94DB2D6B017C01ED81FE8175
:100CC0006681778180E090E00E94CC2C9B01AC0192
:100CD000C701B6010E94DB2D9B01AC01C501B40127
:100CE0000E94B32B0E94962C072E000C880B990BA8
:100CF0000E94CE2C20E030E040E05FE30E94B32B66
:100D00000E94962CCB0126960FB6F894DEBF0FBE3C
:100D1000CDBFDF91CF91FF90EF90DF90CF90BF904C
:100D2000AF909F908F907F906F905F904F900895BD
:100D3000CF92DF92EF92FF926B017C0120E030E0D6
:100D4000A9010E941F2C87FF11C0C701B6010E9494
:100D5000092D9B01AC01C701B6010E94B22B9B017A
:100D6000AC0160E070E080E89FE308C0C701B60115
:100D70000E94092D9B01AC01C701B6010E94B22B54
:100D8000FF90EF90DF90CF9008950E9498069B010E
:100D9000AC0160E070E080E89FE30E94B22B089510
:100DA000CF92DF92EF92FF920F931F93FC0100818D
:100DB000118122813381FB01C080D180E280F380E8
:100DC000FC01C082D182E282F382FB0100831183A5
:100DD000228333831F910F91FF90EF90DF90CF908C
:100DE0000895CF93DF93DC01EB01FA013197E730EF
:100DF000F10508F047C0E45BFF4F0C94662B8D9122
:100E00009C91119733C08D919C91119791958195EB
:100E100091098D939C9336C08D919C9111979195DA
:100E2000819591098D939C9326C08D919C911197EA
:100E300091958195910911969C938E9388819981C2
:100E4000919581959109998388832D913C91119772
:100E50008D939C933983288315C08D919C91119714
:100E600091958195910911969C938E932881398152
:100E70002D933C9305C08881998191958195910925
:100E800099838883DF91CF910895CF93DF93DC011D
:100E9000EB01FA013197E730F10508F047C0ED5A50
:100EA000FF4F0C94662B8D919C91119733C08D91BF
:100EB0009C9111979195819591098D939C9336C042
:100EC0008D919C9111979195819591098D939C930A
:100ED00026C08D919C9111979195819591091196BC
:100EE0009C938E938881998191958195910999839D
:100EF00088832D913C9111978D939C9339832883FE
:100F000015C08D919C91119791958195910911969C
:100F10009C938E93288139812D933C9305C08881C1
:100F2000998191958195910999838883DF91CF91DA
:100F30000895FC0120813181FB0140815181FC0138
:100F400051834083FB01318320830895CF92DF9248
:100F5000EF92FF920F931F93CF93DF938901061BAC
:100F6000170BEA01C81BD90BB801012E000C880B26
:100F7000990B0E94CE2C6B017C01E894F7F8BE011E
:100F80000D2E000C880B990B0E94CE2C9B01AC01FE
:100F90005F77C701B6010E94D62D181694F417FF8B
:100FA00009C02D2F221F2227221F86E090E0821BDE
:100FB000910918C08D2F881F8827881F90E00196FF
:100FC00011C017FF05C0D7FD08C087E090E00AC038
:100FD000D7FD06C080E090E005C084E090E002C04C
:100FE00083E090E0DF91CF911F910F91FF90EF9000
:100FF000DF90CF9008952AE230E020930040909354
:1010000000418093004190930041809300418BE226
:1010100090E0809300407093004160930041709392
:101020000041609300418CE290E080930040509337
:1010300000414093004108952F923F924F925F925A
:101040006F927F928F929F92AF92BF92CF92DF92D8
:10105000EF92FF920F931F93CF93DF93CDB7DEB73D
:10106000A6970FB6F894DEBF0FBECDBF2B013C0193
:1010700069837A838B839C83298B3A8B4B8B5C8B24
:101080002D833E834F835887ED8AFE8A0F8B188FFE
:10109000E986FA860B871C87C601B501AD86BE8638
:1010A000CF86D88A14010E94B22B6B017C01E89490
:1010B000F7F8A30192016D897E898F89988D0E942E
:1010C000B22B9B01AC015F77C701B6010E94B22B26
:1010D000698F7A8F8B8F9C8F20E030E0A9010E946E
:1010E000D62D181674F4BE016F5F7F4FCE010596A2
:1010F0000E94D006BE01675F7F4FCE010D960E9411
:10110000D00629853A854B855C8569817A818B81FA
:101110009C810E94D62D181674F4BE01675F7F4F24
:10112000CE0101960E94D006BE016B5F7F4FCE01BB
:101130000D960E94D006C980DA80EB80FC804D803D
:101140005E806F807884A30192016D857E858F8596
:1011500098890E94B22B4B015C01A7019601698519
:101160007A858B859C850E94B22B9B01AC01C501C1
:10117000B4010E94242C6D8F7E8F8F8F98A320E066
:1011800030E040E05FE3C701B6010E94B32B4B01A2
:101190005C010E94962C698B7A8B8B8B9C8B2989A6
:1011A0003A89B901330F880B990B0E94CE2CA70105
:1011B00096010E94B22B2D8D3E8D4F8D58A10E941D
:1011C000DB2DA30192010E94B32B6B017C01C501B1
:1011D000B4010E94C5064B015C01C701B6010E9423
:1011E0009D2C2B013C0120E030E0A901698D7A8D16
:1011F0008B8D9C8D0E94D62D1816C4F5C701B601A3
:101200000E94C5069B01AC01C501B4010E94DB2D03
:1012100020E030E040E85FE30E94B32BAB01BC016B
:10122000C1010E949701AC0169897A89C2010E94BB
:10123000FB07C701B6010E9498069B01AC01C501DE
:10124000B4010E94DB2D20E030E040E85FE30E9423
:10125000B32BAB01BC01C1010E9497013FEF431AC0
:10126000530AAC0169897A89C20136C0C701B60147
:101270000E94C5069B01AC01C501B4010E94DB2D93
:1012800020E030E040E85FE30E94B32BAB01BC01FB
:10129000C1010E949701AC01B20189899A890E941B
:1012A000FB07C701B6010E9498069B01AC01C5016E
:1012B000B4010E94DB2D20E030E040E85FE30E94B3
:1012C000B32BAB01BC01C1010E949701B2016F5F5A
:1012D0007F4FAC0189899A890E94FB07A70196017B
:1012E0006D8D7E8D8F8D98A10E94B32B2B013C01BB
:1012F000C984DA84EB84FC8420E030E040E05FE3E2
:10130000C701B6010E94B32B4B015C010E94962CD1
:101310006D8B7E8B8F8B988F2D893E89B901330F12
:10132000880B990B0E94CE2CA70196010E94B22B2C
:101330002D8D3E8D4F8D58A10E94DB2D2D853E8534
:101340004F8558890E94B32B6B017C01C501B40104
:101350000E94C5064B015C018D899E899EA38DA3C9
:10136000C701B6010E949D2C69A37AA38BA39CA3FD
:1013700020E030E0A901698D7A8D8B8D9C8D0E94D3
:10138000D62D181664F5C701B6010E94C5069B014B
:10139000AC01C501B4010E94DB2DAB01BC01C10150
:1013A0000E949701AC016D897E8989A19AA10E9452
:1013B000FB07C701B6010E9498069B01AC01C5015D
:1013C000B4010E94DB2DAB01BC01C1010E94970159
:1013D000AC0189A19AA101966D897E892CC0C701B3
:1013E000B6010E94C5069B01AC01C501B4010E9473
:1013F000DB2DAB01BC01C1010E949701AC0169A1C9
:101400007AA18D899E890E94FB07C701B6010E94BF
:1014100098069B01AC01C501B4010E94DB2DAB0114
:10142000BC01C1010E94970169A17AA16F5F7F4F42
:10143000AC018D899E890E94FB0709891A890F5F7B
:101440001F4F8DA19EA10817190708F05FC020E06B
:1014500030E0A901698D7A8D8B8D9C8D0E94D62DEF
:1014600018162CF5C301B2010E94C506AB01BC01E0
:10147000C1010E9497017C01C301B2010E949D2C11
:101480004B015C01A701B801C4010E94FB07C30125
:10149000B2010E949806AB01BC01C1010E949701F4
:1014A0002FEF821A920AAC01B801C40122C0C30115
:1014B000B2010E94C506AB01BC01C1010E949701A7
:1014C0007C01C301B2010E949D2C4B015C01A7016C
:1014D000C8010E94FB07C301B2010E949806AB013C
:1014E000BC01C1010E949701B4016F5F7F4FAC0145
:1014F000C8010E94FB072D8D3E8D4F8D58A1C30161
:10150000B2010E94B32B2B013C0199CFA6960FB6D6
:10151000F894DEBF0FBECDBFDF91CF911F910F9129
:10152000FF90EF90DF90CF90BF90AF909F908F9003
:101530007F906F905F904F903F902F9008952F92E3
:101540003F924F925F926F927F928F929F92AF9253
:10155000BF92CF92DF92EF92FF920F931F93CF93A0
:10156000DF93CDB7DEB760970FB6F894DEBF0FBE3E
:10157000CDBF9E838D8378876F835A8749873C8749
:101580002B871801A8010E94FB072B853C85498504
:101590005A856F8178858D819E810E94A6075C01A6
:1015A000AC01BE01695F7F4FCE0105960E944507E1
:1015B000A501BE01655F7F4FCE0109960E944507D8
:1015C0008F8098840D811E8189859A85801B910B5F
:1015D000CB84DC84C818D908CC0CDD1C0D2C000C85
:1015E000EE08FF08AC01092E000C660B770B2601F4
:1015F0003701441A550A660A770A0F5F1F4F880F92
:10160000991F9C01990F440B550B2D873E874F87DF
:10161000588B89859A858017910774F1D301C2018F
:101620008C0D9D1DAE1DBF1D77FE03C02C013D011D
:101630000DC03FEF831A930A2C013D012D853E8595
:101640004F855889421A530A640A750A1C830B8312
:101650009A828982A501BE016F5F7F4FCE010396FA
:101660000E94F10669817A81A1018B819C810E948F
:10167000FB070F5F1F4FCDCF60960FB6F894DEBF0C
:101680000FBECDBFDF91CF911F910F91FF90EF90D3
:10169000DF90CF90BF90AF909F908F907F906F9092
:1016A0005F904F903F902F9008952F923F924F92CE
:1016B0005F926F927F928F929F92AF92BF92CF92E2
:1016C000DF92EF92FF920F931F93CF93DF93CDB7EB
:1016D000DEB728970FB6F894DEBF0FBECDBF6C0102
:1016E0005B014A0128013901AC0160E070E0CB01E7
:1016F0000E94C305382E292EA50160E070E0CB01C1
:101700000E94C30589839A83780168867F8220E0DE
:1017100030E040E85FE3B201C3010E94B32B9B01BC
:10172000AC01B70188859F810E941F2C87FF2BC0C9
:10173000A601B70188859F810E94C3058B839C8386
:10174000A501B70188859F810E94C3058D839E8373
:1017500084019C014B815C8169817A81832D922D6A
:101760000E949F0A9201A301B70188859F810E9470
:10177000B32B7B0188879F838D8189838E818A83A8
:101780003B802C80C4CF28960FB6F894DEBF0FBEE6
:10179000CDBFDF91CF911F910F91FF90EF90DF9020
:1017A000CF90BF90AF909F908F907F906F905F9001
:1017B0004F903F902F9008952F923F924F925F92BB
:1017C0006F927F928F929F92AF92BF92CF92DF9251
:1017D000EF92FF920F931F93CF93DF93CDB7DEB7B6
:1017E0002C970FB6F894DEBF0FBECDBF9C838B83C2
:1017F0007E836D835A874987922E832EAC0160E0E9
:1018000070E0CB010E94C3057C014D815E8160E0E8
:1018100070E0CB010E94C3055C019801492D582D51
:1018200060E070E080E89FE30E94242C20E030E03C
:1018300040EC5FE30E94B32B0E949D2C7A83698366
:101840009B01220F331F38872F83C9010E94482E26
:10185000782E692E8F8198850E94482E6C018B8787
:10186000DC86EB85FC85A192B192FC87EB87A72CE7
:10187000B62CF501E192F1925F01502E412E140138
:10188000EE24E394F12C89819A81E816F90678F523
:101890004B815C81652D742D832D922D0E94C30593
:1018A00098878F834D815E81652D742D832D922DB8
:1018B0000E94C305EB85FC8581939193FC87EB87A0
:1018C000F5012F813885219331935F019801492DCE
:1018D000582D652D742D832D922D0E94B32B562EDD
:1018E000472E382E292E3FEFE31AF30ACCCFCB82B6
:1018F000DC82E72CF62C812C912C5C0191E0A91A5A
:10190000B1088A149B04E0F4EFEF8E1A9E0AAB81B3
:10191000BC81F70112962D913C911397CD0102964F
:101920009C838B834281538192E0E90EF11C6D917F
:101930007C9109851A85808191810E949F0AE1CF5F
:10194000C6010E94E02E872D962D2C960FB6F89496
:10195000DEBF0FBECDBFDF91CF911F910F91FF90E2
:10196000EF90DF90CF90BF90AF909F908F907F903F
:101970006F905F904F903F902F900C94E02E2F929D
:101980003F924F925F926F927F928F929F92AF920F
:10199000BF92CF92DF92EF92FF920F931F93CF935C
:1019A000DF9300D000D000D0CDB7DEB75C014B0193
:1019B0008A017901C12CD12C1E821D828D819E81CC
:1019C000081719070CF464C0A7014D805E80480C0D
:1019D000591CB201C8018A0D9B1D9C838B830E94F8
:1019E000FB07A7013801680C791CB3018D819E812A
:1019F0008A0D9B1D9A8389830E94FB07A701B3016F
:101A000015018D819E81281A390AC1010E94FB07A8
:101A1000A701B2013501601A710AC3010E94FB07D8
:101A2000A70124018D819E81481A590AB201C30180
:101A30000E94FB07A7013401601A710AB301C101BA
:101A40000E94FB07A701B30189819A810E94FB07CD
:101A5000A701B2018B819C810E94FB071C141D040D
:101A600074F08D819E8101969E838D83880F991FCE
:101A70000196C80ED91E1C141D040CF09FCF0150F6
:101A80001109C801880F991F0196C81AD90A96CF63
:101A900026960FB6F894DEBF0FBECDBFDF91CF9173
:101AA0001F910F91FF90EF90DF90CF90BF90AF907C
:101AB0009F908F907F906F905F904F903F902F906E
:101AC00008954F925F926F927F928F929F92AF9202
:101AD000BF92CF92DF92EF92FF920F931F93CF931B
:101AE000DF93EC017B016A0159014B01820E931EC9
:101AF0003C01640E751EA801B401C3010E94FB07DE
:101B00002E014C185D08A801B401C2010E94FB0718
:101B100047018A189B08A801B401C3010E94FB0772
:101B2000A801B401C2010E94FB0747018C0C9D1C57
:101B300035016C0E7D1EA801B401C3010E94FB0794
:101B4000CA19DB09A801B401CE010E94FB07EC18F9
:101B5000FD08A801B701C3010E94FB07A801B70156
:101B6000CE01DF91CF911F910F91FF90EF90DF9009
:101B7000CF90BF90AF909F908F907F906F905F902D
:101B80004F900C94FB078DB18F748DB98EB1806B23
:101B90008EB987B1837C87B988B18C6388B9EAE64E
:101BA000F0E080818568808308958CB1807349F46A
:101BB00090916702903281F0909167029031E1F448
:101BC00013C08033C9F490916702903129F090914D
:101BD0006702903289F408C0909166029150909308
:101BE00066028033A1F306C0909166029F5F9093D6
:101BF000660202C0882301F3809367028091660227
:101C0000089586B18C7308951F920F920FB60F92AC
:101C100011240BB60F922F933F934F935F936F93C3
:101C20007F938F939F93AF93BF93EF93FF930E9404
:101C3000D50D87EC90E00197F1F700C00000FF910F
:101C4000EF91BF91AF919F918F917F916F915F9134
:101C50004F913F912F910F900BBE0F900FBE0F90A1
:101C60001F9018951F920F920FB60F9211248F9309
:101C700080910201882309F447C0809166021816FA
:101C8000FCF480916C0280936A0280916B028093D5
:101C9000690280916C02882321F080916C0281504E
:101CA0000AC080916B02882341F080916B028150C1
:101CB00080936B0287E080936C0281E080936802DE
:101CC0008091660287FF20C080916C0280936A0237
:101CD00080916B028093690280916C02873030F4AE
:101CE00080916C028F5F80936C020BC080916B02BD
:101CF000873038F480916B028F5F80936B02109273
:101D00006C0281E080936802109266028F910F90BE
:101D10000FBE0F901F90189597E0961B28E0929F9A
:101D2000800D11240895282F26952695269597E055
:101D3000921BFA0190838770FB01808308950F93B3
:101D40001F93CF93DF93CDB7DEB728970FB6F894E4
:101D5000DEBF0FBECDBF8A012EE1829FC0011124DC
:101D6000DC0198968A5B9F4F482F9C838B838EE182
:101D7000689FF0011124CF014E9698878F832A2FF8
:101D8000BA83A9836E2FFE83ED833A815C817E81C5
:101D900098850E94CE0228960FB6F894DEBF0FBE3B
:101DA000CDBFDF91CF911F910F9108950F931F9396
:101DB000CF93DF9300E010E0C0E0D0E0C8018C0FCB
:101DC0009D1F80FD03C04CE255EF02C042E25AE87D
:101DD0006C2F802F0E949F0E2196C830D10571F77D
:101DE0000F5F1F4F0830110539F7DF91CF911F9119
:101DF0000F910895CF93DF9328E0829FE001112493
:101E0000CC57DD4FC60FD11D98819923C9F09EE1B3
:101E1000699FB0011124695F7F4F2EE1829FC0014D
:101E200011248F960E949A058881E0910001F0911B
:101E30000101E80FF11D8081DF91CF910C94B30473
:101E4000DF91CF910895CF93DF938091680288232B
:101E500009F465C0F89490916A0280916902890F33
:101E600080FD03C0CCE2D5EF02C0C2E2DAE8909177
:101E70006902E0916A0287E0891B98E0899FE00D82
:101E8000112488E0E89FF0011124EC53FB4F2081DE
:101E900080917C022823318180917D023823428108
:101EA00080917E024823538180917F025823648170
:101EB0008091800268237581809181027823A681B8
:101EC00080918202E781909183028A239E23A0E081
:101ED0000E94A62B31F080916D02882311F0C7EB90
:101EE000DDEF6091690280916A02AE010E949F0E4F
:101EF0006091690280916A020E94FA0E60916B0201
:101F000080916C0249EF56E40E949F0E60916B0233
:101F100080916C020E94FA0E109268027894DF9110
:101F2000CF910895EF92FF920F931F93CF93DF937A
:101F3000C4ECD4E010E087E0E82E288139814A81A2
:101F40005B816C817D818E819F812896E0917C02EE
:101F50002E23E0917D023E23E0917E024E23E0910C
:101F60007F025E23E09180026E23E09181027E2356
:101F7000F0918202E09183028F239E23A0E00E94D1
:101F8000A62BC9F0812F869586958695FE2CF81A8A
:101F9000012F0770802F8F0D80FD03C04CE255EF9D
:101FA00002C042E25AE86F2D802F0E949F0E6F2DD3
:101FB000802F0E94FA0E1F5F103409F0BECF1092DE
:101FC0007C0210927D0210927E0210927F0210928B
:101FD0008002109281021092820210928302DF919D
:101FE000CF911F910F91FF90EF900895CF93DF93C2
:101FF000C091020180E0D1E067992FC0F89481116F
:1020000003C08091020101C08C2F60916B02882374
:1020100099F080916C0240E054E00E949F0E609124
:102020006B0280916C020E94FA0E109202011092D3
:102030006D020E94920F0EC080916C0249EF56E42F
:102040000E949F0E60916B0280916C020E94FA0EBA
:10205000D0930201789481E0CFCFDF91CF910895A2
:10206000EF92FF920F931F93CF93DF93C4ECD4E0D2
:1020700010E087E0E82E288139814A815B816C81FC
:102080007D818E819F812896E0917C022E23E091B4
:102090007D023E23E0917E024E23E0917F025E238B
:1020A000E09180026E23E09181027E23F091820212
:1020B000E09183028F239E23A0E00E94A62B91F043
:1020C000812F869586958695FE2CF81A47EB5DEF55
:1020D0006F2D012F0770802F0E949F0E6F2D802F74
:1020E0000E94FA0E1F5F103431F6DF91CF911F91DD
:1020F0000F91FF90EF900895CF93DF93D0E0C0E071
:102100006C2F8D2F0E94FA0ECF5FC830C9F7DF5FAA
:10211000D830A9F7DF91CF9108950F931F93CF93F4
:10212000DF9309E012E0C0E0F801D1918F01DD23D7
:1021300079F08FE0C89FB00111246A5E7F4F8FE075
:1021400090E00E949A058D2F0E94B304CF5FECCFE0
:10215000DF91CF911F910F910895122FF32EE42E4E
:10216000D52EC62EB72EA82E992EF894C0E0D0E01A
:1021700087E0882E8C2F869586958695F82DF81BFE
:10218000EC2FE770212F3F2D4E2D5D2D6C2D7B2DDB
:102190008A2D992D0C2F0E948A2B217030E040E06F
:1021A00050E060E070E080E090E0A0E00E94A62BAC
:1021B00019F04FEF5FEF02C040E154E86F2F8E2F10
:1021C0000E949F0E2196C034D105A1F6FFCF3F9209
:1021D0004F925F926F927F928F929F92AF92BF9237
:1021E000CF92DF92EF92FF920F931F93CF93DF93E3
:1021F0007C01E0E0F0E0412C57E0352E14E068E08F
:10220000D62E7BE0C72EAAE0BA2EB9E0AB2ECCE0EA
:102210009C2ED2E08D2E05E0702E83E0682E96E095
:10222000592ED701A40DB11D8C91882309F42FC319
:10223000932D9E1B0F2F28E0929F000D1124AF2F8E
:10224000B0E0823509F463C10CF08FC08E3409F41C
:102250009DC10CF045C0823409F4D7C18B3409F01C
:102260000EC321E030E040E050E060E070E080E04C
:1022700090E00E946F2B0091F402202B0091F50258
:10228000302B0091F602402B0091F702502B009169
:10229000F802602B0091F902702B0091FA02802B5A
:1022A0000091FB02902B2093F4023093F5024093AF
:1022B000F6025093F7026093F8027093F90280934C
:1022C000FA029093FB02CD01C3E0880F991FCA95D3
:1022D000E1F78C579D4F8E0F911DEC015882CFC2B4
:1022E000803509F4D4C0813509F0C9C221E030E05D
:1022F00040E050E060E070E080E090E00E946F2BF2
:102300000091EC02202B0091ED02302B0091EE02A7
:10231000402B0091EF02502B0091F002602B0091B6
:10232000F102702B0091F202802B0091F302902BAE
:102330002093EC023093ED024093EE025093EF02B3
:102340006093F0027093F1028093F2029093F30293
:10235000CD01D3E0880F991FDA95E1F78C579D4F97
:102360008E0F911DEC0178828AC28E3609F4CBC1A2
:102370000CF045C0823609F405C28B3609F07FC2E5
:1023800021E030E040E050E060E070E080E090E08C
:102390000E946F2B00912403202B00912503302BEA
:1023A00000912603402B00912703502B0091280316
:1023B000602B00912903702B00912A03802B009140
:1023C0002B03902B20932403309325034093260363
:1023D00050932703609328037093290380932A0363
:1023E00090932B03CD0123E0880F991F2A95E1F7E5
:1023F0008C579D4F8E0F911DEC01988240C2813702
:1024000009F4FFC1823709F43FC1803709F037C2B0
:1024100021E030E040E050E060E070E080E090E0FB
:102420000E946F2B0091FC02202B0091FD02302BAB
:102430000091FE02402B0091FF02502B00910003FF
:10244000602B00910103702B00910203802B0091FF
:102450000303902B2093FC023093FD024093FE0275
:102460005093FF0260930003709301038093020373
:1024700090930303CD0173E0880F991F7A95E1F7DC
:102480008C579D4F8E0F911DEC013882F8C121E0D1
:1024900030E040E050E060E070E080E090E00E94DA
:1024A0006F2B0091CC02202B0091CD02302B00919C
:1024B000CE02402B0091CF02502B0091D002602B16
:1024C0000091D102702B0091D202802B0091D30297
:1024D000902B2093CC023093CD024093CE025093A8
:1024E000CF026093D0027093D1028093D202909376
:1024F000D302CD0143E0880F991F4A95E1F78C572D
:102500009D4F8E0F911D21E0EC012883B8C121E081
:1025100030E040E050E060E070E080E090E00E9459
:102520006F2B0091E402202B0091E502302B0091EB
:10253000E602402B0091E702502B0091E802602B4D
:102540000091E902702B0091EA02802B0091EB02CE
:10255000902B2093E4023093E5024093E6025093DF
:10256000E7026093E8027093E9028093EA02909395
:10257000EB02CD0133E0880F991F3A95E1F78C57B4
:102580009D4F8E0F911DEC01188379C121E030E041
:1025900040E050E060E070E080E090E00E946F2B4F
:1025A0000091D402202B0091D502302B0091D6024D
:1025B000402B0091D702502B0091D802602B009144
:1025C000D902702B0091DA02802B0091DB02902B54
:1025D0002093D4023093D5024093D6025093D70271
:1025E0006093D8027093D9028093DA029093DB0251
:1025F000CD0123E0880F991F2A95E1F78C579D4F55
:102600008E0F911DEC0188823AC121E030E040E05C
:1026100050E060E070E080E090E00E946F2B00915D
:10262000DC02202B0091DD02302B0091DE02402BDA
:102630000091DF02502B0091E002602B0091E1023B
:10264000702B0091E202802B0091E302902B2093EB
:10265000DC023093DD024093DE025093DF02609390
:10266000E0027093E1028093E2029093E302CD01D5
:1026700003E0880F991F0A95E1F78C579D4F8E0F45
:10268000911DEC016882FBC021E030E040E050E0A9
:1026900060E070E080E090E00E946F2B00911403F6
:1026A000202B00911503302B00911603402B009135
:1026B0001703502B00911803602B00911903702B06
:1026C00000911A03802B00911B03902B209314037D
:1026D0003093150340931603509317036093180328
:1026E0007093190380931A0390931B03CD0163E049
:1026F000880F991F6A95E1F78C579D4F8E0F911D9A
:10270000EC01B882BCC021E030E040E050E060E085
:1027100070E080E090E00E946F2B00910403202B7A
:1027200000910503302B00910603402B0091070315
:10273000502B00910803602B00910903702B00912E
:102740000A03802B00910B03902B209304033093FA
:1027500005034093060350930703609308037093A7
:10276000090380930A0390930B03CD0153E0880F74
:10277000991F5A95E1F78C579D4F8E0F911DEC01D3
:10278000D8827DC021E030E040E050E060E070E0C1
:1027900080E090E00E946F2B00910C03202B0091B1
:1027A0000D03302B00910E03402B00910F03502B93
:1027B00000911003602B00911103702B0091120304
:1027C000802B00911303902B20930C0330930D0367
:1027D00040930E0350930F03609310037093110303
:1027E0008093120390931303CD0143E0880F991F48
:1027F0004A95E1F78C579D4F8E0F911DEC01A882F1
:102800003EC021E030E040E050E060E070E080E079
:1028100090E00E946F2B00911C03202B00911D0360
:10282000302B00911E03402B00911F03502B009171
:102830002003602B00912103702B00912203802B39
:1028400000912303902B20931C0330931D0340938E
:102850001E0350931F036093200370932103809302
:10286000220390932303CD0133E0880F991F3A95FB
:10287000E1F78C579D4F8E0F911DEC01C882179781
:102880001CF0EF5FF0E001C0FF5F4394CACC709191
:10289000CC028091E402782B6091CD028091E50218
:1028A000682B5091CE028091E602582B4091CF02C6
:1028B0008091E702482B3091D0028091E802382BBA
:1028C0002091D1028091E902282B9091D20280912F
:1028D000EA02982BE091D3028091EB028E2BE091DB
:1028E000D4027E2BE091D5026E2BE091D6025E2BB6
:1028F000E091D7024E2BE091D8023E2BE091D90215
:102900002E2BE091DA029E2BE091DB028E2BE091E0
:10291000DC027E2BE091DD026E2BE091DE025E2B6D
:10292000E091DF024E2BE091E0023E2BE091E102CC
:102930002E2BE091E2029E2BE091E3028E2BE091A0
:10294000EC027E2BE091ED026E2BE091EE025E2B0D
:10295000E091EF024E2BE091F0023E2BE091F1026C
:102960002E2BE091F2029E2BE091F3028E2B109120
:10297000F402712BD091F5026D2BC091F6025C2B05
:102980000091F702402BB091F8023B2BA091F90285
:102990002A2BF091FA029F2BE091FB028E2B709371
:1029A0002C0360932D0350932E0340932F033093F9
:1029B00030032093310390933203809333031091BB
:1029C000FC02E09114031E2BD091FD02E09115034F
:1029D000DE2BC091FE02E0911603CE2B0091FF0288
:1029E000E09117030E2BB0910003E0911803BE2B6A
:1029F000A0910103E0911903AE2BF0910203E09145
:102A00001A03FE2BF0900303E0911B03EF29F090D3
:102A100004031F29F0900503DF29F0900603CF2956
:102A2000F09007030F29F0900803BF29F0900903E5
:102A3000AF29F0900A03FF29F0900B03EF29F090E3
:102A40000C031F29F0900D03DF29F0900E03CF290E
:102A5000F0900F030F29F0901003BF29F09011039D
:102A6000AF29F0901203FF29F0901303EF29F090A3
:102A70001C031F29F0901D03DF29F0901E03CF29AE
:102A8000B0901F03B02AC0902003CB2AD09021031E
:102A9000DA2AE0902203EF2AF0902303FE2AE09145
:102AA00024031E2BE0912503DE2BE0912603CE2B81
:102AB000009127030B29B0912803BC29A091290379
:102AC000AD29F0912A03FE29E0912B03EF29109301
:102AD0003403D0933503C093360300933703B09388
:102AE0003803A0933903F0933A03E0933B03712B2F
:102AF0006D2B5C2B042BB32BA22BF92BE82B7093A3
:102B00003C0360933D0350933E0300933F03B09317
:102B10004003A0934103F0934203E0934303E4ECAA
:102B2000F4E0A0E0B0E021E030E040E050E060E020
:102B300070E080E090E00A2F0E946F2B20833183A9
:102B40004283538364837583868397833896119673
:102B5000A034B10541F7DF91CF911F910F91FF9004
:102B6000EF90DF90CF90BF90AF909F908F907F902D
:102B70006F905F904F903F9008952F923F924F92A9
:102B80005F926F927F928F929F92AF92BF92CF92FD
:102B9000DF92EF92FF920F931F93CF93DF93CDB706
:102BA000DEB765970FB6F894DEBF0FBECDBF390113
:102BB0004A016D8B7C8BB82FA92FA88AB98A0A8B02
:102BC0001B8B822F8F778983872D8F778A83842F22
:102BD0008F778B83892D8F778C83162F1F77872F85
:102BE0008F778D838B2F8F778E83892F8F778F832E
:102BF000822F8E7F8887872D8E7F8987842F8E7F77
:102C00008A87892D8E7F8B87862F8E7F8C87872F53
:102C10008E7F8D878B2F8E7F8E87892F8E7F8F87DC
:102C20008B2F08E00E946F2B19012A015B01F82FFE
:102C3000E92F9301A4016D897C898B2F9A2F0E9423
:102C40008A2B222A332A442A552AA62AB72AF82B65
:102C5000E92B29813A814B815C81612F7D818E81B5
:102C60009F8107E00E946F2B222A332A442A552A8B
:102C7000A62AB72AF82BE92B29813A814B815C815E
:102C8000612F7D818E819F8109E00E946F2B222A16
:102C9000332A442A552AA62AB72AF82BE92B298158
:102CA0003A814B815C81612F7D818E819F8101E022
:102CB0000E946F2B222A332A442A552AA62AB72A91
:102CC000F82BE92B288539854A855B856C857D85C0
:102CD0008E859F8507E00E948A2B222A332A442A68
:102CE000552AA62AB72AF82BE92B288539854A8543
:102CF0005B856C857D858E859F8509E00E948A2B8A
:102D0000222A332A442A552AA62AB72AF82BE92B45
:102D1000288539854A855B856C857D858E859F856F
:102D200001E00E948A2B222A332A442A552AA62A05
:102D3000B72AF82BE92B28892095A989A095C0945A
:102D4000D094E094F0948A8980959B899095222173
:102D5000332D3A23442D4C21552D5D216A2D6E21B2
:102D60007B2D7F218F239E2365960FB6F894DEBFBF
:102D70000FBECDBFDF91CF911F910F91FF90EF90CC
:102D8000DF90CF90BF90AF909F908F907F906F908B
:102D90005F904F903F902F9008952F923F924F92C7
:102DA0005F926F927F928F929F92AF92BF92CF92DB
:102DB000DF92EF92FF920F931F93CF93DF93CDB7E4
:102DC000DEB76D970FB6F894DEBF0FBECDBFA88EED
:102DD000B98ECA8E0B8FE22FEC7FE983E32FEC7F55
:102DE000EA83E42FEC7FEB83E52FEC7FEC83E62F87
:102DF000EC7FED83E72FEC7FEE83E82FEC7FEF8312
:102E0000E92FEC7FE887E22FEE7FE987E32FEE7F63
:102E1000EA87E42FEE7FEB87E52FEE7FEC87E62F46
:102E2000EE7FED87E72FEE7FEE87E82FEE7FEF87CF
:102E3000E92FEE7FE88BE22FEF772E2EE32FEF774F
:102E40003E2EE42FEF774E2EE52FEF775E2EE62F06
:102E5000EF776E2EE72FEF77E98BE82FEF77EA8B8E
:102E6000E92FEF77EB8B2F732C8B3F733D8B4F73D9
:102E70004E8B5F735F8B6F736D8F7F737C8FB82FFB
:102E8000BF73A92FAF7329813A814B815C816D811A
:102E90007E818F81988506E00E946F2B722E832E93
:102EA000942EA52EB62EC72EF82FE92F29853A8508
:102EB0004B855C856D857E858F8598890FE00E94A6
:102EC0006F2B722A832A942AA52AB62AC72AF82B9E
:102ED000E92B9101A201662D79898A899B8901E1FB
:102EE0000E946F2B722A832A942AA52AB62AC72AFF
:102EF000F82BE92B2C893D894E895F896D8D7C8D5E
:102F00008B2F9A2F0AE00E946F2B722A832A942A11
:102F1000A52AB62AC72AF82BE92B2C893D894E8988
:102F20005F896D8D7C8D8B2F9A2F06E00E948A2BF6
:102F3000722A832A942AA52AB62AC72AF82BE92BB3
:102F40009101A201662D79898A899B890FE00E94EF
:102F50008A2B722A832A942AA52AB62AC72AF82BF2
:102F6000E92B29853A854B855C856D857E858F8526
:102F7000988901E10E948A2B722A832A942AA52A21
:102F8000B62AC72AF82BE92B29813A814B815C812B
:102F90006D817E818F8198850AE00E948A2B722A3A
:102FA000832A942AA52AB62AC72AF82BE92B288D2A
:102FB0002095B98DB095AA8DA095D094E094F09409
:102FC0008B8D8095912F90952721382D3B23492D6E
:102FD0004A235A2D5D216B2D6E217C2D7F218F235D
:102FE0009E236D960FB6F894DEBF0FBECDBFDF9166
:102FF000CF911F910F91FF90EF90DF90CF90BF90F6
:10300000AF909F908F907F906F905F904F903F9088
:103010002F9008952F923F924F925F926F927F92DE
:103020008F929F92AF92BF92CF92DF92EF92FF92D8
:103030000F931F93CF93DF93CDB7DEB72F970FB6C4
:10304000F894DEBF0FBECDBF29833A83142F5D876E
:103050006C87B72F8B83A92F4CE353E0FA01808153
:1030600080958E87818180958F87428040944C82A5
:10307000538050945D826481A62EA0947581B72EF2
:10308000B0948681E82EE0949781F92EF094412F38
:103090005D856C857B2F8B819A2F08E00E946F2BBA
:1030A000FE85F223FE83EF85E323D42CD422F52D75
:1030B000F523F8876A2169877B217A87882E8E20FD
:1030C000992E9F2029812E7F3A813E7F412F4E7F6E
:1030D0005D855E7F6C856E7F7B2F7E7F8B818E7F93
:1030E0009A2F9E7F07E00E946F2B19012A013B0156
:1030F000C82EF92F29812F773A813F77412F4F77BB
:103100005D855F776C856F777B2F7F778B818F777E
:103110009A2F9F7709E00E946F2B22293329442997
:103120005529662977298C299F2BA4E3B3E02C909D
:1031300022213090350333214090360344215090B2
:103140003703552160903803662170903903772149
:10315000C0903A038C21A0913B039A232E80222A0F
:103160003E2E332A442E4D285884552A6984662AD7
:103170007A84772A882A992A20E030E04D2D50E081
:1031800060E070E080E090E008E00E946F2BEE8548
:103190002E23FF853F23EC814E23FD815F236A218F
:1031A0007B218E219F2122293329442955296629F3
:1031B0007729882999292F960FB6F894DEBF0FBE7C
:1031C000CDBFDF91CF911F910F91FF90EF90DF90D6
:1031D000CF90BF90AF909F908F907F906F905F90B7
:1031E0004F903F902F9008952F923F924F925F9271
:1031F0006F927F928F929F92AF92BF92CF92DF9207
:10320000EF92FF920F931F93CF93DF93CDB7DEB76B
:103210002F970FB6F894DEBF0FBECDBF29833A8338
:10322000142F5D876C87B72F8B83A92F2CE333E096
:10323000F901808180958E87818180958F87428179
:1032400040954C83538150955D836481A62EA09454
:103250007581B72EB0948681E82EE0949781F92E7F
:10326000F09429813A81412F5D856C857B2F8B817C
:103270009A2F08E00E948A2BFE85F223FE83EF85B9
:10328000E323EF83FC81F423F887ED81E5236A21B2
:103290006A87D72EDB20882E8E20992E9F202981A9
:1032A0002E7F3A813E7F412F4E7F5D855E7F6C850C
:1032B0006E7F7B2F7E7F8B818E7F9A2F9E7F09E092
:1032C0000E948A2B19012A013B01C82EF92F29815E
:1032D0002F773A813F77412F4F775D855F776C85F8
:1032E0006F777B2F7F778B818F779A2F9F7707E080
:1032F0000E948A2B222933294429552966297729B6
:103300008C299F2BA4E3B3E02C902221309035032D
:10331000332140903603442150903703552160906B
:1033200038036621709039037721C0903A038C21CD
:10333000A0913B039A232E80222A3F80332A48847F
:10334000442A5E2E552A6A84662A772E7D28882A8A
:10335000992A20E030E040E050E060E07D2D80E000
:1033600090E008E00E948A2BFE852F23EF853E2304
:10337000FC814F23ED815E236A217B218E219F21D9
:103380002229332944295529662977298829992909
:103390002F960FB6F894DEBF0FBECDBFDF91CF9151
:1033A0001F910F91FF90EF90DF90CF90BF90AF9063
:1033B0009F908F907F906F905F904F903F902F9055
:1033C00008952F923F924F925F926F927F928F92C9
:1033D0009F92AF92BF92CF92DF92EF92FF920F93A4
:1033E0001F93CF93DF93CDB7DEB76F970FB6F894E7
:1033F000DEBF0FBECDBF2F8B388F498F5A8F6B8F9B
:103400007C8F8D8F9E8F2CA8BDA9B887BEA9B98748
:10341000BFA9BA87B8ADBB87B9ADBC87BAADBD8708
:10342000BBADBE87A228AF86B885BB29B88BB9854E
:10343000BC29B98BBA85BD29BA8BBB85BE29BB8B8C
:10344000BC85BF29BC8BBD85B02BBD8BBE85B12B88
:10345000BE8B24EC34E03A832983C12CD12CE12C9F
:10346000F12C00E010E01F8EF0E0E0E0A981BA81CD
:103470002C9111963C91119712964C91129713969C
:103480005C91139714966C91149715967C911597EF
:1034900016968C91169717969C9117971896BA8343
:1034A000A983BF892B23B88D3B23B98D4B23BA8DBC
:1034B0005B23BB8D6B23BC8D7B23BD8D8B23BE8D8E
:1034C0009B23A0E00E94A62B09F498C1CF82BC2CBC
:1034D00027E32B150CF44FC028E0B20E38E0B39E62
:1034E000C00111248C539B4FDC013C9011964C90F1
:1034F000119712965C90129713966C9013971496EE
:103500007C90149715968C90159716969C9016970C
:103510001796AC902F85232138893421498945217C
:103520005A8956216B8967217C8978218D89892167
:103530009E899A21A0E00E94A62BF9F0222D23213A
:1035400038853421498545215A8556216B85672167
:103550007C8578218D8589219E859A210E94A62BC4
:1035600051F0D328E428F52806291729BF8DB8295A
:10357000BF8FF929EA29BC2C47C0D328E428F528B5
:1035800006291729BF8DB829BF8FF929EA29A0CFAD
:1035900038EFB30EA8E0BA9EC00111248C539B4FA4
:1035A000DC013C9011964C90119712965C9012970A
:1035B00013966C90139714967C90149715968C9094
:1035C000159716969C9016971796AC902F852321E9
:1035D00038893421498945215A8956216B896721C7
:1035E0007C8978218D8989219E899A21A0E00E9479
:1035F000A62B71F4D328E428F52806291729BF8DB6
:10360000B829BF8FF929EA2927E02B150CF21DC034
:10361000222D232138853421498545215A8556217B
:103620006B8567217C8578218D8589219E859A21EE
:103630000E94A62B51F0D328E428F5280629172943
:10364000BF8DB829BF8FF929EA29BC2DB87FBB836C
:103650008B2F895FBC2C282F30E03E832D838B2D50
:103660000B2C000C990B2D813E81821793070CF0D7
:103670004FC0B3943B2DA8E03A02C00111248C53F3
:103680009B4FDC013C9011964C90119712965C90E8
:10369000129713966C90139714967C901497159626
:1036A0008C90159716969C9016971796AC902F8530
:1036B000232138893421498945215A8956216B892A
:1036C00067217C8978218D8989219E899A21A0E0B2
:1036D0000E94A62B19F1222D2321388534214985FA
:1036E00045215A8556216B8567217C8578218D85FA
:1036F00089219E859A210E94A62B51F0D328E42887
:10370000F52806291729BF8DB829BF8FF929EA297D
:103710003B81232F30E03C832B8348C0D328E4280F
:10372000F52806291729BF8DB829BF8FF929EA295D
:1037300096CFBF81B150BF8328E0B202C0011124EF
:103740008C539B4FDC014C9011965C901197129614
:103750006C90129713967C90139714968C901497F4
:1037600015969C9015971696AC9016971796BC9048
:103770002F85242138893521498946215A895721A5
:103780006B8968217C8979218D898A219E899B2179
:10379000A0E00E94A62BA9F4D428E528F628072942
:1037A0001829BF8DB929BF8FFA29EB29BF818B2F2B
:1037B000BB0F990B2B813C81281739070CF4B9CF2B
:1037C0001DC0222D242138853521498546215A8561
:1037D00057216B8568217C8579218D858A219E857D
:1037E0009B210E94A62B51F0D428E528F628072912
:1037F0001829BF8DB929BF8FFA29EB29C39430E46A
:10380000C31234CE2D2D3E2D4F2D502F612F7F8D85
:103810008F2F9E2F6F960FB6F894DEBF0FBECDBFD1
:10382000DF91CF911F910F91FF90EF90DF90CF909C
:10383000BF90AF909F908F907F906F905F904F90D0
:103840003F902F9008952F923F924F925F926F92E8
:103850007F928F929F92AF92BF92CF92DF92EF9220
:10386000FF920F931F93CF93DF93CDB7DEB7A1974E
:103870000FB6F894DEBF0FBECDBF298F3A8F4B8FA6
:103880005C8F6D8F7E8F8F8F98A32EA8BFA9BA876C
:10389000B8ADBB87B9ADBC87BAADBD87BBADBE8780
:1038A000BCADBF87BDADB88BA228A98ABA85BB299C
:1038B000BA8BBB85BC29BB8BBC85BD29BC8BBD85A8
:1038C000BE29BD8BBE85BF29BE8BBF85B02BBF8BEC
:1038D000B889B12BB88F84EC94E09B838A831986D6
:1038E000D12CE12CF12C00E010E019A2F0E0E0E096
:1038F000AA81BB812C9111963C91119712964C9103
:10390000129713965C91139714966C9114971596D1
:103910007C91159716968C91169717969C911797F0
:103920001896BB83AA83B98D2B23BA8D3B23BB8DFD
:103930004B23BC8D5B23BD8D6B23BE8D7B23BF8D45
:103940008B23B8A19B23A0E00E94A62B09F4C8C139
:103950008985869586958695B7E0B81BBC83B98521
:10396000B770B8872C81B20FBF8387EF289FB00D47
:103970001124BD83C884312CBF5BB9838C2D90E0AA
:1039800007976CF0BD812C8189EF289FB019112415
:10399000B983C884312CBD81B15CBE83A5C0BF8111
:1039A000CB1681F3C3948981830DA8E08A9FC0015F
:1039B00011248C539B4FDC014C9011965C90119715
:1039C00012966C90129713967C90139714968C9085
:1039D000149715969C9015971696AC901697179677
:1039E000BC90B9E03B0E298924213A8935214B89C5
:1039F00046215C8957216D8968217E8979218F89CB
:103A00008A21988D9B21A0E00E94A62BF9F0222DFF
:103A100024213A8535214B8546215C8557216D85CA
:103A200068217E8579218F858A2198899B210E9432
:103A3000A62B09F4A7CFD428E528F62807291829AA
:103A4000B9A1B929B9A3FA29EB299CCFD428E52833
:103A5000F62807291829B9A1B929B9A3FA29EB2908
:103A60008DCFB981CB1609F441C0CA948E81830DE4
:103A700028E0829FC00111248C539B4FDC014C90A5
:103A800011965C90119712966C90129713967C90F9
:103A9000139714968C90149715969C9015971696DC
:103AA000AC9016971796BC90B7E03B0E298924215D
:103AB0003A8935214B8946215C8957216D896821D6
:103AC0007E8979218F898A21988D9B21A0E00E948F
:103AD000A62B91F4D428E528F62807291829B9A19E
:103AE000B929B9A3FA29EB29C110BBCFCC80312C5D
:103AF000BD81B15DB98362C0222D24213A85352173
:103B00004B8546215C8557216D8568217E8579210D
:103B10008F858A2198899B210E94A62B39F3D4286E
:103B2000E528F62807291829B9A1B929B9A3FA293E
:103B3000EB29DCCF8C2D90E007970CF042C0C394AA
:103B40008981830D28E0829FC00111248C539B4FF3
:103B5000DC014C9011965C90119712966C90129724
:103B600013967C90139714968C90149715969C90AE
:103B700015971696AC9016971796BC90B7EF3B0E1C
:103B8000298924213A8935214B8946215C8957218D
:103B90006D8968217E8979218F898A21988D9B2161
:103BA000A0E00E94A62BB1F4D428E528F628072926
:103BB0001829B9A1B929B9A3FA29EB29BF81CB12D8
:103BC000B9CFC884B12CBC81BC19BC83BD81BF5C9A
:103BD000BD8360C0222D24213A8535214B854621A5
:103BE0005C8557216D8568217E8579218F858A21A5
:103BF00098899B210E94A62B21F3D428E528F6283A
:103C000007291829B9A1B929B9A3FA29EB29D9CFCC
:103C1000873008F065C0C3948D818B0D28E0829FAA
:103C2000C00111248C539B4FDC013C9011964C90A9
:103C3000119712965C90129713966C9013971496A6
:103C40007C90149715968C90159716969C901697C5
:103C50001796AC90B9EFBB0E298923213A893421FC
:103C60004B8945215C8956216D8967217E897821A0
:103C70008F898921988D9A21A0E00E94A62B99F422
:103C8000D328E428F52806291729B9A1B829B9A30A
:103C9000F929EA298C818C0D2C2D30E02730310553
:103CA0000CF4B6CF1DC0222D23213A8534214B853B
:103CB00045215C8556216D8567217E8578218F851C
:103CC000892198899A210E94A62B51F0D328E428B3
:103CD000F52806291729B9A1B829B9A3F929EA298C
:103CE000B985BF5FB987B03409F002CE2D2D3E2DC6
:103CF0004F2D502F612F79A18F2F9E2FA1960FB698
:103D0000F894DEBF0FBECDBFDF91CF911F910F9111
:103D1000FF90EF90DF90CF90BF90AF909F908F90EB
:103D20007F906F905F904F903F902F9008952F92CB
:103D30003F924F925F926F927F928F929F92AF923B
:103D4000BF92CF92DF92EF92FF920F931F93CF9388
:103D5000DF93CDB7DEB768970FB6F894DEBF0FBE1E
:103D6000CDBF29833A834B835C836D837E838F83AE
:103D70009887A986BA86CB86DC86ED86FE860F8775
:103D8000188B9DA48EA47FA468A859A84AA83BA814
:103D90002CA82F923F924F925F926F927F928F92B8
:103DA0009F92A984BA84CB84DC84ED84FE840F8541
:103DB000188929813A814B815C816D817E818F8157
:103DC00098850E94E1190FB6F894DEBF0FBECDBFF3
:103DD000298B3A8B4B8B5C8B6D8B7E8B8F8B988F6B
:103DE0002F923F924F925F926F927F928F929F920B
:103DF000A984BA84CB84DC84ED84FE840F85188981
:103E000029813A814B815C816D817E818F8198858A
:103E10000E94231C0FB6F894DEBF0FBECDBFF989F8
:103E20002F2BEA893E2BFB894F2BEC895E2BFD89DA
:103E30006F2BEE897E2BFF898F2BE88D9E2B68964A
:103E40000FB6F894DEBF0FBECDBFDF91CF911F91AB
:103E50000F91FF90EF90DF90CF90BF90AF909F9029
:103E60008F907F906F905F904F903F902F9008952C
:103E70002F923F924F925F926F927F928F929F927A
:103E8000AF92BF92CF92DF92EF92FF920F931F9368
:103E9000CF93DF93CDB7DEB7E0970FB6F894DEBFD0
:103EA0000FBECDBF2091CC023091CD024091CE0209
:103EB0005091CF026091D0027091D1028091D202D4
:103EC0009091D3020E940A1829873A874B875C8712
:103ED0006D877E878F87988BECE2F3E0308041809E
:103EE0005280638074808580968027802091F402C0
:103EF0003091F5024091F6025091F7026091F8027C
:103F00007091F902A32CB42CC52CD62CE72CF82CDC
:103F1000092D122D8091FA029091FB020E94BD158D
:103F2000298B3A8B4B8B5C8B6D8B7E8B8F8B988F19
:103F30002091D4023091D5024091D6025091D702FF
:103F40006091D8027091D9028091DA029091DB02DF
:103F50000E94CD16298F3A8F4B8F5C8F6D8F7E8F8D
:103F60008F8F98A3E4E2F3E0708170956181609592
:103F7000528150954381409534813095258120951B
:103F80009681909587818095E4E3F3E0A081A72353
:103F9000A983718176237A83628165236B83538140
:103FA00054235C83448143234D83358132233E83F4
:103FB000268129232F839781982398872091E402D3
:103FC0003091E5024091E6025091E7026091E802EB
:103FD0007091E9029F930F810F931E811F938D8132
:103FE0008F93EC81EF93FB81FF930A810F931981EB
:103FF0001F93092D122D8091EA029091EB020E94ED
:10400000E1190FB6F894DEBF0FBECDBF29A33AA3C6
:104010004BA35CA36DA37EA38FA398A72091DC0282
:104020003091DD024091DE025091DF026091E002AA
:104030007091E102F885FF930F810F931E811F930A
:104040008D818F93EC81EF93FB81FF930A810F9316
:1040500019811F93092D122D8091E2029091E302A4
:104060000E94231C0FB6F894DEBF0FBECDBF29A758
:104070003AA74BA75CA76DA77EA78FA798AB209107
:10408000EC023091ED024091EE025091EF0260910E
:10409000F0027091F102F885FF930F810F931E815A
:1040A0001F938D818F93EC81EF93FB81FF930A81A6
:1040B0000F9319811F93092D122D8091F202909177
:1040C000F3020E94971E0FB6F894DEBF0FBECDBF5D
:1040D0009984F9899F2A0A851A89012B0A83EB851D
:1040E000FB89EF2BE983BC850C89B02BED851D89FD
:1040F000E12BAE85FE89AF2BFF850F89F02B8888D9
:10410000188D812A098D902A1A810A8D102B1A8305
:1041100019810B8D102B19831C8DB12B0D8DE02B6C
:104120001E8DA12B0F8DF02B18A1812A09A1902A99
:104130001A810AA1102B1A8319810BA1102B198344
:104140001CA1B12B0DA1E02B1EA1A12B0FA1F02BC7
:1041500018A5812A09A5902A1A810AA5102B1A836D
:1041600019810BA5102B19831CA5B12B0DA5E02BD4
:104170001EA5A12B0FA5F02B28A8282829291A81D4
:10418000312B0981402B5B2B6E2B7A2B8F2B9229A5
:10419000E0960FB6F894DEBF0FBECDBFDF91CF9192
:1041A0001F910F91FF90EF90DF90CF90BF90AF9055
:1041B0009F908F907F906F905F904F903F902F9047
:1041C00008952F923F924F925F926F927F928F92BB
:1041D0009F92AF92BF92CF92DF92EF92FF920F9396
:1041E0001F93CF93DF93CDB7DEB7E0970FB6F89468
:1041F000DEBF0FBECDBF2091FC023091FD02409189
:10420000FE025091FF0260910003709101038091C2
:104210000203909103030E940A182F83388749876D
:104220005A876B877C878D879E87E4E3F3E0208045
:104230003180428053806480758086809780E4E27C
:10424000F3E0208131814281538164817581510184
:10425000620173018401868197810E94BD152F87B9
:10426000388B498B5A8B6B8B7C8B8D8B9E8BE4E0D0
:10427000F3E020813181428153816481758186819F
:1042800097810E94CD162F8B388F498F5A8F6B8F55
:104290007C8F8D8F9E8F7091F40270956091F502E6
:1042A00060955091F60250954091F70240953091FB
:1042B000F80230952091F90220959091FA0290959C
:1042C0008091FB028095ECE2F3E0A081A723AFA7E9
:1042D0007181762378AB628165236983538154238E
:1042E0005A83448143234B83358132233C83268187
:1042F00029232D83978198239E83E4E1F3E0208195
:10430000318142815381648175819F931D811F9307
:104310008C818F931B811F938A818F9319811F93A7
:1043200088A98F931FA51F93192D868197810E94BD
:10433000E1190FB6F894DEBF0FBECDBF2F8F38A3A3
:1043400049A35AA36BA37CA38DA39EA3ECE0F3E047
:104350002081318142815381648175811E811F9347
:104360008D818F931C811F938B818F931A811F9353
:1043700089818F9318A91F938FA58F93192D8681FB
:1043800097810E94231C0FB6F894DEBF0FBECDBFED
:104390002FA338A749A75AA76BA77CA78DA79EA7CD
:1043A000ECE1F3E0208131814281538164817581A8
:1043B0001E811F938D818F931C811F938B818F93FF
:1043C0001A811F9389818F9318A91F938FA58F93AB
:1043D000192D868197810E94971E0FB6F894DEBF33
:1043E0000FBECDBF8F80FF858F2A98841889912AB0
:1043F000B985E989BE2BAA85FA89AF2BEB851B8984
:10440000E12BFC851C89F12B6D841D89612A7E843A
:104410001E89712A1F89812A188D912A198DB12B25
:104420001A8DA12B1B8DE12B1C8DF12B1D8D612A6B
:104430001E8D712A1F8D812A18A1912A19A1B12BD5
:104440001AA1A12B1BA1E12B1CA1F12B1DA1612AFB
:104450001EA1712A1FA1812A18A5912A19A5B12B85
:104460001AA5A12B1BA5E12B1CA5F12B1DA5162917
:104470001A831EA51729282939294B2B5A2B6E2B55
:104480007F2BEA818E2B912BE0960FB6F894DEBF3E
:104490000FBECDBFDF91CF911F910F91FF90EF9095
:1044A000DF90CF90BF90AF909F908F907F906F9054
:1044B0005F904F903F902F9008952F923F924F9290
:1044C0005F926F927F928F929F92AF92BF92CF92A4
:1044D000DF92EF92FF920F931F93CF93DF93CDB7AD
:1044E000DEB7A0970FB6F894DEBF0FBECDBF2B830B
:1044F0003C834D835E836F83788789879A8718A36F
:104500000F8F1701D8011C9211961C9211971296C9
:104510001C92129713961C92139714961C92149740
:1045200015961C92159716961C92169717961C9224
:10453000F701108211821282138214821582168270
:10454000178204EC12E09CE2892E93E0992E722FE0
:104550007095632F6095542F50954E8140953F8103
:10456000309528852095982F90958A858095D4013F
:10457000EC91E723EF8711967C9111977623788B46
:1045800012966C9112976523698B13965C91139721
:1045900054235A8B14964C91149743234B8B1596A6
:1045A0003C91159732233C8B16962C911697292314
:1045B0002D8B17969C9198239E8B2B813C814D814E
:1045C0005E816F81788589859A850E940A18F80135
:1045D00060AC262171AC3721E2AD4E23D801DB96C9
:1045E000EC91DB975E23DC965C90DC976521DD9691
:1045F0004C90DD977421DE96EC91DE97FE2FF82328
:10460000DF968C91E82FE923AF8DB8A16C90622AD8
:1046100011967C901197732A12968C911297842B85
:10462000898313968C911397852B8A8314965C90BB
:104630001497562A15964C901597472A16968C91E2
:1046400016978F2B8B8717969C9117979E2B9C877D
:104650006C9211967C921197E9811296EC931297C5
:10466000FA811396FC93139714965C9214971596FF
:104670004C92159716968C93169717969C93D40187
:10468000AC901196BC9011971296CC9012971396FD
:10469000DC9013971496EC9014971596FC90159750
:1046A00016960C91169717961C912B813C814D8183
:1046B0005E816F81788589859A850E94CD16E4E0B8
:1046C000F3E0A0812A23A1813A23A2814A23A38176
:1046D0005A23A4816A23A5817A23A6818A23E781AC
:1046E0009E2326292D8737293E87B981B42BB9838C
:1046F000EA81E52BEA8365296F8B7429788FFB8526
:10470000F82BFB872C85292B2C87ED85AF8DB8A145
:10471000EC9311963C931197F9811296FC931297A2
:104720002A8113962C93139714966C9314971596CD
:104730007C9315977B8516967C9316978C85179698
:104740008C93D401AC901196BC9011971296CC909A
:1047500012971396DC9013971496EC901497159675
:10476000FC90159716960C91169717961C9124E3BA
:10477000622E23E0722EF30187818F9386818F93BF
:1047800085818F9384818F9383818F9382818F938F
:1047900081818F9380818F932B813C814D815E81BC
:1047A0006F81788589859A850E94231C0FB6F894BD
:1047B000DEBF0FBECDBF2901498F5A8F6B8F7C8F13
:1047C0008D8F9E8FECE0F3E0208124213181352113
:1047D0004281B98D4B2353817A8D572364818B8D10
:1047E000682375819C8D79238681AD8D8A2397817D
:1047F000BE8D9B23AD852A2BAF8DB8A12C93BE8592
:104800003B2BAF8DB8A111963C93B9814B2BAF8D4B
:10481000B8A112964C93BA815B2BAF8DB8A11396B9
:104820005C93BF896B2BAF8DB8A114966C93B88D38
:104830007B2BAF8DB8A115967C93BB858B2BAF8D51
:10484000B8A116968C93BC859B2BAF8DB8A11796FB
:104850009C93A080B180C280D380E480F5800681E3
:104860001781BE89BF93ED89EF93FC89FF932B8954
:104870002F933A893F9379897F9388898F939F8576
:104880009F932B813C814D815E816F8178858985E5
:104890009A850E94231C0FB6F894DEBF0FBECDBFD1
:1048A00024213521B98D4B23EA8D5E23FB8D6F23A7
:1048B000EC8DE7237D8D8723AE8D9A23D1014C901B
:1048C00024292C9311965C901197352911963C93CD
:1048D000119712962C911297422B12964C93129785
:1048E00013962C911397522B13965C93139714964F
:1048F0002C911497622B14966C93149715967C91B7
:104900001597272F2E2B15962C93159716962C91CD
:104910001697822B16968C93169717968C9117974D
:10492000982B17969C93F401A080B180C280D3800D
:10493000E480F58006811781D30117968C91179733
:104940008F9316968C9116978F9315968C91159739
:104950008F9314968C9114978F9313968C91139731
:104960008F9312968C9112978F9311968C91119729
:104970008F938C918F932B813C814D815E816F81D0
:10498000788589859A850E94E1190FB6F894DEBF73
:104990000FBECDBF29833A834B875C87562E472EA7
:1049A0008D879E87E4E1F3E0208139812323918183
:1049B0007A819723828184237381752364816521A1
:1049C000558154214681AD854A233781BE853B23DD
:1049D000AF8DB8A11C91212B2C9311962C9111977E
:1049E000922B11969C93119712969C911297892B5A
:1049F00012968C93129713968C911397872B13967C
:104A00008C93139714968C911497862B14968C93F1
:104A1000149715968C911597852B15968C93159751
:104A200016968C911697842B16968C93169717963C
:104A30008C911797832B17968C93A080B180C2809E
:104A4000D380E480F58006811781BE89BF93ED890C
:104A5000EF93FC89FF932B892F933A893F937989B0
:104A60007F9388898F939F859F932B813C814D8174
:104A70005E816F81788589859A850E94E1190FB6DC
:104A8000F894DEBF0FBECDBFB9812B23EA813E2350
:104A9000FB854F23AC855A2365214722BD858B2397
:104AA000EE859E23D1017C91272B2C9311962C917E
:104AB0001197322B11963C93119712962C911297C5
:104AC000422B12964C93129713962C911397522BBC
:104AD00013965C93139714965C901497652914961B
:104AE0006C93149715967C911597472A15964C92BE
:104AF000159716962C911697822B16968C931697CF
:104B000017968C911797982B17969C93F401A08079
:104B1000B180C280D380E480F58006811781D30103
:104B200017968C9117978F9316968C9116978F9353
:104B300015968C9115978F9314968C9114978F934B
:104B400013968C9113978F9312968C9112978F9343
:104B500011968C9111978F938C918F932B813C811F
:104B60004D815E816F81788589859A850E94971E27
:104B70000FB6F894DEBF0FBECDBF29833A832A015A
:104B80003B014C01ECE1F3E0208139812323918149
:104B90007A819723828184237381752164816621C0
:104BA000558157214681482137813921AF8DB8A1E0
:104BB0001C91212B2C9311962C911197922B1196CD
:104BC0009C93119712969C911297892B12968C9315
:104BD000129713968C911397872B13968C93139798
:104BE00014968C911497862B14968C931497159683
:104BF0008C911597852B15968C93159716968C91FD
:104C00001697842B16968C93169717968C91179758
:104C1000832B17968C93A080B180C280D380E480D0
:104C2000F58006811781BE89BF93ED89EF93FC89DA
:104C3000FF932B892F933A893F9379897F938889B2
:104C40008F939F859F932B813C814D815E816F81E6
:104C5000788589859A850E94971E0FB6F894DEBFE5
:104C60000FBECDBFB9812B23EA813E2344215521BC
:104C70006621772288219921D1017C91272B2C93C1
:104C800011962C911197322B11963C9311971296F5
:104C90004C901297442912964C93129713965C905D
:104CA0001397552913965C93139714966C90149749
:104CB000662914966C93149715967C911597772A0C
:104CC00015967C92159716968C90169788291696AD
:104CD0008C93169717969C901797992917969C93E3
:104CE000A0960FB6F894DEBF0FBECDBFDF91CF9177
:104CF0001F910F91FF90EF90DF90CF90BF90AF90FA
:104D00009F908F907F906F905F904F903F902F90EB
:104D100008952F923F924F925F926F927F928F925F
:104D20009F92AF92BF92CF92DF92EF92FF920F933A
:104D30001F93CF93DF93CDB7DEB72B970FB6F894C1
:104D4000DEBF0FBECDBF4801FA86E986D8011C92AE
:104D500011961C92119712961C92129713961C9200
:104D6000139714961C92149715961C9215971696E5
:104D70001C92169717961C92F701108211821282CC
:104D800013821482158216821782E4EC2E2EE2E042
:104D90003E2EF4E34F2EF3E05F2ED201AC9011963D
:104DA000BC9011971296CC9012971396DC901397A3
:104DB0001496EC9014971596FC90159716960C91F6
:104DC000169717961C91ACE26A2EA3E07A2ED301B7
:104DD0001796EC911797EF931696EC911697EF9321
:104DE0001596EC911597EF931496EC911497EF9319
:104DF0001396EC911397EF931296EC911297EF9311
:104E00001196EC911197EF93EC91EF930E94E119B9
:104E10000FB6F894DEBF0FBECDBF29833A834B8314
:104E20005C836D837E838F839887D10190964C91AC
:104E30009097422391963C91BA813B23F10122A1A4
:104E4000FB812F23D10193969C9193979523949660
:104E50008C919497862395967C91BE817B23F1015A
:104E600066A1FF816F23D10197965C91B8855B2382
:104E7000D401EC914E2B4C9311964C911197342BFD
:104E800011963C93119712963C911297232B1296F0
:104E90002C93129713962C911397922B13969C9305
:104EA000139714969C911497892B14968C931497AE
:104EB00015968C911597872B15968C9315971696AA
:104EC0008C911697862B16968C93169717968C9125
:104ED0001797852B17968C93F301A080B180C28021
:104EE000D380E480F58006811781D10190962C91C2
:104EF000909791963C91919792964C919297939618
:104F00009C90939794968C90949795967C90E4E2DD
:104F1000F3E0B0816B2E6094A181A095AB87728184
:104F200070956381609554815095958190958681A7
:104F30008095E781E095D201FC916F221196FC915A
:104F4000BB85BF23BB87D2011296FC9112977F23AA
:104F50001396FC9113976F231496FC9114975F237B
:104F60001596FC9115979F231696FC9116978F2303
:104F70001796FC91EF23EF938F939F935F936F931B
:104F80007F93BB85BF936F92592D682D772DF101CB
:104F900086A197A10E94E1190FB6F894DEBF0FBE5B
:104FA000CDBFB9812B23EA813E23FB814F23AC8106
:104FB0005A23BD816B23EE817E23FF818F23A88539
:104FC0009A23A985BA85EC912E2B2C9311962C91BE
:104FD0001197322B11963C93119712962C911297A0
:104FE000422B12964C93129713962C911397522B97
:104FF00013965C93139714962C911497622B149626
:105000006C93149715962C911597722B15967C938B
:10501000159716962C911697822B16968C931697A9
:1050200017968C911797982B17969C932B960FB6E3
:10503000F894DEBF0FBECDBFDF91CF911F910F91CE
:10504000FF90EF90DF90CF90BF90AF909F908F90A8
:105050007F906F905F904F903F902F9008955F9258
:105060006F927F928F929F92AF92BF92CF92DF9278
:10507000EF92FF920F931F93CF93DF93CDB7DEB7DD
:1050800060970FB6F894DEBF0FBECDBF80910201CE
:105090008111D6C280916D028111D2C290916B02B2
:1050A000E0916C0287E0891B9E2E98E0899F900C0E
:1050B000112419861A861B861C861D861E861F864D
:1050C000188A19821A821B821C821D821E821F82EC
:1050D0001886E0916C0280916B0298E0E99FF001E4
:1050E0001124EC57FD4FE80FF11DE0818E2F90E069
:1050F0008D30910508F09FC2FC01E65AFF4F0C94D9
:10510000662BA0903403B0903503C0903603D09046
:105110003703E0903803F090390300913A0310917F
:105120003B0388E0989EF0011124EC53FB4F208153
:1051300031814281538164817581868197810E948A
:10514000BD1559016A017B018C010E94381F26C0E0
:10515000A0902C03B0902D03C0902E03D0902F036D
:10516000E0903003F090310300913203109133034B
:1051700098E0999EF0011124EC53FB4F208131817E
:105180004281538164817581868197810E94BD151A
:1051900059016A017B018C010E94E1202095309524
:1051A000409550956095709580959095A222A0921B
:1051B0007C02B322B0927D02C422C0927E02D5222C
:1051C000D0927F02E622E0928002F722F0928102E2
:1051D0000823009382021923109383022CC220918A
:1051E00024033091250340912603509127036091B9
:1051F000280370912903FE0139967F018E010F5F0C
:105200001F4F80912A0390912B030E948926A09022
:105210003403B0903503C0903603D0903703E0904C
:105220003803F090390300913A0310913B0388E072
:10523000989EF0011124EC53FB4F20813181428173
:10524000538164817581868197810E94CD16722E6B
:10525000832EB42ED52EF62E172FB82FE92F20939C
:105260007C0230937D0240937E0250937F026093D4
:10527000800270938102809382029093830259800E
:105280006A80AB80CC80ED800E819F80F885252DD3
:10529000362D4A2D5C2D6E2D702F892D9F2FA0E06D
:1052A0000E94A62B09F4C7C18985582A8A85682AD5
:1052B0008B85A82A8C85C82A8D85E82A8E85082B9F
:1052C0008F85982A8889F82B752070927C02862019
:1052D00080927D02BA20B0927E02DC20D0927F02C2
:1052E000FE20F0928002102310938102B921B09326
:1052F0008202EF23E09383029EC1A0902C03B09022
:105300002D03C0902E03D0902F03E0903003F09037
:105310003103009132031091330398E0999EF0011C
:105320001124EC53FB4F20813181428153816481F0
:105330007581868197810E94CD166DC188E0989E07
:10534000F0011124EC53FB4F2081318142815381C4
:1053500064817581868197810E940A185CC198E0FA
:10536000999EF0011124EC53FB4F20813181428141
:10537000538164817581868197810E94F4184BC1A5
:10538000A0903403B0903503C0903603D09037031B
:10539000E0903803F090390300913A0310913B03F9
:1053A00088E0989EF0011124EC53FB4F208131815D
:1053B0004281538164817581809133038F93809101
:1053C00032038F93809131038F93809130038F93B9
:1053D00080912F038F9380912E038F9380912D03C3
:1053E0008F9380912C0333C0A0902C03B0902D0399
:1053F000C0902E03D0902F03E0903003F090310343
:10540000009132031091330388E0989EF00111243B
:10541000EC53FB4F2081318142815381648175813E
:1054200080913B038F9380913A038F93809139034E
:105430008F93809138038F93809137038F9380915E
:1054400036038F93809135038F93809134038F932C
:10545000868197810E94E119D9C0A0903403B09051
:105460003503C0903603D0903703E0903803F090B6
:10547000390300913A0310913B0388E0989EF001B4
:105480001124EC53FB4F208131814281538164818F
:105490007581809133038F93809132038F93809134
:1054A00031038F93809130038F9380912F038F93DB
:1054B00080912E038F9380912D038F9380912C03E5
:1054C00033C0A0902C03B0902D03C0902E03D09039
:1054D0002F03E0903003F0903103009132031091DC
:1054E000330388E0989EF0011124EC53FB4F208198
:1054F0003181428153816481758180913B038F9317
:1055000080913A038F93809139038F938091380370
:105510008F93809137038F93809136038F9380917F
:1055200035038F93809134038F93868197810E94F6
:10553000231C6CC0A0903403B0903503C090360398
:10554000D0903703E0903803F090390300913A038C
:1055500010913B0388E0989EF0011124EC53FB4F1F
:10556000208131814281538164817581809133032F
:105570008F93809132038F93809131038F93809129
:1055800030038F9380912F038F9380912E038F93FD
:1055900080912D038F9380912C0333C0A0902C0316
:1055A000B0902D03C0902E03D0902F03E0903003D5
:1055B000F0903103009132031091330388E0989EFC
:1055C000F0011124EC53FB4F208131814281538142
:1055D0006481758180913B038F9380913A038F930F
:1055E000809139038F93809138038F938091370393
:1055F0008F93809136038F93809135038F938091A1
:1056000034038F93868197810E94971E0FB6F8947A
:10561000DEBF0FBECDBF20937C0230937D0240934E
:105620007E0250937F026093800270938102809388
:105630008202909383020E94301081E080936D0279
:1056400060960FB6F894DEBF0FBECDBFDF91CF914D
:105650001F910F91FF90EF90DF90CF90BF90AF9090
:105660009F908F907F906F905F90089580E88093D7
:105670006100109261000E94C30D8DB380638DBBE9
:105680001092800088E08093810080918100816089
:105690008093810080916F00826080936F0080E032
:1056A00090E00E940604F8940E94D60E87E192E0F2
:1056B0000E94E7100E947C100E948D1078940E9436
:1056C000230F0E94F60F0E942F28F9CFEE0FFF1F25
:1056D0000024001C0BBE0790F691E02D09940F9357
:1056E000083090F0982F872F762F652F542F432F57
:1056F000322F22270850F4CF220F331F441F551F8B
:10570000661F771F881F991F0A95B2F70F9108959A
:1057100097FB10F8169400080F93083098F0085083
:10572000232F342F452F562F672F782F892F902D19
:10573000F4CF0594979587957795679557954795F5
:10574000379527950A95AAF70F9108950024A7FD8C
:1057500000942A1730054005500560057005800546
:10576000900508955058BB27AA270E94CA2B0C9475
:10577000842D0E94762D38F00E947D2D20F039F482
:105780009F3F19F426F40C94732D0EF4E095E7FB7B
:105790000C94442DE92F0E94952D58F3BA176207F7
:1057A00073078407950720F079F4A6F50C94CF2DA4
:1057B0000EF4E0950B2EBA2FA02D0B01B90190012C
:1057C0000C01CA01A0011124FF27591B99F0593F70
:1057D00050F4503E68F11A16F040A22F232F342FB8
:1057E0004427585FF3CF469537952795A795F04006
:1057F0005395C9F77EF41F16BA0B620B730B840B1B
:10580000BAF09150A1F0FF0FBB1F661F771F881FD2
:10581000C2F70EC0BA0F621F731F841F48F487952A
:1058200077956795B795F7959E3F08F0B0CF93951C
:10583000880F08F09927EE0F9795879508950E9495
:10584000202D08F481E008950E94382C0C94842DBA
:105850000E947D2D58F00E94762D40F029F45F3F84
:1058600029F00C94442D51110C94D02D0C94732DCF
:105870000E94952D68F39923B1F3552391F3951B5D
:10588000550BBB27AA2762177307840738F09F5F61
:105890005F4F220F331F441FAA1FA9F335D00E2ECE
:1058A0003AF0E0E832D091505040E695001CCAF73B
:1058B0002BD0FE2F29D0660F771F881FBB1F2617FE
:1058C00037074807AB07B0E809F0BB0B802DBF01D5
:1058D000FF2793585F4F3AF09E3F510578F00C94A4
:1058E000442D0C94D02D5F3FE4F3983ED4F386957D
:1058F00077956795B795F7959F5FC9F7880F911DC5
:105900009695879597F90895E1E0660F771F881FB0
:10591000BB1F621773078407BA0720F0621B730B63
:10592000840BBA0BEE1F88F7E09508950E949D2C1A
:105930006894B1110C94D02D08950E949D2D88F08B
:105940009F5798F0B92F9927B751B0F0E1F0660F43
:10595000771F881F991F1AF0BA95C9F714C0B13084
:1059600091F00E94CF2DB1E008950C94CF2D672FB8
:10597000782F8827B85F39F0B93FCCF386957795B3
:105980006795B395D9F73EF490958095709561959C
:105990007F4F8F4F9F4F0895E89409C097FB3EF4C7
:1059A00090958095709561957F4F8F4F9F4F99236C
:1059B000A9F0F92F96E9BB279395F69587957795EA
:1059C0006795B795F111F8CFFAF4BB0F11F460FFAA
:1059D0001BC06F5F7F4F8F4F9F4F16C0882311F002
:1059E00096E911C0772321F09EE8872F762F05C016
:1059F000662371F096E8862F70E060E02AF09A95B1
:105A0000660F771F881FDAF7880F9695879597F9A5
:105A100008950E94B72D90F09F3748F4911116F029
:105A20000C94D02D60E070E080E89FEB089526F4A0
:105A30001B16611D711D811D0C944A2D0C94652D42
:105A4000990F0008550FAA0BE0E8FEEF161617068F
:105A5000E807F907C0F012161306E407F50798F0F7
:105A6000621B730B840B950B39F40A2661F0232B10
:105A7000242B252B21F408950A2609F4A140A6958C
:105A80008FEF811D811D089597F99F6780E870E071
:105A900060E00895882371F4772321F09850872BD4
:105AA000762F07C0662311F499270DC09051862BDD
:105AB00070E060E02AF09A95660F771F881FDAF78A
:105AC000880F9695879597F908959F3F31F09150EB
:105AD00020F4879577956795B795880F911D9695D2
